{
	"contracts/ds-token/token.sol": {
		"DSToken": {
			"abi": [
				{
					"constant": true,
					"inputs": [],
					"name": "name",
					"outputs": [
						{
							"name": "",
							"type": "bytes32"
						}
					],
					"payable": false,
					"stateMutability": "view",
					"type": "function"
				},
				{
					"constant": false,
					"inputs": [],
					"name": "stop",
					"outputs": [],
					"payable": false,
					"stateMutability": "nonpayable",
					"type": "function"
				},
				{
					"constant": false,
					"inputs": [
						{
							"name": "guy",
							"type": "address"
						},
						{
							"name": "wad",
							"type": "uint256"
						}
					],
					"name": "approve",
					"outputs": [
						{
							"name": "",
							"type": "bool"
						}
					],
					"payable": false,
					"stateMutability": "nonpayable",
					"type": "function"
				},
				{
					"constant": false,
					"inputs": [
						{
							"name": "owner_",
							"type": "address"
						}
					],
					"name": "setOwner",
					"outputs": [],
					"payable": false,
					"stateMutability": "nonpayable",
					"type": "function"
				},
				{
					"constant": true,
					"inputs": [],
					"name": "totalSupply",
					"outputs": [
						{
							"name": "",
							"type": "uint256"
						}
					],
					"payable": false,
					"stateMutability": "view",
					"type": "function"
				},
				{
					"constant": false,
					"inputs": [
						{
							"name": "src",
							"type": "address"
						},
						{
							"name": "dst",
							"type": "address"
						},
						{
							"name": "wad",
							"type": "uint256"
						}
					],
					"name": "transferFrom",
					"outputs": [
						{
							"name": "",
							"type": "bool"
						}
					],
					"payable": false,
					"stateMutability": "nonpayable",
					"type": "function"
				},
				{
					"constant": true,
					"inputs": [],
					"name": "decimals",
					"outputs": [
						{
							"name": "",
							"type": "uint256"
						}
					],
					"payable": false,
					"stateMutability": "view",
					"type": "function"
				},
				{
					"constant": false,
					"inputs": [
						{
							"name": "guy",
							"type": "address"
						},
						{
							"name": "wad",
							"type": "uint256"
						}
					],
					"name": "mint",
					"outputs": [],
					"payable": false,
					"stateMutability": "nonpayable",
					"type": "function"
				},
				{
					"constant": false,
					"inputs": [
						{
							"name": "wad",
							"type": "uint256"
						}
					],
					"name": "burn",
					"outputs": [],
					"payable": false,
					"stateMutability": "nonpayable",
					"type": "function"
				},
				{
					"constant": false,
					"inputs": [
						{
							"name": "name_",
							"type": "bytes32"
						}
					],
					"name": "setName",
					"outputs": [],
					"payable": false,
					"stateMutability": "nonpayable",
					"type": "function"
				},
				{
					"constant": true,
					"inputs": [
						{
							"name": "src",
							"type": "address"
						}
					],
					"name": "balanceOf",
					"outputs": [
						{
							"name": "",
							"type": "uint256"
						}
					],
					"payable": false,
					"stateMutability": "view",
					"type": "function"
				},
				{
					"constant": true,
					"inputs": [],
					"name": "stopped",
					"outputs": [
						{
							"name": "",
							"type": "bool"
						}
					],
					"payable": false,
					"stateMutability": "view",
					"type": "function"
				},
				{
					"constant": false,
					"inputs": [
						{
							"name": "authority_",
							"type": "address"
						}
					],
					"name": "setAuthority",
					"outputs": [],
					"payable": false,
					"stateMutability": "nonpayable",
					"type": "function"
				},
				{
					"constant": true,
					"inputs": [],
					"name": "owner",
					"outputs": [
						{
							"name": "",
							"type": "address"
						}
					],
					"payable": false,
					"stateMutability": "view",
					"type": "function"
				},
				{
					"constant": true,
					"inputs": [],
					"name": "symbol",
					"outputs": [
						{
							"name": "",
							"type": "bytes32"
						}
					],
					"payable": false,
					"stateMutability": "view",
					"type": "function"
				},
				{
					"constant": false,
					"inputs": [
						{
							"name": "guy",
							"type": "address"
						},
						{
							"name": "wad",
							"type": "uint256"
						}
					],
					"name": "burn",
					"outputs": [],
					"payable": false,
					"stateMutability": "nonpayable",
					"type": "function"
				},
				{
					"constant": false,
					"inputs": [
						{
							"name": "wad",
							"type": "uint256"
						}
					],
					"name": "mint",
					"outputs": [],
					"payable": false,
					"stateMutability": "nonpayable",
					"type": "function"
				},
				{
					"constant": false,
					"inputs": [
						{
							"name": "dst",
							"type": "address"
						},
						{
							"name": "wad",
							"type": "uint256"
						}
					],
					"name": "transfer",
					"outputs": [
						{
							"name": "",
							"type": "bool"
						}
					],
					"payable": false,
					"stateMutability": "nonpayable",
					"type": "function"
				},
				{
					"constant": false,
					"inputs": [
						{
							"name": "dst",
							"type": "address"
						},
						{
							"name": "wad",
							"type": "uint256"
						}
					],
					"name": "push",
					"outputs": [],
					"payable": false,
					"stateMutability": "nonpayable",
					"type": "function"
				},
				{
					"constant": false,
					"inputs": [
						{
							"name": "src",
							"type": "address"
						},
						{
							"name": "dst",
							"type": "address"
						},
						{
							"name": "wad",
							"type": "uint256"
						}
					],
					"name": "move",
					"outputs": [],
					"payable": false,
					"stateMutability": "nonpayable",
					"type": "function"
				},
				{
					"constant": false,
					"inputs": [],
					"name": "start",
					"outputs": [],
					"payable": false,
					"stateMutability": "nonpayable",
					"type": "function"
				},
				{
					"constant": true,
					"inputs": [],
					"name": "authority",
					"outputs": [
						{
							"name": "",
							"type": "address"
						}
					],
					"payable": false,
					"stateMutability": "view",
					"type": "function"
				},
				{
					"constant": false,
					"inputs": [
						{
							"name": "guy",
							"type": "address"
						}
					],
					"name": "approve",
					"outputs": [
						{
							"name": "",
							"type": "bool"
						}
					],
					"payable": false,
					"stateMutability": "nonpayable",
					"type": "function"
				},
				{
					"constant": true,
					"inputs": [
						{
							"name": "src",
							"type": "address"
						},
						{
							"name": "guy",
							"type": "address"
						}
					],
					"name": "allowance",
					"outputs": [
						{
							"name": "",
							"type": "uint256"
						}
					],
					"payable": false,
					"stateMutability": "view",
					"type": "function"
				},
				{
					"constant": false,
					"inputs": [
						{
							"name": "src",
							"type": "address"
						},
						{
							"name": "wad",
							"type": "uint256"
						}
					],
					"name": "pull",
					"outputs": [],
					"payable": false,
					"stateMutability": "nonpayable",
					"type": "function"
				},
				{
					"inputs": [
						{
							"name": "symbol_",
							"type": "bytes32"
						}
					],
					"payable": false,
					"stateMutability": "nonpayable",
					"type": "constructor"
				},
				{
					"anonymous": false,
					"inputs": [
						{
							"indexed": true,
							"name": "guy",
							"type": "address"
						},
						{
							"indexed": false,
							"name": "wad",
							"type": "uint256"
						}
					],
					"name": "Mint",
					"type": "event"
				},
				{
					"anonymous": false,
					"inputs": [
						{
							"indexed": true,
							"name": "guy",
							"type": "address"
						},
						{
							"indexed": false,
							"name": "wad",
							"type": "uint256"
						}
					],
					"name": "Burn",
					"type": "event"
				},
				{
					"anonymous": false,
					"inputs": [
						{
							"indexed": true,
							"name": "authority",
							"type": "address"
						}
					],
					"name": "LogSetAuthority",
					"type": "event"
				},
				{
					"anonymous": false,
					"inputs": [
						{
							"indexed": true,
							"name": "owner",
							"type": "address"
						}
					],
					"name": "LogSetOwner",
					"type": "event"
				},
				{
					"anonymous": true,
					"inputs": [
						{
							"indexed": true,
							"name": "sig",
							"type": "bytes4"
						},
						{
							"indexed": true,
							"name": "guy",
							"type": "address"
						},
						{
							"indexed": true,
							"name": "foo",
							"type": "bytes32"
						},
						{
							"indexed": true,
							"name": "bar",
							"type": "bytes32"
						},
						{
							"indexed": false,
							"name": "wad",
							"type": "uint256"
						},
						{
							"indexed": false,
							"name": "fax",
							"type": "bytes"
						}
					],
					"name": "LogNote",
					"type": "event"
				},
				{
					"anonymous": false,
					"inputs": [
						{
							"indexed": true,
							"name": "src",
							"type": "address"
						},
						{
							"indexed": true,
							"name": "guy",
							"type": "address"
						},
						{
							"indexed": false,
							"name": "wad",
							"type": "uint256"
						}
					],
					"name": "Approval",
					"type": "event"
				},
				{
					"anonymous": false,
					"inputs": [
						{
							"indexed": true,
							"name": "src",
							"type": "address"
						},
						{
							"indexed": true,
							"name": "dst",
							"type": "address"
						},
						{
							"indexed": false,
							"name": "wad",
							"type": "uint256"
						}
					],
					"name": "Transfer",
					"type": "event"
				}
			],
			"devdoc": {
				"methods": {}
			},
			"evm": {
				"assembly": "    /* \"contracts/ds-token/token.sol\":834:3004  contract DSToken is DSTokenBase(0), DSStop {... */\n  mstore(0x40, 0x80)\n    /* \"contracts/ds-token/token.sol\":941:943  18 */\n  0x12\n    /* \"contracts/ds-token/token.sol\":913:943  uint256  public  decimals = 18 */\n  0x6\n  sstore\n    /* \"contracts/ds-token/token.sol\":2895:2922  bytes32   public  name = \"\" */\n  0x0\n  0x7\n  swap1\n  not(0x0)\n  and\n  swap1\n  sstore\n    /* \"contracts/ds-token/token.sol\":1001:1075  function DSToken(bytes32 symbol_) public {... */\n  callvalue\n    /* \"--CODEGEN--\":8:17   */\n  dup1\n    /* \"--CODEGEN--\":5:7   */\n  iszero\n  tag_1\n  jumpi\n    /* \"--CODEGEN--\":30:31   */\n  0x0\n    /* \"--CODEGEN--\":27:28   */\n  dup1\n    /* \"--CODEGEN--\":20:32   */\n  revert\n    /* \"--CODEGEN--\":5:7   */\ntag_1:\n    /* \"contracts/ds-token/token.sol\":1001:1075  function DSToken(bytes32 symbol_) public {... */\n  pop\n  mload(0x40)\n  0x20\n  dup1\n  bytecodeSize\n  dup4\n  codecopy\n  dup2\n  add\n  dup1\n  0x40\n  mstore\n  dup2\n  add\n  swap1\n  dup1\n  dup1\n  mload\n  swap1\n  0x20\n  add\n  swap1\n  swap3\n  swap2\n  swap1\n  pop\n  pop\n  pop\n    /* \"contracts/ds-token/token.sol\":866:867  0 */\n  0x0\n    /* \"contracts/ds-token/base.sol\":1139:1145  supply */\n  dup1\n    /* \"contracts/ds-token/base.sol\":1115:1124  _balances */\n  0x1\n    /* \"contracts/ds-token/base.sol\":1115:1136  _balances[msg.sender] */\n  0x0\n    /* \"contracts/ds-token/base.sol\":1125:1135  msg.sender */\n  caller\n    /* \"contracts/ds-token/base.sol\":1115:1136  _balances[msg.sender] */\n  0xffffffffffffffffffffffffffffffffffffffff\n  and\n  0xffffffffffffffffffffffffffffffffffffffff\n  and\n  dup2\n  mstore\n  0x20\n  add\n  swap1\n  dup2\n  mstore\n  0x20\n  add\n  0x0\n  keccak256\n    /* \"contracts/ds-token/base.sol\":1115:1145  _balances[msg.sender] = supply */\n  dup2\n  swap1\n  sstore\n  pop\n    /* \"contracts/ds-token/base.sol\":1165:1171  supply */\n  dup1\n    /* \"contracts/ds-token/base.sol\":1155:1162  _supply */\n  0x0\n    /* \"contracts/ds-token/base.sol\":1155:1171  _supply = supply */\n  dup2\n  swap1\n  sstore\n  pop\n    /* \"contracts/ds-token/base.sol\":1064:1178  function DSTokenBase(uint supply) public {... */\n  pop\n    /* \"contracts/ds-auth/auth.sol\":1106:1116  msg.sender */\n  caller\n    /* \"contracts/ds-auth/auth.sol\":1098:1103  owner */\n  0x4\n  0x0\n    /* \"contracts/ds-auth/auth.sol\":1098:1116  owner = msg.sender */\n  0x100\n  exp\n  dup2\n  sload\n  dup2\n  0xffffffffffffffffffffffffffffffffffffffff\n  mul\n  not\n  and\n  swap1\n  dup4\n  0xffffffffffffffffffffffffffffffffffffffff\n  and\n  mul\n  or\n  swap1\n  sstore\n  pop\n    /* \"contracts/ds-auth/auth.sol\":1143:1153  msg.sender */\n  caller\n    /* \"contracts/ds-auth/auth.sol\":1131:1154  LogSetOwner(msg.sender) */\n  0xffffffffffffffffffffffffffffffffffffffff\n  and\n  0xce241d7ca1f669fee44b6fc00b8eba2df3bb514eed0f6f668f8f89096e81ed94\n  mload(0x40)\n  mload(0x40)\n  dup1\n  swap2\n  sub\n  swap1\n  log2\n    /* \"contracts/ds-token/token.sol\":1061:1068  symbol_ */\n  dup1\n    /* \"contracts/ds-token/token.sol\":1052:1058  symbol */\n  0x5\n    /* \"contracts/ds-token/token.sol\":1052:1068  symbol = symbol_ */\n  dup2\n  not(0x0)\n  and\n  swap1\n  sstore\n  pop\n    /* \"contracts/ds-token/token.sol\":1001:1075  function DSToken(bytes32 symbol_) public {... */\n  pop\n    /* \"contracts/ds-token/token.sol\":834:3004  contract DSToken is DSTokenBase(0), DSStop {... */\n  dataSize(sub_0)\n  dup1\n  dataOffset(sub_0)\n  0x0\n  codecopy\n  0x0\n  return\nstop\n\nsub_0: assembly {\n        /* \"contracts/ds-token/token.sol\":834:3004  contract DSToken is DSTokenBase(0), DSStop {... */\n      mstore(0x40, 0x80)\n      jumpi(tag_1, lt(calldatasize, 0x4))\n      calldataload(0x0)\n      0x100000000000000000000000000000000000000000000000000000000\n      swap1\n      div\n      0xffffffff\n      and\n      dup1\n      0x6fdde03\n      eq\n      tag_2\n      jumpi\n      dup1\n      0x7da68f5\n      eq\n      tag_3\n      jumpi\n      dup1\n      0x95ea7b3\n      eq\n      tag_4\n      jumpi\n      dup1\n      0x13af4035\n      eq\n      tag_5\n      jumpi\n      dup1\n      0x18160ddd\n      eq\n      tag_6\n      jumpi\n      dup1\n      0x23b872dd\n      eq\n      tag_7\n      jumpi\n      dup1\n      0x313ce567\n      eq\n      tag_8\n      jumpi\n      dup1\n      0x40c10f19\n      eq\n      tag_9\n      jumpi\n      dup1\n      0x42966c68\n      eq\n      tag_10\n      jumpi\n      dup1\n      0x5ac801fe\n      eq\n      tag_11\n      jumpi\n      dup1\n      0x70a08231\n      eq\n      tag_12\n      jumpi\n      dup1\n      0x75f12b21\n      eq\n      tag_13\n      jumpi\n      dup1\n      0x7a9e5e4b\n      eq\n      tag_14\n      jumpi\n      dup1\n      0x8da5cb5b\n      eq\n      tag_15\n      jumpi\n      dup1\n      0x95d89b41\n      eq\n      tag_16\n      jumpi\n      dup1\n      0x9dc29fac\n      eq\n      tag_17\n      jumpi\n      dup1\n      0xa0712d68\n      eq\n      tag_18\n      jumpi\n      dup1\n      0xa9059cbb\n      eq\n      tag_19\n      jumpi\n      dup1\n      0xb753a98c\n      eq\n      tag_20\n      jumpi\n      dup1\n      0xbb35783b\n      eq\n      tag_21\n      jumpi\n      dup1\n      0xbe9a6555\n      eq\n      tag_22\n      jumpi\n      dup1\n      0xbf7e214f\n      eq\n      tag_23\n      jumpi\n      dup1\n      0xdaea85c5\n      eq\n      tag_24\n      jumpi\n      dup1\n      0xdd62ed3e\n      eq\n      tag_25\n      jumpi\n      dup1\n      0xf2d5d56b\n      eq\n      tag_26\n      jumpi\n    tag_1:\n      0x0\n      dup1\n      revert\n        /* \"contracts/ds-token/token.sol\":2895:2922  bytes32   public  name = \"\" */\n    tag_2:\n      callvalue\n        /* \"--CODEGEN--\":8:17   */\n      dup1\n        /* \"--CODEGEN--\":5:7   */\n      iszero\n      tag_27\n      jumpi\n        /* \"--CODEGEN--\":30:31   */\n      0x0\n        /* \"--CODEGEN--\":27:28   */\n      dup1\n        /* \"--CODEGEN--\":20:32   */\n      revert\n        /* \"--CODEGEN--\":5:7   */\n    tag_27:\n        /* \"contracts/ds-token/token.sol\":2895:2922  bytes32   public  name = \"\" */\n      pop\n      tag_28\n      jump(tag_29)\n    tag_28:\n      mload(0x40)\n      dup1\n      dup3\n      not(0x0)\n      and\n      not(0x0)\n      and\n      dup2\n      mstore\n      0x20\n      add\n      swap2\n      pop\n      pop\n      mload(0x40)\n      dup1\n      swap2\n      sub\n      swap1\n      return\n        /* \"contracts/ds-stop/stop.sol\":981:1045  function stop() public auth note {... */\n    tag_3:\n      callvalue\n        /* \"--CODEGEN--\":8:17   */\n      dup1\n        /* \"--CODEGEN--\":5:7   */\n      iszero\n      tag_30\n      jumpi\n        /* \"--CODEGEN--\":30:31   */\n      0x0\n        /* \"--CODEGEN--\":27:28   */\n      dup1\n        /* \"--CODEGEN--\":20:32   */\n      revert\n        /* \"--CODEGEN--\":5:7   */\n    tag_30:\n        /* \"contracts/ds-stop/stop.sol\":981:1045  function stop() public auth note {... */\n      pop\n      tag_31\n      jump(tag_32)\n    tag_31:\n      stop\n        /* \"contracts/ds-token/token.sol\":1296:1415  function approve(address guy, uint wad) public stoppable returns (bool) {... */\n    tag_4:\n      callvalue\n        /* \"--CODEGEN--\":8:17   */\n      dup1\n        /* \"--CODEGEN--\":5:7   */\n      iszero\n      tag_33\n      jumpi\n        /* \"--CODEGEN--\":30:31   */\n      0x0\n        /* \"--CODEGEN--\":27:28   */\n      dup1\n        /* \"--CODEGEN--\":20:32   */\n      revert\n        /* \"--CODEGEN--\":5:7   */\n    tag_33:\n        /* \"contracts/ds-token/token.sol\":1296:1415  function approve(address guy, uint wad) public stoppable returns (bool) {... */\n      pop\n      tag_34\n      0x4\n      dup1\n      calldatasize\n      sub\n      dup2\n      add\n      swap1\n      dup1\n      dup1\n      calldataload\n      0xffffffffffffffffffffffffffffffffffffffff\n      and\n      swap1\n      0x20\n      add\n      swap1\n      swap3\n      swap2\n      swap1\n      dup1\n      calldataload\n      swap1\n      0x20\n      add\n      swap1\n      swap3\n      swap2\n      swap1\n      pop\n      pop\n      pop\n      jump(tag_35)\n    tag_34:\n      mload(0x40)\n      dup1\n      dup3\n      iszero\n      iszero\n      iszero\n      iszero\n      dup2\n      mstore\n      0x20\n      add\n      swap2\n      pop\n      pop\n      mload(0x40)\n      dup1\n      swap2\n      sub\n      swap1\n      return\n        /* \"contracts/ds-auth/auth.sol\":1167:1297  function setOwner(address owner_)... */\n    tag_5:\n      callvalue\n        /* \"--CODEGEN--\":8:17   */\n      dup1\n        /* \"--CODEGEN--\":5:7   */\n      iszero\n      tag_36\n      jumpi\n        /* \"--CODEGEN--\":30:31   */\n      0x0\n        /* \"--CODEGEN--\":27:28   */\n      dup1\n        /* \"--CODEGEN--\":20:32   */\n      revert\n        /* \"--CODEGEN--\":5:7   */\n    tag_36:\n        /* \"contracts/ds-auth/auth.sol\":1167:1297  function setOwner(address owner_)... */\n      pop\n      tag_37\n      0x4\n      dup1\n      calldatasize\n      sub\n      dup2\n      add\n      swap1\n      dup1\n      dup1\n      calldataload\n      0xffffffffffffffffffffffffffffffffffffffff\n      and\n      swap1\n      0x20\n      add\n      swap1\n      swap3\n      swap2\n      swap1\n      pop\n      pop\n      pop\n      jump(tag_38)\n    tag_37:\n      stop\n        /* \"contracts/ds-token/base.sol\":1184:1265  function totalSupply() public view returns (uint) {... */\n    tag_6:\n      callvalue\n        /* \"--CODEGEN--\":8:17   */\n      dup1\n        /* \"--CODEGEN--\":5:7   */\n      iszero\n      tag_39\n      jumpi\n        /* \"--CODEGEN--\":30:31   */\n      0x0\n        /* \"--CODEGEN--\":27:28   */\n      dup1\n        /* \"--CODEGEN--\":20:32   */\n      revert\n        /* \"--CODEGEN--\":5:7   */\n    tag_39:\n        /* \"contracts/ds-token/base.sol\":1184:1265  function totalSupply() public view returns (uint) {... */\n      pop\n      tag_40\n      jump(tag_41)\n    tag_40:\n      mload(0x40)\n      dup1\n      dup3\n      dup2\n      mstore\n      0x20\n      add\n      swap2\n      pop\n      pop\n      mload(0x40)\n      dup1\n      swap2\n      sub\n      swap1\n      return\n        /* \"contracts/ds-token/token.sol\":1421:1872  function transferFrom(address src, address dst, uint wad)... */\n    tag_7:\n      callvalue\n        /* \"--CODEGEN--\":8:17   */\n      dup1\n        /* \"--CODEGEN--\":5:7   */\n      iszero\n      tag_42\n      jumpi\n        /* \"--CODEGEN--\":30:31   */\n      0x0\n        /* \"--CODEGEN--\":27:28   */\n      dup1\n        /* \"--CODEGEN--\":20:32   */\n      revert\n        /* \"--CODEGEN--\":5:7   */\n    tag_42:\n        /* \"contracts/ds-token/token.sol\":1421:1872  function transferFrom(address src, address dst, uint wad)... */\n      pop\n      tag_43\n      0x4\n      dup1\n      calldatasize\n      sub\n      dup2\n      add\n      swap1\n      dup1\n      dup1\n      calldataload\n      0xffffffffffffffffffffffffffffffffffffffff\n      and\n      swap1\n      0x20\n      add\n      swap1\n      swap3\n      swap2\n      swap1\n      dup1\n      calldataload\n      0xffffffffffffffffffffffffffffffffffffffff\n      and\n      swap1\n      0x20\n      add\n      swap1\n      swap3\n      swap2\n      swap1\n      dup1\n      calldataload\n      swap1\n      0x20\n      add\n      swap1\n      swap3\n      swap2\n      swap1\n      pop\n      pop\n      pop\n      jump(tag_44)\n    tag_43:\n      mload(0x40)\n      dup1\n      dup3\n      iszero\n      iszero\n      iszero\n      iszero\n      dup2\n      mstore\n      0x20\n      add\n      swap2\n      pop\n      pop\n      mload(0x40)\n      dup1\n      swap2\n      sub\n      swap1\n      return\n        /* \"contracts/ds-token/token.sol\":913:943  uint256  public  decimals = 18 */\n    tag_8:\n      callvalue\n        /* \"--CODEGEN--\":8:17   */\n      dup1\n        /* \"--CODEGEN--\":5:7   */\n      iszero\n      tag_45\n      jumpi\n        /* \"--CODEGEN--\":30:31   */\n      0x0\n        /* \"--CODEGEN--\":27:28   */\n      dup1\n        /* \"--CODEGEN--\":20:32   */\n      revert\n        /* \"--CODEGEN--\":5:7   */\n    tag_45:\n        /* \"contracts/ds-token/token.sol\":913:943  uint256  public  decimals = 18 */\n      pop\n      tag_46\n      jump(tag_47)\n    tag_46:\n      mload(0x40)\n      dup1\n      dup3\n      dup2\n      mstore\n      0x20\n      add\n      swap2\n      pop\n      pop\n      mload(0x40)\n      dup1\n      swap2\n      sub\n      swap1\n      return\n        /* \"contracts/ds-token/token.sol\":2333:2511  function mint(address guy, uint wad) public auth stoppable {... */\n    tag_9:\n      callvalue\n        /* \"--CODEGEN--\":8:17   */\n      dup1\n        /* \"--CODEGEN--\":5:7   */\n      iszero\n      tag_48\n      jumpi\n        /* \"--CODEGEN--\":30:31   */\n      0x0\n        /* \"--CODEGEN--\":27:28   */\n      dup1\n        /* \"--CODEGEN--\":20:32   */\n      revert\n        /* \"--CODEGEN--\":5:7   */\n    tag_48:\n        /* \"contracts/ds-token/token.sol\":2333:2511  function mint(address guy, uint wad) public auth stoppable {... */\n      pop\n      tag_49\n      0x4\n      dup1\n      calldatasize\n      sub\n      dup2\n      add\n      swap1\n      dup1\n      dup1\n      calldataload\n      0xffffffffffffffffffffffffffffffffffffffff\n      and\n      swap1\n      0x20\n      add\n      swap1\n      swap3\n      swap2\n      swap1\n      dup1\n      calldataload\n      swap1\n      0x20\n      add\n      swap1\n      swap3\n      swap2\n      swap1\n      pop\n      pop\n      pop\n      jump(tag_50)\n    tag_49:\n      stop\n        /* \"contracts/ds-token/token.sol\":2259:2328  function burn(uint wad) public {... */\n    tag_10:\n      callvalue\n        /* \"--CODEGEN--\":8:17   */\n      dup1\n        /* \"--CODEGEN--\":5:7   */\n      iszero\n      tag_51\n      jumpi\n        /* \"--CODEGEN--\":30:31   */\n      0x0\n        /* \"--CODEGEN--\":27:28   */\n      dup1\n        /* \"--CODEGEN--\":20:32   */\n      revert\n        /* \"--CODEGEN--\":5:7   */\n    tag_51:\n        /* \"contracts/ds-token/token.sol\":2259:2328  function burn(uint wad) public {... */\n      pop\n      tag_52\n      0x4\n      dup1\n      calldatasize\n      sub\n      dup2\n      add\n      swap1\n      dup1\n      dup1\n      calldataload\n      swap1\n      0x20\n      add\n      swap1\n      swap3\n      swap2\n      swap1\n      pop\n      pop\n      pop\n      jump(tag_53)\n    tag_52:\n      stop\n        /* \"contracts/ds-token/token.sol\":2929:3002  function setName(bytes32 name_) public auth {... */\n    tag_11:\n      callvalue\n        /* \"--CODEGEN--\":8:17   */\n      dup1\n        /* \"--CODEGEN--\":5:7   */\n      iszero\n      tag_54\n      jumpi\n        /* \"--CODEGEN--\":30:31   */\n      0x0\n        /* \"--CODEGEN--\":27:28   */\n      dup1\n        /* \"--CODEGEN--\":20:32   */\n      revert\n        /* \"--CODEGEN--\":5:7   */\n    tag_54:\n        /* \"contracts/ds-token/token.sol\":2929:3002  function setName(bytes32 name_) public auth {... */\n      pop\n      tag_55\n      0x4\n      dup1\n      calldatasize\n      sub\n      dup2\n      add\n      swap1\n      dup1\n      dup1\n      calldataload\n      not(0x0)\n      and\n      swap1\n      0x20\n      add\n      swap1\n      swap3\n      swap2\n      swap1\n      pop\n      pop\n      pop\n      jump(tag_56)\n    tag_55:\n      stop\n        /* \"contracts/ds-token/base.sol\":1270:1367  function balanceOf(address src) public view returns (uint) {... */\n    tag_12:\n      callvalue\n        /* \"--CODEGEN--\":8:17   */\n      dup1\n        /* \"--CODEGEN--\":5:7   */\n      iszero\n      tag_57\n      jumpi\n        /* \"--CODEGEN--\":30:31   */\n      0x0\n        /* \"--CODEGEN--\":27:28   */\n      dup1\n        /* \"--CODEGEN--\":20:32   */\n      revert\n        /* \"--CODEGEN--\":5:7   */\n    tag_57:\n        /* \"contracts/ds-token/base.sol\":1270:1367  function balanceOf(address src) public view returns (uint) {... */\n      pop\n      tag_58\n      0x4\n      dup1\n      calldatasize\n      sub\n      dup2\n      add\n      swap1\n      dup1\n      dup1\n      calldataload\n      0xffffffffffffffffffffffffffffffffffffffff\n      and\n      swap1\n      0x20\n      add\n      swap1\n      swap3\n      swap2\n      swap1\n      pop\n      pop\n      pop\n      jump(tag_59)\n    tag_58:\n      mload(0x40)\n      dup1\n      dup3\n      dup2\n      mstore\n      0x20\n      add\n      swap2\n      pop\n      pop\n      mload(0x40)\n      dup1\n      swap2\n      sub\n      swap1\n      return\n        /* \"contracts/ds-stop/stop.sol\":864:883  bool public stopped */\n    tag_13:\n      callvalue\n        /* \"--CODEGEN--\":8:17   */\n      dup1\n        /* \"--CODEGEN--\":5:7   */\n      iszero\n      tag_60\n      jumpi\n        /* \"--CODEGEN--\":30:31   */\n      0x0\n        /* \"--CODEGEN--\":27:28   */\n      dup1\n        /* \"--CODEGEN--\":20:32   */\n      revert\n        /* \"--CODEGEN--\":5:7   */\n    tag_60:\n        /* \"contracts/ds-stop/stop.sol\":864:883  bool public stopped */\n      pop\n      tag_61\n      jump(tag_62)\n    tag_61:\n      mload(0x40)\n      dup1\n      dup3\n      iszero\n      iszero\n      iszero\n      iszero\n      dup2\n      mstore\n      0x20\n      add\n      swap2\n      pop\n      pop\n      mload(0x40)\n      dup1\n      swap2\n      sub\n      swap1\n      return\n        /* \"contracts/ds-auth/auth.sol\":1303:1470  function setAuthority(DSAuthority authority_)... */\n    tag_14:\n      callvalue\n        /* \"--CODEGEN--\":8:17   */\n      dup1\n        /* \"--CODEGEN--\":5:7   */\n      iszero\n      tag_63\n      jumpi\n        /* \"--CODEGEN--\":30:31   */\n      0x0\n        /* \"--CODEGEN--\":27:28   */\n      dup1\n        /* \"--CODEGEN--\":20:32   */\n      revert\n        /* \"--CODEGEN--\":5:7   */\n    tag_63:\n        /* \"contracts/ds-auth/auth.sol\":1303:1470  function setAuthority(DSAuthority authority_)... */\n      pop\n      tag_64\n      0x4\n      dup1\n      calldatasize\n      sub\n      dup2\n      add\n      swap1\n      dup1\n      dup1\n      calldataload\n      0xffffffffffffffffffffffffffffffffffffffff\n      and\n      swap1\n      0x20\n      add\n      swap1\n      swap3\n      swap2\n      swap1\n      pop\n      pop\n      pop\n      jump(tag_65)\n    tag_64:\n      stop\n        /* \"contracts/ds-auth/auth.sol\":1039:1060  address public  owner */\n    tag_15:\n      callvalue\n        /* \"--CODEGEN--\":8:17   */\n      dup1\n        /* \"--CODEGEN--\":5:7   */\n      iszero\n      tag_66\n      jumpi\n        /* \"--CODEGEN--\":30:31   */\n      0x0\n        /* \"--CODEGEN--\":27:28   */\n      dup1\n        /* \"--CODEGEN--\":20:32   */\n      revert\n        /* \"--CODEGEN--\":5:7   */\n    tag_66:\n        /* \"contracts/ds-auth/auth.sol\":1039:1060  address public  owner */\n      pop\n      tag_67\n      jump(tag_68)\n    tag_67:\n      mload(0x40)\n      dup1\n      dup3\n      0xffffffffffffffffffffffffffffffffffffffff\n      and\n      0xffffffffffffffffffffffffffffffffffffffff\n      and\n      dup2\n      mstore\n      0x20\n      add\n      swap2\n      pop\n      pop\n      mload(0x40)\n      dup1\n      swap2\n      sub\n      swap1\n      return\n        /* \"contracts/ds-token/token.sol\":884:907  bytes32  public  symbol */\n    tag_16:\n      callvalue\n        /* \"--CODEGEN--\":8:17   */\n      dup1\n        /* \"--CODEGEN--\":5:7   */\n      iszero\n      tag_69\n      jumpi\n        /* \"--CODEGEN--\":30:31   */\n      0x0\n        /* \"--CODEGEN--\":27:28   */\n      dup1\n        /* \"--CODEGEN--\":20:32   */\n      revert\n        /* \"--CODEGEN--\":5:7   */\n    tag_69:\n        /* \"contracts/ds-token/token.sol\":884:907  bytes32  public  symbol */\n      pop\n      tag_70\n      jump(tag_71)\n    tag_70:\n      mload(0x40)\n      dup1\n      dup3\n      not(0x0)\n      and\n      not(0x0)\n      and\n      dup2\n      mstore\n      0x20\n      add\n      swap2\n      pop\n      pop\n      mload(0x40)\n      dup1\n      swap2\n      sub\n      swap1\n      return\n        /* \"contracts/ds-token/token.sol\":2516:2862  function burn(address guy, uint wad) public auth stoppable {... */\n    tag_17:\n      callvalue\n        /* \"--CODEGEN--\":8:17   */\n      dup1\n        /* \"--CODEGEN--\":5:7   */\n      iszero\n      tag_72\n      jumpi\n        /* \"--CODEGEN--\":30:31   */\n      0x0\n        /* \"--CODEGEN--\":27:28   */\n      dup1\n        /* \"--CODEGEN--\":20:32   */\n      revert\n        /* \"--CODEGEN--\":5:7   */\n    tag_72:\n        /* \"contracts/ds-token/token.sol\":2516:2862  function burn(address guy, uint wad) public auth stoppable {... */\n      pop\n      tag_73\n      0x4\n      dup1\n      calldatasize\n      sub\n      dup2\n      add\n      swap1\n      dup1\n      dup1\n      calldataload\n      0xffffffffffffffffffffffffffffffffffffffff\n      and\n      swap1\n      0x20\n      add\n      swap1\n      swap3\n      swap2\n      swap1\n      dup1\n      calldataload\n      swap1\n      0x20\n      add\n      swap1\n      swap3\n      swap2\n      swap1\n      pop\n      pop\n      pop\n      jump(tag_74)\n    tag_73:\n      stop\n        /* \"contracts/ds-token/token.sol\":2185:2254  function mint(uint wad) public {... */\n    tag_18:\n      callvalue\n        /* \"--CODEGEN--\":8:17   */\n      dup1\n        /* \"--CODEGEN--\":5:7   */\n      iszero\n      tag_75\n      jumpi\n        /* \"--CODEGEN--\":30:31   */\n      0x0\n        /* \"--CODEGEN--\":27:28   */\n      dup1\n        /* \"--CODEGEN--\":20:32   */\n      revert\n        /* \"--CODEGEN--\":5:7   */\n    tag_75:\n        /* \"contracts/ds-token/token.sol\":2185:2254  function mint(uint wad) public {... */\n      pop\n      tag_76\n      0x4\n      dup1\n      calldatasize\n      sub\n      dup2\n      add\n      swap1\n      dup1\n      dup1\n      calldataload\n      swap1\n      0x20\n      add\n      swap1\n      swap3\n      swap2\n      swap1\n      pop\n      pop\n      pop\n      jump(tag_77)\n    tag_76:\n      stop\n        /* \"contracts/ds-token/base.sol\":1494:1615  function transfer(address dst, uint wad) public returns (bool) {... */\n    tag_19:\n      callvalue\n        /* \"--CODEGEN--\":8:17   */\n      dup1\n        /* \"--CODEGEN--\":5:7   */\n      iszero\n      tag_78\n      jumpi\n        /* \"--CODEGEN--\":30:31   */\n      0x0\n        /* \"--CODEGEN--\":27:28   */\n      dup1\n        /* \"--CODEGEN--\":20:32   */\n      revert\n        /* \"--CODEGEN--\":5:7   */\n    tag_78:\n        /* \"contracts/ds-token/base.sol\":1494:1615  function transfer(address dst, uint wad) public returns (bool) {... */\n      pop\n      tag_79\n      0x4\n      dup1\n      calldatasize\n      sub\n      dup2\n      add\n      swap1\n      dup1\n      dup1\n      calldataload\n      0xffffffffffffffffffffffffffffffffffffffff\n      and\n      swap1\n      0x20\n      add\n      swap1\n      swap3\n      swap2\n      swap1\n      dup1\n      calldataload\n      swap1\n      0x20\n      add\n      swap1\n      swap3\n      swap2\n      swap1\n      pop\n      pop\n      pop\n      jump(tag_80)\n    tag_79:\n      mload(0x40)\n      dup1\n      dup3\n      iszero\n      iszero\n      iszero\n      iszero\n      dup2\n      mstore\n      0x20\n      add\n      swap2\n      pop\n      pop\n      mload(0x40)\n      dup1\n      swap2\n      sub\n      swap1\n      return\n        /* \"contracts/ds-token/token.sol\":1878:1973  function push(address dst, uint wad) public {... */\n    tag_20:\n      callvalue\n        /* \"--CODEGEN--\":8:17   */\n      dup1\n        /* \"--CODEGEN--\":5:7   */\n      iszero\n      tag_81\n      jumpi\n        /* \"--CODEGEN--\":30:31   */\n      0x0\n        /* \"--CODEGEN--\":27:28   */\n      dup1\n        /* \"--CODEGEN--\":20:32   */\n      revert\n        /* \"--CODEGEN--\":5:7   */\n    tag_81:\n        /* \"contracts/ds-token/token.sol\":1878:1973  function push(address dst, uint wad) public {... */\n      pop\n      tag_82\n      0x4\n      dup1\n      calldatasize\n      sub\n      dup2\n      add\n      swap1\n      dup1\n      dup1\n      calldataload\n      0xffffffffffffffffffffffffffffffffffffffff\n      and\n      swap1\n      0x20\n      add\n      swap1\n      swap3\n      swap2\n      swap1\n      dup1\n      calldataload\n      swap1\n      0x20\n      add\n      swap1\n      swap3\n      swap2\n      swap1\n      pop\n      pop\n      pop\n      jump(tag_83)\n    tag_82:\n      stop\n        /* \"contracts/ds-token/token.sol\":2078:2179  function move(address src, address dst, uint wad) public {... */\n    tag_21:\n      callvalue\n        /* \"--CODEGEN--\":8:17   */\n      dup1\n        /* \"--CODEGEN--\":5:7   */\n      iszero\n      tag_84\n      jumpi\n        /* \"--CODEGEN--\":30:31   */\n      0x0\n        /* \"--CODEGEN--\":27:28   */\n      dup1\n        /* \"--CODEGEN--\":20:32   */\n      revert\n        /* \"--CODEGEN--\":5:7   */\n    tag_84:\n        /* \"contracts/ds-token/token.sol\":2078:2179  function move(address src, address dst, uint wad) public {... */\n      pop\n      tag_85\n      0x4\n      dup1\n      calldatasize\n      sub\n      dup2\n      add\n      swap1\n      dup1\n      dup1\n      calldataload\n      0xffffffffffffffffffffffffffffffffffffffff\n      and\n      swap1\n      0x20\n      add\n      swap1\n      swap3\n      swap2\n      swap1\n      dup1\n      calldataload\n      0xffffffffffffffffffffffffffffffffffffffff\n      and\n      swap1\n      0x20\n      add\n      swap1\n      swap3\n      swap2\n      swap1\n      dup1\n      calldataload\n      swap1\n      0x20\n      add\n      swap1\n      swap3\n      swap2\n      swap1\n      pop\n      pop\n      pop\n      jump(tag_86)\n    tag_85:\n      stop\n        /* \"contracts/ds-stop/stop.sol\":1050:1116  function start() public auth note {... */\n    tag_22:\n      callvalue\n        /* \"--CODEGEN--\":8:17   */\n      dup1\n        /* \"--CODEGEN--\":5:7   */\n      iszero\n      tag_87\n      jumpi\n        /* \"--CODEGEN--\":30:31   */\n      0x0\n        /* \"--CODEGEN--\":27:28   */\n      dup1\n        /* \"--CODEGEN--\":20:32   */\n      revert\n        /* \"--CODEGEN--\":5:7   */\n    tag_87:\n        /* \"contracts/ds-stop/stop.sol\":1050:1116  function start() public auth note {... */\n      pop\n      tag_88\n      jump(tag_89)\n    tag_88:\n      stop\n        /* \"contracts/ds-auth/auth.sol\":1005:1033  DSAuthority public authority */\n    tag_23:\n      callvalue\n        /* \"--CODEGEN--\":8:17   */\n      dup1\n        /* \"--CODEGEN--\":5:7   */\n      iszero\n      tag_90\n      jumpi\n        /* \"--CODEGEN--\":30:31   */\n      0x0\n        /* \"--CODEGEN--\":27:28   */\n      dup1\n        /* \"--CODEGEN--\":20:32   */\n      revert\n        /* \"--CODEGEN--\":5:7   */\n    tag_90:\n        /* \"contracts/ds-auth/auth.sol\":1005:1033  DSAuthority public authority */\n      pop\n      tag_91\n      jump(tag_92)\n    tag_91:\n      mload(0x40)\n      dup1\n      dup3\n      0xffffffffffffffffffffffffffffffffffffffff\n      and\n      0xffffffffffffffffffffffffffffffffffffffff\n      and\n      dup2\n      mstore\n      0x20\n      add\n      swap2\n      pop\n      pop\n      mload(0x40)\n      dup1\n      swap2\n      sub\n      swap1\n      return\n        /* \"contracts/ds-token/token.sol\":1176:1290  function approve(address guy) public stoppable returns (bool) {... */\n    tag_24:\n      callvalue\n        /* \"--CODEGEN--\":8:17   */\n      dup1\n        /* \"--CODEGEN--\":5:7   */\n      iszero\n      tag_93\n      jumpi\n        /* \"--CODEGEN--\":30:31   */\n      0x0\n        /* \"--CODEGEN--\":27:28   */\n      dup1\n        /* \"--CODEGEN--\":20:32   */\n      revert\n        /* \"--CODEGEN--\":5:7   */\n    tag_93:\n        /* \"contracts/ds-token/token.sol\":1176:1290  function approve(address guy) public stoppable returns (bool) {... */\n      pop\n      tag_94\n      0x4\n      dup1\n      calldatasize\n      sub\n      dup2\n      add\n      swap1\n      dup1\n      dup1\n      calldataload\n      0xffffffffffffffffffffffffffffffffffffffff\n      and\n      swap1\n      0x20\n      add\n      swap1\n      swap3\n      swap2\n      swap1\n      pop\n      pop\n      pop\n      jump(tag_95)\n    tag_94:\n      mload(0x40)\n      dup1\n      dup3\n      iszero\n      iszero\n      iszero\n      iszero\n      dup2\n      mstore\n      0x20\n      add\n      swap2\n      pop\n      pop\n      mload(0x40)\n      dup1\n      swap2\n      sub\n      swap1\n      return\n        /* \"contracts/ds-token/base.sol\":1372:1488  function allowance(address src, address guy) public view returns (uint) {... */\n    tag_25:\n      callvalue\n        /* \"--CODEGEN--\":8:17   */\n      dup1\n        /* \"--CODEGEN--\":5:7   */\n      iszero\n      tag_96\n      jumpi\n        /* \"--CODEGEN--\":30:31   */\n      0x0\n        /* \"--CODEGEN--\":27:28   */\n      dup1\n        /* \"--CODEGEN--\":20:32   */\n      revert\n        /* \"--CODEGEN--\":5:7   */\n    tag_96:\n        /* \"contracts/ds-token/base.sol\":1372:1488  function allowance(address src, address guy) public view returns (uint) {... */\n      pop\n      tag_97\n      0x4\n      dup1\n      calldatasize\n      sub\n      dup2\n      add\n      swap1\n      dup1\n      dup1\n      calldataload\n      0xffffffffffffffffffffffffffffffffffffffff\n      and\n      swap1\n      0x20\n      add\n      swap1\n      swap3\n      swap2\n      swap1\n      dup1\n      calldataload\n      0xffffffffffffffffffffffffffffffffffffffff\n      and\n      swap1\n      0x20\n      add\n      swap1\n      swap3\n      swap2\n      swap1\n      pop\n      pop\n      pop\n      jump(tag_98)\n    tag_97:\n      mload(0x40)\n      dup1\n      dup3\n      dup2\n      mstore\n      0x20\n      add\n      swap2\n      pop\n      pop\n      mload(0x40)\n      dup1\n      swap2\n      sub\n      swap1\n      return\n        /* \"contracts/ds-token/token.sol\":1978:2073  function pull(address src, uint wad) public {... */\n    tag_26:\n      callvalue\n        /* \"--CODEGEN--\":8:17   */\n      dup1\n        /* \"--CODEGEN--\":5:7   */\n      iszero\n      tag_99\n      jumpi\n        /* \"--CODEGEN--\":30:31   */\n      0x0\n        /* \"--CODEGEN--\":27:28   */\n      dup1\n        /* \"--CODEGEN--\":20:32   */\n      revert\n        /* \"--CODEGEN--\":5:7   */\n    tag_99:\n        /* \"contracts/ds-token/token.sol\":1978:2073  function pull(address src, uint wad) public {... */\n      pop\n      tag_100\n      0x4\n      dup1\n      calldatasize\n      sub\n      dup2\n      add\n      swap1\n      dup1\n      dup1\n      calldataload\n      0xffffffffffffffffffffffffffffffffffffffff\n      and\n      swap1\n      0x20\n      add\n      swap1\n      swap3\n      swap2\n      swap1\n      dup1\n      calldataload\n      swap1\n      0x20\n      add\n      swap1\n      swap3\n      swap2\n      swap1\n      pop\n      pop\n      pop\n      jump(tag_101)\n    tag_100:\n      stop\n        /* \"contracts/ds-token/token.sol\":2895:2922  bytes32   public  name = \"\" */\n    tag_29:\n      sload(0x7)\n      dup2\n      jump\t// out\n        /* \"contracts/ds-stop/stop.sol\":981:1045  function stop() public auth note {... */\n    tag_32:\n        /* \"contracts/ds-auth/auth.sol\":1508:1541  isAuthorized(msg.sender, msg.sig) */\n      tag_103\n        /* \"contracts/ds-auth/auth.sol\":1521:1531  msg.sender */\n      caller\n        /* \"contracts/ds-auth/auth.sol\":1533:1540  msg.sig */\n      and(0xffffffff00000000000000000000000000000000000000000000000000000000, calldataload(0x0))\n        /* \"contracts/ds-auth/auth.sol\":1508:1520  isAuthorized */\n      tag_104\n        /* \"contracts/ds-auth/auth.sol\":1508:1541  isAuthorized(msg.sender, msg.sig) */\n      jump\t// in\n    tag_103:\n        /* \"contracts/ds-auth/auth.sol\":1500:1566  require(isAuthorized(msg.sender, msg.sig), \"ds-auth-unauthorized\") */\n      iszero\n      iszero\n      tag_105\n      jumpi\n      mload(0x40)\n      0x8c379a000000000000000000000000000000000000000000000000000000000\n      dup2\n      mstore\n      0x4\n      add\n      dup1\n      dup1\n      0x20\n      add\n      dup3\n      dup2\n      sub\n      dup3\n      mstore\n      0x14\n      dup2\n      mstore\n      0x20\n      add\n      dup1\n      0x64732d617574682d756e617574686f72697a6564000000000000000000000000\n      dup2\n      mstore\n      pop\n      0x20\n      add\n      swap2\n      pop\n      pop\n      mload(0x40)\n      dup1\n      swap2\n      sub\n      swap1\n      revert\n    tag_105:\n        /* \"contracts/ds-note/note.sol\":1003:1014  bytes32 foo */\n      0x0\n        /* \"contracts/ds-note/note.sol\":1024:1035  bytes32 bar */\n      dup1\n        /* \"contracts/ds-note/note.sol\":1089:1090  4 */\n      0x4\n        /* \"contracts/ds-note/note.sol\":1076:1091  calldataload(4) */\n      calldataload\n        /* \"contracts/ds-note/note.sol\":1069:1091  foo := calldataload(4) */\n      swap2\n      pop\n        /* \"contracts/ds-note/note.sol\":1124:1126  36 */\n      0x24\n        /* \"contracts/ds-note/note.sol\":1111:1127  calldataload(36) */\n      calldataload\n        /* \"contracts/ds-note/note.sol\":1104:1127  bar := calldataload(36) */\n      swap1\n      pop\n        /* \"contracts/ds-note/note.sol\":1181:1184  bar */\n      dup1\n        /* \"contracts/ds-note/note.sol\":1147:1206  LogNote(msg.sig, msg.sender, foo, bar, msg.value, msg.data) */\n      not(0x0)\n      and\n        /* \"contracts/ds-note/note.sol\":1176:1179  foo */\n      dup3\n        /* \"contracts/ds-note/note.sol\":1147:1206  LogNote(msg.sig, msg.sender, foo, bar, msg.value, msg.data) */\n      not(0x0)\n      and\n        /* \"contracts/ds-note/note.sol\":1164:1174  msg.sender */\n      caller\n        /* \"contracts/ds-note/note.sol\":1147:1206  LogNote(msg.sig, msg.sender, foo, bar, msg.value, msg.data) */\n      0xffffffffffffffffffffffffffffffffffffffff\n      and\n        /* \"contracts/ds-note/note.sol\":1155:1162  msg.sig */\n      and(0xffffffff00000000000000000000000000000000000000000000000000000000, calldataload(0x0))\n        /* \"contracts/ds-note/note.sol\":1147:1206  LogNote(msg.sig, msg.sender, foo, bar, msg.value, msg.data) */\n      not(0xffffffffffffffffffffffffffffffffffffffffffffffffffffffff)\n      and\n        /* \"contracts/ds-note/note.sol\":1186:1195  msg.value */\n      callvalue\n        /* \"contracts/ds-note/note.sol\":1197:1205  msg.data */\n      0x0\n      calldatasize\n        /* \"contracts/ds-note/note.sol\":1147:1206  LogNote(msg.sig, msg.sender, foo, bar, msg.value, msg.data) */\n      mload(0x40)\n      dup1\n      dup5\n      dup2\n      mstore\n      0x20\n      add\n      dup1\n      0x20\n      add\n      dup3\n      dup2\n      sub\n      dup3\n      mstore\n      dup5\n      dup5\n      dup3\n      dup2\n      dup2\n      mstore\n      0x20\n      add\n      swap3\n      pop\n      dup1\n      dup3\n      dup5\n      calldatacopy\n      dup3\n      add\n      swap2\n      pop\n      pop\n      swap5\n      pop\n      pop\n      pop\n      pop\n      pop\n      mload(0x40)\n      dup1\n      swap2\n      sub\n      swap1\n      log4\n        /* \"contracts/ds-stop/stop.sol\":1034:1038  true */\n      0x1\n        /* \"contracts/ds-stop/stop.sol\":1024:1031  stopped */\n      0x4\n      0x14\n        /* \"contracts/ds-stop/stop.sol\":1024:1038  stopped = true */\n      0x100\n      exp\n      dup2\n      sload\n      dup2\n      0xff\n      mul\n      not\n      and\n      swap1\n      dup4\n      iszero\n      iszero\n      mul\n      or\n      swap1\n      sstore\n      pop\n        /* \"contracts/ds-auth/auth.sol\":1576:1577  _ */\n      pop\n      pop\n        /* \"contracts/ds-stop/stop.sol\":981:1045  function stop() public auth note {... */\n      jump\t// out\n        /* \"contracts/ds-token/token.sol\":1296:1415  function approve(address guy, uint wad) public stoppable returns (bool) {... */\n    tag_35:\n        /* \"contracts/ds-token/token.sol\":1362:1366  bool */\n      0x0\n        /* \"contracts/ds-stop/stop.sol\":928:935  stopped */\n      0x4\n      0x14\n      swap1\n      sload\n      swap1\n      0x100\n      exp\n      swap1\n      div\n      0xff\n      and\n        /* \"contracts/ds-stop/stop.sol\":927:935  !stopped */\n      iszero\n        /* \"contracts/ds-stop/stop.sol\":919:958  require(!stopped, \"ds-stop-is-stopped\") */\n      iszero\n      iszero\n      tag_109\n      jumpi\n      mload(0x40)\n      0x8c379a000000000000000000000000000000000000000000000000000000000\n      dup2\n      mstore\n      0x4\n      add\n      dup1\n      dup1\n      0x20\n      add\n      dup3\n      dup2\n      sub\n      dup3\n      mstore\n      0x12\n      dup2\n      mstore\n      0x20\n      add\n      dup1\n      0x64732d73746f702d69732d73746f707065640000000000000000000000000000\n      dup2\n      mstore\n      pop\n      0x20\n      add\n      swap2\n      pop\n      pop\n      mload(0x40)\n      dup1\n      swap2\n      sub\n      swap1\n      revert\n    tag_109:\n        /* \"contracts/ds-token/token.sol\":1385:1408  super.approve(guy, wad) */\n      tag_111\n        /* \"contracts/ds-token/token.sol\":1399:1402  guy */\n      dup4\n        /* \"contracts/ds-token/token.sol\":1404:1407  wad */\n      dup4\n        /* \"contracts/ds-token/token.sol\":1385:1398  super.approve */\n      tag_112\n        /* \"contracts/ds-token/token.sol\":1385:1408  super.approve(guy, wad) */\n      jump\t// in\n    tag_111:\n        /* \"contracts/ds-token/token.sol\":1378:1408  return super.approve(guy, wad) */\n      swap1\n      pop\n        /* \"contracts/ds-token/token.sol\":1296:1415  function approve(address guy, uint wad) public stoppable returns (bool) {... */\n      swap3\n      swap2\n      pop\n      pop\n      jump\t// out\n        /* \"contracts/ds-auth/auth.sol\":1167:1297  function setOwner(address owner_)... */\n    tag_38:\n        /* \"contracts/ds-auth/auth.sol\":1508:1541  isAuthorized(msg.sender, msg.sig) */\n      tag_114\n        /* \"contracts/ds-auth/auth.sol\":1521:1531  msg.sender */\n      caller\n        /* \"contracts/ds-auth/auth.sol\":1533:1540  msg.sig */\n      and(0xffffffff00000000000000000000000000000000000000000000000000000000, calldataload(0x0))\n        /* \"contracts/ds-auth/auth.sol\":1508:1520  isAuthorized */\n      tag_104\n        /* \"contracts/ds-auth/auth.sol\":1508:1541  isAuthorized(msg.sender, msg.sig) */\n      jump\t// in\n    tag_114:\n        /* \"contracts/ds-auth/auth.sol\":1500:1566  require(isAuthorized(msg.sender, msg.sig), \"ds-auth-unauthorized\") */\n      iszero\n      iszero\n      tag_115\n      jumpi\n      mload(0x40)\n      0x8c379a000000000000000000000000000000000000000000000000000000000\n      dup2\n      mstore\n      0x4\n      add\n      dup1\n      dup1\n      0x20\n      add\n      dup3\n      dup2\n      sub\n      dup3\n      mstore\n      0x14\n      dup2\n      mstore\n      0x20\n      add\n      dup1\n      0x64732d617574682d756e617574686f72697a6564000000000000000000000000\n      dup2\n      mstore\n      pop\n      0x20\n      add\n      swap2\n      pop\n      pop\n      mload(0x40)\n      dup1\n      swap2\n      sub\n      swap1\n      revert\n    tag_115:\n        /* \"contracts/ds-auth/auth.sol\":1251:1257  owner_ */\n      dup1\n        /* \"contracts/ds-auth/auth.sol\":1243:1248  owner */\n      0x4\n      0x0\n        /* \"contracts/ds-auth/auth.sol\":1243:1257  owner = owner_ */\n      0x100\n      exp\n      dup2\n      sload\n      dup2\n      0xffffffffffffffffffffffffffffffffffffffff\n      mul\n      not\n      and\n      swap1\n      dup4\n      0xffffffffffffffffffffffffffffffffffffffff\n      and\n      mul\n      or\n      swap1\n      sstore\n      pop\n        /* \"contracts/ds-auth/auth.sol\":1284:1289  owner */\n      0x4\n      0x0\n      swap1\n      sload\n      swap1\n      0x100\n      exp\n      swap1\n      div\n      0xffffffffffffffffffffffffffffffffffffffff\n      and\n        /* \"contracts/ds-auth/auth.sol\":1272:1290  LogSetOwner(owner) */\n      0xffffffffffffffffffffffffffffffffffffffff\n      and\n      0xce241d7ca1f669fee44b6fc00b8eba2df3bb514eed0f6f668f8f89096e81ed94\n      mload(0x40)\n      mload(0x40)\n      dup1\n      swap2\n      sub\n      swap1\n      log2\n        /* \"contracts/ds-auth/auth.sol\":1167:1297  function setOwner(address owner_)... */\n      pop\n      jump\t// out\n        /* \"contracts/ds-token/base.sol\":1184:1265  function totalSupply() public view returns (uint) {... */\n    tag_41:\n        /* \"contracts/ds-token/base.sol\":1228:1232  uint */\n      0x0\n        /* \"contracts/ds-token/base.sol\":1251:1258  _supply */\n      dup1\n      sload\n        /* \"contracts/ds-token/base.sol\":1244:1258  return _supply */\n      swap1\n      pop\n        /* \"contracts/ds-token/base.sol\":1184:1265  function totalSupply() public view returns (uint) {... */\n      swap1\n      jump\t// out\n        /* \"contracts/ds-token/token.sol\":1421:1872  function transferFrom(address src, address dst, uint wad)... */\n    tag_44:\n        /* \"contracts/ds-token/token.sol\":1529:1533  bool */\n      0x0\n        /* \"contracts/ds-stop/stop.sol\":928:935  stopped */\n      0x4\n      0x14\n      swap1\n      sload\n      swap1\n      0x100\n      exp\n      swap1\n      div\n      0xff\n      and\n        /* \"contracts/ds-stop/stop.sol\":927:935  !stopped */\n      iszero\n        /* \"contracts/ds-stop/stop.sol\":919:958  require(!stopped, \"ds-stop-is-stopped\") */\n      iszero\n      iszero\n      tag_119\n      jumpi\n      mload(0x40)\n      0x8c379a000000000000000000000000000000000000000000000000000000000\n      dup2\n      mstore\n      0x4\n      add\n      dup1\n      dup1\n      0x20\n      add\n      dup3\n      dup2\n      sub\n      dup3\n      mstore\n      0x12\n      dup2\n      mstore\n      0x20\n      add\n      dup1\n      0x64732d73746f702d69732d73746f707065640000000000000000000000000000\n      dup2\n      mstore\n      pop\n      0x20\n      add\n      swap2\n      pop\n      pop\n      mload(0x40)\n      dup1\n      swap2\n      sub\n      swap1\n      revert\n    tag_119:\n        /* \"contracts/ds-token/token.sol\":1560:1570  msg.sender */\n      caller\n        /* \"contracts/ds-token/token.sol\":1553:1570  src != msg.sender */\n      0xffffffffffffffffffffffffffffffffffffffff\n      and\n        /* \"contracts/ds-token/token.sol\":1553:1556  src */\n      dup5\n        /* \"contracts/ds-token/token.sol\":1553:1570  src != msg.sender */\n      0xffffffffffffffffffffffffffffffffffffffff\n      and\n      eq\n      iszero\n        /* \"contracts/ds-token/token.sol\":1553:1613  src != msg.sender && _approvals[src][msg.sender] != uint(-1) */\n      dup1\n      iszero\n      tag_121\n      jumpi\n      pop\n        /* \"contracts/ds-token/token.sol\":1610:1612  -1 */\n      0xffffffffffffffffffffffffffffffffffffffffffffffffffffffffffffffff\n        /* \"contracts/ds-token/token.sol\":1574:1584  _approvals */\n      0x2\n        /* \"contracts/ds-token/token.sol\":1574:1589  _approvals[src] */\n      0x0\n        /* \"contracts/ds-token/token.sol\":1585:1588  src */\n      dup7\n        /* \"contracts/ds-token/token.sol\":1574:1589  _approvals[src] */\n      0xffffffffffffffffffffffffffffffffffffffff\n      and\n      0xffffffffffffffffffffffffffffffffffffffff\n      and\n      dup2\n      mstore\n      0x20\n      add\n      swap1\n      dup2\n      mstore\n      0x20\n      add\n      0x0\n      keccak256\n        /* \"contracts/ds-token/token.sol\":1574:1601  _approvals[src][msg.sender] */\n      0x0\n        /* \"contracts/ds-token/token.sol\":1590:1600  msg.sender */\n      caller\n        /* \"contracts/ds-token/token.sol\":1574:1601  _approvals[src][msg.sender] */\n      0xffffffffffffffffffffffffffffffffffffffff\n      and\n      0xffffffffffffffffffffffffffffffffffffffff\n      and\n      dup2\n      mstore\n      0x20\n      add\n      swap1\n      dup2\n      mstore\n      0x20\n      add\n      0x0\n      keccak256\n      sload\n        /* \"contracts/ds-token/token.sol\":1574:1613  _approvals[src][msg.sender] != uint(-1) */\n      eq\n      iszero\n        /* \"contracts/ds-token/token.sol\":1553:1613  src != msg.sender && _approvals[src][msg.sender] != uint(-1) */\n    tag_121:\n        /* \"contracts/ds-token/token.sol\":1549:1707  if (src != msg.sender && _approvals[src][msg.sender] != uint(-1)) {... */\n      iszero\n      tag_122\n      jumpi\n        /* \"contracts/ds-token/token.sol\":1659:1696  sub(_approvals[src][msg.sender], wad) */\n      tag_123\n        /* \"contracts/ds-token/token.sol\":1663:1673  _approvals */\n      0x2\n        /* \"contracts/ds-token/token.sol\":1663:1678  _approvals[src] */\n      0x0\n        /* \"contracts/ds-token/token.sol\":1674:1677  src */\n      dup7\n        /* \"contracts/ds-token/token.sol\":1663:1678  _approvals[src] */\n      0xffffffffffffffffffffffffffffffffffffffff\n      and\n      0xffffffffffffffffffffffffffffffffffffffff\n      and\n      dup2\n      mstore\n      0x20\n      add\n      swap1\n      dup2\n      mstore\n      0x20\n      add\n      0x0\n      keccak256\n        /* \"contracts/ds-token/token.sol\":1663:1690  _approvals[src][msg.sender] */\n      0x0\n        /* \"contracts/ds-token/token.sol\":1679:1689  msg.sender */\n      caller\n        /* \"contracts/ds-token/token.sol\":1663:1690  _approvals[src][msg.sender] */\n      0xffffffffffffffffffffffffffffffffffffffff\n      and\n      0xffffffffffffffffffffffffffffffffffffffff\n      and\n      dup2\n      mstore\n      0x20\n      add\n      swap1\n      dup2\n      mstore\n      0x20\n      add\n      0x0\n      keccak256\n      sload\n        /* \"contracts/ds-token/token.sol\":1692:1695  wad */\n      dup4\n        /* \"contracts/ds-token/token.sol\":1659:1662  sub */\n      tag_124\n        /* \"contracts/ds-token/token.sol\":1659:1696  sub(_approvals[src][msg.sender], wad) */\n      jump\t// in\n    tag_123:\n        /* \"contracts/ds-token/token.sol\":1629:1639  _approvals */\n      0x2\n        /* \"contracts/ds-token/token.sol\":1629:1644  _approvals[src] */\n      0x0\n        /* \"contracts/ds-token/token.sol\":1640:1643  src */\n      dup7\n        /* \"contracts/ds-token/token.sol\":1629:1644  _approvals[src] */\n      0xffffffffffffffffffffffffffffffffffffffff\n      and\n      0xffffffffffffffffffffffffffffffffffffffff\n      and\n      dup2\n      mstore\n      0x20\n      add\n      swap1\n      dup2\n      mstore\n      0x20\n      add\n      0x0\n      keccak256\n        /* \"contracts/ds-token/token.sol\":1629:1656  _approvals[src][msg.sender] */\n      0x0\n        /* \"contracts/ds-token/token.sol\":1645:1655  msg.sender */\n      caller\n        /* \"contracts/ds-token/token.sol\":1629:1656  _approvals[src][msg.sender] */\n      0xffffffffffffffffffffffffffffffffffffffff\n      and\n      0xffffffffffffffffffffffffffffffffffffffff\n      and\n      dup2\n      mstore\n      0x20\n      add\n      swap1\n      dup2\n      mstore\n      0x20\n      add\n      0x0\n      keccak256\n        /* \"contracts/ds-token/token.sol\":1629:1696  _approvals[src][msg.sender] = sub(_approvals[src][msg.sender], wad) */\n      dup2\n      swap1\n      sstore\n      pop\n        /* \"contracts/ds-token/token.sol\":1549:1707  if (src != msg.sender && _approvals[src][msg.sender] != uint(-1)) {... */\n    tag_122:\n        /* \"contracts/ds-token/token.sol\":1734:1758  sub(_balances[src], wad) */\n      tag_125\n        /* \"contracts/ds-token/token.sol\":1738:1747  _balances */\n      0x1\n        /* \"contracts/ds-token/token.sol\":1738:1752  _balances[src] */\n      0x0\n        /* \"contracts/ds-token/token.sol\":1748:1751  src */\n      dup7\n        /* \"contracts/ds-token/token.sol\":1738:1752  _balances[src] */\n      0xffffffffffffffffffffffffffffffffffffffff\n      and\n      0xffffffffffffffffffffffffffffffffffffffff\n      and\n      dup2\n      mstore\n      0x20\n      add\n      swap1\n      dup2\n      mstore\n      0x20\n      add\n      0x0\n      keccak256\n      sload\n        /* \"contracts/ds-token/token.sol\":1754:1757  wad */\n      dup4\n        /* \"contracts/ds-token/token.sol\":1734:1737  sub */\n      tag_124\n        /* \"contracts/ds-token/token.sol\":1734:1758  sub(_balances[src], wad) */\n      jump\t// in\n    tag_125:\n        /* \"contracts/ds-token/token.sol\":1717:1726  _balances */\n      0x1\n        /* \"contracts/ds-token/token.sol\":1717:1731  _balances[src] */\n      0x0\n        /* \"contracts/ds-token/token.sol\":1727:1730  src */\n      dup7\n        /* \"contracts/ds-token/token.sol\":1717:1731  _balances[src] */\n      0xffffffffffffffffffffffffffffffffffffffff\n      and\n      0xffffffffffffffffffffffffffffffffffffffff\n      and\n      dup2\n      mstore\n      0x20\n      add\n      swap1\n      dup2\n      mstore\n      0x20\n      add\n      0x0\n      keccak256\n        /* \"contracts/ds-token/token.sol\":1717:1758  _balances[src] = sub(_balances[src], wad) */\n      dup2\n      swap1\n      sstore\n      pop\n        /* \"contracts/ds-token/token.sol\":1785:1809  add(_balances[dst], wad) */\n      tag_126\n        /* \"contracts/ds-token/token.sol\":1789:1798  _balances */\n      0x1\n        /* \"contracts/ds-token/token.sol\":1789:1803  _balances[dst] */\n      0x0\n        /* \"contracts/ds-token/token.sol\":1799:1802  dst */\n      dup6\n        /* \"contracts/ds-token/token.sol\":1789:1803  _balances[dst] */\n      0xffffffffffffffffffffffffffffffffffffffff\n      and\n      0xffffffffffffffffffffffffffffffffffffffff\n      and\n      dup2\n      mstore\n      0x20\n      add\n      swap1\n      dup2\n      mstore\n      0x20\n      add\n      0x0\n      keccak256\n      sload\n        /* \"contracts/ds-token/token.sol\":1805:1808  wad */\n      dup4\n        /* \"contracts/ds-token/token.sol\":1785:1788  add */\n      tag_127\n        /* \"contracts/ds-token/token.sol\":1785:1809  add(_balances[dst], wad) */\n      jump\t// in\n    tag_126:\n        /* \"contracts/ds-token/token.sol\":1768:1777  _balances */\n      0x1\n        /* \"contracts/ds-token/token.sol\":1768:1782  _balances[dst] */\n      0x0\n        /* \"contracts/ds-token/token.sol\":1778:1781  dst */\n      dup6\n        /* \"contracts/ds-token/token.sol\":1768:1782  _balances[dst] */\n      0xffffffffffffffffffffffffffffffffffffffff\n      and\n      0xffffffffffffffffffffffffffffffffffffffff\n      and\n      dup2\n      mstore\n      0x20\n      add\n      swap1\n      dup2\n      mstore\n      0x20\n      add\n      0x0\n      keccak256\n        /* \"contracts/ds-token/token.sol\":1768:1809  _balances[dst] = add(_balances[dst], wad) */\n      dup2\n      swap1\n      sstore\n      pop\n        /* \"contracts/ds-token/token.sol\":1834:1837  dst */\n      dup3\n        /* \"contracts/ds-token/token.sol\":1820:1843  Transfer(src, dst, wad) */\n      0xffffffffffffffffffffffffffffffffffffffff\n      and\n        /* \"contracts/ds-token/token.sol\":1829:1832  src */\n      dup5\n        /* \"contracts/ds-token/token.sol\":1820:1843  Transfer(src, dst, wad) */\n      0xffffffffffffffffffffffffffffffffffffffff\n      and\n      0xddf252ad1be2c89b69c2b068fc378daa952ba7f163c4a11628f55a4df523b3ef\n        /* \"contracts/ds-token/token.sol\":1839:1842  wad */\n      dup5\n        /* \"contracts/ds-token/token.sol\":1820:1843  Transfer(src, dst, wad) */\n      mload(0x40)\n      dup1\n      dup3\n      dup2\n      mstore\n      0x20\n      add\n      swap2\n      pop\n      pop\n      mload(0x40)\n      dup1\n      swap2\n      sub\n      swap1\n      log3\n        /* \"contracts/ds-token/token.sol\":1861:1865  true */\n      0x1\n        /* \"contracts/ds-token/token.sol\":1854:1865  return true */\n      swap1\n      pop\n        /* \"contracts/ds-token/token.sol\":1421:1872  function transferFrom(address src, address dst, uint wad)... */\n      swap4\n      swap3\n      pop\n      pop\n      pop\n      jump\t// out\n        /* \"contracts/ds-token/token.sol\":913:943  uint256  public  decimals = 18 */\n    tag_47:\n      sload(0x6)\n      dup2\n      jump\t// out\n        /* \"contracts/ds-token/token.sol\":2333:2511  function mint(address guy, uint wad) public auth stoppable {... */\n    tag_50:\n        /* \"contracts/ds-auth/auth.sol\":1508:1541  isAuthorized(msg.sender, msg.sig) */\n      tag_129\n        /* \"contracts/ds-auth/auth.sol\":1521:1531  msg.sender */\n      caller\n        /* \"contracts/ds-auth/auth.sol\":1533:1540  msg.sig */\n      and(0xffffffff00000000000000000000000000000000000000000000000000000000, calldataload(0x0))\n        /* \"contracts/ds-auth/auth.sol\":1508:1520  isAuthorized */\n      tag_104\n        /* \"contracts/ds-auth/auth.sol\":1508:1541  isAuthorized(msg.sender, msg.sig) */\n      jump\t// in\n    tag_129:\n        /* \"contracts/ds-auth/auth.sol\":1500:1566  require(isAuthorized(msg.sender, msg.sig), \"ds-auth-unauthorized\") */\n      iszero\n      iszero\n      tag_130\n      jumpi\n      mload(0x40)\n      0x8c379a000000000000000000000000000000000000000000000000000000000\n      dup2\n      mstore\n      0x4\n      add\n      dup1\n      dup1\n      0x20\n      add\n      dup3\n      dup2\n      sub\n      dup3\n      mstore\n      0x14\n      dup2\n      mstore\n      0x20\n      add\n      dup1\n      0x64732d617574682d756e617574686f72697a6564000000000000000000000000\n      dup2\n      mstore\n      pop\n      0x20\n      add\n      swap2\n      pop\n      pop\n      mload(0x40)\n      dup1\n      swap2\n      sub\n      swap1\n      revert\n    tag_130:\n        /* \"contracts/ds-stop/stop.sol\":928:935  stopped */\n      0x4\n      0x14\n      swap1\n      sload\n      swap1\n      0x100\n      exp\n      swap1\n      div\n      0xff\n      and\n        /* \"contracts/ds-stop/stop.sol\":927:935  !stopped */\n      iszero\n        /* \"contracts/ds-stop/stop.sol\":919:958  require(!stopped, \"ds-stop-is-stopped\") */\n      iszero\n      iszero\n      tag_132\n      jumpi\n      mload(0x40)\n      0x8c379a000000000000000000000000000000000000000000000000000000000\n      dup2\n      mstore\n      0x4\n      add\n      dup1\n      dup1\n      0x20\n      add\n      dup3\n      dup2\n      sub\n      dup3\n      mstore\n      0x12\n      dup2\n      mstore\n      0x20\n      add\n      dup1\n      0x64732d73746f702d69732d73746f707065640000000000000000000000000000\n      dup2\n      mstore\n      pop\n      0x20\n      add\n      swap2\n      pop\n      pop\n      mload(0x40)\n      dup1\n      swap2\n      sub\n      swap1\n      revert\n    tag_132:\n        /* \"contracts/ds-token/token.sol\":2419:2443  add(_balances[guy], wad) */\n      tag_134\n        /* \"contracts/ds-token/token.sol\":2423:2432  _balances */\n      0x1\n        /* \"contracts/ds-token/token.sol\":2423:2437  _balances[guy] */\n      0x0\n        /* \"contracts/ds-token/token.sol\":2433:2436  guy */\n      dup5\n        /* \"contracts/ds-token/token.sol\":2423:2437  _balances[guy] */\n      0xffffffffffffffffffffffffffffffffffffffff\n      and\n      0xffffffffffffffffffffffffffffffffffffffff\n      and\n      dup2\n      mstore\n      0x20\n      add\n      swap1\n      dup2\n      mstore\n      0x20\n      add\n      0x0\n      keccak256\n      sload\n        /* \"contracts/ds-token/token.sol\":2439:2442  wad */\n      dup3\n        /* \"contracts/ds-token/token.sol\":2419:2422  add */\n      tag_127\n        /* \"contracts/ds-token/token.sol\":2419:2443  add(_balances[guy], wad) */\n      jump\t// in\n    tag_134:\n        /* \"contracts/ds-token/token.sol\":2402:2411  _balances */\n      0x1\n        /* \"contracts/ds-token/token.sol\":2402:2416  _balances[guy] */\n      0x0\n        /* \"contracts/ds-token/token.sol\":2412:2415  guy */\n      dup5\n        /* \"contracts/ds-token/token.sol\":2402:2416  _balances[guy] */\n      0xffffffffffffffffffffffffffffffffffffffff\n      and\n      0xffffffffffffffffffffffffffffffffffffffff\n      and\n      dup2\n      mstore\n      0x20\n      add\n      swap1\n      dup2\n      mstore\n      0x20\n      add\n      0x0\n      keccak256\n        /* \"contracts/ds-token/token.sol\":2402:2443  _balances[guy] = add(_balances[guy], wad) */\n      dup2\n      swap1\n      sstore\n      pop\n        /* \"contracts/ds-token/token.sol\":2463:2480  add(_supply, wad) */\n      tag_135\n        /* \"contracts/ds-token/token.sol\":2467:2474  _supply */\n      sload(0x0)\n        /* \"contracts/ds-token/token.sol\":2476:2479  wad */\n      dup3\n        /* \"contracts/ds-token/token.sol\":2463:2466  add */\n      tag_127\n        /* \"contracts/ds-token/token.sol\":2463:2480  add(_supply, wad) */\n      jump\t// in\n    tag_135:\n        /* \"contracts/ds-token/token.sol\":2453:2460  _supply */\n      0x0\n        /* \"contracts/ds-token/token.sol\":2453:2480  _supply = add(_supply, wad) */\n      dup2\n      swap1\n      sstore\n      pop\n        /* \"contracts/ds-token/token.sol\":2495:2498  guy */\n      dup2\n        /* \"contracts/ds-token/token.sol\":2490:2504  Mint(guy, wad) */\n      0xffffffffffffffffffffffffffffffffffffffff\n      and\n      0xf6798a560793a54c3bcfe86a93cde1e73087d944c0ea20544137d4121396885\n        /* \"contracts/ds-token/token.sol\":2500:2503  wad */\n      dup3\n        /* \"contracts/ds-token/token.sol\":2490:2504  Mint(guy, wad) */\n      mload(0x40)\n      dup1\n      dup3\n      dup2\n      mstore\n      0x20\n      add\n      swap2\n      pop\n      pop\n      mload(0x40)\n      dup1\n      swap2\n      sub\n      swap1\n      log2\n        /* \"contracts/ds-token/token.sol\":2333:2511  function mint(address guy, uint wad) public auth stoppable {... */\n      pop\n      pop\n      jump\t// out\n        /* \"contracts/ds-token/token.sol\":2259:2328  function burn(uint wad) public {... */\n    tag_53:\n        /* \"contracts/ds-token/token.sol\":2300:2321  burn(msg.sender, wad) */\n      tag_137\n        /* \"contracts/ds-token/token.sol\":2305:2315  msg.sender */\n      caller\n        /* \"contracts/ds-token/token.sol\":2317:2320  wad */\n      dup3\n        /* \"contracts/ds-token/token.sol\":2300:2304  burn */\n      tag_74\n        /* \"contracts/ds-token/token.sol\":2300:2321  burn(msg.sender, wad) */\n      jump\t// in\n    tag_137:\n        /* \"contracts/ds-token/token.sol\":2259:2328  function burn(uint wad) public {... */\n      pop\n      jump\t// out\n        /* \"contracts/ds-token/token.sol\":2929:3002  function setName(bytes32 name_) public auth {... */\n    tag_56:\n        /* \"contracts/ds-auth/auth.sol\":1508:1541  isAuthorized(msg.sender, msg.sig) */\n      tag_139\n        /* \"contracts/ds-auth/auth.sol\":1521:1531  msg.sender */\n      caller\n        /* \"contracts/ds-auth/auth.sol\":1533:1540  msg.sig */\n      and(0xffffffff00000000000000000000000000000000000000000000000000000000, calldataload(0x0))\n        /* \"contracts/ds-auth/auth.sol\":1508:1520  isAuthorized */\n      tag_104\n        /* \"contracts/ds-auth/auth.sol\":1508:1541  isAuthorized(msg.sender, msg.sig) */\n      jump\t// in\n    tag_139:\n        /* \"contracts/ds-auth/auth.sol\":1500:1566  require(isAuthorized(msg.sender, msg.sig), \"ds-auth-unauthorized\") */\n      iszero\n      iszero\n      tag_140\n      jumpi\n      mload(0x40)\n      0x8c379a000000000000000000000000000000000000000000000000000000000\n      dup2\n      mstore\n      0x4\n      add\n      dup1\n      dup1\n      0x20\n      add\n      dup3\n      dup2\n      sub\n      dup3\n      mstore\n      0x14\n      dup2\n      mstore\n      0x20\n      add\n      dup1\n      0x64732d617574682d756e617574686f72697a6564000000000000000000000000\n      dup2\n      mstore\n      pop\n      0x20\n      add\n      swap2\n      pop\n      pop\n      mload(0x40)\n      dup1\n      swap2\n      sub\n      swap1\n      revert\n    tag_140:\n        /* \"contracts/ds-token/token.sol\":2990:2995  name_ */\n      dup1\n        /* \"contracts/ds-token/token.sol\":2983:2987  name */\n      0x7\n        /* \"contracts/ds-token/token.sol\":2983:2995  name = name_ */\n      dup2\n      not(0x0)\n      and\n      swap1\n      sstore\n      pop\n        /* \"contracts/ds-token/token.sol\":2929:3002  function setName(bytes32 name_) public auth {... */\n      pop\n      jump\t// out\n        /* \"contracts/ds-token/base.sol\":1270:1367  function balanceOf(address src) public view returns (uint) {... */\n    tag_59:\n        /* \"contracts/ds-token/base.sol\":1323:1327  uint */\n      0x0\n        /* \"contracts/ds-token/base.sol\":1346:1355  _balances */\n      0x1\n        /* \"contracts/ds-token/base.sol\":1346:1360  _balances[src] */\n      0x0\n        /* \"contracts/ds-token/base.sol\":1356:1359  src */\n      dup4\n        /* \"contracts/ds-token/base.sol\":1346:1360  _balances[src] */\n      0xffffffffffffffffffffffffffffffffffffffff\n      and\n      0xffffffffffffffffffffffffffffffffffffffff\n      and\n      dup2\n      mstore\n      0x20\n      add\n      swap1\n      dup2\n      mstore\n      0x20\n      add\n      0x0\n      keccak256\n      sload\n        /* \"contracts/ds-token/base.sol\":1339:1360  return _balances[src] */\n      swap1\n      pop\n        /* \"contracts/ds-token/base.sol\":1270:1367  function balanceOf(address src) public view returns (uint) {... */\n      swap2\n      swap1\n      pop\n      jump\t// out\n        /* \"contracts/ds-stop/stop.sol\":864:883  bool public stopped */\n    tag_62:\n      0x4\n      0x14\n      swap1\n      sload\n      swap1\n      0x100\n      exp\n      swap1\n      div\n      0xff\n      and\n      dup2\n      jump\t// out\n        /* \"contracts/ds-auth/auth.sol\":1303:1470  function setAuthority(DSAuthority authority_)... */\n    tag_65:\n        /* \"contracts/ds-auth/auth.sol\":1508:1541  isAuthorized(msg.sender, msg.sig) */\n      tag_144\n        /* \"contracts/ds-auth/auth.sol\":1521:1531  msg.sender */\n      caller\n        /* \"contracts/ds-auth/auth.sol\":1533:1540  msg.sig */\n      and(0xffffffff00000000000000000000000000000000000000000000000000000000, calldataload(0x0))\n        /* \"contracts/ds-auth/auth.sol\":1508:1520  isAuthorized */\n      tag_104\n        /* \"contracts/ds-auth/auth.sol\":1508:1541  isAuthorized(msg.sender, msg.sig) */\n      jump\t// in\n    tag_144:\n        /* \"contracts/ds-auth/auth.sol\":1500:1566  require(isAuthorized(msg.sender, msg.sig), \"ds-auth-unauthorized\") */\n      iszero\n      iszero\n      tag_145\n      jumpi\n      mload(0x40)\n      0x8c379a000000000000000000000000000000000000000000000000000000000\n      dup2\n      mstore\n      0x4\n      add\n      dup1\n      dup1\n      0x20\n      add\n      dup3\n      dup2\n      sub\n      dup3\n      mstore\n      0x14\n      dup2\n      mstore\n      0x20\n      add\n      dup1\n      0x64732d617574682d756e617574686f72697a6564000000000000000000000000\n      dup2\n      mstore\n      pop\n      0x20\n      add\n      swap2\n      pop\n      pop\n      mload(0x40)\n      dup1\n      swap2\n      sub\n      swap1\n      revert\n    tag_145:\n        /* \"contracts/ds-auth/auth.sol\":1403:1413  authority_ */\n      dup1\n        /* \"contracts/ds-auth/auth.sol\":1391:1400  authority */\n      0x3\n      0x0\n        /* \"contracts/ds-auth/auth.sol\":1391:1413  authority = authority_ */\n      0x100\n      exp\n      dup2\n      sload\n      dup2\n      0xffffffffffffffffffffffffffffffffffffffff\n      mul\n      not\n      and\n      swap1\n      dup4\n      0xffffffffffffffffffffffffffffffffffffffff\n      and\n      mul\n      or\n      swap1\n      sstore\n      pop\n        /* \"contracts/ds-auth/auth.sol\":1452:1461  authority */\n      0x3\n      0x0\n      swap1\n      sload\n      swap1\n      0x100\n      exp\n      swap1\n      div\n      0xffffffffffffffffffffffffffffffffffffffff\n      and\n        /* \"contracts/ds-auth/auth.sol\":1428:1463  LogSetAuthority(address(authority)) */\n      0xffffffffffffffffffffffffffffffffffffffff\n      and\n      0x1abebea81bfa2637f28358c371278fb15ede7ea8dd28d2e03b112ff6d936ada4\n      mload(0x40)\n      mload(0x40)\n      dup1\n      swap2\n      sub\n      swap1\n      log2\n        /* \"contracts/ds-auth/auth.sol\":1303:1470  function setAuthority(DSAuthority authority_)... */\n      pop\n      jump\t// out\n        /* \"contracts/ds-auth/auth.sol\":1039:1060  address public  owner */\n    tag_68:\n      0x4\n      0x0\n      swap1\n      sload\n      swap1\n      0x100\n      exp\n      swap1\n      div\n      0xffffffffffffffffffffffffffffffffffffffff\n      and\n      dup2\n      jump\t// out\n        /* \"contracts/ds-token/token.sol\":884:907  bytes32  public  symbol */\n    tag_71:\n      sload(0x5)\n      dup2\n      jump\t// out\n        /* \"contracts/ds-token/token.sol\":2516:2862  function burn(address guy, uint wad) public auth stoppable {... */\n    tag_74:\n        /* \"contracts/ds-auth/auth.sol\":1508:1541  isAuthorized(msg.sender, msg.sig) */\n      tag_148\n        /* \"contracts/ds-auth/auth.sol\":1521:1531  msg.sender */\n      caller\n        /* \"contracts/ds-auth/auth.sol\":1533:1540  msg.sig */\n      and(0xffffffff00000000000000000000000000000000000000000000000000000000, calldataload(0x0))\n        /* \"contracts/ds-auth/auth.sol\":1508:1520  isAuthorized */\n      tag_104\n        /* \"contracts/ds-auth/auth.sol\":1508:1541  isAuthorized(msg.sender, msg.sig) */\n      jump\t// in\n    tag_148:\n        /* \"contracts/ds-auth/auth.sol\":1500:1566  require(isAuthorized(msg.sender, msg.sig), \"ds-auth-unauthorized\") */\n      iszero\n      iszero\n      tag_149\n      jumpi\n      mload(0x40)\n      0x8c379a000000000000000000000000000000000000000000000000000000000\n      dup2\n      mstore\n      0x4\n      add\n      dup1\n      dup1\n      0x20\n      add\n      dup3\n      dup2\n      sub\n      dup3\n      mstore\n      0x14\n      dup2\n      mstore\n      0x20\n      add\n      dup1\n      0x64732d617574682d756e617574686f72697a6564000000000000000000000000\n      dup2\n      mstore\n      pop\n      0x20\n      add\n      swap2\n      pop\n      pop\n      mload(0x40)\n      dup1\n      swap2\n      sub\n      swap1\n      revert\n    tag_149:\n        /* \"contracts/ds-stop/stop.sol\":928:935  stopped */\n      0x4\n      0x14\n      swap1\n      sload\n      swap1\n      0x100\n      exp\n      swap1\n      div\n      0xff\n      and\n        /* \"contracts/ds-stop/stop.sol\":927:935  !stopped */\n      iszero\n        /* \"contracts/ds-stop/stop.sol\":919:958  require(!stopped, \"ds-stop-is-stopped\") */\n      iszero\n      iszero\n      tag_151\n      jumpi\n      mload(0x40)\n      0x8c379a000000000000000000000000000000000000000000000000000000000\n      dup2\n      mstore\n      0x4\n      add\n      dup1\n      dup1\n      0x20\n      add\n      dup3\n      dup2\n      sub\n      dup3\n      mstore\n      0x12\n      dup2\n      mstore\n      0x20\n      add\n      dup1\n      0x64732d73746f702d69732d73746f707065640000000000000000000000000000\n      dup2\n      mstore\n      pop\n      0x20\n      add\n      swap2\n      pop\n      pop\n      mload(0x40)\n      dup1\n      swap2\n      sub\n      swap1\n      revert\n    tag_151:\n        /* \"contracts/ds-token/token.sol\":2596:2606  msg.sender */\n      caller\n        /* \"contracts/ds-token/token.sol\":2589:2606  guy != msg.sender */\n      0xffffffffffffffffffffffffffffffffffffffff\n      and\n        /* \"contracts/ds-token/token.sol\":2589:2592  guy */\n      dup3\n        /* \"contracts/ds-token/token.sol\":2589:2606  guy != msg.sender */\n      0xffffffffffffffffffffffffffffffffffffffff\n      and\n      eq\n      iszero\n        /* \"contracts/ds-token/token.sol\":2589:2649  guy != msg.sender && _approvals[guy][msg.sender] != uint(-1) */\n      dup1\n      iszero\n      tag_153\n      jumpi\n      pop\n        /* \"contracts/ds-token/token.sol\":2646:2648  -1 */\n      0xffffffffffffffffffffffffffffffffffffffffffffffffffffffffffffffff\n        /* \"contracts/ds-token/token.sol\":2610:2620  _approvals */\n      0x2\n        /* \"contracts/ds-token/token.sol\":2610:2625  _approvals[guy] */\n      0x0\n        /* \"contracts/ds-token/token.sol\":2621:2624  guy */\n      dup5\n        /* \"contracts/ds-token/token.sol\":2610:2625  _approvals[guy] */\n      0xffffffffffffffffffffffffffffffffffffffff\n      and\n      0xffffffffffffffffffffffffffffffffffffffff\n      and\n      dup2\n      mstore\n      0x20\n      add\n      swap1\n      dup2\n      mstore\n      0x20\n      add\n      0x0\n      keccak256\n        /* \"contracts/ds-token/token.sol\":2610:2637  _approvals[guy][msg.sender] */\n      0x0\n        /* \"contracts/ds-token/token.sol\":2626:2636  msg.sender */\n      caller\n        /* \"contracts/ds-token/token.sol\":2610:2637  _approvals[guy][msg.sender] */\n      0xffffffffffffffffffffffffffffffffffffffff\n      and\n      0xffffffffffffffffffffffffffffffffffffffff\n      and\n      dup2\n      mstore\n      0x20\n      add\n      swap1\n      dup2\n      mstore\n      0x20\n      add\n      0x0\n      keccak256\n      sload\n        /* \"contracts/ds-token/token.sol\":2610:2649  _approvals[guy][msg.sender] != uint(-1) */\n      eq\n      iszero\n        /* \"contracts/ds-token/token.sol\":2589:2649  guy != msg.sender && _approvals[guy][msg.sender] != uint(-1) */\n    tag_153:\n        /* \"contracts/ds-token/token.sol\":2585:2743  if (guy != msg.sender && _approvals[guy][msg.sender] != uint(-1)) {... */\n      iszero\n      tag_154\n      jumpi\n        /* \"contracts/ds-token/token.sol\":2695:2732  sub(_approvals[guy][msg.sender], wad) */\n      tag_155\n        /* \"contracts/ds-token/token.sol\":2699:2709  _approvals */\n      0x2\n        /* \"contracts/ds-token/token.sol\":2699:2714  _approvals[guy] */\n      0x0\n        /* \"contracts/ds-token/token.sol\":2710:2713  guy */\n      dup5\n        /* \"contracts/ds-token/token.sol\":2699:2714  _approvals[guy] */\n      0xffffffffffffffffffffffffffffffffffffffff\n      and\n      0xffffffffffffffffffffffffffffffffffffffff\n      and\n      dup2\n      mstore\n      0x20\n      add\n      swap1\n      dup2\n      mstore\n      0x20\n      add\n      0x0\n      keccak256\n        /* \"contracts/ds-token/token.sol\":2699:2726  _approvals[guy][msg.sender] */\n      0x0\n        /* \"contracts/ds-token/token.sol\":2715:2725  msg.sender */\n      caller\n        /* \"contracts/ds-token/token.sol\":2699:2726  _approvals[guy][msg.sender] */\n      0xffffffffffffffffffffffffffffffffffffffff\n      and\n      0xffffffffffffffffffffffffffffffffffffffff\n      and\n      dup2\n      mstore\n      0x20\n      add\n      swap1\n      dup2\n      mstore\n      0x20\n      add\n      0x0\n      keccak256\n      sload\n        /* \"contracts/ds-token/token.sol\":2728:2731  wad */\n      dup3\n        /* \"contracts/ds-token/token.sol\":2695:2698  sub */\n      tag_124\n        /* \"contracts/ds-token/token.sol\":2695:2732  sub(_approvals[guy][msg.sender], wad) */\n      jump\t// in\n    tag_155:\n        /* \"contracts/ds-token/token.sol\":2665:2675  _approvals */\n      0x2\n        /* \"contracts/ds-token/token.sol\":2665:2680  _approvals[guy] */\n      0x0\n        /* \"contracts/ds-token/token.sol\":2676:2679  guy */\n      dup5\n        /* \"contracts/ds-token/token.sol\":2665:2680  _approvals[guy] */\n      0xffffffffffffffffffffffffffffffffffffffff\n      and\n      0xffffffffffffffffffffffffffffffffffffffff\n      and\n      dup2\n      mstore\n      0x20\n      add\n      swap1\n      dup2\n      mstore\n      0x20\n      add\n      0x0\n      keccak256\n        /* \"contracts/ds-token/token.sol\":2665:2692  _approvals[guy][msg.sender] */\n      0x0\n        /* \"contracts/ds-token/token.sol\":2681:2691  msg.sender */\n      caller\n        /* \"contracts/ds-token/token.sol\":2665:2692  _approvals[guy][msg.sender] */\n      0xffffffffffffffffffffffffffffffffffffffff\n      and\n      0xffffffffffffffffffffffffffffffffffffffff\n      and\n      dup2\n      mstore\n      0x20\n      add\n      swap1\n      dup2\n      mstore\n      0x20\n      add\n      0x0\n      keccak256\n        /* \"contracts/ds-token/token.sol\":2665:2732  _approvals[guy][msg.sender] = sub(_approvals[guy][msg.sender], wad) */\n      dup2\n      swap1\n      sstore\n      pop\n        /* \"contracts/ds-token/token.sol\":2585:2743  if (guy != msg.sender && _approvals[guy][msg.sender] != uint(-1)) {... */\n    tag_154:\n        /* \"contracts/ds-token/token.sol\":2770:2794  sub(_balances[guy], wad) */\n      tag_156\n        /* \"contracts/ds-token/token.sol\":2774:2783  _balances */\n      0x1\n        /* \"contracts/ds-token/token.sol\":2774:2788  _balances[guy] */\n      0x0\n        /* \"contracts/ds-token/token.sol\":2784:2787  guy */\n      dup5\n        /* \"contracts/ds-token/token.sol\":2774:2788  _balances[guy] */\n      0xffffffffffffffffffffffffffffffffffffffff\n      and\n      0xffffffffffffffffffffffffffffffffffffffff\n      and\n      dup2\n      mstore\n      0x20\n      add\n      swap1\n      dup2\n      mstore\n      0x20\n      add\n      0x0\n      keccak256\n      sload\n        /* \"contracts/ds-token/token.sol\":2790:2793  wad */\n      dup3\n        /* \"contracts/ds-token/token.sol\":2770:2773  sub */\n      tag_124\n        /* \"contracts/ds-token/token.sol\":2770:2794  sub(_balances[guy], wad) */\n      jump\t// in\n    tag_156:\n        /* \"contracts/ds-token/token.sol\":2753:2762  _balances */\n      0x1\n        /* \"contracts/ds-token/token.sol\":2753:2767  _balances[guy] */\n      0x0\n        /* \"contracts/ds-token/token.sol\":2763:2766  guy */\n      dup5\n        /* \"contracts/ds-token/token.sol\":2753:2767  _balances[guy] */\n      0xffffffffffffffffffffffffffffffffffffffff\n      and\n      0xffffffffffffffffffffffffffffffffffffffff\n      and\n      dup2\n      mstore\n      0x20\n      add\n      swap1\n      dup2\n      mstore\n      0x20\n      add\n      0x0\n      keccak256\n        /* \"contracts/ds-token/token.sol\":2753:2794  _balances[guy] = sub(_balances[guy], wad) */\n      dup2\n      swap1\n      sstore\n      pop\n        /* \"contracts/ds-token/token.sol\":2814:2831  sub(_supply, wad) */\n      tag_157\n        /* \"contracts/ds-token/token.sol\":2818:2825  _supply */\n      sload(0x0)\n        /* \"contracts/ds-token/token.sol\":2827:2830  wad */\n      dup3\n        /* \"contracts/ds-token/token.sol\":2814:2817  sub */\n      tag_124\n        /* \"contracts/ds-token/token.sol\":2814:2831  sub(_supply, wad) */\n      jump\t// in\n    tag_157:\n        /* \"contracts/ds-token/token.sol\":2804:2811  _supply */\n      0x0\n        /* \"contracts/ds-token/token.sol\":2804:2831  _supply = sub(_supply, wad) */\n      dup2\n      swap1\n      sstore\n      pop\n        /* \"contracts/ds-token/token.sol\":2846:2849  guy */\n      dup2\n        /* \"contracts/ds-token/token.sol\":2841:2855  Burn(guy, wad) */\n      0xffffffffffffffffffffffffffffffffffffffff\n      and\n      0xcc16f5dbb4873280815c1ee09dbd06736cffcc184412cf7a71a0fdb75d397ca5\n        /* \"contracts/ds-token/token.sol\":2851:2854  wad */\n      dup3\n        /* \"contracts/ds-token/token.sol\":2841:2855  Burn(guy, wad) */\n      mload(0x40)\n      dup1\n      dup3\n      dup2\n      mstore\n      0x20\n      add\n      swap2\n      pop\n      pop\n      mload(0x40)\n      dup1\n      swap2\n      sub\n      swap1\n      log2\n        /* \"contracts/ds-token/token.sol\":2516:2862  function burn(address guy, uint wad) public auth stoppable {... */\n      pop\n      pop\n      jump\t// out\n        /* \"contracts/ds-token/token.sol\":2185:2254  function mint(uint wad) public {... */\n    tag_77:\n        /* \"contracts/ds-token/token.sol\":2226:2247  mint(msg.sender, wad) */\n      tag_159\n        /* \"contracts/ds-token/token.sol\":2231:2241  msg.sender */\n      caller\n        /* \"contracts/ds-token/token.sol\":2243:2246  wad */\n      dup3\n        /* \"contracts/ds-token/token.sol\":2226:2230  mint */\n      tag_50\n        /* \"contracts/ds-token/token.sol\":2226:2247  mint(msg.sender, wad) */\n      jump\t// in\n    tag_159:\n        /* \"contracts/ds-token/token.sol\":2185:2254  function mint(uint wad) public {... */\n      pop\n      jump\t// out\n        /* \"contracts/ds-token/base.sol\":1494:1615  function transfer(address dst, uint wad) public returns (bool) {... */\n    tag_80:\n        /* \"contracts/ds-token/base.sol\":1551:1555  bool */\n      0x0\n        /* \"contracts/ds-token/base.sol\":1574:1608  transferFrom(msg.sender, dst, wad) */\n      tag_161\n        /* \"contracts/ds-token/base.sol\":1587:1597  msg.sender */\n      caller\n        /* \"contracts/ds-token/base.sol\":1599:1602  dst */\n      dup5\n        /* \"contracts/ds-token/base.sol\":1604:1607  wad */\n      dup5\n        /* \"contracts/ds-token/base.sol\":1574:1586  transferFrom */\n      tag_44\n        /* \"contracts/ds-token/base.sol\":1574:1608  transferFrom(msg.sender, dst, wad) */\n      jump\t// in\n    tag_161:\n        /* \"contracts/ds-token/base.sol\":1567:1608  return transferFrom(msg.sender, dst, wad) */\n      swap1\n      pop\n        /* \"contracts/ds-token/base.sol\":1494:1615  function transfer(address dst, uint wad) public returns (bool) {... */\n      swap3\n      swap2\n      pop\n      pop\n      jump\t// out\n        /* \"contracts/ds-token/token.sol\":1878:1973  function push(address dst, uint wad) public {... */\n    tag_83:\n        /* \"contracts/ds-token/token.sol\":1932:1966  transferFrom(msg.sender, dst, wad) */\n      tag_163\n        /* \"contracts/ds-token/token.sol\":1945:1955  msg.sender */\n      caller\n        /* \"contracts/ds-token/token.sol\":1957:1960  dst */\n      dup4\n        /* \"contracts/ds-token/token.sol\":1962:1965  wad */\n      dup4\n        /* \"contracts/ds-token/token.sol\":1932:1944  transferFrom */\n      tag_44\n        /* \"contracts/ds-token/token.sol\":1932:1966  transferFrom(msg.sender, dst, wad) */\n      jump\t// in\n    tag_163:\n      pop\n        /* \"contracts/ds-token/token.sol\":1878:1973  function push(address dst, uint wad) public {... */\n      pop\n      pop\n      jump\t// out\n        /* \"contracts/ds-token/token.sol\":2078:2179  function move(address src, address dst, uint wad) public {... */\n    tag_86:\n        /* \"contracts/ds-token/token.sol\":2145:2172  transferFrom(src, dst, wad) */\n      tag_165\n        /* \"contracts/ds-token/token.sol\":2158:2161  src */\n      dup4\n        /* \"contracts/ds-token/token.sol\":2163:2166  dst */\n      dup4\n        /* \"contracts/ds-token/token.sol\":2168:2171  wad */\n      dup4\n        /* \"contracts/ds-token/token.sol\":2145:2157  transferFrom */\n      tag_44\n        /* \"contracts/ds-token/token.sol\":2145:2172  transferFrom(src, dst, wad) */\n      jump\t// in\n    tag_165:\n      pop\n        /* \"contracts/ds-token/token.sol\":2078:2179  function move(address src, address dst, uint wad) public {... */\n      pop\n      pop\n      pop\n      jump\t// out\n        /* \"contracts/ds-stop/stop.sol\":1050:1116  function start() public auth note {... */\n    tag_89:\n        /* \"contracts/ds-auth/auth.sol\":1508:1541  isAuthorized(msg.sender, msg.sig) */\n      tag_167\n        /* \"contracts/ds-auth/auth.sol\":1521:1531  msg.sender */\n      caller\n        /* \"contracts/ds-auth/auth.sol\":1533:1540  msg.sig */\n      and(0xffffffff00000000000000000000000000000000000000000000000000000000, calldataload(0x0))\n        /* \"contracts/ds-auth/auth.sol\":1508:1520  isAuthorized */\n      tag_104\n        /* \"contracts/ds-auth/auth.sol\":1508:1541  isAuthorized(msg.sender, msg.sig) */\n      jump\t// in\n    tag_167:\n        /* \"contracts/ds-auth/auth.sol\":1500:1566  require(isAuthorized(msg.sender, msg.sig), \"ds-auth-unauthorized\") */\n      iszero\n      iszero\n      tag_168\n      jumpi\n      mload(0x40)\n      0x8c379a000000000000000000000000000000000000000000000000000000000\n      dup2\n      mstore\n      0x4\n      add\n      dup1\n      dup1\n      0x20\n      add\n      dup3\n      dup2\n      sub\n      dup3\n      mstore\n      0x14\n      dup2\n      mstore\n      0x20\n      add\n      dup1\n      0x64732d617574682d756e617574686f72697a6564000000000000000000000000\n      dup2\n      mstore\n      pop\n      0x20\n      add\n      swap2\n      pop\n      pop\n      mload(0x40)\n      dup1\n      swap2\n      sub\n      swap1\n      revert\n    tag_168:\n        /* \"contracts/ds-note/note.sol\":1003:1014  bytes32 foo */\n      0x0\n        /* \"contracts/ds-note/note.sol\":1024:1035  bytes32 bar */\n      dup1\n        /* \"contracts/ds-note/note.sol\":1089:1090  4 */\n      0x4\n        /* \"contracts/ds-note/note.sol\":1076:1091  calldataload(4) */\n      calldataload\n        /* \"contracts/ds-note/note.sol\":1069:1091  foo := calldataload(4) */\n      swap2\n      pop\n        /* \"contracts/ds-note/note.sol\":1124:1126  36 */\n      0x24\n        /* \"contracts/ds-note/note.sol\":1111:1127  calldataload(36) */\n      calldataload\n        /* \"contracts/ds-note/note.sol\":1104:1127  bar := calldataload(36) */\n      swap1\n      pop\n        /* \"contracts/ds-note/note.sol\":1181:1184  bar */\n      dup1\n        /* \"contracts/ds-note/note.sol\":1147:1206  LogNote(msg.sig, msg.sender, foo, bar, msg.value, msg.data) */\n      not(0x0)\n      and\n        /* \"contracts/ds-note/note.sol\":1176:1179  foo */\n      dup3\n        /* \"contracts/ds-note/note.sol\":1147:1206  LogNote(msg.sig, msg.sender, foo, bar, msg.value, msg.data) */\n      not(0x0)\n      and\n        /* \"contracts/ds-note/note.sol\":1164:1174  msg.sender */\n      caller\n        /* \"contracts/ds-note/note.sol\":1147:1206  LogNote(msg.sig, msg.sender, foo, bar, msg.value, msg.data) */\n      0xffffffffffffffffffffffffffffffffffffffff\n      and\n        /* \"contracts/ds-note/note.sol\":1155:1162  msg.sig */\n      and(0xffffffff00000000000000000000000000000000000000000000000000000000, calldataload(0x0))\n        /* \"contracts/ds-note/note.sol\":1147:1206  LogNote(msg.sig, msg.sender, foo, bar, msg.value, msg.data) */\n      not(0xffffffffffffffffffffffffffffffffffffffffffffffffffffffff)\n      and\n        /* \"contracts/ds-note/note.sol\":1186:1195  msg.value */\n      callvalue\n        /* \"contracts/ds-note/note.sol\":1197:1205  msg.data */\n      0x0\n      calldatasize\n        /* \"contracts/ds-note/note.sol\":1147:1206  LogNote(msg.sig, msg.sender, foo, bar, msg.value, msg.data) */\n      mload(0x40)\n      dup1\n      dup5\n      dup2\n      mstore\n      0x20\n      add\n      dup1\n      0x20\n      add\n      dup3\n      dup2\n      sub\n      dup3\n      mstore\n      dup5\n      dup5\n      dup3\n      dup2\n      dup2\n      mstore\n      0x20\n      add\n      swap3\n      pop\n      dup1\n      dup3\n      dup5\n      calldatacopy\n      dup3\n      add\n      swap2\n      pop\n      pop\n      swap5\n      pop\n      pop\n      pop\n      pop\n      pop\n      mload(0x40)\n      dup1\n      swap2\n      sub\n      swap1\n      log4\n        /* \"contracts/ds-stop/stop.sol\":1104:1109  false */\n      0x0\n        /* \"contracts/ds-stop/stop.sol\":1094:1101  stopped */\n      0x4\n      0x14\n        /* \"contracts/ds-stop/stop.sol\":1094:1109  stopped = false */\n      0x100\n      exp\n      dup2\n      sload\n      dup2\n      0xff\n      mul\n      not\n      and\n      swap1\n      dup4\n      iszero\n      iszero\n      mul\n      or\n      swap1\n      sstore\n      pop\n        /* \"contracts/ds-auth/auth.sol\":1576:1577  _ */\n      pop\n      pop\n        /* \"contracts/ds-stop/stop.sol\":1050:1116  function start() public auth note {... */\n      jump\t// out\n        /* \"contracts/ds-auth/auth.sol\":1005:1033  DSAuthority public authority */\n    tag_92:\n      0x3\n      0x0\n      swap1\n      sload\n      swap1\n      0x100\n      exp\n      swap1\n      div\n      0xffffffffffffffffffffffffffffffffffffffff\n      and\n      dup2\n      jump\t// out\n        /* \"contracts/ds-token/token.sol\":1176:1290  function approve(address guy) public stoppable returns (bool) {... */\n    tag_95:\n        /* \"contracts/ds-token/token.sol\":1232:1236  bool */\n      0x0\n        /* \"contracts/ds-stop/stop.sol\":928:935  stopped */\n      0x4\n      0x14\n      swap1\n      sload\n      swap1\n      0x100\n      exp\n      swap1\n      div\n      0xff\n      and\n        /* \"contracts/ds-stop/stop.sol\":927:935  !stopped */\n      iszero\n        /* \"contracts/ds-stop/stop.sol\":919:958  require(!stopped, \"ds-stop-is-stopped\") */\n      iszero\n      iszero\n      tag_172\n      jumpi\n      mload(0x40)\n      0x8c379a000000000000000000000000000000000000000000000000000000000\n      dup2\n      mstore\n      0x4\n      add\n      dup1\n      dup1\n      0x20\n      add\n      dup3\n      dup2\n      sub\n      dup3\n      mstore\n      0x12\n      dup2\n      mstore\n      0x20\n      add\n      dup1\n      0x64732d73746f702d69732d73746f707065640000000000000000000000000000\n      dup2\n      mstore\n      pop\n      0x20\n      add\n      swap2\n      pop\n      pop\n      mload(0x40)\n      dup1\n      swap2\n      sub\n      swap1\n      revert\n    tag_172:\n        /* \"contracts/ds-token/token.sol\":1255:1283  super.approve(guy, uint(-1)) */\n      tag_174\n        /* \"contracts/ds-token/token.sol\":1269:1272  guy */\n      dup3\n        /* \"contracts/ds-token/token.sol\":1279:1281  -1 */\n      0xffffffffffffffffffffffffffffffffffffffffffffffffffffffffffffffff\n        /* \"contracts/ds-token/token.sol\":1255:1268  super.approve */\n      tag_112\n        /* \"contracts/ds-token/token.sol\":1255:1283  super.approve(guy, uint(-1)) */\n      jump\t// in\n    tag_174:\n        /* \"contracts/ds-token/token.sol\":1248:1283  return super.approve(guy, uint(-1)) */\n      swap1\n      pop\n        /* \"contracts/ds-token/token.sol\":1176:1290  function approve(address guy) public stoppable returns (bool) {... */\n      swap2\n      swap1\n      pop\n      jump\t// out\n        /* \"contracts/ds-token/base.sol\":1372:1488  function allowance(address src, address guy) public view returns (uint) {... */\n    tag_98:\n        /* \"contracts/ds-token/base.sol\":1438:1442  uint */\n      0x0\n        /* \"contracts/ds-token/base.sol\":1461:1471  _approvals */\n      0x2\n        /* \"contracts/ds-token/base.sol\":1461:1476  _approvals[src] */\n      0x0\n        /* \"contracts/ds-token/base.sol\":1472:1475  src */\n      dup5\n        /* \"contracts/ds-token/base.sol\":1461:1476  _approvals[src] */\n      0xffffffffffffffffffffffffffffffffffffffff\n      and\n      0xffffffffffffffffffffffffffffffffffffffff\n      and\n      dup2\n      mstore\n      0x20\n      add\n      swap1\n      dup2\n      mstore\n      0x20\n      add\n      0x0\n      keccak256\n        /* \"contracts/ds-token/base.sol\":1461:1481  _approvals[src][guy] */\n      0x0\n        /* \"contracts/ds-token/base.sol\":1477:1480  guy */\n      dup4\n        /* \"contracts/ds-token/base.sol\":1461:1481  _approvals[src][guy] */\n      0xffffffffffffffffffffffffffffffffffffffff\n      and\n      0xffffffffffffffffffffffffffffffffffffffff\n      and\n      dup2\n      mstore\n      0x20\n      add\n      swap1\n      dup2\n      mstore\n      0x20\n      add\n      0x0\n      keccak256\n      sload\n        /* \"contracts/ds-token/base.sol\":1454:1481  return _approvals[src][guy] */\n      swap1\n      pop\n        /* \"contracts/ds-token/base.sol\":1372:1488  function allowance(address src, address guy) public view returns (uint) {... */\n      swap3\n      swap2\n      pop\n      pop\n      jump\t// out\n        /* \"contracts/ds-token/token.sol\":1978:2073  function pull(address src, uint wad) public {... */\n    tag_101:\n        /* \"contracts/ds-token/token.sol\":2032:2066  transferFrom(src, msg.sender, wad) */\n      tag_177\n        /* \"contracts/ds-token/token.sol\":2045:2048  src */\n      dup3\n        /* \"contracts/ds-token/token.sol\":2050:2060  msg.sender */\n      caller\n        /* \"contracts/ds-token/token.sol\":2062:2065  wad */\n      dup4\n        /* \"contracts/ds-token/token.sol\":2032:2044  transferFrom */\n      tag_44\n        /* \"contracts/ds-token/token.sol\":2032:2066  transferFrom(src, msg.sender, wad) */\n      jump\t// in\n    tag_177:\n      pop\n        /* \"contracts/ds-token/token.sol\":1978:2073  function pull(address src, uint wad) public {... */\n      pop\n      pop\n      jump\t// out\n        /* \"contracts/ds-auth/auth.sol\":1590:1969  function isAuthorized(address src, bytes4 sig) internal view returns (bool) {... */\n    tag_104:\n        /* \"contracts/ds-auth/auth.sol\":1660:1664  bool */\n      0x0\n        /* \"contracts/ds-auth/auth.sol\":1695:1699  this */\n      address\n        /* \"contracts/ds-auth/auth.sol\":1680:1700  src == address(this) */\n      0xffffffffffffffffffffffffffffffffffffffff\n      and\n        /* \"contracts/ds-auth/auth.sol\":1680:1683  src */\n      dup4\n        /* \"contracts/ds-auth/auth.sol\":1680:1700  src == address(this) */\n      0xffffffffffffffffffffffffffffffffffffffff\n      and\n      eq\n        /* \"contracts/ds-auth/auth.sol\":1676:1963  if (src == address(this)) {... */\n      iszero\n      tag_179\n      jumpi\n        /* \"contracts/ds-auth/auth.sol\":1723:1727  true */\n      0x1\n        /* \"contracts/ds-auth/auth.sol\":1716:1727  return true */\n      swap1\n      pop\n      jump(tag_178)\n        /* \"contracts/ds-auth/auth.sol\":1676:1963  if (src == address(this)) {... */\n    tag_179:\n        /* \"contracts/ds-auth/auth.sol\":1755:1760  owner */\n      0x4\n      0x0\n      swap1\n      sload\n      swap1\n      0x100\n      exp\n      swap1\n      div\n      0xffffffffffffffffffffffffffffffffffffffff\n      and\n        /* \"contracts/ds-auth/auth.sol\":1748:1760  src == owner */\n      0xffffffffffffffffffffffffffffffffffffffff\n      and\n        /* \"contracts/ds-auth/auth.sol\":1748:1751  src */\n      dup4\n        /* \"contracts/ds-auth/auth.sol\":1748:1760  src == owner */\n      0xffffffffffffffffffffffffffffffffffffffff\n      and\n      eq\n        /* \"contracts/ds-auth/auth.sol\":1744:1963  if (src == owner) {... */\n      iszero\n      tag_181\n      jumpi\n        /* \"contracts/ds-auth/auth.sol\":1783:1787  true */\n      0x1\n        /* \"contracts/ds-auth/auth.sol\":1776:1787  return true */\n      swap1\n      pop\n      jump(tag_178)\n        /* \"contracts/ds-auth/auth.sol\":1744:1963  if (src == owner) {... */\n    tag_181:\n        /* \"contracts/ds-auth/auth.sol\":1841:1842  0 */\n      0x0\n        /* \"contracts/ds-auth/auth.sol\":1808:1844  authority == DSAuthority(address(0)) */\n      0xffffffffffffffffffffffffffffffffffffffff\n      and\n        /* \"contracts/ds-auth/auth.sol\":1808:1817  authority */\n      0x3\n      0x0\n      swap1\n      sload\n      swap1\n      0x100\n      exp\n      swap1\n      div\n      0xffffffffffffffffffffffffffffffffffffffff\n      and\n        /* \"contracts/ds-auth/auth.sol\":1808:1844  authority == DSAuthority(address(0)) */\n      0xffffffffffffffffffffffffffffffffffffffff\n      and\n      eq\n        /* \"contracts/ds-auth/auth.sol\":1804:1963  if (authority == DSAuthority(address(0))) {... */\n      iszero\n      tag_183\n      jumpi\n        /* \"contracts/ds-auth/auth.sol\":1867:1872  false */\n      0x0\n        /* \"contracts/ds-auth/auth.sol\":1860:1872  return false */\n      swap1\n      pop\n      jump(tag_178)\n        /* \"contracts/ds-auth/auth.sol\":1804:1963  if (authority == DSAuthority(address(0))) {... */\n    tag_183:\n        /* \"contracts/ds-auth/auth.sol\":1910:1919  authority */\n      0x3\n      0x0\n      swap1\n      sload\n      swap1\n      0x100\n      exp\n      swap1\n      div\n      0xffffffffffffffffffffffffffffffffffffffff\n      and\n        /* \"contracts/ds-auth/auth.sol\":1910:1927  authority.canCall */\n      0xffffffffffffffffffffffffffffffffffffffff\n      and\n      0xb7009613\n        /* \"contracts/ds-auth/auth.sol\":1928:1931  src */\n      dup5\n        /* \"contracts/ds-auth/auth.sol\":1941:1945  this */\n      address\n        /* \"contracts/ds-auth/auth.sol\":1948:1951  sig */\n      dup6\n        /* \"contracts/ds-auth/auth.sol\":1910:1952  authority.canCall(src, address(this), sig) */\n      mload(0x40)\n      dup5\n      0xffffffff\n      and\n      0x100000000000000000000000000000000000000000000000000000000\n      mul\n      dup2\n      mstore\n      0x4\n      add\n      dup1\n      dup5\n      0xffffffffffffffffffffffffffffffffffffffff\n      and\n      0xffffffffffffffffffffffffffffffffffffffff\n      and\n      dup2\n      mstore\n      0x20\n      add\n      dup4\n      0xffffffffffffffffffffffffffffffffffffffff\n      and\n      0xffffffffffffffffffffffffffffffffffffffff\n      and\n      dup2\n      mstore\n      0x20\n      add\n      dup3\n      not(0xffffffffffffffffffffffffffffffffffffffffffffffffffffffff)\n      and\n      not(0xffffffffffffffffffffffffffffffffffffffffffffffffffffffff)\n      and\n      dup2\n      mstore\n      0x20\n      add\n      swap4\n      pop\n      pop\n      pop\n      pop\n      0x20\n      mload(0x40)\n      dup1\n      dup4\n      sub\n      dup2\n      0x0\n      dup8\n      dup1\n      extcodesize\n      iszero\n        /* \"--CODEGEN--\":8:17   */\n      dup1\n        /* \"--CODEGEN--\":5:7   */\n      iszero\n      tag_185\n      jumpi\n        /* \"--CODEGEN--\":30:31   */\n      0x0\n        /* \"--CODEGEN--\":27:28   */\n      dup1\n        /* \"--CODEGEN--\":20:32   */\n      revert\n        /* \"--CODEGEN--\":5:7   */\n    tag_185:\n        /* \"contracts/ds-auth/auth.sol\":1910:1952  authority.canCall(src, address(this), sig) */\n      pop\n      gas\n      call\n      iszero\n        /* \"--CODEGEN--\":8:17   */\n      dup1\n        /* \"--CODEGEN--\":5:7   */\n      iszero\n      tag_186\n      jumpi\n        /* \"--CODEGEN--\":45:61   */\n      returndatasize\n        /* \"--CODEGEN--\":42:43   */\n      0x0\n        /* \"--CODEGEN--\":39:40   */\n      dup1\n        /* \"--CODEGEN--\":24:62   */\n      returndatacopy\n        /* \"--CODEGEN--\":77:93   */\n      returndatasize\n        /* \"--CODEGEN--\":74:75   */\n      0x0\n        /* \"--CODEGEN--\":67:94   */\n      revert\n        /* \"--CODEGEN--\":5:7   */\n    tag_186:\n        /* \"contracts/ds-auth/auth.sol\":1910:1952  authority.canCall(src, address(this), sig) */\n      pop\n      pop\n      pop\n      pop\n      mload(0x40)\n      returndatasize\n        /* \"--CODEGEN--\":13:15   */\n      0x20\n        /* \"--CODEGEN--\":8:11   */\n      dup2\n        /* \"--CODEGEN--\":5:16   */\n      lt\n        /* \"--CODEGEN--\":2:4   */\n      iszero\n      tag_187\n      jumpi\n        /* \"--CODEGEN--\":29:30   */\n      0x0\n        /* \"--CODEGEN--\":26:27   */\n      dup1\n        /* \"--CODEGEN--\":19:31   */\n      revert\n        /* \"--CODEGEN--\":2:4   */\n    tag_187:\n        /* \"contracts/ds-auth/auth.sol\":1910:1952  authority.canCall(src, address(this), sig) */\n      dup2\n      add\n      swap1\n      dup1\n      dup1\n      mload\n      swap1\n      0x20\n      add\n      swap1\n      swap3\n      swap2\n      swap1\n      pop\n      pop\n      pop\n        /* \"contracts/ds-auth/auth.sol\":1903:1952  return authority.canCall(src, address(this), sig) */\n      swap1\n      pop\n        /* \"contracts/ds-auth/auth.sol\":1590:1969  function isAuthorized(address src, bytes4 sig) internal view returns (bool) {... */\n    tag_178:\n      swap3\n      swap2\n      pop\n      pop\n      jump\t// out\n        /* \"contracts/ds-token/base.sol\":2017:2192  function approve(address guy, uint wad) public returns (bool) {... */\n    tag_112:\n        /* \"contracts/ds-token/base.sol\":2073:2077  bool */\n      0x0\n        /* \"contracts/ds-token/base.sol\":2119:2122  wad */\n      dup2\n        /* \"contracts/ds-token/base.sol\":2089:2099  _approvals */\n      0x2\n        /* \"contracts/ds-token/base.sol\":2089:2111  _approvals[msg.sender] */\n      0x0\n        /* \"contracts/ds-token/base.sol\":2100:2110  msg.sender */\n      caller\n        /* \"contracts/ds-token/base.sol\":2089:2111  _approvals[msg.sender] */\n      0xffffffffffffffffffffffffffffffffffffffff\n      and\n      0xffffffffffffffffffffffffffffffffffffffff\n      and\n      dup2\n      mstore\n      0x20\n      add\n      swap1\n      dup2\n      mstore\n      0x20\n      add\n      0x0\n      keccak256\n        /* \"contracts/ds-token/base.sol\":2089:2116  _approvals[msg.sender][guy] */\n      0x0\n        /* \"contracts/ds-token/base.sol\":2112:2115  guy */\n      dup6\n        /* \"contracts/ds-token/base.sol\":2089:2116  _approvals[msg.sender][guy] */\n      0xffffffffffffffffffffffffffffffffffffffff\n      and\n      0xffffffffffffffffffffffffffffffffffffffff\n      and\n      dup2\n      mstore\n      0x20\n      add\n      swap1\n      dup2\n      mstore\n      0x20\n      add\n      0x0\n      keccak256\n        /* \"contracts/ds-token/base.sol\":2089:2122  _approvals[msg.sender][guy] = wad */\n      dup2\n      swap1\n      sstore\n      pop\n        /* \"contracts/ds-token/base.sol\":2154:2157  guy */\n      dup3\n        /* \"contracts/ds-token/base.sol\":2133:2163  Approval(msg.sender, guy, wad) */\n      0xffffffffffffffffffffffffffffffffffffffff\n      and\n        /* \"contracts/ds-token/base.sol\":2142:2152  msg.sender */\n      caller\n        /* \"contracts/ds-token/base.sol\":2133:2163  Approval(msg.sender, guy, wad) */\n      0xffffffffffffffffffffffffffffffffffffffff\n      and\n      0x8c5be1e5ebec7d5bd14f71427d1e84f3dd0314c0f7b2291e5b200ac8c7c3b925\n        /* \"contracts/ds-token/base.sol\":2159:2162  wad */\n      dup5\n        /* \"contracts/ds-token/base.sol\":2133:2163  Approval(msg.sender, guy, wad) */\n      mload(0x40)\n      dup1\n      dup3\n      dup2\n      mstore\n      0x20\n      add\n      swap2\n      pop\n      pop\n      mload(0x40)\n      dup1\n      swap2\n      sub\n      swap1\n      log3\n        /* \"contracts/ds-token/base.sol\":2181:2185  true */\n      0x1\n        /* \"contracts/ds-token/base.sol\":2174:2185  return true */\n      swap1\n      pop\n        /* \"contracts/ds-token/base.sol\":2017:2192  function approve(address guy, uint wad) public returns (bool) {... */\n      swap3\n      swap2\n      pop\n      pop\n      jump\t// out\n        /* \"contracts/ds-math/math.sol\":851:953  function sub(uint x, uint y) internal pure returns (uint z) {... */\n    tag_124:\n        /* \"contracts/ds-math/math.sol\":903:909  uint z */\n      0x0\n        /* \"contracts/ds-math/math.sol\":944:945  x */\n      dup3\n        /* \"contracts/ds-math/math.sol\":938:939  y */\n      dup3\n        /* \"contracts/ds-math/math.sol\":934:935  x */\n      dup5\n        /* \"contracts/ds-math/math.sol\":934:939  x - y */\n      sub\n        /* \"contracts/ds-math/math.sol\":930:939  z = x - y */\n      swap2\n      pop\n      dup2\n        /* \"contracts/ds-math/math.sol\":929:945  (z = x - y) <= x */\n      gt\n      iszero\n        /* \"contracts/ds-math/math.sol\":921:946  require((z = x - y) <= x) */\n      iszero\n      iszero\n      tag_190\n      jumpi\n      0x0\n      dup1\n      revert\n    tag_190:\n        /* \"contracts/ds-math/math.sol\":851:953  function sub(uint x, uint y) internal pure returns (uint z) {... */\n      swap3\n      swap2\n      pop\n      pop\n      jump\t// out\n        /* \"contracts/ds-math/math.sol\":744:846  function add(uint x, uint y) internal pure returns (uint z) {... */\n    tag_127:\n        /* \"contracts/ds-math/math.sol\":796:802  uint z */\n      0x0\n        /* \"contracts/ds-math/math.sol\":837:838  x */\n      dup3\n        /* \"contracts/ds-math/math.sol\":831:832  y */\n      dup3\n        /* \"contracts/ds-math/math.sol\":827:828  x */\n      dup5\n        /* \"contracts/ds-math/math.sol\":827:832  x + y */\n      add\n        /* \"contracts/ds-math/math.sol\":823:832  z = x + y */\n      swap2\n      pop\n      dup2\n        /* \"contracts/ds-math/math.sol\":822:838  (z = x + y) >= x */\n      lt\n      iszero\n        /* \"contracts/ds-math/math.sol\":814:839  require((z = x + y) >= x) */\n      iszero\n      iszero\n      tag_192\n      jumpi\n      0x0\n      dup1\n      revert\n    tag_192:\n        /* \"contracts/ds-math/math.sol\":744:846  function add(uint x, uint y) internal pure returns (uint z) {... */\n      swap3\n      swap2\n      pop\n      pop\n      jump\t// out\n\n    auxdata: 0xa165627a7a7230582095c958f810efed5c146656c701c788d1129fcb488fbed5f14cb1c379cbf497ff0029\n}\n",
				"bytecode": {
					"linkReferences": {},
					"object": "60806040526012600655600060079060001916905534801561002057600080fd5b5060405160208061205c83398101806040528101908080519060200190929190505050600080600160003373ffffffffffffffffffffffffffffffffffffffff1673ffffffffffffffffffffffffffffffffffffffff16815260200190815260200160002081905550806000819055505033600460006101000a81548173ffffffffffffffffffffffffffffffffffffffff021916908373ffffffffffffffffffffffffffffffffffffffff1602179055503373ffffffffffffffffffffffffffffffffffffffff167fce241d7ca1f669fee44b6fc00b8eba2df3bb514eed0f6f668f8f89096e81ed9460405160405180910390a2806005816000191690555050611f2c806101306000396000f300608060405260043610610149576000357c0100000000000000000000000000000000000000000000000000000000900463ffffffff16806306fdde031461014e57806307da68f514610181578063095ea7b31461019857806313af4035146101fd57806318160ddd1461024057806323b872dd1461026b578063313ce567146102f057806340c10f191461031b57806342966c68146103685780635ac801fe1461039557806370a08231146103c657806375f12b211461041d5780637a9e5e4b1461044c5780638da5cb5b1461048f57806395d89b41146104e65780639dc29fac14610519578063a0712d6814610566578063a9059cbb14610593578063b753a98c146105f8578063bb35783b14610645578063be9a6555146106b2578063bf7e214f146106c9578063daea85c514610720578063dd62ed3e1461077b578063f2d5d56b146107f2575b600080fd5b34801561015a57600080fd5b5061016361083f565b60405180826000191660001916815260200191505060405180910390f35b34801561018d57600080fd5b50610196610845565b005b3480156101a457600080fd5b506101e3600480360381019080803573ffffffffffffffffffffffffffffffffffffffff169060200190929190803590602001909291905050506109b1565b604051808215151515815260200191505060405180910390f35b34801561020957600080fd5b5061023e600480360381019080803573ffffffffffffffffffffffffffffffffffffffff169060200190929190505050610a4a565b005b34801561024c57600080fd5b50610255610b95565b6040518082815260200191505060405180910390f35b34801561027757600080fd5b506102d6600480360381019080803573ffffffffffffffffffffffffffffffffffffffff169060200190929190803573ffffffffffffffffffffffffffffffffffffffff16906020019092919080359060200190929190505050610b9e565b604051808215151515815260200191505060405180910390f35b3480156102fc57600080fd5b50610305610f91565b6040518082815260200191505060405180910390f35b34801561032757600080fd5b50610366600480360381019080803573ffffffffffffffffffffffffffffffffffffffff16906020019092919080359060200190929190505050610f97565b005b34801561037457600080fd5b50610393600480360381019080803590602001909291905050506111ae565b005b3480156103a157600080fd5b506103c460048036038101908080356000191690602001909291905050506111bb565b005b3480156103d257600080fd5b50610407600480360381019080803573ffffffffffffffffffffffffffffffffffffffff16906020019092919050505061126b565b6040518082815260200191505060405180910390f35b34801561042957600080fd5b506104326112b4565b604051808215151515815260200191505060405180910390f35b34801561045857600080fd5b5061048d600480360381019080803573ffffffffffffffffffffffffffffffffffffffff1690602001909291905050506112c7565b005b34801561049b57600080fd5b506104a4611412565b604051808273ffffffffffffffffffffffffffffffffffffffff1673ffffffffffffffffffffffffffffffffffffffff16815260200191505060405180910390f35b3480156104f257600080fd5b506104fb611438565b60405180826000191660001916815260200191505060405180910390f35b34801561052557600080fd5b50610564600480360381019080803573ffffffffffffffffffffffffffffffffffffffff1690602001909291908035906020019092919050505061143e565b005b34801561057257600080fd5b5061059160048036038101908080359060200190929190505050611839565b005b34801561059f57600080fd5b506105de600480360381019080803573ffffffffffffffffffffffffffffffffffffffff16906020019092919080359060200190929190505050611846565b604051808215151515815260200191505060405180910390f35b34801561060457600080fd5b50610643600480360381019080803573ffffffffffffffffffffffffffffffffffffffff1690602001909291908035906020019092919050505061185b565b005b34801561065157600080fd5b506106b0600480360381019080803573ffffffffffffffffffffffffffffffffffffffff169060200190929190803573ffffffffffffffffffffffffffffffffffffffff1690602001909291908035906020019092919050505061186b565b005b3480156106be57600080fd5b506106c761187c565b005b3480156106d557600080fd5b506106de6119e8565b604051808273ffffffffffffffffffffffffffffffffffffffff1673ffffffffffffffffffffffffffffffffffffffff16815260200191505060405180910390f35b34801561072c57600080fd5b50610761600480360381019080803573ffffffffffffffffffffffffffffffffffffffff169060200190929190505050611a0e565b604051808215151515815260200191505060405180910390f35b34801561078757600080fd5b506107dc600480360381019080803573ffffffffffffffffffffffffffffffffffffffff169060200190929190803573ffffffffffffffffffffffffffffffffffffffff169060200190929190505050611ac6565b6040518082815260200191505060405180910390f35b3480156107fe57600080fd5b5061083d600480360381019080803573ffffffffffffffffffffffffffffffffffffffff16906020019092919080359060200190929190505050611b4d565b005b60075481565b610873336000357fffffffff0000000000000000000000000000000000000000000000000000000016611b5d565b15156108e7576040517f08c379a00000000000000000000000000000000000000000000000000000000081526004018080602001828103825260148152602001807f64732d617574682d756e617574686f72697a656400000000000000000000000081525060200191505060405180910390fd5b60008060043591506024359050806000191682600019163373ffffffffffffffffffffffffffffffffffffffff166000357fffffffff00000000000000000000000000000000000000000000000000000000167bffffffffffffffffffffffffffffffffffffffffffffffffffffffff19163460003660405180848152602001806020018281038252848482818152602001925080828437820191505094505050505060405180910390a46001600460146101000a81548160ff0219169083151502179055505050565b6000600460149054906101000a900460ff16151515610a38576040517f08c379a00000000000000000000000000000000000000000000000000000000081526004018080602001828103825260128152602001807f64732d73746f702d69732d73746f70706564000000000000000000000000000081525060200191505060405180910390fd5b610a428383611dd6565b905092915050565b610a78336000357fffffffff0000000000000000000000000000000000000000000000000000000016611b5d565b1515610aec576040517f08c379a00000000000000000000000000000000000000000000000000000000081526004018080602001828103825260148152602001807f64732d617574682d756e617574686f72697a656400000000000000000000000081525060200191505060405180910390fd5b80600460006101000a81548173ffffffffffffffffffffffffffffffffffffffff021916908373ffffffffffffffffffffffffffffffffffffffff160217905550600460009054906101000a900473ffffffffffffffffffffffffffffffffffffffff1673ffffffffffffffffffffffffffffffffffffffff167fce241d7ca1f669fee44b6fc00b8eba2df3bb514eed0f6f668f8f89096e81ed9460405160405180910390a250565b60008054905090565b6000600460149054906101000a900460ff16151515610c25576040517f08c379a00000000000000000000000000000000000000000000000000000000081526004018080602001828103825260128152602001807f64732d73746f702d69732d73746f70706564000000000000000000000000000081525060200191505060405180910390fd5b3373ffffffffffffffffffffffffffffffffffffffff168473ffffffffffffffffffffffffffffffffffffffff1614158015610cfd57507fffffffffffffffffffffffffffffffffffffffffffffffffffffffffffffffff600260008673ffffffffffffffffffffffffffffffffffffffff1673ffffffffffffffffffffffffffffffffffffffff16815260200190815260200160002060003373ffffffffffffffffffffffffffffffffffffffff1673ffffffffffffffffffffffffffffffffffffffff1681526020019081526020016000205414155b15610e0957610d88600260008673ffffffffffffffffffffffffffffffffffffffff1673ffffffffffffffffffffffffffffffffffffffff16815260200190815260200160002060003373ffffffffffffffffffffffffffffffffffffffff1673ffffffffffffffffffffffffffffffffffffffff1681526020019081526020016000205483611ec8565b600260008673ffffffffffffffffffffffffffffffffffffffff1673ffffffffffffffffffffffffffffffffffffffff16815260200190815260200160002060003373ffffffffffffffffffffffffffffffffffffffff1673ffffffffffffffffffffffffffffffffffffffff168152602001908152602001600020819055505b610e52600160008673ffffffffffffffffffffffffffffffffffffffff1673ffffffffffffffffffffffffffffffffffffffff1681526020019081526020016000205483611ec8565b600160008673ffffffffffffffffffffffffffffffffffffffff1673ffffffffffffffffffffffffffffffffffffffff16815260200190815260200160002081905550610ede600160008573ffffffffffffffffffffffffffffffffffffffff1673ffffffffffffffffffffffffffffffffffffffff1681526020019081526020016000205483611ee4565b600160008573ffffffffffffffffffffffffffffffffffffffff1673ffffffffffffffffffffffffffffffffffffffff168152602001908152602001600020819055508273ffffffffffffffffffffffffffffffffffffffff168473ffffffffffffffffffffffffffffffffffffffff167fddf252ad1be2c89b69c2b068fc378daa952ba7f163c4a11628f55a4df523b3ef846040518082815260200191505060405180910390a3600190509392505050565b60065481565b610fc5336000357fffffffff0000000000000000000000000000000000000000000000000000000016611b5d565b1515611039576040517f08c379a00000000000000000000000000000000000000000000000000000000081526004018080602001828103825260148152602001807f64732d617574682d756e617574686f72697a656400000000000000000000000081525060200191505060405180910390fd5b600460149054906101000a900460ff161515156110be576040517f08c379a00000000000000000000000000000000000000000000000000000000081526004018080602001828103825260128152602001807f64732d73746f702d69732d73746f70706564000000000000000000000000000081525060200191505060405180910390fd5b611107600160008473ffffffffffffffffffffffffffffffffffffffff1673ffffffffffffffffffffffffffffffffffffffff1681526020019081526020016000205482611ee4565b600160008473ffffffffffffffffffffffffffffffffffffffff1673ffffffffffffffffffffffffffffffffffffffff1681526020019081526020016000208190555061115660005482611ee4565b6000819055508173ffffffffffffffffffffffffffffffffffffffff167f0f6798a560793a54c3bcfe86a93cde1e73087d944c0ea20544137d4121396885826040518082815260200191505060405180910390a25050565b6111b8338261143e565b50565b6111e9336000357fffffffff0000000000000000000000000000000000000000000000000000000016611b5d565b151561125d576040517f08c379a00000000000000000000000000000000000000000000000000000000081526004018080602001828103825260148152602001807f64732d617574682d756e617574686f72697a656400000000000000000000000081525060200191505060405180910390fd5b806007816000191690555050565b6000600160008373ffffffffffffffffffffffffffffffffffffffff1673ffffffffffffffffffffffffffffffffffffffff168152602001908152602001600020549050919050565b600460149054906101000a900460ff1681565b6112f5336000357fffffffff0000000000000000000000000000000000000000000000000000000016611b5d565b1515611369576040517f08c379a00000000000000000000000000000000000000000000000000000000081526004018080602001828103825260148152602001807f64732d617574682d756e617574686f72697a656400000000000000000000000081525060200191505060405180910390fd5b80600360006101000a81548173ffffffffffffffffffffffffffffffffffffffff021916908373ffffffffffffffffffffffffffffffffffffffff160217905550600360009054906101000a900473ffffffffffffffffffffffffffffffffffffffff1673ffffffffffffffffffffffffffffffffffffffff167f1abebea81bfa2637f28358c371278fb15ede7ea8dd28d2e03b112ff6d936ada460405160405180910390a250565b600460009054906101000a900473ffffffffffffffffffffffffffffffffffffffff1681565b60055481565b61146c336000357fffffffff0000000000000000000000000000000000000000000000000000000016611b5d565b15156114e0576040517f08c379a00000000000000000000000000000000000000000000000000000000081526004018080602001828103825260148152602001807f64732d617574682d756e617574686f72697a656400000000000000000000000081525060200191505060405180910390fd5b600460149054906101000a900460ff16151515611565576040517f08c379a00000000000000000000000000000000000000000000000000000000081526004018080602001828103825260128152602001807f64732d73746f702d69732d73746f70706564000000000000000000000000000081525060200191505060405180910390fd5b3373ffffffffffffffffffffffffffffffffffffffff168273ffffffffffffffffffffffffffffffffffffffff161415801561163d57507fffffffffffffffffffffffffffffffffffffffffffffffffffffffffffffffff600260008473ffffffffffffffffffffffffffffffffffffffff1673ffffffffffffffffffffffffffffffffffffffff16815260200190815260200160002060003373ffffffffffffffffffffffffffffffffffffffff1673ffffffffffffffffffffffffffffffffffffffff1681526020019081526020016000205414155b15611749576116c8600260008473ffffffffffffffffffffffffffffffffffffffff1673ffffffffffffffffffffffffffffffffffffffff16815260200190815260200160002060003373ffffffffffffffffffffffffffffffffffffffff1673ffffffffffffffffffffffffffffffffffffffff1681526020019081526020016000205482611ec8565b600260008473ffffffffffffffffffffffffffffffffffffffff1673ffffffffffffffffffffffffffffffffffffffff16815260200190815260200160002060003373ffffffffffffffffffffffffffffffffffffffff1673ffffffffffffffffffffffffffffffffffffffff168152602001908152602001600020819055505b611792600160008473ffffffffffffffffffffffffffffffffffffffff1673ffffffffffffffffffffffffffffffffffffffff1681526020019081526020016000205482611ec8565b600160008473ffffffffffffffffffffffffffffffffffffffff1673ffffffffffffffffffffffffffffffffffffffff168152602001908152602001600020819055506117e160005482611ec8565b6000819055508173ffffffffffffffffffffffffffffffffffffffff167fcc16f5dbb4873280815c1ee09dbd06736cffcc184412cf7a71a0fdb75d397ca5826040518082815260200191505060405180910390a25050565b6118433382610f97565b50565b6000611853338484610b9e565b905092915050565b611866338383610b9e565b505050565b611876838383610b9e565b50505050565b6118aa336000357fffffffff0000000000000000000000000000000000000000000000000000000016611b5d565b151561191e576040517f08c379a00000000000000000000000000000000000000000000000000000000081526004018080602001828103825260148152602001807f64732d617574682d756e617574686f72697a656400000000000000000000000081525060200191505060405180910390fd5b60008060043591506024359050806000191682600019163373ffffffffffffffffffffffffffffffffffffffff166000357fffffffff00000000000000000000000000000000000000000000000000000000167bffffffffffffffffffffffffffffffffffffffffffffffffffffffff19163460003660405180848152602001806020018281038252848482818152602001925080828437820191505094505050505060405180910390a46000600460146101000a81548160ff0219169083151502179055505050565b600360009054906101000a900473ffffffffffffffffffffffffffffffffffffffff1681565b6000600460149054906101000a900460ff16151515611a95576040517f08c379a00000000000000000000000000000000000000000000000000000000081526004018080602001828103825260128152602001807f64732d73746f702d69732d73746f70706564000000000000000000000000000081525060200191505060405180910390fd5b611abf827fffffffffffffffffffffffffffffffffffffffffffffffffffffffffffffffff611dd6565b9050919050565b6000600260008473ffffffffffffffffffffffffffffffffffffffff1673ffffffffffffffffffffffffffffffffffffffff16815260200190815260200160002060008373ffffffffffffffffffffffffffffffffffffffff1673ffffffffffffffffffffffffffffffffffffffff16815260200190815260200160002054905092915050565b611b58823383610b9e565b505050565b60003073ffffffffffffffffffffffffffffffffffffffff168373ffffffffffffffffffffffffffffffffffffffff161415611b9c5760019050611dd0565b600460009054906101000a900473ffffffffffffffffffffffffffffffffffffffff1673ffffffffffffffffffffffffffffffffffffffff168373ffffffffffffffffffffffffffffffffffffffff161415611bfb5760019050611dd0565b600073ffffffffffffffffffffffffffffffffffffffff16600360009054906101000a900473ffffffffffffffffffffffffffffffffffffffff1673ffffffffffffffffffffffffffffffffffffffff161415611c5b5760009050611dd0565b600360009054906101000a900473ffffffffffffffffffffffffffffffffffffffff1673ffffffffffffffffffffffffffffffffffffffff1663b70096138430856040518463ffffffff167c0100000000000000000000000000000000000000000000000000000000028152600401808473ffffffffffffffffffffffffffffffffffffffff1673ffffffffffffffffffffffffffffffffffffffff1681526020018373ffffffffffffffffffffffffffffffffffffffff1673ffffffffffffffffffffffffffffffffffffffff168152602001827bffffffffffffffffffffffffffffffffffffffffffffffffffffffff19167bffffffffffffffffffffffffffffffffffffffffffffffffffffffff191681526020019350505050602060405180830381600087803b158015611d9257600080fd5b505af1158015611da6573d6000803e3d6000fd5b505050506040513d6020811015611dbc57600080fd5b810190808051906020019092919050505090505b92915050565b600081600260003373ffffffffffffffffffffffffffffffffffffffff1673ffffffffffffffffffffffffffffffffffffffff16815260200190815260200160002060008573ffffffffffffffffffffffffffffffffffffffff1673ffffffffffffffffffffffffffffffffffffffff168152602001908152602001600020819055508273ffffffffffffffffffffffffffffffffffffffff163373ffffffffffffffffffffffffffffffffffffffff167f8c5be1e5ebec7d5bd14f71427d1e84f3dd0314c0f7b2291e5b200ac8c7c3b925846040518082815260200191505060405180910390a36001905092915050565b60008282840391508111151515611ede57600080fd5b92915050565b60008282840191508110151515611efa57600080fd5b929150505600a165627a7a7230582095c958f810efed5c146656c701c788d1129fcb488fbed5f14cb1c379cbf497ff0029",
					"opcodes": "PUSH1 0x80 PUSH1 0x40 MSTORE PUSH1 0x12 PUSH1 0x6 SSTORE PUSH1 0x0 PUSH1 0x7 SWAP1 PUSH1 0x0 NOT AND SWAP1 SSTORE CALLVALUE DUP1 ISZERO PUSH2 0x20 JUMPI PUSH1 0x0 DUP1 REVERT JUMPDEST POP PUSH1 0x40 MLOAD PUSH1 0x20 DUP1 PUSH2 0x205C DUP4 CODECOPY DUP2 ADD DUP1 PUSH1 0x40 MSTORE DUP2 ADD SWAP1 DUP1 DUP1 MLOAD SWAP1 PUSH1 0x20 ADD SWAP1 SWAP3 SWAP2 SWAP1 POP POP POP PUSH1 0x0 DUP1 PUSH1 0x1 PUSH1 0x0 CALLER PUSH20 0xFFFFFFFFFFFFFFFFFFFFFFFFFFFFFFFFFFFFFFFF AND PUSH20 0xFFFFFFFFFFFFFFFFFFFFFFFFFFFFFFFFFFFFFFFF AND DUP2 MSTORE PUSH1 0x20 ADD SWAP1 DUP2 MSTORE PUSH1 0x20 ADD PUSH1 0x0 KECCAK256 DUP2 SWAP1 SSTORE POP DUP1 PUSH1 0x0 DUP2 SWAP1 SSTORE POP POP CALLER PUSH1 0x4 PUSH1 0x0 PUSH2 0x100 EXP DUP2 SLOAD DUP2 PUSH20 0xFFFFFFFFFFFFFFFFFFFFFFFFFFFFFFFFFFFFFFFF MUL NOT AND SWAP1 DUP4 PUSH20 0xFFFFFFFFFFFFFFFFFFFFFFFFFFFFFFFFFFFFFFFF AND MUL OR SWAP1 SSTORE POP CALLER PUSH20 0xFFFFFFFFFFFFFFFFFFFFFFFFFFFFFFFFFFFFFFFF AND PUSH32 0xCE241D7CA1F669FEE44B6FC00B8EBA2DF3BB514EED0F6F668F8F89096E81ED94 PUSH1 0x40 MLOAD PUSH1 0x40 MLOAD DUP1 SWAP2 SUB SWAP1 LOG2 DUP1 PUSH1 0x5 DUP2 PUSH1 0x0 NOT AND SWAP1 SSTORE POP POP PUSH2 0x1F2C DUP1 PUSH2 0x130 PUSH1 0x0 CODECOPY PUSH1 0x0 RETURN STOP PUSH1 0x80 PUSH1 0x40 MSTORE PUSH1 0x4 CALLDATASIZE LT PUSH2 0x149 JUMPI PUSH1 0x0 CALLDATALOAD PUSH29 0x100000000000000000000000000000000000000000000000000000000 SWAP1 DIV PUSH4 0xFFFFFFFF AND DUP1 PUSH4 0x6FDDE03 EQ PUSH2 0x14E JUMPI DUP1 PUSH4 0x7DA68F5 EQ PUSH2 0x181 JUMPI DUP1 PUSH4 0x95EA7B3 EQ PUSH2 0x198 JUMPI DUP1 PUSH4 0x13AF4035 EQ PUSH2 0x1FD JUMPI DUP1 PUSH4 0x18160DDD EQ PUSH2 0x240 JUMPI DUP1 PUSH4 0x23B872DD EQ PUSH2 0x26B JUMPI DUP1 PUSH4 0x313CE567 EQ PUSH2 0x2F0 JUMPI DUP1 PUSH4 0x40C10F19 EQ PUSH2 0x31B JUMPI DUP1 PUSH4 0x42966C68 EQ PUSH2 0x368 JUMPI DUP1 PUSH4 0x5AC801FE EQ PUSH2 0x395 JUMPI DUP1 PUSH4 0x70A08231 EQ PUSH2 0x3C6 JUMPI DUP1 PUSH4 0x75F12B21 EQ PUSH2 0x41D JUMPI DUP1 PUSH4 0x7A9E5E4B EQ PUSH2 0x44C JUMPI DUP1 PUSH4 0x8DA5CB5B EQ PUSH2 0x48F JUMPI DUP1 PUSH4 0x95D89B41 EQ PUSH2 0x4E6 JUMPI DUP1 PUSH4 0x9DC29FAC EQ PUSH2 0x519 JUMPI DUP1 PUSH4 0xA0712D68 EQ PUSH2 0x566 JUMPI DUP1 PUSH4 0xA9059CBB EQ PUSH2 0x593 JUMPI DUP1 PUSH4 0xB753A98C EQ PUSH2 0x5F8 JUMPI DUP1 PUSH4 0xBB35783B EQ PUSH2 0x645 JUMPI DUP1 PUSH4 0xBE9A6555 EQ PUSH2 0x6B2 JUMPI DUP1 PUSH4 0xBF7E214F EQ PUSH2 0x6C9 JUMPI DUP1 PUSH4 0xDAEA85C5 EQ PUSH2 0x720 JUMPI DUP1 PUSH4 0xDD62ED3E EQ PUSH2 0x77B JUMPI DUP1 PUSH4 0xF2D5D56B EQ PUSH2 0x7F2 JUMPI JUMPDEST PUSH1 0x0 DUP1 REVERT JUMPDEST CALLVALUE DUP1 ISZERO PUSH2 0x15A JUMPI PUSH1 0x0 DUP1 REVERT JUMPDEST POP PUSH2 0x163 PUSH2 0x83F JUMP JUMPDEST PUSH1 0x40 MLOAD DUP1 DUP3 PUSH1 0x0 NOT AND PUSH1 0x0 NOT AND DUP2 MSTORE PUSH1 0x20 ADD SWAP2 POP POP PUSH1 0x40 MLOAD DUP1 SWAP2 SUB SWAP1 RETURN JUMPDEST CALLVALUE DUP1 ISZERO PUSH2 0x18D JUMPI PUSH1 0x0 DUP1 REVERT JUMPDEST POP PUSH2 0x196 PUSH2 0x845 JUMP JUMPDEST STOP JUMPDEST CALLVALUE DUP1 ISZERO PUSH2 0x1A4 JUMPI PUSH1 0x0 DUP1 REVERT JUMPDEST POP PUSH2 0x1E3 PUSH1 0x4 DUP1 CALLDATASIZE SUB DUP2 ADD SWAP1 DUP1 DUP1 CALLDATALOAD PUSH20 0xFFFFFFFFFFFFFFFFFFFFFFFFFFFFFFFFFFFFFFFF AND SWAP1 PUSH1 0x20 ADD SWAP1 SWAP3 SWAP2 SWAP1 DUP1 CALLDATALOAD SWAP1 PUSH1 0x20 ADD SWAP1 SWAP3 SWAP2 SWAP1 POP POP POP PUSH2 0x9B1 JUMP JUMPDEST PUSH1 0x40 MLOAD DUP1 DUP3 ISZERO ISZERO ISZERO ISZERO DUP2 MSTORE PUSH1 0x20 ADD SWAP2 POP POP PUSH1 0x40 MLOAD DUP1 SWAP2 SUB SWAP1 RETURN JUMPDEST CALLVALUE DUP1 ISZERO PUSH2 0x209 JUMPI PUSH1 0x0 DUP1 REVERT JUMPDEST POP PUSH2 0x23E PUSH1 0x4 DUP1 CALLDATASIZE SUB DUP2 ADD SWAP1 DUP1 DUP1 CALLDATALOAD PUSH20 0xFFFFFFFFFFFFFFFFFFFFFFFFFFFFFFFFFFFFFFFF AND SWAP1 PUSH1 0x20 ADD SWAP1 SWAP3 SWAP2 SWAP1 POP POP POP PUSH2 0xA4A JUMP JUMPDEST STOP JUMPDEST CALLVALUE DUP1 ISZERO PUSH2 0x24C JUMPI PUSH1 0x0 DUP1 REVERT JUMPDEST POP PUSH2 0x255 PUSH2 0xB95 JUMP JUMPDEST PUSH1 0x40 MLOAD DUP1 DUP3 DUP2 MSTORE PUSH1 0x20 ADD SWAP2 POP POP PUSH1 0x40 MLOAD DUP1 SWAP2 SUB SWAP1 RETURN JUMPDEST CALLVALUE DUP1 ISZERO PUSH2 0x277 JUMPI PUSH1 0x0 DUP1 REVERT JUMPDEST POP PUSH2 0x2D6 PUSH1 0x4 DUP1 CALLDATASIZE SUB DUP2 ADD SWAP1 DUP1 DUP1 CALLDATALOAD PUSH20 0xFFFFFFFFFFFFFFFFFFFFFFFFFFFFFFFFFFFFFFFF AND SWAP1 PUSH1 0x20 ADD SWAP1 SWAP3 SWAP2 SWAP1 DUP1 CALLDATALOAD PUSH20 0xFFFFFFFFFFFFFFFFFFFFFFFFFFFFFFFFFFFFFFFF AND SWAP1 PUSH1 0x20 ADD SWAP1 SWAP3 SWAP2 SWAP1 DUP1 CALLDATALOAD SWAP1 PUSH1 0x20 ADD SWAP1 SWAP3 SWAP2 SWAP1 POP POP POP PUSH2 0xB9E JUMP JUMPDEST PUSH1 0x40 MLOAD DUP1 DUP3 ISZERO ISZERO ISZERO ISZERO DUP2 MSTORE PUSH1 0x20 ADD SWAP2 POP POP PUSH1 0x40 MLOAD DUP1 SWAP2 SUB SWAP1 RETURN JUMPDEST CALLVALUE DUP1 ISZERO PUSH2 0x2FC JUMPI PUSH1 0x0 DUP1 REVERT JUMPDEST POP PUSH2 0x305 PUSH2 0xF91 JUMP JUMPDEST PUSH1 0x40 MLOAD DUP1 DUP3 DUP2 MSTORE PUSH1 0x20 ADD SWAP2 POP POP PUSH1 0x40 MLOAD DUP1 SWAP2 SUB SWAP1 RETURN JUMPDEST CALLVALUE DUP1 ISZERO PUSH2 0x327 JUMPI PUSH1 0x0 DUP1 REVERT JUMPDEST POP PUSH2 0x366 PUSH1 0x4 DUP1 CALLDATASIZE SUB DUP2 ADD SWAP1 DUP1 DUP1 CALLDATALOAD PUSH20 0xFFFFFFFFFFFFFFFFFFFFFFFFFFFFFFFFFFFFFFFF AND SWAP1 PUSH1 0x20 ADD SWAP1 SWAP3 SWAP2 SWAP1 DUP1 CALLDATALOAD SWAP1 PUSH1 0x20 ADD SWAP1 SWAP3 SWAP2 SWAP1 POP POP POP PUSH2 0xF97 JUMP JUMPDEST STOP JUMPDEST CALLVALUE DUP1 ISZERO PUSH2 0x374 JUMPI PUSH1 0x0 DUP1 REVERT JUMPDEST POP PUSH2 0x393 PUSH1 0x4 DUP1 CALLDATASIZE SUB DUP2 ADD SWAP1 DUP1 DUP1 CALLDATALOAD SWAP1 PUSH1 0x20 ADD SWAP1 SWAP3 SWAP2 SWAP1 POP POP POP PUSH2 0x11AE JUMP JUMPDEST STOP JUMPDEST CALLVALUE DUP1 ISZERO PUSH2 0x3A1 JUMPI PUSH1 0x0 DUP1 REVERT JUMPDEST POP PUSH2 0x3C4 PUSH1 0x4 DUP1 CALLDATASIZE SUB DUP2 ADD SWAP1 DUP1 DUP1 CALLDATALOAD PUSH1 0x0 NOT AND SWAP1 PUSH1 0x20 ADD SWAP1 SWAP3 SWAP2 SWAP1 POP POP POP PUSH2 0x11BB JUMP JUMPDEST STOP JUMPDEST CALLVALUE DUP1 ISZERO PUSH2 0x3D2 JUMPI PUSH1 0x0 DUP1 REVERT JUMPDEST POP PUSH2 0x407 PUSH1 0x4 DUP1 CALLDATASIZE SUB DUP2 ADD SWAP1 DUP1 DUP1 CALLDATALOAD PUSH20 0xFFFFFFFFFFFFFFFFFFFFFFFFFFFFFFFFFFFFFFFF AND SWAP1 PUSH1 0x20 ADD SWAP1 SWAP3 SWAP2 SWAP1 POP POP POP PUSH2 0x126B JUMP JUMPDEST PUSH1 0x40 MLOAD DUP1 DUP3 DUP2 MSTORE PUSH1 0x20 ADD SWAP2 POP POP PUSH1 0x40 MLOAD DUP1 SWAP2 SUB SWAP1 RETURN JUMPDEST CALLVALUE DUP1 ISZERO PUSH2 0x429 JUMPI PUSH1 0x0 DUP1 REVERT JUMPDEST POP PUSH2 0x432 PUSH2 0x12B4 JUMP JUMPDEST PUSH1 0x40 MLOAD DUP1 DUP3 ISZERO ISZERO ISZERO ISZERO DUP2 MSTORE PUSH1 0x20 ADD SWAP2 POP POP PUSH1 0x40 MLOAD DUP1 SWAP2 SUB SWAP1 RETURN JUMPDEST CALLVALUE DUP1 ISZERO PUSH2 0x458 JUMPI PUSH1 0x0 DUP1 REVERT JUMPDEST POP PUSH2 0x48D PUSH1 0x4 DUP1 CALLDATASIZE SUB DUP2 ADD SWAP1 DUP1 DUP1 CALLDATALOAD PUSH20 0xFFFFFFFFFFFFFFFFFFFFFFFFFFFFFFFFFFFFFFFF AND SWAP1 PUSH1 0x20 ADD SWAP1 SWAP3 SWAP2 SWAP1 POP POP POP PUSH2 0x12C7 JUMP JUMPDEST STOP JUMPDEST CALLVALUE DUP1 ISZERO PUSH2 0x49B JUMPI PUSH1 0x0 DUP1 REVERT JUMPDEST POP PUSH2 0x4A4 PUSH2 0x1412 JUMP JUMPDEST PUSH1 0x40 MLOAD DUP1 DUP3 PUSH20 0xFFFFFFFFFFFFFFFFFFFFFFFFFFFFFFFFFFFFFFFF AND PUSH20 0xFFFFFFFFFFFFFFFFFFFFFFFFFFFFFFFFFFFFFFFF AND DUP2 MSTORE PUSH1 0x20 ADD SWAP2 POP POP PUSH1 0x40 MLOAD DUP1 SWAP2 SUB SWAP1 RETURN JUMPDEST CALLVALUE DUP1 ISZERO PUSH2 0x4F2 JUMPI PUSH1 0x0 DUP1 REVERT JUMPDEST POP PUSH2 0x4FB PUSH2 0x1438 JUMP JUMPDEST PUSH1 0x40 MLOAD DUP1 DUP3 PUSH1 0x0 NOT AND PUSH1 0x0 NOT AND DUP2 MSTORE PUSH1 0x20 ADD SWAP2 POP POP PUSH1 0x40 MLOAD DUP1 SWAP2 SUB SWAP1 RETURN JUMPDEST CALLVALUE DUP1 ISZERO PUSH2 0x525 JUMPI PUSH1 0x0 DUP1 REVERT JUMPDEST POP PUSH2 0x564 PUSH1 0x4 DUP1 CALLDATASIZE SUB DUP2 ADD SWAP1 DUP1 DUP1 CALLDATALOAD PUSH20 0xFFFFFFFFFFFFFFFFFFFFFFFFFFFFFFFFFFFFFFFF AND SWAP1 PUSH1 0x20 ADD SWAP1 SWAP3 SWAP2 SWAP1 DUP1 CALLDATALOAD SWAP1 PUSH1 0x20 ADD SWAP1 SWAP3 SWAP2 SWAP1 POP POP POP PUSH2 0x143E JUMP JUMPDEST STOP JUMPDEST CALLVALUE DUP1 ISZERO PUSH2 0x572 JUMPI PUSH1 0x0 DUP1 REVERT JUMPDEST POP PUSH2 0x591 PUSH1 0x4 DUP1 CALLDATASIZE SUB DUP2 ADD SWAP1 DUP1 DUP1 CALLDATALOAD SWAP1 PUSH1 0x20 ADD SWAP1 SWAP3 SWAP2 SWAP1 POP POP POP PUSH2 0x1839 JUMP JUMPDEST STOP JUMPDEST CALLVALUE DUP1 ISZERO PUSH2 0x59F JUMPI PUSH1 0x0 DUP1 REVERT JUMPDEST POP PUSH2 0x5DE PUSH1 0x4 DUP1 CALLDATASIZE SUB DUP2 ADD SWAP1 DUP1 DUP1 CALLDATALOAD PUSH20 0xFFFFFFFFFFFFFFFFFFFFFFFFFFFFFFFFFFFFFFFF AND SWAP1 PUSH1 0x20 ADD SWAP1 SWAP3 SWAP2 SWAP1 DUP1 CALLDATALOAD SWAP1 PUSH1 0x20 ADD SWAP1 SWAP3 SWAP2 SWAP1 POP POP POP PUSH2 0x1846 JUMP JUMPDEST PUSH1 0x40 MLOAD DUP1 DUP3 ISZERO ISZERO ISZERO ISZERO DUP2 MSTORE PUSH1 0x20 ADD SWAP2 POP POP PUSH1 0x40 MLOAD DUP1 SWAP2 SUB SWAP1 RETURN JUMPDEST CALLVALUE DUP1 ISZERO PUSH2 0x604 JUMPI PUSH1 0x0 DUP1 REVERT JUMPDEST POP PUSH2 0x643 PUSH1 0x4 DUP1 CALLDATASIZE SUB DUP2 ADD SWAP1 DUP1 DUP1 CALLDATALOAD PUSH20 0xFFFFFFFFFFFFFFFFFFFFFFFFFFFFFFFFFFFFFFFF AND SWAP1 PUSH1 0x20 ADD SWAP1 SWAP3 SWAP2 SWAP1 DUP1 CALLDATALOAD SWAP1 PUSH1 0x20 ADD SWAP1 SWAP3 SWAP2 SWAP1 POP POP POP PUSH2 0x185B JUMP JUMPDEST STOP JUMPDEST CALLVALUE DUP1 ISZERO PUSH2 0x651 JUMPI PUSH1 0x0 DUP1 REVERT JUMPDEST POP PUSH2 0x6B0 PUSH1 0x4 DUP1 CALLDATASIZE SUB DUP2 ADD SWAP1 DUP1 DUP1 CALLDATALOAD PUSH20 0xFFFFFFFFFFFFFFFFFFFFFFFFFFFFFFFFFFFFFFFF AND SWAP1 PUSH1 0x20 ADD SWAP1 SWAP3 SWAP2 SWAP1 DUP1 CALLDATALOAD PUSH20 0xFFFFFFFFFFFFFFFFFFFFFFFFFFFFFFFFFFFFFFFF AND SWAP1 PUSH1 0x20 ADD SWAP1 SWAP3 SWAP2 SWAP1 DUP1 CALLDATALOAD SWAP1 PUSH1 0x20 ADD SWAP1 SWAP3 SWAP2 SWAP1 POP POP POP PUSH2 0x186B JUMP JUMPDEST STOP JUMPDEST CALLVALUE DUP1 ISZERO PUSH2 0x6BE JUMPI PUSH1 0x0 DUP1 REVERT JUMPDEST POP PUSH2 0x6C7 PUSH2 0x187C JUMP JUMPDEST STOP JUMPDEST CALLVALUE DUP1 ISZERO PUSH2 0x6D5 JUMPI PUSH1 0x0 DUP1 REVERT JUMPDEST POP PUSH2 0x6DE PUSH2 0x19E8 JUMP JUMPDEST PUSH1 0x40 MLOAD DUP1 DUP3 PUSH20 0xFFFFFFFFFFFFFFFFFFFFFFFFFFFFFFFFFFFFFFFF AND PUSH20 0xFFFFFFFFFFFFFFFFFFFFFFFFFFFFFFFFFFFFFFFF AND DUP2 MSTORE PUSH1 0x20 ADD SWAP2 POP POP PUSH1 0x40 MLOAD DUP1 SWAP2 SUB SWAP1 RETURN JUMPDEST CALLVALUE DUP1 ISZERO PUSH2 0x72C JUMPI PUSH1 0x0 DUP1 REVERT JUMPDEST POP PUSH2 0x761 PUSH1 0x4 DUP1 CALLDATASIZE SUB DUP2 ADD SWAP1 DUP1 DUP1 CALLDATALOAD PUSH20 0xFFFFFFFFFFFFFFFFFFFFFFFFFFFFFFFFFFFFFFFF AND SWAP1 PUSH1 0x20 ADD SWAP1 SWAP3 SWAP2 SWAP1 POP POP POP PUSH2 0x1A0E JUMP JUMPDEST PUSH1 0x40 MLOAD DUP1 DUP3 ISZERO ISZERO ISZERO ISZERO DUP2 MSTORE PUSH1 0x20 ADD SWAP2 POP POP PUSH1 0x40 MLOAD DUP1 SWAP2 SUB SWAP1 RETURN JUMPDEST CALLVALUE DUP1 ISZERO PUSH2 0x787 JUMPI PUSH1 0x0 DUP1 REVERT JUMPDEST POP PUSH2 0x7DC PUSH1 0x4 DUP1 CALLDATASIZE SUB DUP2 ADD SWAP1 DUP1 DUP1 CALLDATALOAD PUSH20 0xFFFFFFFFFFFFFFFFFFFFFFFFFFFFFFFFFFFFFFFF AND SWAP1 PUSH1 0x20 ADD SWAP1 SWAP3 SWAP2 SWAP1 DUP1 CALLDATALOAD PUSH20 0xFFFFFFFFFFFFFFFFFFFFFFFFFFFFFFFFFFFFFFFF AND SWAP1 PUSH1 0x20 ADD SWAP1 SWAP3 SWAP2 SWAP1 POP POP POP PUSH2 0x1AC6 JUMP JUMPDEST PUSH1 0x40 MLOAD DUP1 DUP3 DUP2 MSTORE PUSH1 0x20 ADD SWAP2 POP POP PUSH1 0x40 MLOAD DUP1 SWAP2 SUB SWAP1 RETURN JUMPDEST CALLVALUE DUP1 ISZERO PUSH2 0x7FE JUMPI PUSH1 0x0 DUP1 REVERT JUMPDEST POP PUSH2 0x83D PUSH1 0x4 DUP1 CALLDATASIZE SUB DUP2 ADD SWAP1 DUP1 DUP1 CALLDATALOAD PUSH20 0xFFFFFFFFFFFFFFFFFFFFFFFFFFFFFFFFFFFFFFFF AND SWAP1 PUSH1 0x20 ADD SWAP1 SWAP3 SWAP2 SWAP1 DUP1 CALLDATALOAD SWAP1 PUSH1 0x20 ADD SWAP1 SWAP3 SWAP2 SWAP1 POP POP POP PUSH2 0x1B4D JUMP JUMPDEST STOP JUMPDEST PUSH1 0x7 SLOAD DUP2 JUMP JUMPDEST PUSH2 0x873 CALLER PUSH1 0x0 CALLDATALOAD PUSH32 0xFFFFFFFF00000000000000000000000000000000000000000000000000000000 AND PUSH2 0x1B5D JUMP JUMPDEST ISZERO ISZERO PUSH2 0x8E7 JUMPI PUSH1 0x40 MLOAD PUSH32 0x8C379A000000000000000000000000000000000000000000000000000000000 DUP2 MSTORE PUSH1 0x4 ADD DUP1 DUP1 PUSH1 0x20 ADD DUP3 DUP2 SUB DUP3 MSTORE PUSH1 0x14 DUP2 MSTORE PUSH1 0x20 ADD DUP1 PUSH32 0x64732D617574682D756E617574686F72697A6564000000000000000000000000 DUP2 MSTORE POP PUSH1 0x20 ADD SWAP2 POP POP PUSH1 0x40 MLOAD DUP1 SWAP2 SUB SWAP1 REVERT JUMPDEST PUSH1 0x0 DUP1 PUSH1 0x4 CALLDATALOAD SWAP2 POP PUSH1 0x24 CALLDATALOAD SWAP1 POP DUP1 PUSH1 0x0 NOT AND DUP3 PUSH1 0x0 NOT AND CALLER PUSH20 0xFFFFFFFFFFFFFFFFFFFFFFFFFFFFFFFFFFFFFFFF AND PUSH1 0x0 CALLDATALOAD PUSH32 0xFFFFFFFF00000000000000000000000000000000000000000000000000000000 AND PUSH28 0xFFFFFFFFFFFFFFFFFFFFFFFFFFFFFFFFFFFFFFFFFFFFFFFFFFFFFFFF NOT AND CALLVALUE PUSH1 0x0 CALLDATASIZE PUSH1 0x40 MLOAD DUP1 DUP5 DUP2 MSTORE PUSH1 0x20 ADD DUP1 PUSH1 0x20 ADD DUP3 DUP2 SUB DUP3 MSTORE DUP5 DUP5 DUP3 DUP2 DUP2 MSTORE PUSH1 0x20 ADD SWAP3 POP DUP1 DUP3 DUP5 CALLDATACOPY DUP3 ADD SWAP2 POP POP SWAP5 POP POP POP POP POP PUSH1 0x40 MLOAD DUP1 SWAP2 SUB SWAP1 LOG4 PUSH1 0x1 PUSH1 0x4 PUSH1 0x14 PUSH2 0x100 EXP DUP2 SLOAD DUP2 PUSH1 0xFF MUL NOT AND SWAP1 DUP4 ISZERO ISZERO MUL OR SWAP1 SSTORE POP POP POP JUMP JUMPDEST PUSH1 0x0 PUSH1 0x4 PUSH1 0x14 SWAP1 SLOAD SWAP1 PUSH2 0x100 EXP SWAP1 DIV PUSH1 0xFF AND ISZERO ISZERO ISZERO PUSH2 0xA38 JUMPI PUSH1 0x40 MLOAD PUSH32 0x8C379A000000000000000000000000000000000000000000000000000000000 DUP2 MSTORE PUSH1 0x4 ADD DUP1 DUP1 PUSH1 0x20 ADD DUP3 DUP2 SUB DUP3 MSTORE PUSH1 0x12 DUP2 MSTORE PUSH1 0x20 ADD DUP1 PUSH32 0x64732D73746F702D69732D73746F707065640000000000000000000000000000 DUP2 MSTORE POP PUSH1 0x20 ADD SWAP2 POP POP PUSH1 0x40 MLOAD DUP1 SWAP2 SUB SWAP1 REVERT JUMPDEST PUSH2 0xA42 DUP4 DUP4 PUSH2 0x1DD6 JUMP JUMPDEST SWAP1 POP SWAP3 SWAP2 POP POP JUMP JUMPDEST PUSH2 0xA78 CALLER PUSH1 0x0 CALLDATALOAD PUSH32 0xFFFFFFFF00000000000000000000000000000000000000000000000000000000 AND PUSH2 0x1B5D JUMP JUMPDEST ISZERO ISZERO PUSH2 0xAEC JUMPI PUSH1 0x40 MLOAD PUSH32 0x8C379A000000000000000000000000000000000000000000000000000000000 DUP2 MSTORE PUSH1 0x4 ADD DUP1 DUP1 PUSH1 0x20 ADD DUP3 DUP2 SUB DUP3 MSTORE PUSH1 0x14 DUP2 MSTORE PUSH1 0x20 ADD DUP1 PUSH32 0x64732D617574682D756E617574686F72697A6564000000000000000000000000 DUP2 MSTORE POP PUSH1 0x20 ADD SWAP2 POP POP PUSH1 0x40 MLOAD DUP1 SWAP2 SUB SWAP1 REVERT JUMPDEST DUP1 PUSH1 0x4 PUSH1 0x0 PUSH2 0x100 EXP DUP2 SLOAD DUP2 PUSH20 0xFFFFFFFFFFFFFFFFFFFFFFFFFFFFFFFFFFFFFFFF MUL NOT AND SWAP1 DUP4 PUSH20 0xFFFFFFFFFFFFFFFFFFFFFFFFFFFFFFFFFFFFFFFF AND MUL OR SWAP1 SSTORE POP PUSH1 0x4 PUSH1 0x0 SWAP1 SLOAD SWAP1 PUSH2 0x100 EXP SWAP1 DIV PUSH20 0xFFFFFFFFFFFFFFFFFFFFFFFFFFFFFFFFFFFFFFFF AND PUSH20 0xFFFFFFFFFFFFFFFFFFFFFFFFFFFFFFFFFFFFFFFF AND PUSH32 0xCE241D7CA1F669FEE44B6FC00B8EBA2DF3BB514EED0F6F668F8F89096E81ED94 PUSH1 0x40 MLOAD PUSH1 0x40 MLOAD DUP1 SWAP2 SUB SWAP1 LOG2 POP JUMP JUMPDEST PUSH1 0x0 DUP1 SLOAD SWAP1 POP SWAP1 JUMP JUMPDEST PUSH1 0x0 PUSH1 0x4 PUSH1 0x14 SWAP1 SLOAD SWAP1 PUSH2 0x100 EXP SWAP1 DIV PUSH1 0xFF AND ISZERO ISZERO ISZERO PUSH2 0xC25 JUMPI PUSH1 0x40 MLOAD PUSH32 0x8C379A000000000000000000000000000000000000000000000000000000000 DUP2 MSTORE PUSH1 0x4 ADD DUP1 DUP1 PUSH1 0x20 ADD DUP3 DUP2 SUB DUP3 MSTORE PUSH1 0x12 DUP2 MSTORE PUSH1 0x20 ADD DUP1 PUSH32 0x64732D73746F702D69732D73746F707065640000000000000000000000000000 DUP2 MSTORE POP PUSH1 0x20 ADD SWAP2 POP POP PUSH1 0x40 MLOAD DUP1 SWAP2 SUB SWAP1 REVERT JUMPDEST CALLER PUSH20 0xFFFFFFFFFFFFFFFFFFFFFFFFFFFFFFFFFFFFFFFF AND DUP5 PUSH20 0xFFFFFFFFFFFFFFFFFFFFFFFFFFFFFFFFFFFFFFFF AND EQ ISZERO DUP1 ISZERO PUSH2 0xCFD JUMPI POP PUSH32 0xFFFFFFFFFFFFFFFFFFFFFFFFFFFFFFFFFFFFFFFFFFFFFFFFFFFFFFFFFFFFFFFF PUSH1 0x2 PUSH1 0x0 DUP7 PUSH20 0xFFFFFFFFFFFFFFFFFFFFFFFFFFFFFFFFFFFFFFFF AND PUSH20 0xFFFFFFFFFFFFFFFFFFFFFFFFFFFFFFFFFFFFFFFF AND DUP2 MSTORE PUSH1 0x20 ADD SWAP1 DUP2 MSTORE PUSH1 0x20 ADD PUSH1 0x0 KECCAK256 PUSH1 0x0 CALLER PUSH20 0xFFFFFFFFFFFFFFFFFFFFFFFFFFFFFFFFFFFFFFFF AND PUSH20 0xFFFFFFFFFFFFFFFFFFFFFFFFFFFFFFFFFFFFFFFF AND DUP2 MSTORE PUSH1 0x20 ADD SWAP1 DUP2 MSTORE PUSH1 0x20 ADD PUSH1 0x0 KECCAK256 SLOAD EQ ISZERO JUMPDEST ISZERO PUSH2 0xE09 JUMPI PUSH2 0xD88 PUSH1 0x2 PUSH1 0x0 DUP7 PUSH20 0xFFFFFFFFFFFFFFFFFFFFFFFFFFFFFFFFFFFFFFFF AND PUSH20 0xFFFFFFFFFFFFFFFFFFFFFFFFFFFFFFFFFFFFFFFF AND DUP2 MSTORE PUSH1 0x20 ADD SWAP1 DUP2 MSTORE PUSH1 0x20 ADD PUSH1 0x0 KECCAK256 PUSH1 0x0 CALLER PUSH20 0xFFFFFFFFFFFFFFFFFFFFFFFFFFFFFFFFFFFFFFFF AND PUSH20 0xFFFFFFFFFFFFFFFFFFFFFFFFFFFFFFFFFFFFFFFF AND DUP2 MSTORE PUSH1 0x20 ADD SWAP1 DUP2 MSTORE PUSH1 0x20 ADD PUSH1 0x0 KECCAK256 SLOAD DUP4 PUSH2 0x1EC8 JUMP JUMPDEST PUSH1 0x2 PUSH1 0x0 DUP7 PUSH20 0xFFFFFFFFFFFFFFFFFFFFFFFFFFFFFFFFFFFFFFFF AND PUSH20 0xFFFFFFFFFFFFFFFFFFFFFFFFFFFFFFFFFFFFFFFF AND DUP2 MSTORE PUSH1 0x20 ADD SWAP1 DUP2 MSTORE PUSH1 0x20 ADD PUSH1 0x0 KECCAK256 PUSH1 0x0 CALLER PUSH20 0xFFFFFFFFFFFFFFFFFFFFFFFFFFFFFFFFFFFFFFFF AND PUSH20 0xFFFFFFFFFFFFFFFFFFFFFFFFFFFFFFFFFFFFFFFF AND DUP2 MSTORE PUSH1 0x20 ADD SWAP1 DUP2 MSTORE PUSH1 0x20 ADD PUSH1 0x0 KECCAK256 DUP2 SWAP1 SSTORE POP JUMPDEST PUSH2 0xE52 PUSH1 0x1 PUSH1 0x0 DUP7 PUSH20 0xFFFFFFFFFFFFFFFFFFFFFFFFFFFFFFFFFFFFFFFF AND PUSH20 0xFFFFFFFFFFFFFFFFFFFFFFFFFFFFFFFFFFFFFFFF AND DUP2 MSTORE PUSH1 0x20 ADD SWAP1 DUP2 MSTORE PUSH1 0x20 ADD PUSH1 0x0 KECCAK256 SLOAD DUP4 PUSH2 0x1EC8 JUMP JUMPDEST PUSH1 0x1 PUSH1 0x0 DUP7 PUSH20 0xFFFFFFFFFFFFFFFFFFFFFFFFFFFFFFFFFFFFFFFF AND PUSH20 0xFFFFFFFFFFFFFFFFFFFFFFFFFFFFFFFFFFFFFFFF AND DUP2 MSTORE PUSH1 0x20 ADD SWAP1 DUP2 MSTORE PUSH1 0x20 ADD PUSH1 0x0 KECCAK256 DUP2 SWAP1 SSTORE POP PUSH2 0xEDE PUSH1 0x1 PUSH1 0x0 DUP6 PUSH20 0xFFFFFFFFFFFFFFFFFFFFFFFFFFFFFFFFFFFFFFFF AND PUSH20 0xFFFFFFFFFFFFFFFFFFFFFFFFFFFFFFFFFFFFFFFF AND DUP2 MSTORE PUSH1 0x20 ADD SWAP1 DUP2 MSTORE PUSH1 0x20 ADD PUSH1 0x0 KECCAK256 SLOAD DUP4 PUSH2 0x1EE4 JUMP JUMPDEST PUSH1 0x1 PUSH1 0x0 DUP6 PUSH20 0xFFFFFFFFFFFFFFFFFFFFFFFFFFFFFFFFFFFFFFFF AND PUSH20 0xFFFFFFFFFFFFFFFFFFFFFFFFFFFFFFFFFFFFFFFF AND DUP2 MSTORE PUSH1 0x20 ADD SWAP1 DUP2 MSTORE PUSH1 0x20 ADD PUSH1 0x0 KECCAK256 DUP2 SWAP1 SSTORE POP DUP3 PUSH20 0xFFFFFFFFFFFFFFFFFFFFFFFFFFFFFFFFFFFFFFFF AND DUP5 PUSH20 0xFFFFFFFFFFFFFFFFFFFFFFFFFFFFFFFFFFFFFFFF AND PUSH32 0xDDF252AD1BE2C89B69C2B068FC378DAA952BA7F163C4A11628F55A4DF523B3EF DUP5 PUSH1 0x40 MLOAD DUP1 DUP3 DUP2 MSTORE PUSH1 0x20 ADD SWAP2 POP POP PUSH1 0x40 MLOAD DUP1 SWAP2 SUB SWAP1 LOG3 PUSH1 0x1 SWAP1 POP SWAP4 SWAP3 POP POP POP JUMP JUMPDEST PUSH1 0x6 SLOAD DUP2 JUMP JUMPDEST PUSH2 0xFC5 CALLER PUSH1 0x0 CALLDATALOAD PUSH32 0xFFFFFFFF00000000000000000000000000000000000000000000000000000000 AND PUSH2 0x1B5D JUMP JUMPDEST ISZERO ISZERO PUSH2 0x1039 JUMPI PUSH1 0x40 MLOAD PUSH32 0x8C379A000000000000000000000000000000000000000000000000000000000 DUP2 MSTORE PUSH1 0x4 ADD DUP1 DUP1 PUSH1 0x20 ADD DUP3 DUP2 SUB DUP3 MSTORE PUSH1 0x14 DUP2 MSTORE PUSH1 0x20 ADD DUP1 PUSH32 0x64732D617574682D756E617574686F72697A6564000000000000000000000000 DUP2 MSTORE POP PUSH1 0x20 ADD SWAP2 POP POP PUSH1 0x40 MLOAD DUP1 SWAP2 SUB SWAP1 REVERT JUMPDEST PUSH1 0x4 PUSH1 0x14 SWAP1 SLOAD SWAP1 PUSH2 0x100 EXP SWAP1 DIV PUSH1 0xFF AND ISZERO ISZERO ISZERO PUSH2 0x10BE JUMPI PUSH1 0x40 MLOAD PUSH32 0x8C379A000000000000000000000000000000000000000000000000000000000 DUP2 MSTORE PUSH1 0x4 ADD DUP1 DUP1 PUSH1 0x20 ADD DUP3 DUP2 SUB DUP3 MSTORE PUSH1 0x12 DUP2 MSTORE PUSH1 0x20 ADD DUP1 PUSH32 0x64732D73746F702D69732D73746F707065640000000000000000000000000000 DUP2 MSTORE POP PUSH1 0x20 ADD SWAP2 POP POP PUSH1 0x40 MLOAD DUP1 SWAP2 SUB SWAP1 REVERT JUMPDEST PUSH2 0x1107 PUSH1 0x1 PUSH1 0x0 DUP5 PUSH20 0xFFFFFFFFFFFFFFFFFFFFFFFFFFFFFFFFFFFFFFFF AND PUSH20 0xFFFFFFFFFFFFFFFFFFFFFFFFFFFFFFFFFFFFFFFF AND DUP2 MSTORE PUSH1 0x20 ADD SWAP1 DUP2 MSTORE PUSH1 0x20 ADD PUSH1 0x0 KECCAK256 SLOAD DUP3 PUSH2 0x1EE4 JUMP JUMPDEST PUSH1 0x1 PUSH1 0x0 DUP5 PUSH20 0xFFFFFFFFFFFFFFFFFFFFFFFFFFFFFFFFFFFFFFFF AND PUSH20 0xFFFFFFFFFFFFFFFFFFFFFFFFFFFFFFFFFFFFFFFF AND DUP2 MSTORE PUSH1 0x20 ADD SWAP1 DUP2 MSTORE PUSH1 0x20 ADD PUSH1 0x0 KECCAK256 DUP2 SWAP1 SSTORE POP PUSH2 0x1156 PUSH1 0x0 SLOAD DUP3 PUSH2 0x1EE4 JUMP JUMPDEST PUSH1 0x0 DUP2 SWAP1 SSTORE POP DUP2 PUSH20 0xFFFFFFFFFFFFFFFFFFFFFFFFFFFFFFFFFFFFFFFF AND PUSH32 0xF6798A560793A54C3BCFE86A93CDE1E73087D944C0EA20544137D4121396885 DUP3 PUSH1 0x40 MLOAD DUP1 DUP3 DUP2 MSTORE PUSH1 0x20 ADD SWAP2 POP POP PUSH1 0x40 MLOAD DUP1 SWAP2 SUB SWAP1 LOG2 POP POP JUMP JUMPDEST PUSH2 0x11B8 CALLER DUP3 PUSH2 0x143E JUMP JUMPDEST POP JUMP JUMPDEST PUSH2 0x11E9 CALLER PUSH1 0x0 CALLDATALOAD PUSH32 0xFFFFFFFF00000000000000000000000000000000000000000000000000000000 AND PUSH2 0x1B5D JUMP JUMPDEST ISZERO ISZERO PUSH2 0x125D JUMPI PUSH1 0x40 MLOAD PUSH32 0x8C379A000000000000000000000000000000000000000000000000000000000 DUP2 MSTORE PUSH1 0x4 ADD DUP1 DUP1 PUSH1 0x20 ADD DUP3 DUP2 SUB DUP3 MSTORE PUSH1 0x14 DUP2 MSTORE PUSH1 0x20 ADD DUP1 PUSH32 0x64732D617574682D756E617574686F72697A6564000000000000000000000000 DUP2 MSTORE POP PUSH1 0x20 ADD SWAP2 POP POP PUSH1 0x40 MLOAD DUP1 SWAP2 SUB SWAP1 REVERT JUMPDEST DUP1 PUSH1 0x7 DUP2 PUSH1 0x0 NOT AND SWAP1 SSTORE POP POP JUMP JUMPDEST PUSH1 0x0 PUSH1 0x1 PUSH1 0x0 DUP4 PUSH20 0xFFFFFFFFFFFFFFFFFFFFFFFFFFFFFFFFFFFFFFFF AND PUSH20 0xFFFFFFFFFFFFFFFFFFFFFFFFFFFFFFFFFFFFFFFF AND DUP2 MSTORE PUSH1 0x20 ADD SWAP1 DUP2 MSTORE PUSH1 0x20 ADD PUSH1 0x0 KECCAK256 SLOAD SWAP1 POP SWAP2 SWAP1 POP JUMP JUMPDEST PUSH1 0x4 PUSH1 0x14 SWAP1 SLOAD SWAP1 PUSH2 0x100 EXP SWAP1 DIV PUSH1 0xFF AND DUP2 JUMP JUMPDEST PUSH2 0x12F5 CALLER PUSH1 0x0 CALLDATALOAD PUSH32 0xFFFFFFFF00000000000000000000000000000000000000000000000000000000 AND PUSH2 0x1B5D JUMP JUMPDEST ISZERO ISZERO PUSH2 0x1369 JUMPI PUSH1 0x40 MLOAD PUSH32 0x8C379A000000000000000000000000000000000000000000000000000000000 DUP2 MSTORE PUSH1 0x4 ADD DUP1 DUP1 PUSH1 0x20 ADD DUP3 DUP2 SUB DUP3 MSTORE PUSH1 0x14 DUP2 MSTORE PUSH1 0x20 ADD DUP1 PUSH32 0x64732D617574682D756E617574686F72697A6564000000000000000000000000 DUP2 MSTORE POP PUSH1 0x20 ADD SWAP2 POP POP PUSH1 0x40 MLOAD DUP1 SWAP2 SUB SWAP1 REVERT JUMPDEST DUP1 PUSH1 0x3 PUSH1 0x0 PUSH2 0x100 EXP DUP2 SLOAD DUP2 PUSH20 0xFFFFFFFFFFFFFFFFFFFFFFFFFFFFFFFFFFFFFFFF MUL NOT AND SWAP1 DUP4 PUSH20 0xFFFFFFFFFFFFFFFFFFFFFFFFFFFFFFFFFFFFFFFF AND MUL OR SWAP1 SSTORE POP PUSH1 0x3 PUSH1 0x0 SWAP1 SLOAD SWAP1 PUSH2 0x100 EXP SWAP1 DIV PUSH20 0xFFFFFFFFFFFFFFFFFFFFFFFFFFFFFFFFFFFFFFFF AND PUSH20 0xFFFFFFFFFFFFFFFFFFFFFFFFFFFFFFFFFFFFFFFF AND PUSH32 0x1ABEBEA81BFA2637F28358C371278FB15EDE7EA8DD28D2E03B112FF6D936ADA4 PUSH1 0x40 MLOAD PUSH1 0x40 MLOAD DUP1 SWAP2 SUB SWAP1 LOG2 POP JUMP JUMPDEST PUSH1 0x4 PUSH1 0x0 SWAP1 SLOAD SWAP1 PUSH2 0x100 EXP SWAP1 DIV PUSH20 0xFFFFFFFFFFFFFFFFFFFFFFFFFFFFFFFFFFFFFFFF AND DUP2 JUMP JUMPDEST PUSH1 0x5 SLOAD DUP2 JUMP JUMPDEST PUSH2 0x146C CALLER PUSH1 0x0 CALLDATALOAD PUSH32 0xFFFFFFFF00000000000000000000000000000000000000000000000000000000 AND PUSH2 0x1B5D JUMP JUMPDEST ISZERO ISZERO PUSH2 0x14E0 JUMPI PUSH1 0x40 MLOAD PUSH32 0x8C379A000000000000000000000000000000000000000000000000000000000 DUP2 MSTORE PUSH1 0x4 ADD DUP1 DUP1 PUSH1 0x20 ADD DUP3 DUP2 SUB DUP3 MSTORE PUSH1 0x14 DUP2 MSTORE PUSH1 0x20 ADD DUP1 PUSH32 0x64732D617574682D756E617574686F72697A6564000000000000000000000000 DUP2 MSTORE POP PUSH1 0x20 ADD SWAP2 POP POP PUSH1 0x40 MLOAD DUP1 SWAP2 SUB SWAP1 REVERT JUMPDEST PUSH1 0x4 PUSH1 0x14 SWAP1 SLOAD SWAP1 PUSH2 0x100 EXP SWAP1 DIV PUSH1 0xFF AND ISZERO ISZERO ISZERO PUSH2 0x1565 JUMPI PUSH1 0x40 MLOAD PUSH32 0x8C379A000000000000000000000000000000000000000000000000000000000 DUP2 MSTORE PUSH1 0x4 ADD DUP1 DUP1 PUSH1 0x20 ADD DUP3 DUP2 SUB DUP3 MSTORE PUSH1 0x12 DUP2 MSTORE PUSH1 0x20 ADD DUP1 PUSH32 0x64732D73746F702D69732D73746F707065640000000000000000000000000000 DUP2 MSTORE POP PUSH1 0x20 ADD SWAP2 POP POP PUSH1 0x40 MLOAD DUP1 SWAP2 SUB SWAP1 REVERT JUMPDEST CALLER PUSH20 0xFFFFFFFFFFFFFFFFFFFFFFFFFFFFFFFFFFFFFFFF AND DUP3 PUSH20 0xFFFFFFFFFFFFFFFFFFFFFFFFFFFFFFFFFFFFFFFF AND EQ ISZERO DUP1 ISZERO PUSH2 0x163D JUMPI POP PUSH32 0xFFFFFFFFFFFFFFFFFFFFFFFFFFFFFFFFFFFFFFFFFFFFFFFFFFFFFFFFFFFFFFFF PUSH1 0x2 PUSH1 0x0 DUP5 PUSH20 0xFFFFFFFFFFFFFFFFFFFFFFFFFFFFFFFFFFFFFFFF AND PUSH20 0xFFFFFFFFFFFFFFFFFFFFFFFFFFFFFFFFFFFFFFFF AND DUP2 MSTORE PUSH1 0x20 ADD SWAP1 DUP2 MSTORE PUSH1 0x20 ADD PUSH1 0x0 KECCAK256 PUSH1 0x0 CALLER PUSH20 0xFFFFFFFFFFFFFFFFFFFFFFFFFFFFFFFFFFFFFFFF AND PUSH20 0xFFFFFFFFFFFFFFFFFFFFFFFFFFFFFFFFFFFFFFFF AND DUP2 MSTORE PUSH1 0x20 ADD SWAP1 DUP2 MSTORE PUSH1 0x20 ADD PUSH1 0x0 KECCAK256 SLOAD EQ ISZERO JUMPDEST ISZERO PUSH2 0x1749 JUMPI PUSH2 0x16C8 PUSH1 0x2 PUSH1 0x0 DUP5 PUSH20 0xFFFFFFFFFFFFFFFFFFFFFFFFFFFFFFFFFFFFFFFF AND PUSH20 0xFFFFFFFFFFFFFFFFFFFFFFFFFFFFFFFFFFFFFFFF AND DUP2 MSTORE PUSH1 0x20 ADD SWAP1 DUP2 MSTORE PUSH1 0x20 ADD PUSH1 0x0 KECCAK256 PUSH1 0x0 CALLER PUSH20 0xFFFFFFFFFFFFFFFFFFFFFFFFFFFFFFFFFFFFFFFF AND PUSH20 0xFFFFFFFFFFFFFFFFFFFFFFFFFFFFFFFFFFFFFFFF AND DUP2 MSTORE PUSH1 0x20 ADD SWAP1 DUP2 MSTORE PUSH1 0x20 ADD PUSH1 0x0 KECCAK256 SLOAD DUP3 PUSH2 0x1EC8 JUMP JUMPDEST PUSH1 0x2 PUSH1 0x0 DUP5 PUSH20 0xFFFFFFFFFFFFFFFFFFFFFFFFFFFFFFFFFFFFFFFF AND PUSH20 0xFFFFFFFFFFFFFFFFFFFFFFFFFFFFFFFFFFFFFFFF AND DUP2 MSTORE PUSH1 0x20 ADD SWAP1 DUP2 MSTORE PUSH1 0x20 ADD PUSH1 0x0 KECCAK256 PUSH1 0x0 CALLER PUSH20 0xFFFFFFFFFFFFFFFFFFFFFFFFFFFFFFFFFFFFFFFF AND PUSH20 0xFFFFFFFFFFFFFFFFFFFFFFFFFFFFFFFFFFFFFFFF AND DUP2 MSTORE PUSH1 0x20 ADD SWAP1 DUP2 MSTORE PUSH1 0x20 ADD PUSH1 0x0 KECCAK256 DUP2 SWAP1 SSTORE POP JUMPDEST PUSH2 0x1792 PUSH1 0x1 PUSH1 0x0 DUP5 PUSH20 0xFFFFFFFFFFFFFFFFFFFFFFFFFFFFFFFFFFFFFFFF AND PUSH20 0xFFFFFFFFFFFFFFFFFFFFFFFFFFFFFFFFFFFFFFFF AND DUP2 MSTORE PUSH1 0x20 ADD SWAP1 DUP2 MSTORE PUSH1 0x20 ADD PUSH1 0x0 KECCAK256 SLOAD DUP3 PUSH2 0x1EC8 JUMP JUMPDEST PUSH1 0x1 PUSH1 0x0 DUP5 PUSH20 0xFFFFFFFFFFFFFFFFFFFFFFFFFFFFFFFFFFFFFFFF AND PUSH20 0xFFFFFFFFFFFFFFFFFFFFFFFFFFFFFFFFFFFFFFFF AND DUP2 MSTORE PUSH1 0x20 ADD SWAP1 DUP2 MSTORE PUSH1 0x20 ADD PUSH1 0x0 KECCAK256 DUP2 SWAP1 SSTORE POP PUSH2 0x17E1 PUSH1 0x0 SLOAD DUP3 PUSH2 0x1EC8 JUMP JUMPDEST PUSH1 0x0 DUP2 SWAP1 SSTORE POP DUP2 PUSH20 0xFFFFFFFFFFFFFFFFFFFFFFFFFFFFFFFFFFFFFFFF AND PUSH32 0xCC16F5DBB4873280815C1EE09DBD06736CFFCC184412CF7A71A0FDB75D397CA5 DUP3 PUSH1 0x40 MLOAD DUP1 DUP3 DUP2 MSTORE PUSH1 0x20 ADD SWAP2 POP POP PUSH1 0x40 MLOAD DUP1 SWAP2 SUB SWAP1 LOG2 POP POP JUMP JUMPDEST PUSH2 0x1843 CALLER DUP3 PUSH2 0xF97 JUMP JUMPDEST POP JUMP JUMPDEST PUSH1 0x0 PUSH2 0x1853 CALLER DUP5 DUP5 PUSH2 0xB9E JUMP JUMPDEST SWAP1 POP SWAP3 SWAP2 POP POP JUMP JUMPDEST PUSH2 0x1866 CALLER DUP4 DUP4 PUSH2 0xB9E JUMP JUMPDEST POP POP POP JUMP JUMPDEST PUSH2 0x1876 DUP4 DUP4 DUP4 PUSH2 0xB9E JUMP JUMPDEST POP POP POP POP JUMP JUMPDEST PUSH2 0x18AA CALLER PUSH1 0x0 CALLDATALOAD PUSH32 0xFFFFFFFF00000000000000000000000000000000000000000000000000000000 AND PUSH2 0x1B5D JUMP JUMPDEST ISZERO ISZERO PUSH2 0x191E JUMPI PUSH1 0x40 MLOAD PUSH32 0x8C379A000000000000000000000000000000000000000000000000000000000 DUP2 MSTORE PUSH1 0x4 ADD DUP1 DUP1 PUSH1 0x20 ADD DUP3 DUP2 SUB DUP3 MSTORE PUSH1 0x14 DUP2 MSTORE PUSH1 0x20 ADD DUP1 PUSH32 0x64732D617574682D756E617574686F72697A6564000000000000000000000000 DUP2 MSTORE POP PUSH1 0x20 ADD SWAP2 POP POP PUSH1 0x40 MLOAD DUP1 SWAP2 SUB SWAP1 REVERT JUMPDEST PUSH1 0x0 DUP1 PUSH1 0x4 CALLDATALOAD SWAP2 POP PUSH1 0x24 CALLDATALOAD SWAP1 POP DUP1 PUSH1 0x0 NOT AND DUP3 PUSH1 0x0 NOT AND CALLER PUSH20 0xFFFFFFFFFFFFFFFFFFFFFFFFFFFFFFFFFFFFFFFF AND PUSH1 0x0 CALLDATALOAD PUSH32 0xFFFFFFFF00000000000000000000000000000000000000000000000000000000 AND PUSH28 0xFFFFFFFFFFFFFFFFFFFFFFFFFFFFFFFFFFFFFFFFFFFFFFFFFFFFFFFF NOT AND CALLVALUE PUSH1 0x0 CALLDATASIZE PUSH1 0x40 MLOAD DUP1 DUP5 DUP2 MSTORE PUSH1 0x20 ADD DUP1 PUSH1 0x20 ADD DUP3 DUP2 SUB DUP3 MSTORE DUP5 DUP5 DUP3 DUP2 DUP2 MSTORE PUSH1 0x20 ADD SWAP3 POP DUP1 DUP3 DUP5 CALLDATACOPY DUP3 ADD SWAP2 POP POP SWAP5 POP POP POP POP POP PUSH1 0x40 MLOAD DUP1 SWAP2 SUB SWAP1 LOG4 PUSH1 0x0 PUSH1 0x4 PUSH1 0x14 PUSH2 0x100 EXP DUP2 SLOAD DUP2 PUSH1 0xFF MUL NOT AND SWAP1 DUP4 ISZERO ISZERO MUL OR SWAP1 SSTORE POP POP POP JUMP JUMPDEST PUSH1 0x3 PUSH1 0x0 SWAP1 SLOAD SWAP1 PUSH2 0x100 EXP SWAP1 DIV PUSH20 0xFFFFFFFFFFFFFFFFFFFFFFFFFFFFFFFFFFFFFFFF AND DUP2 JUMP JUMPDEST PUSH1 0x0 PUSH1 0x4 PUSH1 0x14 SWAP1 SLOAD SWAP1 PUSH2 0x100 EXP SWAP1 DIV PUSH1 0xFF AND ISZERO ISZERO ISZERO PUSH2 0x1A95 JUMPI PUSH1 0x40 MLOAD PUSH32 0x8C379A000000000000000000000000000000000000000000000000000000000 DUP2 MSTORE PUSH1 0x4 ADD DUP1 DUP1 PUSH1 0x20 ADD DUP3 DUP2 SUB DUP3 MSTORE PUSH1 0x12 DUP2 MSTORE PUSH1 0x20 ADD DUP1 PUSH32 0x64732D73746F702D69732D73746F707065640000000000000000000000000000 DUP2 MSTORE POP PUSH1 0x20 ADD SWAP2 POP POP PUSH1 0x40 MLOAD DUP1 SWAP2 SUB SWAP1 REVERT JUMPDEST PUSH2 0x1ABF DUP3 PUSH32 0xFFFFFFFFFFFFFFFFFFFFFFFFFFFFFFFFFFFFFFFFFFFFFFFFFFFFFFFFFFFFFFFF PUSH2 0x1DD6 JUMP JUMPDEST SWAP1 POP SWAP2 SWAP1 POP JUMP JUMPDEST PUSH1 0x0 PUSH1 0x2 PUSH1 0x0 DUP5 PUSH20 0xFFFFFFFFFFFFFFFFFFFFFFFFFFFFFFFFFFFFFFFF AND PUSH20 0xFFFFFFFFFFFFFFFFFFFFFFFFFFFFFFFFFFFFFFFF AND DUP2 MSTORE PUSH1 0x20 ADD SWAP1 DUP2 MSTORE PUSH1 0x20 ADD PUSH1 0x0 KECCAK256 PUSH1 0x0 DUP4 PUSH20 0xFFFFFFFFFFFFFFFFFFFFFFFFFFFFFFFFFFFFFFFF AND PUSH20 0xFFFFFFFFFFFFFFFFFFFFFFFFFFFFFFFFFFFFFFFF AND DUP2 MSTORE PUSH1 0x20 ADD SWAP1 DUP2 MSTORE PUSH1 0x20 ADD PUSH1 0x0 KECCAK256 SLOAD SWAP1 POP SWAP3 SWAP2 POP POP JUMP JUMPDEST PUSH2 0x1B58 DUP3 CALLER DUP4 PUSH2 0xB9E JUMP JUMPDEST POP POP POP JUMP JUMPDEST PUSH1 0x0 ADDRESS PUSH20 0xFFFFFFFFFFFFFFFFFFFFFFFFFFFFFFFFFFFFFFFF AND DUP4 PUSH20 0xFFFFFFFFFFFFFFFFFFFFFFFFFFFFFFFFFFFFFFFF AND EQ ISZERO PUSH2 0x1B9C JUMPI PUSH1 0x1 SWAP1 POP PUSH2 0x1DD0 JUMP JUMPDEST PUSH1 0x4 PUSH1 0x0 SWAP1 SLOAD SWAP1 PUSH2 0x100 EXP SWAP1 DIV PUSH20 0xFFFFFFFFFFFFFFFFFFFFFFFFFFFFFFFFFFFFFFFF AND PUSH20 0xFFFFFFFFFFFFFFFFFFFFFFFFFFFFFFFFFFFFFFFF AND DUP4 PUSH20 0xFFFFFFFFFFFFFFFFFFFFFFFFFFFFFFFFFFFFFFFF AND EQ ISZERO PUSH2 0x1BFB JUMPI PUSH1 0x1 SWAP1 POP PUSH2 0x1DD0 JUMP JUMPDEST PUSH1 0x0 PUSH20 0xFFFFFFFFFFFFFFFFFFFFFFFFFFFFFFFFFFFFFFFF AND PUSH1 0x3 PUSH1 0x0 SWAP1 SLOAD SWAP1 PUSH2 0x100 EXP SWAP1 DIV PUSH20 0xFFFFFFFFFFFFFFFFFFFFFFFFFFFFFFFFFFFFFFFF AND PUSH20 0xFFFFFFFFFFFFFFFFFFFFFFFFFFFFFFFFFFFFFFFF AND EQ ISZERO PUSH2 0x1C5B JUMPI PUSH1 0x0 SWAP1 POP PUSH2 0x1DD0 JUMP JUMPDEST PUSH1 0x3 PUSH1 0x0 SWAP1 SLOAD SWAP1 PUSH2 0x100 EXP SWAP1 DIV PUSH20 0xFFFFFFFFFFFFFFFFFFFFFFFFFFFFFFFFFFFFFFFF AND PUSH20 0xFFFFFFFFFFFFFFFFFFFFFFFFFFFFFFFFFFFFFFFF AND PUSH4 0xB7009613 DUP5 ADDRESS DUP6 PUSH1 0x40 MLOAD DUP5 PUSH4 0xFFFFFFFF AND PUSH29 0x100000000000000000000000000000000000000000000000000000000 MUL DUP2 MSTORE PUSH1 0x4 ADD DUP1 DUP5 PUSH20 0xFFFFFFFFFFFFFFFFFFFFFFFFFFFFFFFFFFFFFFFF AND PUSH20 0xFFFFFFFFFFFFFFFFFFFFFFFFFFFFFFFFFFFFFFFF AND DUP2 MSTORE PUSH1 0x20 ADD DUP4 PUSH20 0xFFFFFFFFFFFFFFFFFFFFFFFFFFFFFFFFFFFFFFFF AND PUSH20 0xFFFFFFFFFFFFFFFFFFFFFFFFFFFFFFFFFFFFFFFF AND DUP2 MSTORE PUSH1 0x20 ADD DUP3 PUSH28 0xFFFFFFFFFFFFFFFFFFFFFFFFFFFFFFFFFFFFFFFFFFFFFFFFFFFFFFFF NOT AND PUSH28 0xFFFFFFFFFFFFFFFFFFFFFFFFFFFFFFFFFFFFFFFFFFFFFFFFFFFFFFFF NOT AND DUP2 MSTORE PUSH1 0x20 ADD SWAP4 POP POP POP POP PUSH1 0x20 PUSH1 0x40 MLOAD DUP1 DUP4 SUB DUP2 PUSH1 0x0 DUP8 DUP1 EXTCODESIZE ISZERO DUP1 ISZERO PUSH2 0x1D92 JUMPI PUSH1 0x0 DUP1 REVERT JUMPDEST POP GAS CALL ISZERO DUP1 ISZERO PUSH2 0x1DA6 JUMPI RETURNDATASIZE PUSH1 0x0 DUP1 RETURNDATACOPY RETURNDATASIZE PUSH1 0x0 REVERT JUMPDEST POP POP POP POP PUSH1 0x40 MLOAD RETURNDATASIZE PUSH1 0x20 DUP2 LT ISZERO PUSH2 0x1DBC JUMPI PUSH1 0x0 DUP1 REVERT JUMPDEST DUP2 ADD SWAP1 DUP1 DUP1 MLOAD SWAP1 PUSH1 0x20 ADD SWAP1 SWAP3 SWAP2 SWAP1 POP POP POP SWAP1 POP JUMPDEST SWAP3 SWAP2 POP POP JUMP JUMPDEST PUSH1 0x0 DUP2 PUSH1 0x2 PUSH1 0x0 CALLER PUSH20 0xFFFFFFFFFFFFFFFFFFFFFFFFFFFFFFFFFFFFFFFF AND PUSH20 0xFFFFFFFFFFFFFFFFFFFFFFFFFFFFFFFFFFFFFFFF AND DUP2 MSTORE PUSH1 0x20 ADD SWAP1 DUP2 MSTORE PUSH1 0x20 ADD PUSH1 0x0 KECCAK256 PUSH1 0x0 DUP6 PUSH20 0xFFFFFFFFFFFFFFFFFFFFFFFFFFFFFFFFFFFFFFFF AND PUSH20 0xFFFFFFFFFFFFFFFFFFFFFFFFFFFFFFFFFFFFFFFF AND DUP2 MSTORE PUSH1 0x20 ADD SWAP1 DUP2 MSTORE PUSH1 0x20 ADD PUSH1 0x0 KECCAK256 DUP2 SWAP1 SSTORE POP DUP3 PUSH20 0xFFFFFFFFFFFFFFFFFFFFFFFFFFFFFFFFFFFFFFFF AND CALLER PUSH20 0xFFFFFFFFFFFFFFFFFFFFFFFFFFFFFFFFFFFFFFFF AND PUSH32 0x8C5BE1E5EBEC7D5BD14F71427D1E84F3DD0314C0F7B2291E5B200AC8C7C3B925 DUP5 PUSH1 0x40 MLOAD DUP1 DUP3 DUP2 MSTORE PUSH1 0x20 ADD SWAP2 POP POP PUSH1 0x40 MLOAD DUP1 SWAP2 SUB SWAP1 LOG3 PUSH1 0x1 SWAP1 POP SWAP3 SWAP2 POP POP JUMP JUMPDEST PUSH1 0x0 DUP3 DUP3 DUP5 SUB SWAP2 POP DUP2 GT ISZERO ISZERO ISZERO PUSH2 0x1EDE JUMPI PUSH1 0x0 DUP1 REVERT JUMPDEST SWAP3 SWAP2 POP POP JUMP JUMPDEST PUSH1 0x0 DUP3 DUP3 DUP5 ADD SWAP2 POP DUP2 LT ISZERO ISZERO ISZERO PUSH2 0x1EFA JUMPI PUSH1 0x0 DUP1 REVERT JUMPDEST SWAP3 SWAP2 POP POP JUMP STOP LOG1 PUSH6 0x627A7A723058 KECCAK256 SWAP6 0xc9 PC 0xf8 LT 0xef 0xed 0x5c EQ PUSH7 0x56C701C788D112 SWAP16 0xcb 0x48 DUP16 0xbe 0xd5 CALL 0x4c 0xb1 0xc3 PUSH26 0xCBF497FF00290000000000000000000000000000000000000000 "
				},
				"gasEstimates": {
					"creation": {
						"codeDepositCost": "1596000",
						"executionCost": "78357",
						"totalCost": "1674357"
					},
					"external": {
						"allowance(address,address)": "1190",
						"approve(address)": "23146",
						"approve(address,uint256)": "22735",
						"authority()": "904",
						"balanceOf(address)": "779",
						"burn(address,uint256)": "infinite",
						"burn(uint256)": "infinite",
						"decimals()": "526",
						"mint(address,uint256)": "infinite",
						"mint(uint256)": "infinite",
						"move(address,address,uint256)": "infinite",
						"name()": "412",
						"owner()": "728",
						"pull(address,uint256)": "infinite",
						"push(address,uint256)": "43846",
						"setAuthority(address)": "infinite",
						"setName(bytes32)": "infinite",
						"setOwner(address)": "infinite",
						"start()": "infinite",
						"stop()": "infinite",
						"stopped()": "734",
						"symbol()": "720",
						"totalSupply()": "490",
						"transfer(address,uint256)": "43897",
						"transferFrom(address,address,uint256)": "infinite"
					}
				},
				"methodIdentifiers": {
					"allowance(address,address)": "dd62ed3e",
					"approve(address)": "daea85c5",
					"approve(address,uint256)": "095ea7b3",
					"authority()": "bf7e214f",
					"balanceOf(address)": "70a08231",
					"burn(address,uint256)": "9dc29fac",
					"burn(uint256)": "42966c68",
					"decimals()": "313ce567",
					"mint(address,uint256)": "40c10f19",
					"mint(uint256)": "a0712d68",
					"move(address,address,uint256)": "bb35783b",
					"name()": "06fdde03",
					"owner()": "8da5cb5b",
					"pull(address,uint256)": "f2d5d56b",
					"push(address,uint256)": "b753a98c",
					"setAuthority(address)": "7a9e5e4b",
					"setName(bytes32)": "5ac801fe",
					"setOwner(address)": "13af4035",
					"start()": "be9a6555",
					"stop()": "07da68f5",
					"stopped()": "75f12b21",
					"symbol()": "95d89b41",
					"totalSupply()": "18160ddd",
					"transfer(address,uint256)": "a9059cbb",
					"transferFrom(address,address,uint256)": "23b872dd"
				}
			},
			"userdoc": {
				"methods": {}
			}
		}
	}
}