{
	"contracts/pit1.sol": {
		"DSToken": {
			"abi": [
				{
					"constant": true,
					"inputs": [],
					"name": "name",
					"outputs": [
						{
							"name": "",
							"type": "bytes32"
						}
					],
					"payable": false,
					"stateMutability": "view",
					"type": "function"
				},
				{
					"constant": false,
					"inputs": [],
					"name": "stop",
					"outputs": [],
					"payable": false,
					"stateMutability": "nonpayable",
					"type": "function"
				},
				{
					"constant": false,
					"inputs": [
						{
							"name": "guy",
							"type": "address"
						},
						{
							"name": "wad",
							"type": "uint256"
						}
					],
					"name": "approve",
					"outputs": [
						{
							"name": "",
							"type": "bool"
						}
					],
					"payable": false,
					"stateMutability": "nonpayable",
					"type": "function"
				},
				{
					"constant": false,
					"inputs": [
						{
							"name": "owner_",
							"type": "address"
						}
					],
					"name": "setOwner",
					"outputs": [],
					"payable": false,
					"stateMutability": "nonpayable",
					"type": "function"
				},
				{
					"constant": true,
					"inputs": [],
					"name": "totalSupply",
					"outputs": [
						{
							"name": "",
							"type": "uint256"
						}
					],
					"payable": false,
					"stateMutability": "view",
					"type": "function"
				},
				{
					"constant": false,
					"inputs": [
						{
							"name": "src",
							"type": "address"
						},
						{
							"name": "dst",
							"type": "address"
						},
						{
							"name": "wad",
							"type": "uint256"
						}
					],
					"name": "transferFrom",
					"outputs": [
						{
							"name": "",
							"type": "bool"
						}
					],
					"payable": false,
					"stateMutability": "nonpayable",
					"type": "function"
				},
				{
					"constant": true,
					"inputs": [],
					"name": "decimals",
					"outputs": [
						{
							"name": "",
							"type": "uint256"
						}
					],
					"payable": false,
					"stateMutability": "view",
					"type": "function"
				},
				{
					"constant": false,
					"inputs": [
						{
							"name": "guy",
							"type": "address"
						},
						{
							"name": "wad",
							"type": "uint256"
						}
					],
					"name": "mint",
					"outputs": [],
					"payable": false,
					"stateMutability": "nonpayable",
					"type": "function"
				},
				{
					"constant": false,
					"inputs": [
						{
							"name": "wad",
							"type": "uint256"
						}
					],
					"name": "burn",
					"outputs": [],
					"payable": false,
					"stateMutability": "nonpayable",
					"type": "function"
				},
				{
					"constant": false,
					"inputs": [
						{
							"name": "name_",
							"type": "bytes32"
						}
					],
					"name": "setName",
					"outputs": [],
					"payable": false,
					"stateMutability": "nonpayable",
					"type": "function"
				},
				{
					"constant": true,
					"inputs": [
						{
							"name": "src",
							"type": "address"
						}
					],
					"name": "balanceOf",
					"outputs": [
						{
							"name": "",
							"type": "uint256"
						}
					],
					"payable": false,
					"stateMutability": "view",
					"type": "function"
				},
				{
					"constant": true,
					"inputs": [],
					"name": "stopped",
					"outputs": [
						{
							"name": "",
							"type": "bool"
						}
					],
					"payable": false,
					"stateMutability": "view",
					"type": "function"
				},
				{
					"constant": false,
					"inputs": [
						{
							"name": "authority_",
							"type": "address"
						}
					],
					"name": "setAuthority",
					"outputs": [],
					"payable": false,
					"stateMutability": "nonpayable",
					"type": "function"
				},
				{
					"constant": true,
					"inputs": [],
					"name": "owner",
					"outputs": [
						{
							"name": "",
							"type": "address"
						}
					],
					"payable": false,
					"stateMutability": "view",
					"type": "function"
				},
				{
					"constant": true,
					"inputs": [],
					"name": "symbol",
					"outputs": [
						{
							"name": "",
							"type": "bytes32"
						}
					],
					"payable": false,
					"stateMutability": "view",
					"type": "function"
				},
				{
					"constant": false,
					"inputs": [
						{
							"name": "guy",
							"type": "address"
						},
						{
							"name": "wad",
							"type": "uint256"
						}
					],
					"name": "burn",
					"outputs": [],
					"payable": false,
					"stateMutability": "nonpayable",
					"type": "function"
				},
				{
					"constant": false,
					"inputs": [
						{
							"name": "wad",
							"type": "uint256"
						}
					],
					"name": "mint",
					"outputs": [],
					"payable": false,
					"stateMutability": "nonpayable",
					"type": "function"
				},
				{
					"constant": false,
					"inputs": [
						{
							"name": "dst",
							"type": "address"
						},
						{
							"name": "wad",
							"type": "uint256"
						}
					],
					"name": "transfer",
					"outputs": [
						{
							"name": "",
							"type": "bool"
						}
					],
					"payable": false,
					"stateMutability": "nonpayable",
					"type": "function"
				},
				{
					"constant": false,
					"inputs": [
						{
							"name": "dst",
							"type": "address"
						},
						{
							"name": "wad",
							"type": "uint256"
						}
					],
					"name": "push",
					"outputs": [],
					"payable": false,
					"stateMutability": "nonpayable",
					"type": "function"
				},
				{
					"constant": false,
					"inputs": [
						{
							"name": "src",
							"type": "address"
						},
						{
							"name": "dst",
							"type": "address"
						},
						{
							"name": "wad",
							"type": "uint256"
						}
					],
					"name": "move",
					"outputs": [],
					"payable": false,
					"stateMutability": "nonpayable",
					"type": "function"
				},
				{
					"constant": false,
					"inputs": [],
					"name": "start",
					"outputs": [],
					"payable": false,
					"stateMutability": "nonpayable",
					"type": "function"
				},
				{
					"constant": true,
					"inputs": [],
					"name": "authority",
					"outputs": [
						{
							"name": "",
							"type": "address"
						}
					],
					"payable": false,
					"stateMutability": "view",
					"type": "function"
				},
				{
					"constant": false,
					"inputs": [
						{
							"name": "guy",
							"type": "address"
						}
					],
					"name": "approve",
					"outputs": [
						{
							"name": "",
							"type": "bool"
						}
					],
					"payable": false,
					"stateMutability": "nonpayable",
					"type": "function"
				},
				{
					"constant": true,
					"inputs": [
						{
							"name": "src",
							"type": "address"
						},
						{
							"name": "guy",
							"type": "address"
						}
					],
					"name": "allowance",
					"outputs": [
						{
							"name": "",
							"type": "uint256"
						}
					],
					"payable": false,
					"stateMutability": "view",
					"type": "function"
				},
				{
					"constant": false,
					"inputs": [
						{
							"name": "src",
							"type": "address"
						},
						{
							"name": "wad",
							"type": "uint256"
						}
					],
					"name": "pull",
					"outputs": [],
					"payable": false,
					"stateMutability": "nonpayable",
					"type": "function"
				},
				{
					"inputs": [
						{
							"name": "symbol_",
							"type": "bytes32"
						}
					],
					"payable": false,
					"stateMutability": "nonpayable",
					"type": "constructor"
				},
				{
					"anonymous": false,
					"inputs": [
						{
							"indexed": true,
							"name": "guy",
							"type": "address"
						},
						{
							"indexed": false,
							"name": "wad",
							"type": "uint256"
						}
					],
					"name": "Mint",
					"type": "event"
				},
				{
					"anonymous": false,
					"inputs": [
						{
							"indexed": true,
							"name": "guy",
							"type": "address"
						},
						{
							"indexed": false,
							"name": "wad",
							"type": "uint256"
						}
					],
					"name": "Burn",
					"type": "event"
				},
				{
					"anonymous": false,
					"inputs": [
						{
							"indexed": true,
							"name": "authority",
							"type": "address"
						}
					],
					"name": "LogSetAuthority",
					"type": "event"
				},
				{
					"anonymous": false,
					"inputs": [
						{
							"indexed": true,
							"name": "owner",
							"type": "address"
						}
					],
					"name": "LogSetOwner",
					"type": "event"
				},
				{
					"anonymous": true,
					"inputs": [
						{
							"indexed": true,
							"name": "sig",
							"type": "bytes4"
						},
						{
							"indexed": true,
							"name": "guy",
							"type": "address"
						},
						{
							"indexed": true,
							"name": "foo",
							"type": "bytes32"
						},
						{
							"indexed": true,
							"name": "bar",
							"type": "bytes32"
						},
						{
							"indexed": false,
							"name": "wad",
							"type": "uint256"
						},
						{
							"indexed": false,
							"name": "fax",
							"type": "bytes"
						}
					],
					"name": "LogNote",
					"type": "event"
				},
				{
					"anonymous": false,
					"inputs": [
						{
							"indexed": true,
							"name": "src",
							"type": "address"
						},
						{
							"indexed": true,
							"name": "guy",
							"type": "address"
						},
						{
							"indexed": false,
							"name": "wad",
							"type": "uint256"
						}
					],
					"name": "Approval",
					"type": "event"
				},
				{
					"anonymous": false,
					"inputs": [
						{
							"indexed": true,
							"name": "src",
							"type": "address"
						},
						{
							"indexed": true,
							"name": "dst",
							"type": "address"
						},
						{
							"indexed": false,
							"name": "wad",
							"type": "uint256"
						}
					],
					"name": "Transfer",
					"type": "event"
				}
			],
			"devdoc": {
				"methods": {}
			},
			"evm": {
				"assembly": "    /* \"contracts/pit1.sol\":11410:13580  contract DSToken is DSTokenBase(0), DSStop {... */\n  mstore(0x40, 0x80)\n    /* \"contracts/pit1.sol\":11517:11519  18 */\n  0x12\n    /* \"contracts/pit1.sol\":11489:11519  uint256  public  decimals = 18 */\n  0x6\n  sstore\n    /* \"contracts/pit1.sol\":13471:13498  bytes32   public  name = \"\" */\n  0x0\n  0x7\n  swap1\n  not(0x0)\n  and\n  swap1\n  sstore\n    /* \"contracts/pit1.sol\":11577:11651  function DSToken(bytes32 symbol_) public {... */\n  callvalue\n    /* \"--CODEGEN--\":8:17   */\n  dup1\n    /* \"--CODEGEN--\":5:7   */\n  iszero\n  tag_1\n  jumpi\n    /* \"--CODEGEN--\":30:31   */\n  0x0\n    /* \"--CODEGEN--\":27:28   */\n  dup1\n    /* \"--CODEGEN--\":20:32   */\n  revert\n    /* \"--CODEGEN--\":5:7   */\ntag_1:\n    /* \"contracts/pit1.sol\":11577:11651  function DSToken(bytes32 symbol_) public {... */\n  pop\n  mload(0x40)\n  0x20\n  dup1\n  bytecodeSize\n  dup4\n  codecopy\n  dup2\n  add\n  dup1\n  0x40\n  mstore\n  dup2\n  add\n  swap1\n  dup1\n  dup1\n  mload\n  swap1\n  0x20\n  add\n  swap1\n  swap3\n  swap2\n  swap1\n  pop\n  pop\n  pop\n    /* \"contracts/pit1.sol\":11442:11443  0 */\n  0x0\n    /* \"contracts/pit1.sol\":9482:9488  supply */\n  dup1\n    /* \"contracts/pit1.sol\":9458:9467  _balances */\n  0x1\n    /* \"contracts/pit1.sol\":9458:9479  _balances[msg.sender] */\n  0x0\n    /* \"contracts/pit1.sol\":9468:9478  msg.sender */\n  caller\n    /* \"contracts/pit1.sol\":9458:9479  _balances[msg.sender] */\n  0xffffffffffffffffffffffffffffffffffffffff\n  and\n  0xffffffffffffffffffffffffffffffffffffffff\n  and\n  dup2\n  mstore\n  0x20\n  add\n  swap1\n  dup2\n  mstore\n  0x20\n  add\n  0x0\n  keccak256\n    /* \"contracts/pit1.sol\":9458:9488  _balances[msg.sender] = supply */\n  dup2\n  swap1\n  sstore\n  pop\n    /* \"contracts/pit1.sol\":9508:9514  supply */\n  dup1\n    /* \"contracts/pit1.sol\":9498:9505  _supply */\n  0x0\n    /* \"contracts/pit1.sol\":9498:9514  _supply = supply */\n  dup2\n  swap1\n  sstore\n  pop\n    /* \"contracts/pit1.sol\":9407:9521  function DSTokenBase(uint supply) public {... */\n  pop\n    /* \"contracts/pit1.sol\":4097:4107  msg.sender */\n  caller\n    /* \"contracts/pit1.sol\":4089:4094  owner */\n  0x4\n  0x0\n    /* \"contracts/pit1.sol\":4089:4107  owner = msg.sender */\n  0x100\n  exp\n  dup2\n  sload\n  dup2\n  0xffffffffffffffffffffffffffffffffffffffff\n  mul\n  not\n  and\n  swap1\n  dup4\n  0xffffffffffffffffffffffffffffffffffffffff\n  and\n  mul\n  or\n  swap1\n  sstore\n  pop\n    /* \"contracts/pit1.sol\":4129:4139  msg.sender */\n  caller\n    /* \"contracts/pit1.sol\":4117:4140  LogSetOwner(msg.sender) */\n  0xffffffffffffffffffffffffffffffffffffffff\n  and\n  0xce241d7ca1f669fee44b6fc00b8eba2df3bb514eed0f6f668f8f89096e81ed94\n  mload(0x40)\n  mload(0x40)\n  dup1\n  swap2\n  sub\n  swap1\n  log2\n    /* \"contracts/pit1.sol\":11637:11644  symbol_ */\n  dup1\n    /* \"contracts/pit1.sol\":11628:11634  symbol */\n  0x5\n    /* \"contracts/pit1.sol\":11628:11644  symbol = symbol_ */\n  dup2\n  not(0x0)\n  and\n  swap1\n  sstore\n  pop\n    /* \"contracts/pit1.sol\":11577:11651  function DSToken(bytes32 symbol_) public {... */\n  pop\n    /* \"contracts/pit1.sol\":11410:13580  contract DSToken is DSTokenBase(0), DSStop {... */\n  dataSize(sub_0)\n  dup1\n  dataOffset(sub_0)\n  0x0\n  codecopy\n  0x0\n  return\nstop\n\nsub_0: assembly {\n        /* \"contracts/pit1.sol\":11410:13580  contract DSToken is DSTokenBase(0), DSStop {... */\n      mstore(0x40, 0x80)\n      jumpi(tag_1, lt(calldatasize, 0x4))\n      calldataload(0x0)\n      0x100000000000000000000000000000000000000000000000000000000\n      swap1\n      div\n      0xffffffff\n      and\n      dup1\n      0x6fdde03\n      eq\n      tag_2\n      jumpi\n      dup1\n      0x7da68f5\n      eq\n      tag_3\n      jumpi\n      dup1\n      0x95ea7b3\n      eq\n      tag_4\n      jumpi\n      dup1\n      0x13af4035\n      eq\n      tag_5\n      jumpi\n      dup1\n      0x18160ddd\n      eq\n      tag_6\n      jumpi\n      dup1\n      0x23b872dd\n      eq\n      tag_7\n      jumpi\n      dup1\n      0x313ce567\n      eq\n      tag_8\n      jumpi\n      dup1\n      0x40c10f19\n      eq\n      tag_9\n      jumpi\n      dup1\n      0x42966c68\n      eq\n      tag_10\n      jumpi\n      dup1\n      0x5ac801fe\n      eq\n      tag_11\n      jumpi\n      dup1\n      0x70a08231\n      eq\n      tag_12\n      jumpi\n      dup1\n      0x75f12b21\n      eq\n      tag_13\n      jumpi\n      dup1\n      0x7a9e5e4b\n      eq\n      tag_14\n      jumpi\n      dup1\n      0x8da5cb5b\n      eq\n      tag_15\n      jumpi\n      dup1\n      0x95d89b41\n      eq\n      tag_16\n      jumpi\n      dup1\n      0x9dc29fac\n      eq\n      tag_17\n      jumpi\n      dup1\n      0xa0712d68\n      eq\n      tag_18\n      jumpi\n      dup1\n      0xa9059cbb\n      eq\n      tag_19\n      jumpi\n      dup1\n      0xb753a98c\n      eq\n      tag_20\n      jumpi\n      dup1\n      0xbb35783b\n      eq\n      tag_21\n      jumpi\n      dup1\n      0xbe9a6555\n      eq\n      tag_22\n      jumpi\n      dup1\n      0xbf7e214f\n      eq\n      tag_23\n      jumpi\n      dup1\n      0xdaea85c5\n      eq\n      tag_24\n      jumpi\n      dup1\n      0xdd62ed3e\n      eq\n      tag_25\n      jumpi\n      dup1\n      0xf2d5d56b\n      eq\n      tag_26\n      jumpi\n    tag_1:\n      0x0\n      dup1\n      revert\n        /* \"contracts/pit1.sol\":13471:13498  bytes32   public  name = \"\" */\n    tag_2:\n      callvalue\n        /* \"--CODEGEN--\":8:17   */\n      dup1\n        /* \"--CODEGEN--\":5:7   */\n      iszero\n      tag_27\n      jumpi\n        /* \"--CODEGEN--\":30:31   */\n      0x0\n        /* \"--CODEGEN--\":27:28   */\n      dup1\n        /* \"--CODEGEN--\":20:32   */\n      revert\n        /* \"--CODEGEN--\":5:7   */\n    tag_27:\n        /* \"contracts/pit1.sol\":13471:13498  bytes32   public  name = \"\" */\n      pop\n      tag_28\n      jump(tag_29)\n    tag_28:\n      mload(0x40)\n      dup1\n      dup3\n      not(0x0)\n      and\n      not(0x0)\n      and\n      dup2\n      mstore\n      0x20\n      add\n      swap2\n      pop\n      pop\n      mload(0x40)\n      dup1\n      swap2\n      sub\n      swap1\n      return\n        /* \"contracts/pit1.sol\":7180:7244  function stop() public auth note {... */\n    tag_3:\n      callvalue\n        /* \"--CODEGEN--\":8:17   */\n      dup1\n        /* \"--CODEGEN--\":5:7   */\n      iszero\n      tag_30\n      jumpi\n        /* \"--CODEGEN--\":30:31   */\n      0x0\n        /* \"--CODEGEN--\":27:28   */\n      dup1\n        /* \"--CODEGEN--\":20:32   */\n      revert\n        /* \"--CODEGEN--\":5:7   */\n    tag_30:\n        /* \"contracts/pit1.sol\":7180:7244  function stop() public auth note {... */\n      pop\n      tag_31\n      jump(tag_32)\n    tag_31:\n      stop\n        /* \"contracts/pit1.sol\":11872:11991  function approve(address guy, uint wad) public stoppable returns (bool) {... */\n    tag_4:\n      callvalue\n        /* \"--CODEGEN--\":8:17   */\n      dup1\n        /* \"--CODEGEN--\":5:7   */\n      iszero\n      tag_33\n      jumpi\n        /* \"--CODEGEN--\":30:31   */\n      0x0\n        /* \"--CODEGEN--\":27:28   */\n      dup1\n        /* \"--CODEGEN--\":20:32   */\n      revert\n        /* \"--CODEGEN--\":5:7   */\n    tag_33:\n        /* \"contracts/pit1.sol\":11872:11991  function approve(address guy, uint wad) public stoppable returns (bool) {... */\n      pop\n      tag_34\n      0x4\n      dup1\n      calldatasize\n      sub\n      dup2\n      add\n      swap1\n      dup1\n      dup1\n      calldataload\n      0xffffffffffffffffffffffffffffffffffffffff\n      and\n      swap1\n      0x20\n      add\n      swap1\n      swap3\n      swap2\n      swap1\n      dup1\n      calldataload\n      swap1\n      0x20\n      add\n      swap1\n      swap3\n      swap2\n      swap1\n      pop\n      pop\n      pop\n      jump(tag_35)\n    tag_34:\n      mload(0x40)\n      dup1\n      dup3\n      iszero\n      iszero\n      iszero\n      iszero\n      dup2\n      mstore\n      0x20\n      add\n      swap2\n      pop\n      pop\n      mload(0x40)\n      dup1\n      swap2\n      sub\n      swap1\n      return\n        /* \"contracts/pit1.sol\":4153:4278  function setOwner(address owner_)... */\n    tag_5:\n      callvalue\n        /* \"--CODEGEN--\":8:17   */\n      dup1\n        /* \"--CODEGEN--\":5:7   */\n      iszero\n      tag_36\n      jumpi\n        /* \"--CODEGEN--\":30:31   */\n      0x0\n        /* \"--CODEGEN--\":27:28   */\n      dup1\n        /* \"--CODEGEN--\":20:32   */\n      revert\n        /* \"--CODEGEN--\":5:7   */\n    tag_36:\n        /* \"contracts/pit1.sol\":4153:4278  function setOwner(address owner_)... */\n      pop\n      tag_37\n      0x4\n      dup1\n      calldatasize\n      sub\n      dup2\n      add\n      swap1\n      dup1\n      dup1\n      calldataload\n      0xffffffffffffffffffffffffffffffffffffffff\n      and\n      swap1\n      0x20\n      add\n      swap1\n      swap3\n      swap2\n      swap1\n      pop\n      pop\n      pop\n      jump(tag_38)\n    tag_37:\n      stop\n        /* \"contracts/pit1.sol\":9527:9608  function totalSupply() public view returns (uint) {... */\n    tag_6:\n      callvalue\n        /* \"--CODEGEN--\":8:17   */\n      dup1\n        /* \"--CODEGEN--\":5:7   */\n      iszero\n      tag_39\n      jumpi\n        /* \"--CODEGEN--\":30:31   */\n      0x0\n        /* \"--CODEGEN--\":27:28   */\n      dup1\n        /* \"--CODEGEN--\":20:32   */\n      revert\n        /* \"--CODEGEN--\":5:7   */\n    tag_39:\n        /* \"contracts/pit1.sol\":9527:9608  function totalSupply() public view returns (uint) {... */\n      pop\n      tag_40\n      jump(tag_41)\n    tag_40:\n      mload(0x40)\n      dup1\n      dup3\n      dup2\n      mstore\n      0x20\n      add\n      swap2\n      pop\n      pop\n      mload(0x40)\n      dup1\n      swap2\n      sub\n      swap1\n      return\n        /* \"contracts/pit1.sol\":11997:12448  function transferFrom(address src, address dst, uint wad)... */\n    tag_7:\n      callvalue\n        /* \"--CODEGEN--\":8:17   */\n      dup1\n        /* \"--CODEGEN--\":5:7   */\n      iszero\n      tag_42\n      jumpi\n        /* \"--CODEGEN--\":30:31   */\n      0x0\n        /* \"--CODEGEN--\":27:28   */\n      dup1\n        /* \"--CODEGEN--\":20:32   */\n      revert\n        /* \"--CODEGEN--\":5:7   */\n    tag_42:\n        /* \"contracts/pit1.sol\":11997:12448  function transferFrom(address src, address dst, uint wad)... */\n      pop\n      tag_43\n      0x4\n      dup1\n      calldatasize\n      sub\n      dup2\n      add\n      swap1\n      dup1\n      dup1\n      calldataload\n      0xffffffffffffffffffffffffffffffffffffffff\n      and\n      swap1\n      0x20\n      add\n      swap1\n      swap3\n      swap2\n      swap1\n      dup1\n      calldataload\n      0xffffffffffffffffffffffffffffffffffffffff\n      and\n      swap1\n      0x20\n      add\n      swap1\n      swap3\n      swap2\n      swap1\n      dup1\n      calldataload\n      swap1\n      0x20\n      add\n      swap1\n      swap3\n      swap2\n      swap1\n      pop\n      pop\n      pop\n      jump(tag_44)\n    tag_43:\n      mload(0x40)\n      dup1\n      dup3\n      iszero\n      iszero\n      iszero\n      iszero\n      dup2\n      mstore\n      0x20\n      add\n      swap2\n      pop\n      pop\n      mload(0x40)\n      dup1\n      swap2\n      sub\n      swap1\n      return\n        /* \"contracts/pit1.sol\":11489:11519  uint256  public  decimals = 18 */\n    tag_8:\n      callvalue\n        /* \"--CODEGEN--\":8:17   */\n      dup1\n        /* \"--CODEGEN--\":5:7   */\n      iszero\n      tag_45\n      jumpi\n        /* \"--CODEGEN--\":30:31   */\n      0x0\n        /* \"--CODEGEN--\":27:28   */\n      dup1\n        /* \"--CODEGEN--\":20:32   */\n      revert\n        /* \"--CODEGEN--\":5:7   */\n    tag_45:\n        /* \"contracts/pit1.sol\":11489:11519  uint256  public  decimals = 18 */\n      pop\n      tag_46\n      jump(tag_47)\n    tag_46:\n      mload(0x40)\n      dup1\n      dup3\n      dup2\n      mstore\n      0x20\n      add\n      swap2\n      pop\n      pop\n      mload(0x40)\n      dup1\n      swap2\n      sub\n      swap1\n      return\n        /* \"contracts/pit1.sol\":12909:13087  function mint(address guy, uint wad) public auth stoppable {... */\n    tag_9:\n      callvalue\n        /* \"--CODEGEN--\":8:17   */\n      dup1\n        /* \"--CODEGEN--\":5:7   */\n      iszero\n      tag_48\n      jumpi\n        /* \"--CODEGEN--\":30:31   */\n      0x0\n        /* \"--CODEGEN--\":27:28   */\n      dup1\n        /* \"--CODEGEN--\":20:32   */\n      revert\n        /* \"--CODEGEN--\":5:7   */\n    tag_48:\n        /* \"contracts/pit1.sol\":12909:13087  function mint(address guy, uint wad) public auth stoppable {... */\n      pop\n      tag_49\n      0x4\n      dup1\n      calldatasize\n      sub\n      dup2\n      add\n      swap1\n      dup1\n      dup1\n      calldataload\n      0xffffffffffffffffffffffffffffffffffffffff\n      and\n      swap1\n      0x20\n      add\n      swap1\n      swap3\n      swap2\n      swap1\n      dup1\n      calldataload\n      swap1\n      0x20\n      add\n      swap1\n      swap3\n      swap2\n      swap1\n      pop\n      pop\n      pop\n      jump(tag_50)\n    tag_49:\n      stop\n        /* \"contracts/pit1.sol\":12835:12904  function burn(uint wad) public {... */\n    tag_10:\n      callvalue\n        /* \"--CODEGEN--\":8:17   */\n      dup1\n        /* \"--CODEGEN--\":5:7   */\n      iszero\n      tag_51\n      jumpi\n        /* \"--CODEGEN--\":30:31   */\n      0x0\n        /* \"--CODEGEN--\":27:28   */\n      dup1\n        /* \"--CODEGEN--\":20:32   */\n      revert\n        /* \"--CODEGEN--\":5:7   */\n    tag_51:\n        /* \"contracts/pit1.sol\":12835:12904  function burn(uint wad) public {... */\n      pop\n      tag_52\n      0x4\n      dup1\n      calldatasize\n      sub\n      dup2\n      add\n      swap1\n      dup1\n      dup1\n      calldataload\n      swap1\n      0x20\n      add\n      swap1\n      swap3\n      swap2\n      swap1\n      pop\n      pop\n      pop\n      jump(tag_53)\n    tag_52:\n      stop\n        /* \"contracts/pit1.sol\":13505:13578  function setName(bytes32 name_) public auth {... */\n    tag_11:\n      callvalue\n        /* \"--CODEGEN--\":8:17   */\n      dup1\n        /* \"--CODEGEN--\":5:7   */\n      iszero\n      tag_54\n      jumpi\n        /* \"--CODEGEN--\":30:31   */\n      0x0\n        /* \"--CODEGEN--\":27:28   */\n      dup1\n        /* \"--CODEGEN--\":20:32   */\n      revert\n        /* \"--CODEGEN--\":5:7   */\n    tag_54:\n        /* \"contracts/pit1.sol\":13505:13578  function setName(bytes32 name_) public auth {... */\n      pop\n      tag_55\n      0x4\n      dup1\n      calldatasize\n      sub\n      dup2\n      add\n      swap1\n      dup1\n      dup1\n      calldataload\n      not(0x0)\n      and\n      swap1\n      0x20\n      add\n      swap1\n      swap3\n      swap2\n      swap1\n      pop\n      pop\n      pop\n      jump(tag_56)\n    tag_55:\n      stop\n        /* \"contracts/pit1.sol\":9613:9710  function balanceOf(address src) public view returns (uint) {... */\n    tag_12:\n      callvalue\n        /* \"--CODEGEN--\":8:17   */\n      dup1\n        /* \"--CODEGEN--\":5:7   */\n      iszero\n      tag_57\n      jumpi\n        /* \"--CODEGEN--\":30:31   */\n      0x0\n        /* \"--CODEGEN--\":27:28   */\n      dup1\n        /* \"--CODEGEN--\":20:32   */\n      revert\n        /* \"--CODEGEN--\":5:7   */\n    tag_57:\n        /* \"contracts/pit1.sol\":9613:9710  function balanceOf(address src) public view returns (uint) {... */\n      pop\n      tag_58\n      0x4\n      dup1\n      calldatasize\n      sub\n      dup2\n      add\n      swap1\n      dup1\n      dup1\n      calldataload\n      0xffffffffffffffffffffffffffffffffffffffff\n      and\n      swap1\n      0x20\n      add\n      swap1\n      swap3\n      swap2\n      swap1\n      pop\n      pop\n      pop\n      jump(tag_59)\n    tag_58:\n      mload(0x40)\n      dup1\n      dup3\n      dup2\n      mstore\n      0x20\n      add\n      swap2\n      pop\n      pop\n      mload(0x40)\n      dup1\n      swap2\n      sub\n      swap1\n      return\n        /* \"contracts/pit1.sol\":7085:7104  bool public stopped */\n    tag_13:\n      callvalue\n        /* \"--CODEGEN--\":8:17   */\n      dup1\n        /* \"--CODEGEN--\":5:7   */\n      iszero\n      tag_60\n      jumpi\n        /* \"--CODEGEN--\":30:31   */\n      0x0\n        /* \"--CODEGEN--\":27:28   */\n      dup1\n        /* \"--CODEGEN--\":20:32   */\n      revert\n        /* \"--CODEGEN--\":5:7   */\n    tag_60:\n        /* \"contracts/pit1.sol\":7085:7104  bool public stopped */\n      pop\n      tag_61\n      jump(tag_62)\n    tag_61:\n      mload(0x40)\n      dup1\n      dup3\n      iszero\n      iszero\n      iszero\n      iszero\n      dup2\n      mstore\n      0x20\n      add\n      swap2\n      pop\n      pop\n      mload(0x40)\n      dup1\n      swap2\n      sub\n      swap1\n      return\n        /* \"contracts/pit1.sol\":4284:4437  function setAuthority(DSAuthority authority_)... */\n    tag_14:\n      callvalue\n        /* \"--CODEGEN--\":8:17   */\n      dup1\n        /* \"--CODEGEN--\":5:7   */\n      iszero\n      tag_63\n      jumpi\n        /* \"--CODEGEN--\":30:31   */\n      0x0\n        /* \"--CODEGEN--\":27:28   */\n      dup1\n        /* \"--CODEGEN--\":20:32   */\n      revert\n        /* \"--CODEGEN--\":5:7   */\n    tag_63:\n        /* \"contracts/pit1.sol\":4284:4437  function setAuthority(DSAuthority authority_)... */\n      pop\n      tag_64\n      0x4\n      dup1\n      calldatasize\n      sub\n      dup2\n      add\n      swap1\n      dup1\n      dup1\n      calldataload\n      0xffffffffffffffffffffffffffffffffffffffff\n      and\n      swap1\n      0x20\n      add\n      swap1\n      swap3\n      swap2\n      swap1\n      pop\n      pop\n      pop\n      jump(tag_65)\n    tag_64:\n      stop\n        /* \"contracts/pit1.sol\":4021:4047  address      public  owner */\n    tag_15:\n      callvalue\n        /* \"--CODEGEN--\":8:17   */\n      dup1\n        /* \"--CODEGEN--\":5:7   */\n      iszero\n      tag_66\n      jumpi\n        /* \"--CODEGEN--\":30:31   */\n      0x0\n        /* \"--CODEGEN--\":27:28   */\n      dup1\n        /* \"--CODEGEN--\":20:32   */\n      revert\n        /* \"--CODEGEN--\":5:7   */\n    tag_66:\n        /* \"contracts/pit1.sol\":4021:4047  address      public  owner */\n      pop\n      tag_67\n      jump(tag_68)\n    tag_67:\n      mload(0x40)\n      dup1\n      dup3\n      0xffffffffffffffffffffffffffffffffffffffff\n      and\n      0xffffffffffffffffffffffffffffffffffffffff\n      and\n      dup2\n      mstore\n      0x20\n      add\n      swap2\n      pop\n      pop\n      mload(0x40)\n      dup1\n      swap2\n      sub\n      swap1\n      return\n        /* \"contracts/pit1.sol\":11460:11483  bytes32  public  symbol */\n    tag_16:\n      callvalue\n        /* \"--CODEGEN--\":8:17   */\n      dup1\n        /* \"--CODEGEN--\":5:7   */\n      iszero\n      tag_69\n      jumpi\n        /* \"--CODEGEN--\":30:31   */\n      0x0\n        /* \"--CODEGEN--\":27:28   */\n      dup1\n        /* \"--CODEGEN--\":20:32   */\n      revert\n        /* \"--CODEGEN--\":5:7   */\n    tag_69:\n        /* \"contracts/pit1.sol\":11460:11483  bytes32  public  symbol */\n      pop\n      tag_70\n      jump(tag_71)\n    tag_70:\n      mload(0x40)\n      dup1\n      dup3\n      not(0x0)\n      and\n      not(0x0)\n      and\n      dup2\n      mstore\n      0x20\n      add\n      swap2\n      pop\n      pop\n      mload(0x40)\n      dup1\n      swap2\n      sub\n      swap1\n      return\n        /* \"contracts/pit1.sol\":13092:13438  function burn(address guy, uint wad) public auth stoppable {... */\n    tag_17:\n      callvalue\n        /* \"--CODEGEN--\":8:17   */\n      dup1\n        /* \"--CODEGEN--\":5:7   */\n      iszero\n      tag_72\n      jumpi\n        /* \"--CODEGEN--\":30:31   */\n      0x0\n        /* \"--CODEGEN--\":27:28   */\n      dup1\n        /* \"--CODEGEN--\":20:32   */\n      revert\n        /* \"--CODEGEN--\":5:7   */\n    tag_72:\n        /* \"contracts/pit1.sol\":13092:13438  function burn(address guy, uint wad) public auth stoppable {... */\n      pop\n      tag_73\n      0x4\n      dup1\n      calldatasize\n      sub\n      dup2\n      add\n      swap1\n      dup1\n      dup1\n      calldataload\n      0xffffffffffffffffffffffffffffffffffffffff\n      and\n      swap1\n      0x20\n      add\n      swap1\n      swap3\n      swap2\n      swap1\n      dup1\n      calldataload\n      swap1\n      0x20\n      add\n      swap1\n      swap3\n      swap2\n      swap1\n      pop\n      pop\n      pop\n      jump(tag_74)\n    tag_73:\n      stop\n        /* \"contracts/pit1.sol\":12761:12830  function mint(uint wad) public {... */\n    tag_18:\n      callvalue\n        /* \"--CODEGEN--\":8:17   */\n      dup1\n        /* \"--CODEGEN--\":5:7   */\n      iszero\n      tag_75\n      jumpi\n        /* \"--CODEGEN--\":30:31   */\n      0x0\n        /* \"--CODEGEN--\":27:28   */\n      dup1\n        /* \"--CODEGEN--\":20:32   */\n      revert\n        /* \"--CODEGEN--\":5:7   */\n    tag_75:\n        /* \"contracts/pit1.sol\":12761:12830  function mint(uint wad) public {... */\n      pop\n      tag_76\n      0x4\n      dup1\n      calldatasize\n      sub\n      dup2\n      add\n      swap1\n      dup1\n      dup1\n      calldataload\n      swap1\n      0x20\n      add\n      swap1\n      swap3\n      swap2\n      swap1\n      pop\n      pop\n      pop\n      jump(tag_77)\n    tag_76:\n      stop\n        /* \"contracts/pit1.sol\":9837:9958  function transfer(address dst, uint wad) public returns (bool) {... */\n    tag_19:\n      callvalue\n        /* \"--CODEGEN--\":8:17   */\n      dup1\n        /* \"--CODEGEN--\":5:7   */\n      iszero\n      tag_78\n      jumpi\n        /* \"--CODEGEN--\":30:31   */\n      0x0\n        /* \"--CODEGEN--\":27:28   */\n      dup1\n        /* \"--CODEGEN--\":20:32   */\n      revert\n        /* \"--CODEGEN--\":5:7   */\n    tag_78:\n        /* \"contracts/pit1.sol\":9837:9958  function transfer(address dst, uint wad) public returns (bool) {... */\n      pop\n      tag_79\n      0x4\n      dup1\n      calldatasize\n      sub\n      dup2\n      add\n      swap1\n      dup1\n      dup1\n      calldataload\n      0xffffffffffffffffffffffffffffffffffffffff\n      and\n      swap1\n      0x20\n      add\n      swap1\n      swap3\n      swap2\n      swap1\n      dup1\n      calldataload\n      swap1\n      0x20\n      add\n      swap1\n      swap3\n      swap2\n      swap1\n      pop\n      pop\n      pop\n      jump(tag_80)\n    tag_79:\n      mload(0x40)\n      dup1\n      dup3\n      iszero\n      iszero\n      iszero\n      iszero\n      dup2\n      mstore\n      0x20\n      add\n      swap2\n      pop\n      pop\n      mload(0x40)\n      dup1\n      swap2\n      sub\n      swap1\n      return\n        /* \"contracts/pit1.sol\":12454:12549  function push(address dst, uint wad) public {... */\n    tag_20:\n      callvalue\n        /* \"--CODEGEN--\":8:17   */\n      dup1\n        /* \"--CODEGEN--\":5:7   */\n      iszero\n      tag_81\n      jumpi\n        /* \"--CODEGEN--\":30:31   */\n      0x0\n        /* \"--CODEGEN--\":27:28   */\n      dup1\n        /* \"--CODEGEN--\":20:32   */\n      revert\n        /* \"--CODEGEN--\":5:7   */\n    tag_81:\n        /* \"contracts/pit1.sol\":12454:12549  function push(address dst, uint wad) public {... */\n      pop\n      tag_82\n      0x4\n      dup1\n      calldatasize\n      sub\n      dup2\n      add\n      swap1\n      dup1\n      dup1\n      calldataload\n      0xffffffffffffffffffffffffffffffffffffffff\n      and\n      swap1\n      0x20\n      add\n      swap1\n      swap3\n      swap2\n      swap1\n      dup1\n      calldataload\n      swap1\n      0x20\n      add\n      swap1\n      swap3\n      swap2\n      swap1\n      pop\n      pop\n      pop\n      jump(tag_83)\n    tag_82:\n      stop\n        /* \"contracts/pit1.sol\":12654:12755  function move(address src, address dst, uint wad) public {... */\n    tag_21:\n      callvalue\n        /* \"--CODEGEN--\":8:17   */\n      dup1\n        /* \"--CODEGEN--\":5:7   */\n      iszero\n      tag_84\n      jumpi\n        /* \"--CODEGEN--\":30:31   */\n      0x0\n        /* \"--CODEGEN--\":27:28   */\n      dup1\n        /* \"--CODEGEN--\":20:32   */\n      revert\n        /* \"--CODEGEN--\":5:7   */\n    tag_84:\n        /* \"contracts/pit1.sol\":12654:12755  function move(address src, address dst, uint wad) public {... */\n      pop\n      tag_85\n      0x4\n      dup1\n      calldatasize\n      sub\n      dup2\n      add\n      swap1\n      dup1\n      dup1\n      calldataload\n      0xffffffffffffffffffffffffffffffffffffffff\n      and\n      swap1\n      0x20\n      add\n      swap1\n      swap3\n      swap2\n      swap1\n      dup1\n      calldataload\n      0xffffffffffffffffffffffffffffffffffffffff\n      and\n      swap1\n      0x20\n      add\n      swap1\n      swap3\n      swap2\n      swap1\n      dup1\n      calldataload\n      swap1\n      0x20\n      add\n      swap1\n      swap3\n      swap2\n      swap1\n      pop\n      pop\n      pop\n      jump(tag_86)\n    tag_85:\n      stop\n        /* \"contracts/pit1.sol\":7249:7315  function start() public auth note {... */\n    tag_22:\n      callvalue\n        /* \"--CODEGEN--\":8:17   */\n      dup1\n        /* \"--CODEGEN--\":5:7   */\n      iszero\n      tag_87\n      jumpi\n        /* \"--CODEGEN--\":30:31   */\n      0x0\n        /* \"--CODEGEN--\":27:28   */\n      dup1\n        /* \"--CODEGEN--\":20:32   */\n      revert\n        /* \"--CODEGEN--\":5:7   */\n    tag_87:\n        /* \"contracts/pit1.sol\":7249:7315  function start() public auth note {... */\n      pop\n      tag_88\n      jump(tag_89)\n    tag_88:\n      stop\n        /* \"contracts/pit1.sol\":3985:4015  DSAuthority  public  authority */\n    tag_23:\n      callvalue\n        /* \"--CODEGEN--\":8:17   */\n      dup1\n        /* \"--CODEGEN--\":5:7   */\n      iszero\n      tag_90\n      jumpi\n        /* \"--CODEGEN--\":30:31   */\n      0x0\n        /* \"--CODEGEN--\":27:28   */\n      dup1\n        /* \"--CODEGEN--\":20:32   */\n      revert\n        /* \"--CODEGEN--\":5:7   */\n    tag_90:\n        /* \"contracts/pit1.sol\":3985:4015  DSAuthority  public  authority */\n      pop\n      tag_91\n      jump(tag_92)\n    tag_91:\n      mload(0x40)\n      dup1\n      dup3\n      0xffffffffffffffffffffffffffffffffffffffff\n      and\n      0xffffffffffffffffffffffffffffffffffffffff\n      and\n      dup2\n      mstore\n      0x20\n      add\n      swap2\n      pop\n      pop\n      mload(0x40)\n      dup1\n      swap2\n      sub\n      swap1\n      return\n        /* \"contracts/pit1.sol\":11752:11866  function approve(address guy) public stoppable returns (bool) {... */\n    tag_24:\n      callvalue\n        /* \"--CODEGEN--\":8:17   */\n      dup1\n        /* \"--CODEGEN--\":5:7   */\n      iszero\n      tag_93\n      jumpi\n        /* \"--CODEGEN--\":30:31   */\n      0x0\n        /* \"--CODEGEN--\":27:28   */\n      dup1\n        /* \"--CODEGEN--\":20:32   */\n      revert\n        /* \"--CODEGEN--\":5:7   */\n    tag_93:\n        /* \"contracts/pit1.sol\":11752:11866  function approve(address guy) public stoppable returns (bool) {... */\n      pop\n      tag_94\n      0x4\n      dup1\n      calldatasize\n      sub\n      dup2\n      add\n      swap1\n      dup1\n      dup1\n      calldataload\n      0xffffffffffffffffffffffffffffffffffffffff\n      and\n      swap1\n      0x20\n      add\n      swap1\n      swap3\n      swap2\n      swap1\n      pop\n      pop\n      pop\n      jump(tag_95)\n    tag_94:\n      mload(0x40)\n      dup1\n      dup3\n      iszero\n      iszero\n      iszero\n      iszero\n      dup2\n      mstore\n      0x20\n      add\n      swap2\n      pop\n      pop\n      mload(0x40)\n      dup1\n      swap2\n      sub\n      swap1\n      return\n        /* \"contracts/pit1.sol\":9715:9831  function allowance(address src, address guy) public view returns (uint) {... */\n    tag_25:\n      callvalue\n        /* \"--CODEGEN--\":8:17   */\n      dup1\n        /* \"--CODEGEN--\":5:7   */\n      iszero\n      tag_96\n      jumpi\n        /* \"--CODEGEN--\":30:31   */\n      0x0\n        /* \"--CODEGEN--\":27:28   */\n      dup1\n        /* \"--CODEGEN--\":20:32   */\n      revert\n        /* \"--CODEGEN--\":5:7   */\n    tag_96:\n        /* \"contracts/pit1.sol\":9715:9831  function allowance(address src, address guy) public view returns (uint) {... */\n      pop\n      tag_97\n      0x4\n      dup1\n      calldatasize\n      sub\n      dup2\n      add\n      swap1\n      dup1\n      dup1\n      calldataload\n      0xffffffffffffffffffffffffffffffffffffffff\n      and\n      swap1\n      0x20\n      add\n      swap1\n      swap3\n      swap2\n      swap1\n      dup1\n      calldataload\n      0xffffffffffffffffffffffffffffffffffffffff\n      and\n      swap1\n      0x20\n      add\n      swap1\n      swap3\n      swap2\n      swap1\n      pop\n      pop\n      pop\n      jump(tag_98)\n    tag_97:\n      mload(0x40)\n      dup1\n      dup3\n      dup2\n      mstore\n      0x20\n      add\n      swap2\n      pop\n      pop\n      mload(0x40)\n      dup1\n      swap2\n      sub\n      swap1\n      return\n        /* \"contracts/pit1.sol\":12554:12649  function pull(address src, uint wad) public {... */\n    tag_26:\n      callvalue\n        /* \"--CODEGEN--\":8:17   */\n      dup1\n        /* \"--CODEGEN--\":5:7   */\n      iszero\n      tag_99\n      jumpi\n        /* \"--CODEGEN--\":30:31   */\n      0x0\n        /* \"--CODEGEN--\":27:28   */\n      dup1\n        /* \"--CODEGEN--\":20:32   */\n      revert\n        /* \"--CODEGEN--\":5:7   */\n    tag_99:\n        /* \"contracts/pit1.sol\":12554:12649  function pull(address src, uint wad) public {... */\n      pop\n      tag_100\n      0x4\n      dup1\n      calldatasize\n      sub\n      dup2\n      add\n      swap1\n      dup1\n      dup1\n      calldataload\n      0xffffffffffffffffffffffffffffffffffffffff\n      and\n      swap1\n      0x20\n      add\n      swap1\n      swap3\n      swap2\n      swap1\n      dup1\n      calldataload\n      swap1\n      0x20\n      add\n      swap1\n      swap3\n      swap2\n      swap1\n      pop\n      pop\n      pop\n      jump(tag_101)\n    tag_100:\n      stop\n        /* \"contracts/pit1.sol\":13471:13498  bytes32   public  name = \"\" */\n    tag_29:\n      sload(0x7)\n      dup2\n      jump\t// out\n        /* \"contracts/pit1.sol\":7180:7244  function stop() public auth note {... */\n    tag_32:\n        /* \"contracts/pit1.sol\":4475:4508  isAuthorized(msg.sender, msg.sig) */\n      tag_103\n        /* \"contracts/pit1.sol\":4488:4498  msg.sender */\n      caller\n        /* \"contracts/pit1.sol\":4500:4507  msg.sig */\n      and(0xffffffff00000000000000000000000000000000000000000000000000000000, calldataload(0x0))\n        /* \"contracts/pit1.sol\":4475:4487  isAuthorized */\n      tag_104\n        /* \"contracts/pit1.sol\":4475:4508  isAuthorized(msg.sender, msg.sig) */\n      jump\t// in\n    tag_103:\n        /* \"contracts/pit1.sol\":4467:4509  require(isAuthorized(msg.sender, msg.sig)) */\n      iszero\n      iszero\n      tag_105\n      jumpi\n      0x0\n      dup1\n      revert\n    tag_105:\n        /* \"contracts/pit1.sol\":5951:5962  bytes32 foo */\n      0x0\n        /* \"contracts/pit1.sol\":5972:5983  bytes32 bar */\n      dup1\n        /* \"contracts/pit1.sol\":6037:6038  4 */\n      0x4\n        /* \"contracts/pit1.sol\":6024:6039  calldataload(4) */\n      calldataload\n        /* \"contracts/pit1.sol\":6017:6039  foo := calldataload(4) */\n      swap2\n      pop\n        /* \"contracts/pit1.sol\":6072:6074  36 */\n      0x24\n        /* \"contracts/pit1.sol\":6059:6075  calldataload(36) */\n      calldataload\n        /* \"contracts/pit1.sol\":6052:6075  bar := calldataload(36) */\n      swap1\n      pop\n        /* \"contracts/pit1.sol\":6129:6132  bar */\n      dup1\n        /* \"contracts/pit1.sol\":6095:6154  LogNote(msg.sig, msg.sender, foo, bar, msg.value, msg.data) */\n      not(0x0)\n      and\n        /* \"contracts/pit1.sol\":6124:6127  foo */\n      dup3\n        /* \"contracts/pit1.sol\":6095:6154  LogNote(msg.sig, msg.sender, foo, bar, msg.value, msg.data) */\n      not(0x0)\n      and\n        /* \"contracts/pit1.sol\":6112:6122  msg.sender */\n      caller\n        /* \"contracts/pit1.sol\":6095:6154  LogNote(msg.sig, msg.sender, foo, bar, msg.value, msg.data) */\n      0xffffffffffffffffffffffffffffffffffffffff\n      and\n        /* \"contracts/pit1.sol\":6103:6110  msg.sig */\n      and(0xffffffff00000000000000000000000000000000000000000000000000000000, calldataload(0x0))\n        /* \"contracts/pit1.sol\":6095:6154  LogNote(msg.sig, msg.sender, foo, bar, msg.value, msg.data) */\n      not(0xffffffffffffffffffffffffffffffffffffffffffffffffffffffff)\n      and\n        /* \"contracts/pit1.sol\":6134:6143  msg.value */\n      callvalue\n        /* \"contracts/pit1.sol\":6145:6153  msg.data */\n      0x0\n      calldatasize\n        /* \"contracts/pit1.sol\":6095:6154  LogNote(msg.sig, msg.sender, foo, bar, msg.value, msg.data) */\n      mload(0x40)\n      dup1\n      dup5\n      dup2\n      mstore\n      0x20\n      add\n      dup1\n      0x20\n      add\n      dup3\n      dup2\n      sub\n      dup3\n      mstore\n      dup5\n      dup5\n      dup3\n      dup2\n      dup2\n      mstore\n      0x20\n      add\n      swap3\n      pop\n      dup1\n      dup3\n      dup5\n      calldatacopy\n      dup3\n      add\n      swap2\n      pop\n      pop\n      swap5\n      pop\n      pop\n      pop\n      pop\n      pop\n      mload(0x40)\n      dup1\n      swap2\n      sub\n      swap1\n      log4\n        /* \"contracts/pit1.sol\":7233:7237  true */\n      0x1\n        /* \"contracts/pit1.sol\":7223:7230  stopped */\n      0x4\n      0x14\n        /* \"contracts/pit1.sol\":7223:7237  stopped = true */\n      0x100\n      exp\n      dup2\n      sload\n      dup2\n      0xff\n      mul\n      not\n      and\n      swap1\n      dup4\n      iszero\n      iszero\n      mul\n      or\n      swap1\n      sstore\n      pop\n        /* \"contracts/pit1.sol\":4519:4520  _ */\n      pop\n      pop\n        /* \"contracts/pit1.sol\":7180:7244  function stop() public auth note {... */\n      jump\t// out\n        /* \"contracts/pit1.sol\":11872:11991  function approve(address guy, uint wad) public stoppable returns (bool) {... */\n    tag_35:\n        /* \"contracts/pit1.sol\":11938:11942  bool */\n      0x0\n        /* \"contracts/pit1.sol\":7149:7156  stopped */\n      0x4\n      0x14\n      swap1\n      sload\n      swap1\n      0x100\n      exp\n      swap1\n      div\n      0xff\n      and\n        /* \"contracts/pit1.sol\":7148:7156  !stopped */\n      iszero\n        /* \"contracts/pit1.sol\":7140:7157  require(!stopped) */\n      iszero\n      iszero\n      tag_109\n      jumpi\n      0x0\n      dup1\n      revert\n    tag_109:\n        /* \"contracts/pit1.sol\":11961:11984  super.approve(guy, wad) */\n      tag_111\n        /* \"contracts/pit1.sol\":11975:11978  guy */\n      dup4\n        /* \"contracts/pit1.sol\":11980:11983  wad */\n      dup4\n        /* \"contracts/pit1.sol\":11961:11974  super.approve */\n      tag_112\n        /* \"contracts/pit1.sol\":11961:11984  super.approve(guy, wad) */\n      jump\t// in\n    tag_111:\n        /* \"contracts/pit1.sol\":11954:11984  return super.approve(guy, wad) */\n      swap1\n      pop\n        /* \"contracts/pit1.sol\":11872:11991  function approve(address guy, uint wad) public stoppable returns (bool) {... */\n      swap3\n      swap2\n      pop\n      pop\n      jump\t// out\n        /* \"contracts/pit1.sol\":4153:4278  function setOwner(address owner_)... */\n    tag_38:\n        /* \"contracts/pit1.sol\":4475:4508  isAuthorized(msg.sender, msg.sig) */\n      tag_114\n        /* \"contracts/pit1.sol\":4488:4498  msg.sender */\n      caller\n        /* \"contracts/pit1.sol\":4500:4507  msg.sig */\n      and(0xffffffff00000000000000000000000000000000000000000000000000000000, calldataload(0x0))\n        /* \"contracts/pit1.sol\":4475:4487  isAuthorized */\n      tag_104\n        /* \"contracts/pit1.sol\":4475:4508  isAuthorized(msg.sender, msg.sig) */\n      jump\t// in\n    tag_114:\n        /* \"contracts/pit1.sol\":4467:4509  require(isAuthorized(msg.sender, msg.sig)) */\n      iszero\n      iszero\n      tag_115\n      jumpi\n      0x0\n      dup1\n      revert\n    tag_115:\n        /* \"contracts/pit1.sol\":4237:4243  owner_ */\n      dup1\n        /* \"contracts/pit1.sol\":4229:4234  owner */\n      0x4\n      0x0\n        /* \"contracts/pit1.sol\":4229:4243  owner = owner_ */\n      0x100\n      exp\n      dup2\n      sload\n      dup2\n      0xffffffffffffffffffffffffffffffffffffffff\n      mul\n      not\n      and\n      swap1\n      dup4\n      0xffffffffffffffffffffffffffffffffffffffff\n      and\n      mul\n      or\n      swap1\n      sstore\n      pop\n        /* \"contracts/pit1.sol\":4265:4270  owner */\n      0x4\n      0x0\n      swap1\n      sload\n      swap1\n      0x100\n      exp\n      swap1\n      div\n      0xffffffffffffffffffffffffffffffffffffffff\n      and\n        /* \"contracts/pit1.sol\":4253:4271  LogSetOwner(owner) */\n      0xffffffffffffffffffffffffffffffffffffffff\n      and\n      0xce241d7ca1f669fee44b6fc00b8eba2df3bb514eed0f6f668f8f89096e81ed94\n      mload(0x40)\n      mload(0x40)\n      dup1\n      swap2\n      sub\n      swap1\n      log2\n        /* \"contracts/pit1.sol\":4153:4278  function setOwner(address owner_)... */\n      pop\n      jump\t// out\n        /* \"contracts/pit1.sol\":9527:9608  function totalSupply() public view returns (uint) {... */\n    tag_41:\n        /* \"contracts/pit1.sol\":9571:9575  uint */\n      0x0\n        /* \"contracts/pit1.sol\":9594:9601  _supply */\n      dup1\n      sload\n        /* \"contracts/pit1.sol\":9587:9601  return _supply */\n      swap1\n      pop\n        /* \"contracts/pit1.sol\":9527:9608  function totalSupply() public view returns (uint) {... */\n      swap1\n      jump\t// out\n        /* \"contracts/pit1.sol\":11997:12448  function transferFrom(address src, address dst, uint wad)... */\n    tag_44:\n        /* \"contracts/pit1.sol\":12105:12109  bool */\n      0x0\n        /* \"contracts/pit1.sol\":7149:7156  stopped */\n      0x4\n      0x14\n      swap1\n      sload\n      swap1\n      0x100\n      exp\n      swap1\n      div\n      0xff\n      and\n        /* \"contracts/pit1.sol\":7148:7156  !stopped */\n      iszero\n        /* \"contracts/pit1.sol\":7140:7157  require(!stopped) */\n      iszero\n      iszero\n      tag_119\n      jumpi\n      0x0\n      dup1\n      revert\n    tag_119:\n        /* \"contracts/pit1.sol\":12136:12146  msg.sender */\n      caller\n        /* \"contracts/pit1.sol\":12129:12146  src != msg.sender */\n      0xffffffffffffffffffffffffffffffffffffffff\n      and\n        /* \"contracts/pit1.sol\":12129:12132  src */\n      dup5\n        /* \"contracts/pit1.sol\":12129:12146  src != msg.sender */\n      0xffffffffffffffffffffffffffffffffffffffff\n      and\n      eq\n      iszero\n        /* \"contracts/pit1.sol\":12129:12189  src != msg.sender && _approvals[src][msg.sender] != uint(-1) */\n      dup1\n      iszero\n      tag_121\n      jumpi\n      pop\n        /* \"contracts/pit1.sol\":12186:12188  -1 */\n      0xffffffffffffffffffffffffffffffffffffffffffffffffffffffffffffffff\n        /* \"contracts/pit1.sol\":12150:12160  _approvals */\n      0x2\n        /* \"contracts/pit1.sol\":12150:12165  _approvals[src] */\n      0x0\n        /* \"contracts/pit1.sol\":12161:12164  src */\n      dup7\n        /* \"contracts/pit1.sol\":12150:12165  _approvals[src] */\n      0xffffffffffffffffffffffffffffffffffffffff\n      and\n      0xffffffffffffffffffffffffffffffffffffffff\n      and\n      dup2\n      mstore\n      0x20\n      add\n      swap1\n      dup2\n      mstore\n      0x20\n      add\n      0x0\n      keccak256\n        /* \"contracts/pit1.sol\":12150:12177  _approvals[src][msg.sender] */\n      0x0\n        /* \"contracts/pit1.sol\":12166:12176  msg.sender */\n      caller\n        /* \"contracts/pit1.sol\":12150:12177  _approvals[src][msg.sender] */\n      0xffffffffffffffffffffffffffffffffffffffff\n      and\n      0xffffffffffffffffffffffffffffffffffffffff\n      and\n      dup2\n      mstore\n      0x20\n      add\n      swap1\n      dup2\n      mstore\n      0x20\n      add\n      0x0\n      keccak256\n      sload\n        /* \"contracts/pit1.sol\":12150:12189  _approvals[src][msg.sender] != uint(-1) */\n      eq\n      iszero\n        /* \"contracts/pit1.sol\":12129:12189  src != msg.sender && _approvals[src][msg.sender] != uint(-1) */\n    tag_121:\n        /* \"contracts/pit1.sol\":12125:12283  if (src != msg.sender && _approvals[src][msg.sender] != uint(-1)) {... */\n      iszero\n      tag_122\n      jumpi\n        /* \"contracts/pit1.sol\":12235:12272  sub(_approvals[src][msg.sender], wad) */\n      tag_123\n        /* \"contracts/pit1.sol\":12239:12249  _approvals */\n      0x2\n        /* \"contracts/pit1.sol\":12239:12254  _approvals[src] */\n      0x0\n        /* \"contracts/pit1.sol\":12250:12253  src */\n      dup7\n        /* \"contracts/pit1.sol\":12239:12254  _approvals[src] */\n      0xffffffffffffffffffffffffffffffffffffffff\n      and\n      0xffffffffffffffffffffffffffffffffffffffff\n      and\n      dup2\n      mstore\n      0x20\n      add\n      swap1\n      dup2\n      mstore\n      0x20\n      add\n      0x0\n      keccak256\n        /* \"contracts/pit1.sol\":12239:12266  _approvals[src][msg.sender] */\n      0x0\n        /* \"contracts/pit1.sol\":12255:12265  msg.sender */\n      caller\n        /* \"contracts/pit1.sol\":12239:12266  _approvals[src][msg.sender] */\n      0xffffffffffffffffffffffffffffffffffffffff\n      and\n      0xffffffffffffffffffffffffffffffffffffffff\n      and\n      dup2\n      mstore\n      0x20\n      add\n      swap1\n      dup2\n      mstore\n      0x20\n      add\n      0x0\n      keccak256\n      sload\n        /* \"contracts/pit1.sol\":12268:12271  wad */\n      dup4\n        /* \"contracts/pit1.sol\":12235:12238  sub */\n      tag_124\n        /* \"contracts/pit1.sol\":12235:12272  sub(_approvals[src][msg.sender], wad) */\n      jump\t// in\n    tag_123:\n        /* \"contracts/pit1.sol\":12205:12215  _approvals */\n      0x2\n        /* \"contracts/pit1.sol\":12205:12220  _approvals[src] */\n      0x0\n        /* \"contracts/pit1.sol\":12216:12219  src */\n      dup7\n        /* \"contracts/pit1.sol\":12205:12220  _approvals[src] */\n      0xffffffffffffffffffffffffffffffffffffffff\n      and\n      0xffffffffffffffffffffffffffffffffffffffff\n      and\n      dup2\n      mstore\n      0x20\n      add\n      swap1\n      dup2\n      mstore\n      0x20\n      add\n      0x0\n      keccak256\n        /* \"contracts/pit1.sol\":12205:12232  _approvals[src][msg.sender] */\n      0x0\n        /* \"contracts/pit1.sol\":12221:12231  msg.sender */\n      caller\n        /* \"contracts/pit1.sol\":12205:12232  _approvals[src][msg.sender] */\n      0xffffffffffffffffffffffffffffffffffffffff\n      and\n      0xffffffffffffffffffffffffffffffffffffffff\n      and\n      dup2\n      mstore\n      0x20\n      add\n      swap1\n      dup2\n      mstore\n      0x20\n      add\n      0x0\n      keccak256\n        /* \"contracts/pit1.sol\":12205:12272  _approvals[src][msg.sender] = sub(_approvals[src][msg.sender], wad) */\n      dup2\n      swap1\n      sstore\n      pop\n        /* \"contracts/pit1.sol\":12125:12283  if (src != msg.sender && _approvals[src][msg.sender] != uint(-1)) {... */\n    tag_122:\n        /* \"contracts/pit1.sol\":12310:12334  sub(_balances[src], wad) */\n      tag_125\n        /* \"contracts/pit1.sol\":12314:12323  _balances */\n      0x1\n        /* \"contracts/pit1.sol\":12314:12328  _balances[src] */\n      0x0\n        /* \"contracts/pit1.sol\":12324:12327  src */\n      dup7\n        /* \"contracts/pit1.sol\":12314:12328  _balances[src] */\n      0xffffffffffffffffffffffffffffffffffffffff\n      and\n      0xffffffffffffffffffffffffffffffffffffffff\n      and\n      dup2\n      mstore\n      0x20\n      add\n      swap1\n      dup2\n      mstore\n      0x20\n      add\n      0x0\n      keccak256\n      sload\n        /* \"contracts/pit1.sol\":12330:12333  wad */\n      dup4\n        /* \"contracts/pit1.sol\":12310:12313  sub */\n      tag_124\n        /* \"contracts/pit1.sol\":12310:12334  sub(_balances[src], wad) */\n      jump\t// in\n    tag_125:\n        /* \"contracts/pit1.sol\":12293:12302  _balances */\n      0x1\n        /* \"contracts/pit1.sol\":12293:12307  _balances[src] */\n      0x0\n        /* \"contracts/pit1.sol\":12303:12306  src */\n      dup7\n        /* \"contracts/pit1.sol\":12293:12307  _balances[src] */\n      0xffffffffffffffffffffffffffffffffffffffff\n      and\n      0xffffffffffffffffffffffffffffffffffffffff\n      and\n      dup2\n      mstore\n      0x20\n      add\n      swap1\n      dup2\n      mstore\n      0x20\n      add\n      0x0\n      keccak256\n        /* \"contracts/pit1.sol\":12293:12334  _balances[src] = sub(_balances[src], wad) */\n      dup2\n      swap1\n      sstore\n      pop\n        /* \"contracts/pit1.sol\":12361:12385  add(_balances[dst], wad) */\n      tag_126\n        /* \"contracts/pit1.sol\":12365:12374  _balances */\n      0x1\n        /* \"contracts/pit1.sol\":12365:12379  _balances[dst] */\n      0x0\n        /* \"contracts/pit1.sol\":12375:12378  dst */\n      dup6\n        /* \"contracts/pit1.sol\":12365:12379  _balances[dst] */\n      0xffffffffffffffffffffffffffffffffffffffff\n      and\n      0xffffffffffffffffffffffffffffffffffffffff\n      and\n      dup2\n      mstore\n      0x20\n      add\n      swap1\n      dup2\n      mstore\n      0x20\n      add\n      0x0\n      keccak256\n      sload\n        /* \"contracts/pit1.sol\":12381:12384  wad */\n      dup4\n        /* \"contracts/pit1.sol\":12361:12364  add */\n      tag_127\n        /* \"contracts/pit1.sol\":12361:12385  add(_balances[dst], wad) */\n      jump\t// in\n    tag_126:\n        /* \"contracts/pit1.sol\":12344:12353  _balances */\n      0x1\n        /* \"contracts/pit1.sol\":12344:12358  _balances[dst] */\n      0x0\n        /* \"contracts/pit1.sol\":12354:12357  dst */\n      dup6\n        /* \"contracts/pit1.sol\":12344:12358  _balances[dst] */\n      0xffffffffffffffffffffffffffffffffffffffff\n      and\n      0xffffffffffffffffffffffffffffffffffffffff\n      and\n      dup2\n      mstore\n      0x20\n      add\n      swap1\n      dup2\n      mstore\n      0x20\n      add\n      0x0\n      keccak256\n        /* \"contracts/pit1.sol\":12344:12385  _balances[dst] = add(_balances[dst], wad) */\n      dup2\n      swap1\n      sstore\n      pop\n        /* \"contracts/pit1.sol\":12410:12413  dst */\n      dup3\n        /* \"contracts/pit1.sol\":12396:12419  Transfer(src, dst, wad) */\n      0xffffffffffffffffffffffffffffffffffffffff\n      and\n        /* \"contracts/pit1.sol\":12405:12408  src */\n      dup5\n        /* \"contracts/pit1.sol\":12396:12419  Transfer(src, dst, wad) */\n      0xffffffffffffffffffffffffffffffffffffffff\n      and\n      0xddf252ad1be2c89b69c2b068fc378daa952ba7f163c4a11628f55a4df523b3ef\n        /* \"contracts/pit1.sol\":12415:12418  wad */\n      dup5\n        /* \"contracts/pit1.sol\":12396:12419  Transfer(src, dst, wad) */\n      mload(0x40)\n      dup1\n      dup3\n      dup2\n      mstore\n      0x20\n      add\n      swap2\n      pop\n      pop\n      mload(0x40)\n      dup1\n      swap2\n      sub\n      swap1\n      log3\n        /* \"contracts/pit1.sol\":12437:12441  true */\n      0x1\n        /* \"contracts/pit1.sol\":12430:12441  return true */\n      swap1\n      pop\n        /* \"contracts/pit1.sol\":11997:12448  function transferFrom(address src, address dst, uint wad)... */\n      swap4\n      swap3\n      pop\n      pop\n      pop\n      jump\t// out\n        /* \"contracts/pit1.sol\":11489:11519  uint256  public  decimals = 18 */\n    tag_47:\n      sload(0x6)\n      dup2\n      jump\t// out\n        /* \"contracts/pit1.sol\":12909:13087  function mint(address guy, uint wad) public auth stoppable {... */\n    tag_50:\n        /* \"contracts/pit1.sol\":4475:4508  isAuthorized(msg.sender, msg.sig) */\n      tag_129\n        /* \"contracts/pit1.sol\":4488:4498  msg.sender */\n      caller\n        /* \"contracts/pit1.sol\":4500:4507  msg.sig */\n      and(0xffffffff00000000000000000000000000000000000000000000000000000000, calldataload(0x0))\n        /* \"contracts/pit1.sol\":4475:4487  isAuthorized */\n      tag_104\n        /* \"contracts/pit1.sol\":4475:4508  isAuthorized(msg.sender, msg.sig) */\n      jump\t// in\n    tag_129:\n        /* \"contracts/pit1.sol\":4467:4509  require(isAuthorized(msg.sender, msg.sig)) */\n      iszero\n      iszero\n      tag_130\n      jumpi\n      0x0\n      dup1\n      revert\n    tag_130:\n        /* \"contracts/pit1.sol\":7149:7156  stopped */\n      0x4\n      0x14\n      swap1\n      sload\n      swap1\n      0x100\n      exp\n      swap1\n      div\n      0xff\n      and\n        /* \"contracts/pit1.sol\":7148:7156  !stopped */\n      iszero\n        /* \"contracts/pit1.sol\":7140:7157  require(!stopped) */\n      iszero\n      iszero\n      tag_132\n      jumpi\n      0x0\n      dup1\n      revert\n    tag_132:\n        /* \"contracts/pit1.sol\":12995:13019  add(_balances[guy], wad) */\n      tag_134\n        /* \"contracts/pit1.sol\":12999:13008  _balances */\n      0x1\n        /* \"contracts/pit1.sol\":12999:13013  _balances[guy] */\n      0x0\n        /* \"contracts/pit1.sol\":13009:13012  guy */\n      dup5\n        /* \"contracts/pit1.sol\":12999:13013  _balances[guy] */\n      0xffffffffffffffffffffffffffffffffffffffff\n      and\n      0xffffffffffffffffffffffffffffffffffffffff\n      and\n      dup2\n      mstore\n      0x20\n      add\n      swap1\n      dup2\n      mstore\n      0x20\n      add\n      0x0\n      keccak256\n      sload\n        /* \"contracts/pit1.sol\":13015:13018  wad */\n      dup3\n        /* \"contracts/pit1.sol\":12995:12998  add */\n      tag_127\n        /* \"contracts/pit1.sol\":12995:13019  add(_balances[guy], wad) */\n      jump\t// in\n    tag_134:\n        /* \"contracts/pit1.sol\":12978:12987  _balances */\n      0x1\n        /* \"contracts/pit1.sol\":12978:12992  _balances[guy] */\n      0x0\n        /* \"contracts/pit1.sol\":12988:12991  guy */\n      dup5\n        /* \"contracts/pit1.sol\":12978:12992  _balances[guy] */\n      0xffffffffffffffffffffffffffffffffffffffff\n      and\n      0xffffffffffffffffffffffffffffffffffffffff\n      and\n      dup2\n      mstore\n      0x20\n      add\n      swap1\n      dup2\n      mstore\n      0x20\n      add\n      0x0\n      keccak256\n        /* \"contracts/pit1.sol\":12978:13019  _balances[guy] = add(_balances[guy], wad) */\n      dup2\n      swap1\n      sstore\n      pop\n        /* \"contracts/pit1.sol\":13039:13056  add(_supply, wad) */\n      tag_135\n        /* \"contracts/pit1.sol\":13043:13050  _supply */\n      sload(0x0)\n        /* \"contracts/pit1.sol\":13052:13055  wad */\n      dup3\n        /* \"contracts/pit1.sol\":13039:13042  add */\n      tag_127\n        /* \"contracts/pit1.sol\":13039:13056  add(_supply, wad) */\n      jump\t// in\n    tag_135:\n        /* \"contracts/pit1.sol\":13029:13036  _supply */\n      0x0\n        /* \"contracts/pit1.sol\":13029:13056  _supply = add(_supply, wad) */\n      dup2\n      swap1\n      sstore\n      pop\n        /* \"contracts/pit1.sol\":13071:13074  guy */\n      dup2\n        /* \"contracts/pit1.sol\":13066:13080  Mint(guy, wad) */\n      0xffffffffffffffffffffffffffffffffffffffff\n      and\n      0xf6798a560793a54c3bcfe86a93cde1e73087d944c0ea20544137d4121396885\n        /* \"contracts/pit1.sol\":13076:13079  wad */\n      dup3\n        /* \"contracts/pit1.sol\":13066:13080  Mint(guy, wad) */\n      mload(0x40)\n      dup1\n      dup3\n      dup2\n      mstore\n      0x20\n      add\n      swap2\n      pop\n      pop\n      mload(0x40)\n      dup1\n      swap2\n      sub\n      swap1\n      log2\n        /* \"contracts/pit1.sol\":12909:13087  function mint(address guy, uint wad) public auth stoppable {... */\n      pop\n      pop\n      jump\t// out\n        /* \"contracts/pit1.sol\":12835:12904  function burn(uint wad) public {... */\n    tag_53:\n        /* \"contracts/pit1.sol\":12876:12897  burn(msg.sender, wad) */\n      tag_137\n        /* \"contracts/pit1.sol\":12881:12891  msg.sender */\n      caller\n        /* \"contracts/pit1.sol\":12893:12896  wad */\n      dup3\n        /* \"contracts/pit1.sol\":12876:12880  burn */\n      tag_74\n        /* \"contracts/pit1.sol\":12876:12897  burn(msg.sender, wad) */\n      jump\t// in\n    tag_137:\n        /* \"contracts/pit1.sol\":12835:12904  function burn(uint wad) public {... */\n      pop\n      jump\t// out\n        /* \"contracts/pit1.sol\":13505:13578  function setName(bytes32 name_) public auth {... */\n    tag_56:\n        /* \"contracts/pit1.sol\":4475:4508  isAuthorized(msg.sender, msg.sig) */\n      tag_139\n        /* \"contracts/pit1.sol\":4488:4498  msg.sender */\n      caller\n        /* \"contracts/pit1.sol\":4500:4507  msg.sig */\n      and(0xffffffff00000000000000000000000000000000000000000000000000000000, calldataload(0x0))\n        /* \"contracts/pit1.sol\":4475:4487  isAuthorized */\n      tag_104\n        /* \"contracts/pit1.sol\":4475:4508  isAuthorized(msg.sender, msg.sig) */\n      jump\t// in\n    tag_139:\n        /* \"contracts/pit1.sol\":4467:4509  require(isAuthorized(msg.sender, msg.sig)) */\n      iszero\n      iszero\n      tag_140\n      jumpi\n      0x0\n      dup1\n      revert\n    tag_140:\n        /* \"contracts/pit1.sol\":13566:13571  name_ */\n      dup1\n        /* \"contracts/pit1.sol\":13559:13563  name */\n      0x7\n        /* \"contracts/pit1.sol\":13559:13571  name = name_ */\n      dup2\n      not(0x0)\n      and\n      swap1\n      sstore\n      pop\n        /* \"contracts/pit1.sol\":13505:13578  function setName(bytes32 name_) public auth {... */\n      pop\n      jump\t// out\n        /* \"contracts/pit1.sol\":9613:9710  function balanceOf(address src) public view returns (uint) {... */\n    tag_59:\n        /* \"contracts/pit1.sol\":9666:9670  uint */\n      0x0\n        /* \"contracts/pit1.sol\":9689:9698  _balances */\n      0x1\n        /* \"contracts/pit1.sol\":9689:9703  _balances[src] */\n      0x0\n        /* \"contracts/pit1.sol\":9699:9702  src */\n      dup4\n        /* \"contracts/pit1.sol\":9689:9703  _balances[src] */\n      0xffffffffffffffffffffffffffffffffffffffff\n      and\n      0xffffffffffffffffffffffffffffffffffffffff\n      and\n      dup2\n      mstore\n      0x20\n      add\n      swap1\n      dup2\n      mstore\n      0x20\n      add\n      0x0\n      keccak256\n      sload\n        /* \"contracts/pit1.sol\":9682:9703  return _balances[src] */\n      swap1\n      pop\n        /* \"contracts/pit1.sol\":9613:9710  function balanceOf(address src) public view returns (uint) {... */\n      swap2\n      swap1\n      pop\n      jump\t// out\n        /* \"contracts/pit1.sol\":7085:7104  bool public stopped */\n    tag_62:\n      0x4\n      0x14\n      swap1\n      sload\n      swap1\n      0x100\n      exp\n      swap1\n      div\n      0xff\n      and\n      dup2\n      jump\t// out\n        /* \"contracts/pit1.sol\":4284:4437  function setAuthority(DSAuthority authority_)... */\n    tag_65:\n        /* \"contracts/pit1.sol\":4475:4508  isAuthorized(msg.sender, msg.sig) */\n      tag_144\n        /* \"contracts/pit1.sol\":4488:4498  msg.sender */\n      caller\n        /* \"contracts/pit1.sol\":4500:4507  msg.sig */\n      and(0xffffffff00000000000000000000000000000000000000000000000000000000, calldataload(0x0))\n        /* \"contracts/pit1.sol\":4475:4487  isAuthorized */\n      tag_104\n        /* \"contracts/pit1.sol\":4475:4508  isAuthorized(msg.sender, msg.sig) */\n      jump\t// in\n    tag_144:\n        /* \"contracts/pit1.sol\":4467:4509  require(isAuthorized(msg.sender, msg.sig)) */\n      iszero\n      iszero\n      tag_145\n      jumpi\n      0x0\n      dup1\n      revert\n    tag_145:\n        /* \"contracts/pit1.sol\":4384:4394  authority_ */\n      dup1\n        /* \"contracts/pit1.sol\":4372:4381  authority */\n      0x3\n      0x0\n        /* \"contracts/pit1.sol\":4372:4394  authority = authority_ */\n      0x100\n      exp\n      dup2\n      sload\n      dup2\n      0xffffffffffffffffffffffffffffffffffffffff\n      mul\n      not\n      and\n      swap1\n      dup4\n      0xffffffffffffffffffffffffffffffffffffffff\n      and\n      mul\n      or\n      swap1\n      sstore\n      pop\n        /* \"contracts/pit1.sol\":4420:4429  authority */\n      0x3\n      0x0\n      swap1\n      sload\n      swap1\n      0x100\n      exp\n      swap1\n      div\n      0xffffffffffffffffffffffffffffffffffffffff\n      and\n        /* \"contracts/pit1.sol\":4404:4430  LogSetAuthority(authority) */\n      0xffffffffffffffffffffffffffffffffffffffff\n      and\n      0x1abebea81bfa2637f28358c371278fb15ede7ea8dd28d2e03b112ff6d936ada4\n      mload(0x40)\n      mload(0x40)\n      dup1\n      swap2\n      sub\n      swap1\n      log2\n        /* \"contracts/pit1.sol\":4284:4437  function setAuthority(DSAuthority authority_)... */\n      pop\n      jump\t// out\n        /* \"contracts/pit1.sol\":4021:4047  address      public  owner */\n    tag_68:\n      0x4\n      0x0\n      swap1\n      sload\n      swap1\n      0x100\n      exp\n      swap1\n      div\n      0xffffffffffffffffffffffffffffffffffffffff\n      and\n      dup2\n      jump\t// out\n        /* \"contracts/pit1.sol\":11460:11483  bytes32  public  symbol */\n    tag_71:\n      sload(0x5)\n      dup2\n      jump\t// out\n        /* \"contracts/pit1.sol\":13092:13438  function burn(address guy, uint wad) public auth stoppable {... */\n    tag_74:\n        /* \"contracts/pit1.sol\":4475:4508  isAuthorized(msg.sender, msg.sig) */\n      tag_148\n        /* \"contracts/pit1.sol\":4488:4498  msg.sender */\n      caller\n        /* \"contracts/pit1.sol\":4500:4507  msg.sig */\n      and(0xffffffff00000000000000000000000000000000000000000000000000000000, calldataload(0x0))\n        /* \"contracts/pit1.sol\":4475:4487  isAuthorized */\n      tag_104\n        /* \"contracts/pit1.sol\":4475:4508  isAuthorized(msg.sender, msg.sig) */\n      jump\t// in\n    tag_148:\n        /* \"contracts/pit1.sol\":4467:4509  require(isAuthorized(msg.sender, msg.sig)) */\n      iszero\n      iszero\n      tag_149\n      jumpi\n      0x0\n      dup1\n      revert\n    tag_149:\n        /* \"contracts/pit1.sol\":7149:7156  stopped */\n      0x4\n      0x14\n      swap1\n      sload\n      swap1\n      0x100\n      exp\n      swap1\n      div\n      0xff\n      and\n        /* \"contracts/pit1.sol\":7148:7156  !stopped */\n      iszero\n        /* \"contracts/pit1.sol\":7140:7157  require(!stopped) */\n      iszero\n      iszero\n      tag_151\n      jumpi\n      0x0\n      dup1\n      revert\n    tag_151:\n        /* \"contracts/pit1.sol\":13172:13182  msg.sender */\n      caller\n        /* \"contracts/pit1.sol\":13165:13182  guy != msg.sender */\n      0xffffffffffffffffffffffffffffffffffffffff\n      and\n        /* \"contracts/pit1.sol\":13165:13168  guy */\n      dup3\n        /* \"contracts/pit1.sol\":13165:13182  guy != msg.sender */\n      0xffffffffffffffffffffffffffffffffffffffff\n      and\n      eq\n      iszero\n        /* \"contracts/pit1.sol\":13165:13225  guy != msg.sender && _approvals[guy][msg.sender] != uint(-1) */\n      dup1\n      iszero\n      tag_153\n      jumpi\n      pop\n        /* \"contracts/pit1.sol\":13222:13224  -1 */\n      0xffffffffffffffffffffffffffffffffffffffffffffffffffffffffffffffff\n        /* \"contracts/pit1.sol\":13186:13196  _approvals */\n      0x2\n        /* \"contracts/pit1.sol\":13186:13201  _approvals[guy] */\n      0x0\n        /* \"contracts/pit1.sol\":13197:13200  guy */\n      dup5\n        /* \"contracts/pit1.sol\":13186:13201  _approvals[guy] */\n      0xffffffffffffffffffffffffffffffffffffffff\n      and\n      0xffffffffffffffffffffffffffffffffffffffff\n      and\n      dup2\n      mstore\n      0x20\n      add\n      swap1\n      dup2\n      mstore\n      0x20\n      add\n      0x0\n      keccak256\n        /* \"contracts/pit1.sol\":13186:13213  _approvals[guy][msg.sender] */\n      0x0\n        /* \"contracts/pit1.sol\":13202:13212  msg.sender */\n      caller\n        /* \"contracts/pit1.sol\":13186:13213  _approvals[guy][msg.sender] */\n      0xffffffffffffffffffffffffffffffffffffffff\n      and\n      0xffffffffffffffffffffffffffffffffffffffff\n      and\n      dup2\n      mstore\n      0x20\n      add\n      swap1\n      dup2\n      mstore\n      0x20\n      add\n      0x0\n      keccak256\n      sload\n        /* \"contracts/pit1.sol\":13186:13225  _approvals[guy][msg.sender] != uint(-1) */\n      eq\n      iszero\n        /* \"contracts/pit1.sol\":13165:13225  guy != msg.sender && _approvals[guy][msg.sender] != uint(-1) */\n    tag_153:\n        /* \"contracts/pit1.sol\":13161:13319  if (guy != msg.sender && _approvals[guy][msg.sender] != uint(-1)) {... */\n      iszero\n      tag_154\n      jumpi\n        /* \"contracts/pit1.sol\":13271:13308  sub(_approvals[guy][msg.sender], wad) */\n      tag_155\n        /* \"contracts/pit1.sol\":13275:13285  _approvals */\n      0x2\n        /* \"contracts/pit1.sol\":13275:13290  _approvals[guy] */\n      0x0\n        /* \"contracts/pit1.sol\":13286:13289  guy */\n      dup5\n        /* \"contracts/pit1.sol\":13275:13290  _approvals[guy] */\n      0xffffffffffffffffffffffffffffffffffffffff\n      and\n      0xffffffffffffffffffffffffffffffffffffffff\n      and\n      dup2\n      mstore\n      0x20\n      add\n      swap1\n      dup2\n      mstore\n      0x20\n      add\n      0x0\n      keccak256\n        /* \"contracts/pit1.sol\":13275:13302  _approvals[guy][msg.sender] */\n      0x0\n        /* \"contracts/pit1.sol\":13291:13301  msg.sender */\n      caller\n        /* \"contracts/pit1.sol\":13275:13302  _approvals[guy][msg.sender] */\n      0xffffffffffffffffffffffffffffffffffffffff\n      and\n      0xffffffffffffffffffffffffffffffffffffffff\n      and\n      dup2\n      mstore\n      0x20\n      add\n      swap1\n      dup2\n      mstore\n      0x20\n      add\n      0x0\n      keccak256\n      sload\n        /* \"contracts/pit1.sol\":13304:13307  wad */\n      dup3\n        /* \"contracts/pit1.sol\":13271:13274  sub */\n      tag_124\n        /* \"contracts/pit1.sol\":13271:13308  sub(_approvals[guy][msg.sender], wad) */\n      jump\t// in\n    tag_155:\n        /* \"contracts/pit1.sol\":13241:13251  _approvals */\n      0x2\n        /* \"contracts/pit1.sol\":13241:13256  _approvals[guy] */\n      0x0\n        /* \"contracts/pit1.sol\":13252:13255  guy */\n      dup5\n        /* \"contracts/pit1.sol\":13241:13256  _approvals[guy] */\n      0xffffffffffffffffffffffffffffffffffffffff\n      and\n      0xffffffffffffffffffffffffffffffffffffffff\n      and\n      dup2\n      mstore\n      0x20\n      add\n      swap1\n      dup2\n      mstore\n      0x20\n      add\n      0x0\n      keccak256\n        /* \"contracts/pit1.sol\":13241:13268  _approvals[guy][msg.sender] */\n      0x0\n        /* \"contracts/pit1.sol\":13257:13267  msg.sender */\n      caller\n        /* \"contracts/pit1.sol\":13241:13268  _approvals[guy][msg.sender] */\n      0xffffffffffffffffffffffffffffffffffffffff\n      and\n      0xffffffffffffffffffffffffffffffffffffffff\n      and\n      dup2\n      mstore\n      0x20\n      add\n      swap1\n      dup2\n      mstore\n      0x20\n      add\n      0x0\n      keccak256\n        /* \"contracts/pit1.sol\":13241:13308  _approvals[guy][msg.sender] = sub(_approvals[guy][msg.sender], wad) */\n      dup2\n      swap1\n      sstore\n      pop\n        /* \"contracts/pit1.sol\":13161:13319  if (guy != msg.sender && _approvals[guy][msg.sender] != uint(-1)) {... */\n    tag_154:\n        /* \"contracts/pit1.sol\":13346:13370  sub(_balances[guy], wad) */\n      tag_156\n        /* \"contracts/pit1.sol\":13350:13359  _balances */\n      0x1\n        /* \"contracts/pit1.sol\":13350:13364  _balances[guy] */\n      0x0\n        /* \"contracts/pit1.sol\":13360:13363  guy */\n      dup5\n        /* \"contracts/pit1.sol\":13350:13364  _balances[guy] */\n      0xffffffffffffffffffffffffffffffffffffffff\n      and\n      0xffffffffffffffffffffffffffffffffffffffff\n      and\n      dup2\n      mstore\n      0x20\n      add\n      swap1\n      dup2\n      mstore\n      0x20\n      add\n      0x0\n      keccak256\n      sload\n        /* \"contracts/pit1.sol\":13366:13369  wad */\n      dup3\n        /* \"contracts/pit1.sol\":13346:13349  sub */\n      tag_124\n        /* \"contracts/pit1.sol\":13346:13370  sub(_balances[guy], wad) */\n      jump\t// in\n    tag_156:\n        /* \"contracts/pit1.sol\":13329:13338  _balances */\n      0x1\n        /* \"contracts/pit1.sol\":13329:13343  _balances[guy] */\n      0x0\n        /* \"contracts/pit1.sol\":13339:13342  guy */\n      dup5\n        /* \"contracts/pit1.sol\":13329:13343  _balances[guy] */\n      0xffffffffffffffffffffffffffffffffffffffff\n      and\n      0xffffffffffffffffffffffffffffffffffffffff\n      and\n      dup2\n      mstore\n      0x20\n      add\n      swap1\n      dup2\n      mstore\n      0x20\n      add\n      0x0\n      keccak256\n        /* \"contracts/pit1.sol\":13329:13370  _balances[guy] = sub(_balances[guy], wad) */\n      dup2\n      swap1\n      sstore\n      pop\n        /* \"contracts/pit1.sol\":13390:13407  sub(_supply, wad) */\n      tag_157\n        /* \"contracts/pit1.sol\":13394:13401  _supply */\n      sload(0x0)\n        /* \"contracts/pit1.sol\":13403:13406  wad */\n      dup3\n        /* \"contracts/pit1.sol\":13390:13393  sub */\n      tag_124\n        /* \"contracts/pit1.sol\":13390:13407  sub(_supply, wad) */\n      jump\t// in\n    tag_157:\n        /* \"contracts/pit1.sol\":13380:13387  _supply */\n      0x0\n        /* \"contracts/pit1.sol\":13380:13407  _supply = sub(_supply, wad) */\n      dup2\n      swap1\n      sstore\n      pop\n        /* \"contracts/pit1.sol\":13422:13425  guy */\n      dup2\n        /* \"contracts/pit1.sol\":13417:13431  Burn(guy, wad) */\n      0xffffffffffffffffffffffffffffffffffffffff\n      and\n      0xcc16f5dbb4873280815c1ee09dbd06736cffcc184412cf7a71a0fdb75d397ca5\n        /* \"contracts/pit1.sol\":13427:13430  wad */\n      dup3\n        /* \"contracts/pit1.sol\":13417:13431  Burn(guy, wad) */\n      mload(0x40)\n      dup1\n      dup3\n      dup2\n      mstore\n      0x20\n      add\n      swap2\n      pop\n      pop\n      mload(0x40)\n      dup1\n      swap2\n      sub\n      swap1\n      log2\n        /* \"contracts/pit1.sol\":13092:13438  function burn(address guy, uint wad) public auth stoppable {... */\n      pop\n      pop\n      jump\t// out\n        /* \"contracts/pit1.sol\":12761:12830  function mint(uint wad) public {... */\n    tag_77:\n        /* \"contracts/pit1.sol\":12802:12823  mint(msg.sender, wad) */\n      tag_159\n        /* \"contracts/pit1.sol\":12807:12817  msg.sender */\n      caller\n        /* \"contracts/pit1.sol\":12819:12822  wad */\n      dup3\n        /* \"contracts/pit1.sol\":12802:12806  mint */\n      tag_50\n        /* \"contracts/pit1.sol\":12802:12823  mint(msg.sender, wad) */\n      jump\t// in\n    tag_159:\n        /* \"contracts/pit1.sol\":12761:12830  function mint(uint wad) public {... */\n      pop\n      jump\t// out\n        /* \"contracts/pit1.sol\":9837:9958  function transfer(address dst, uint wad) public returns (bool) {... */\n    tag_80:\n        /* \"contracts/pit1.sol\":9894:9898  bool */\n      0x0\n        /* \"contracts/pit1.sol\":9917:9951  transferFrom(msg.sender, dst, wad) */\n      tag_161\n        /* \"contracts/pit1.sol\":9930:9940  msg.sender */\n      caller\n        /* \"contracts/pit1.sol\":9942:9945  dst */\n      dup5\n        /* \"contracts/pit1.sol\":9947:9950  wad */\n      dup5\n        /* \"contracts/pit1.sol\":9917:9929  transferFrom */\n      tag_44\n        /* \"contracts/pit1.sol\":9917:9951  transferFrom(msg.sender, dst, wad) */\n      jump\t// in\n    tag_161:\n        /* \"contracts/pit1.sol\":9910:9951  return transferFrom(msg.sender, dst, wad) */\n      swap1\n      pop\n        /* \"contracts/pit1.sol\":9837:9958  function transfer(address dst, uint wad) public returns (bool) {... */\n      swap3\n      swap2\n      pop\n      pop\n      jump\t// out\n        /* \"contracts/pit1.sol\":12454:12549  function push(address dst, uint wad) public {... */\n    tag_83:\n        /* \"contracts/pit1.sol\":12508:12542  transferFrom(msg.sender, dst, wad) */\n      tag_163\n        /* \"contracts/pit1.sol\":12521:12531  msg.sender */\n      caller\n        /* \"contracts/pit1.sol\":12533:12536  dst */\n      dup4\n        /* \"contracts/pit1.sol\":12538:12541  wad */\n      dup4\n        /* \"contracts/pit1.sol\":12508:12520  transferFrom */\n      tag_44\n        /* \"contracts/pit1.sol\":12508:12542  transferFrom(msg.sender, dst, wad) */\n      jump\t// in\n    tag_163:\n      pop\n        /* \"contracts/pit1.sol\":12454:12549  function push(address dst, uint wad) public {... */\n      pop\n      pop\n      jump\t// out\n        /* \"contracts/pit1.sol\":12654:12755  function move(address src, address dst, uint wad) public {... */\n    tag_86:\n        /* \"contracts/pit1.sol\":12721:12748  transferFrom(src, dst, wad) */\n      tag_165\n        /* \"contracts/pit1.sol\":12734:12737  src */\n      dup4\n        /* \"contracts/pit1.sol\":12739:12742  dst */\n      dup4\n        /* \"contracts/pit1.sol\":12744:12747  wad */\n      dup4\n        /* \"contracts/pit1.sol\":12721:12733  transferFrom */\n      tag_44\n        /* \"contracts/pit1.sol\":12721:12748  transferFrom(src, dst, wad) */\n      jump\t// in\n    tag_165:\n      pop\n        /* \"contracts/pit1.sol\":12654:12755  function move(address src, address dst, uint wad) public {... */\n      pop\n      pop\n      pop\n      jump\t// out\n        /* \"contracts/pit1.sol\":7249:7315  function start() public auth note {... */\n    tag_89:\n        /* \"contracts/pit1.sol\":4475:4508  isAuthorized(msg.sender, msg.sig) */\n      tag_167\n        /* \"contracts/pit1.sol\":4488:4498  msg.sender */\n      caller\n        /* \"contracts/pit1.sol\":4500:4507  msg.sig */\n      and(0xffffffff00000000000000000000000000000000000000000000000000000000, calldataload(0x0))\n        /* \"contracts/pit1.sol\":4475:4487  isAuthorized */\n      tag_104\n        /* \"contracts/pit1.sol\":4475:4508  isAuthorized(msg.sender, msg.sig) */\n      jump\t// in\n    tag_167:\n        /* \"contracts/pit1.sol\":4467:4509  require(isAuthorized(msg.sender, msg.sig)) */\n      iszero\n      iszero\n      tag_168\n      jumpi\n      0x0\n      dup1\n      revert\n    tag_168:\n        /* \"contracts/pit1.sol\":5951:5962  bytes32 foo */\n      0x0\n        /* \"contracts/pit1.sol\":5972:5983  bytes32 bar */\n      dup1\n        /* \"contracts/pit1.sol\":6037:6038  4 */\n      0x4\n        /* \"contracts/pit1.sol\":6024:6039  calldataload(4) */\n      calldataload\n        /* \"contracts/pit1.sol\":6017:6039  foo := calldataload(4) */\n      swap2\n      pop\n        /* \"contracts/pit1.sol\":6072:6074  36 */\n      0x24\n        /* \"contracts/pit1.sol\":6059:6075  calldataload(36) */\n      calldataload\n        /* \"contracts/pit1.sol\":6052:6075  bar := calldataload(36) */\n      swap1\n      pop\n        /* \"contracts/pit1.sol\":6129:6132  bar */\n      dup1\n        /* \"contracts/pit1.sol\":6095:6154  LogNote(msg.sig, msg.sender, foo, bar, msg.value, msg.data) */\n      not(0x0)\n      and\n        /* \"contracts/pit1.sol\":6124:6127  foo */\n      dup3\n        /* \"contracts/pit1.sol\":6095:6154  LogNote(msg.sig, msg.sender, foo, bar, msg.value, msg.data) */\n      not(0x0)\n      and\n        /* \"contracts/pit1.sol\":6112:6122  msg.sender */\n      caller\n        /* \"contracts/pit1.sol\":6095:6154  LogNote(msg.sig, msg.sender, foo, bar, msg.value, msg.data) */\n      0xffffffffffffffffffffffffffffffffffffffff\n      and\n        /* \"contracts/pit1.sol\":6103:6110  msg.sig */\n      and(0xffffffff00000000000000000000000000000000000000000000000000000000, calldataload(0x0))\n        /* \"contracts/pit1.sol\":6095:6154  LogNote(msg.sig, msg.sender, foo, bar, msg.value, msg.data) */\n      not(0xffffffffffffffffffffffffffffffffffffffffffffffffffffffff)\n      and\n        /* \"contracts/pit1.sol\":6134:6143  msg.value */\n      callvalue\n        /* \"contracts/pit1.sol\":6145:6153  msg.data */\n      0x0\n      calldatasize\n        /* \"contracts/pit1.sol\":6095:6154  LogNote(msg.sig, msg.sender, foo, bar, msg.value, msg.data) */\n      mload(0x40)\n      dup1\n      dup5\n      dup2\n      mstore\n      0x20\n      add\n      dup1\n      0x20\n      add\n      dup3\n      dup2\n      sub\n      dup3\n      mstore\n      dup5\n      dup5\n      dup3\n      dup2\n      dup2\n      mstore\n      0x20\n      add\n      swap3\n      pop\n      dup1\n      dup3\n      dup5\n      calldatacopy\n      dup3\n      add\n      swap2\n      pop\n      pop\n      swap5\n      pop\n      pop\n      pop\n      pop\n      pop\n      mload(0x40)\n      dup1\n      swap2\n      sub\n      swap1\n      log4\n        /* \"contracts/pit1.sol\":7303:7308  false */\n      0x0\n        /* \"contracts/pit1.sol\":7293:7300  stopped */\n      0x4\n      0x14\n        /* \"contracts/pit1.sol\":7293:7308  stopped = false */\n      0x100\n      exp\n      dup2\n      sload\n      dup2\n      0xff\n      mul\n      not\n      and\n      swap1\n      dup4\n      iszero\n      iszero\n      mul\n      or\n      swap1\n      sstore\n      pop\n        /* \"contracts/pit1.sol\":4519:4520  _ */\n      pop\n      pop\n        /* \"contracts/pit1.sol\":7249:7315  function start() public auth note {... */\n      jump\t// out\n        /* \"contracts/pit1.sol\":3985:4015  DSAuthority  public  authority */\n    tag_92:\n      0x3\n      0x0\n      swap1\n      sload\n      swap1\n      0x100\n      exp\n      swap1\n      div\n      0xffffffffffffffffffffffffffffffffffffffff\n      and\n      dup2\n      jump\t// out\n        /* \"contracts/pit1.sol\":11752:11866  function approve(address guy) public stoppable returns (bool) {... */\n    tag_95:\n        /* \"contracts/pit1.sol\":11808:11812  bool */\n      0x0\n        /* \"contracts/pit1.sol\":7149:7156  stopped */\n      0x4\n      0x14\n      swap1\n      sload\n      swap1\n      0x100\n      exp\n      swap1\n      div\n      0xff\n      and\n        /* \"contracts/pit1.sol\":7148:7156  !stopped */\n      iszero\n        /* \"contracts/pit1.sol\":7140:7157  require(!stopped) */\n      iszero\n      iszero\n      tag_172\n      jumpi\n      0x0\n      dup1\n      revert\n    tag_172:\n        /* \"contracts/pit1.sol\":11831:11859  super.approve(guy, uint(-1)) */\n      tag_174\n        /* \"contracts/pit1.sol\":11845:11848  guy */\n      dup3\n        /* \"contracts/pit1.sol\":11855:11857  -1 */\n      0xffffffffffffffffffffffffffffffffffffffffffffffffffffffffffffffff\n        /* \"contracts/pit1.sol\":11831:11844  super.approve */\n      tag_112\n        /* \"contracts/pit1.sol\":11831:11859  super.approve(guy, uint(-1)) */\n      jump\t// in\n    tag_174:\n        /* \"contracts/pit1.sol\":11824:11859  return super.approve(guy, uint(-1)) */\n      swap1\n      pop\n        /* \"contracts/pit1.sol\":11752:11866  function approve(address guy) public stoppable returns (bool) {... */\n      swap2\n      swap1\n      pop\n      jump\t// out\n        /* \"contracts/pit1.sol\":9715:9831  function allowance(address src, address guy) public view returns (uint) {... */\n    tag_98:\n        /* \"contracts/pit1.sol\":9781:9785  uint */\n      0x0\n        /* \"contracts/pit1.sol\":9804:9814  _approvals */\n      0x2\n        /* \"contracts/pit1.sol\":9804:9819  _approvals[src] */\n      0x0\n        /* \"contracts/pit1.sol\":9815:9818  src */\n      dup5\n        /* \"contracts/pit1.sol\":9804:9819  _approvals[src] */\n      0xffffffffffffffffffffffffffffffffffffffff\n      and\n      0xffffffffffffffffffffffffffffffffffffffff\n      and\n      dup2\n      mstore\n      0x20\n      add\n      swap1\n      dup2\n      mstore\n      0x20\n      add\n      0x0\n      keccak256\n        /* \"contracts/pit1.sol\":9804:9824  _approvals[src][guy] */\n      0x0\n        /* \"contracts/pit1.sol\":9820:9823  guy */\n      dup4\n        /* \"contracts/pit1.sol\":9804:9824  _approvals[src][guy] */\n      0xffffffffffffffffffffffffffffffffffffffff\n      and\n      0xffffffffffffffffffffffffffffffffffffffff\n      and\n      dup2\n      mstore\n      0x20\n      add\n      swap1\n      dup2\n      mstore\n      0x20\n      add\n      0x0\n      keccak256\n      sload\n        /* \"contracts/pit1.sol\":9797:9824  return _approvals[src][guy] */\n      swap1\n      pop\n        /* \"contracts/pit1.sol\":9715:9831  function allowance(address src, address guy) public view returns (uint) {... */\n      swap3\n      swap2\n      pop\n      pop\n      jump\t// out\n        /* \"contracts/pit1.sol\":12554:12649  function pull(address src, uint wad) public {... */\n    tag_101:\n        /* \"contracts/pit1.sol\":12608:12642  transferFrom(src, msg.sender, wad) */\n      tag_177\n        /* \"contracts/pit1.sol\":12621:12624  src */\n      dup3\n        /* \"contracts/pit1.sol\":12626:12636  msg.sender */\n      caller\n        /* \"contracts/pit1.sol\":12638:12641  wad */\n      dup4\n        /* \"contracts/pit1.sol\":12608:12620  transferFrom */\n      tag_44\n        /* \"contracts/pit1.sol\":12608:12642  transferFrom(src, msg.sender, wad) */\n      jump\t// in\n    tag_177:\n      pop\n        /* \"contracts/pit1.sol\":12554:12649  function pull(address src, uint wad) public {... */\n      pop\n      pop\n      jump\t// out\n        /* \"contracts/pit1.sol\":4533:4894  function isAuthorized(address src, bytes4 sig) internal view returns (bool) {... */\n    tag_104:\n        /* \"contracts/pit1.sol\":4603:4607  bool */\n      0x0\n        /* \"contracts/pit1.sol\":4638:4642  this */\n      address\n        /* \"contracts/pit1.sol\":4623:4643  src == address(this) */\n      0xffffffffffffffffffffffffffffffffffffffff\n      and\n        /* \"contracts/pit1.sol\":4623:4626  src */\n      dup4\n        /* \"contracts/pit1.sol\":4623:4643  src == address(this) */\n      0xffffffffffffffffffffffffffffffffffffffff\n      and\n      eq\n        /* \"contracts/pit1.sol\":4619:4888  if (src == address(this)) {... */\n      iszero\n      tag_179\n      jumpi\n        /* \"contracts/pit1.sol\":4666:4670  true */\n      0x1\n        /* \"contracts/pit1.sol\":4659:4670  return true */\n      swap1\n      pop\n      jump(tag_178)\n        /* \"contracts/pit1.sol\":4619:4888  if (src == address(this)) {... */\n    tag_179:\n        /* \"contracts/pit1.sol\":4698:4703  owner */\n      0x4\n      0x0\n      swap1\n      sload\n      swap1\n      0x100\n      exp\n      swap1\n      div\n      0xffffffffffffffffffffffffffffffffffffffff\n      and\n        /* \"contracts/pit1.sol\":4691:4703  src == owner */\n      0xffffffffffffffffffffffffffffffffffffffff\n      and\n        /* \"contracts/pit1.sol\":4691:4694  src */\n      dup4\n        /* \"contracts/pit1.sol\":4691:4703  src == owner */\n      0xffffffffffffffffffffffffffffffffffffffff\n      and\n      eq\n        /* \"contracts/pit1.sol\":4687:4888  if (src == owner) {... */\n      iszero\n      tag_181\n      jumpi\n        /* \"contracts/pit1.sol\":4726:4730  true */\n      0x1\n        /* \"contracts/pit1.sol\":4719:4730  return true */\n      swap1\n      pop\n      jump(tag_178)\n        /* \"contracts/pit1.sol\":4687:4888  if (src == owner) {... */\n    tag_181:\n        /* \"contracts/pit1.sol\":4776:4777  0 */\n      0x0\n        /* \"contracts/pit1.sol\":4751:4778  authority == DSAuthority(0) */\n      0xffffffffffffffffffffffffffffffffffffffff\n      and\n        /* \"contracts/pit1.sol\":4751:4760  authority */\n      0x3\n      0x0\n      swap1\n      sload\n      swap1\n      0x100\n      exp\n      swap1\n      div\n      0xffffffffffffffffffffffffffffffffffffffff\n      and\n        /* \"contracts/pit1.sol\":4751:4778  authority == DSAuthority(0) */\n      0xffffffffffffffffffffffffffffffffffffffff\n      and\n      eq\n        /* \"contracts/pit1.sol\":4747:4888  if (authority == DSAuthority(0)) {... */\n      iszero\n      tag_183\n      jumpi\n        /* \"contracts/pit1.sol\":4801:4806  false */\n      0x0\n        /* \"contracts/pit1.sol\":4794:4806  return false */\n      swap1\n      pop\n      jump(tag_178)\n        /* \"contracts/pit1.sol\":4747:4888  if (authority == DSAuthority(0)) {... */\n    tag_183:\n        /* \"contracts/pit1.sol\":4844:4853  authority */\n      0x3\n      0x0\n      swap1\n      sload\n      swap1\n      0x100\n      exp\n      swap1\n      div\n      0xffffffffffffffffffffffffffffffffffffffff\n      and\n        /* \"contracts/pit1.sol\":4844:4861  authority.canCall */\n      0xffffffffffffffffffffffffffffffffffffffff\n      and\n      0xb7009613\n        /* \"contracts/pit1.sol\":4862:4865  src */\n      dup5\n        /* \"contracts/pit1.sol\":4867:4871  this */\n      address\n        /* \"contracts/pit1.sol\":4873:4876  sig */\n      dup6\n        /* \"contracts/pit1.sol\":4844:4877  authority.canCall(src, this, sig) */\n      mload(0x40)\n      dup5\n      0xffffffff\n      and\n      0x100000000000000000000000000000000000000000000000000000000\n      mul\n      dup2\n      mstore\n      0x4\n      add\n      dup1\n      dup5\n      0xffffffffffffffffffffffffffffffffffffffff\n      and\n      0xffffffffffffffffffffffffffffffffffffffff\n      and\n      dup2\n      mstore\n      0x20\n      add\n      dup4\n      0xffffffffffffffffffffffffffffffffffffffff\n      and\n      0xffffffffffffffffffffffffffffffffffffffff\n      and\n      dup2\n      mstore\n      0x20\n      add\n      dup3\n      not(0xffffffffffffffffffffffffffffffffffffffffffffffffffffffff)\n      and\n      not(0xffffffffffffffffffffffffffffffffffffffffffffffffffffffff)\n      and\n      dup2\n      mstore\n      0x20\n      add\n      swap4\n      pop\n      pop\n      pop\n      pop\n      0x20\n      mload(0x40)\n      dup1\n      dup4\n      sub\n      dup2\n      0x0\n      dup8\n      dup1\n      extcodesize\n      iszero\n        /* \"--CODEGEN--\":8:17   */\n      dup1\n        /* \"--CODEGEN--\":5:7   */\n      iszero\n      tag_185\n      jumpi\n        /* \"--CODEGEN--\":30:31   */\n      0x0\n        /* \"--CODEGEN--\":27:28   */\n      dup1\n        /* \"--CODEGEN--\":20:32   */\n      revert\n        /* \"--CODEGEN--\":5:7   */\n    tag_185:\n        /* \"contracts/pit1.sol\":4844:4877  authority.canCall(src, this, sig) */\n      pop\n      gas\n      call\n      iszero\n        /* \"--CODEGEN--\":8:17   */\n      dup1\n        /* \"--CODEGEN--\":5:7   */\n      iszero\n      tag_186\n      jumpi\n        /* \"--CODEGEN--\":45:61   */\n      returndatasize\n        /* \"--CODEGEN--\":42:43   */\n      0x0\n        /* \"--CODEGEN--\":39:40   */\n      dup1\n        /* \"--CODEGEN--\":24:62   */\n      returndatacopy\n        /* \"--CODEGEN--\":77:93   */\n      returndatasize\n        /* \"--CODEGEN--\":74:75   */\n      0x0\n        /* \"--CODEGEN--\":67:94   */\n      revert\n        /* \"--CODEGEN--\":5:7   */\n    tag_186:\n        /* \"contracts/pit1.sol\":4844:4877  authority.canCall(src, this, sig) */\n      pop\n      pop\n      pop\n      pop\n      mload(0x40)\n      returndatasize\n        /* \"--CODEGEN--\":13:15   */\n      0x20\n        /* \"--CODEGEN--\":8:11   */\n      dup2\n        /* \"--CODEGEN--\":5:16   */\n      lt\n        /* \"--CODEGEN--\":2:4   */\n      iszero\n      tag_187\n      jumpi\n        /* \"--CODEGEN--\":29:30   */\n      0x0\n        /* \"--CODEGEN--\":26:27   */\n      dup1\n        /* \"--CODEGEN--\":19:31   */\n      revert\n        /* \"--CODEGEN--\":2:4   */\n    tag_187:\n        /* \"contracts/pit1.sol\":4844:4877  authority.canCall(src, this, sig) */\n      dup2\n      add\n      swap1\n      dup1\n      dup1\n      mload\n      swap1\n      0x20\n      add\n      swap1\n      swap3\n      swap2\n      swap1\n      pop\n      pop\n      pop\n        /* \"contracts/pit1.sol\":4837:4877  return authority.canCall(src, this, sig) */\n      swap1\n      pop\n        /* \"contracts/pit1.sol\":4533:4894  function isAuthorized(address src, bytes4 sig) internal view returns (bool) {... */\n    tag_178:\n      swap3\n      swap2\n      pop\n      pop\n      jump\t// out\n        /* \"contracts/pit1.sol\":10360:10535  function approve(address guy, uint wad) public returns (bool) {... */\n    tag_112:\n        /* \"contracts/pit1.sol\":10416:10420  bool */\n      0x0\n        /* \"contracts/pit1.sol\":10462:10465  wad */\n      dup2\n        /* \"contracts/pit1.sol\":10432:10442  _approvals */\n      0x2\n        /* \"contracts/pit1.sol\":10432:10454  _approvals[msg.sender] */\n      0x0\n        /* \"contracts/pit1.sol\":10443:10453  msg.sender */\n      caller\n        /* \"contracts/pit1.sol\":10432:10454  _approvals[msg.sender] */\n      0xffffffffffffffffffffffffffffffffffffffff\n      and\n      0xffffffffffffffffffffffffffffffffffffffff\n      and\n      dup2\n      mstore\n      0x20\n      add\n      swap1\n      dup2\n      mstore\n      0x20\n      add\n      0x0\n      keccak256\n        /* \"contracts/pit1.sol\":10432:10459  _approvals[msg.sender][guy] */\n      0x0\n        /* \"contracts/pit1.sol\":10455:10458  guy */\n      dup6\n        /* \"contracts/pit1.sol\":10432:10459  _approvals[msg.sender][guy] */\n      0xffffffffffffffffffffffffffffffffffffffff\n      and\n      0xffffffffffffffffffffffffffffffffffffffff\n      and\n      dup2\n      mstore\n      0x20\n      add\n      swap1\n      dup2\n      mstore\n      0x20\n      add\n      0x0\n      keccak256\n        /* \"contracts/pit1.sol\":10432:10465  _approvals[msg.sender][guy] = wad */\n      dup2\n      swap1\n      sstore\n      pop\n        /* \"contracts/pit1.sol\":10497:10500  guy */\n      dup3\n        /* \"contracts/pit1.sol\":10476:10506  Approval(msg.sender, guy, wad) */\n      0xffffffffffffffffffffffffffffffffffffffff\n      and\n        /* \"contracts/pit1.sol\":10485:10495  msg.sender */\n      caller\n        /* \"contracts/pit1.sol\":10476:10506  Approval(msg.sender, guy, wad) */\n      0xffffffffffffffffffffffffffffffffffffffff\n      and\n      0x8c5be1e5ebec7d5bd14f71427d1e84f3dd0314c0f7b2291e5b200ac8c7c3b925\n        /* \"contracts/pit1.sol\":10502:10505  wad */\n      dup5\n        /* \"contracts/pit1.sol\":10476:10506  Approval(msg.sender, guy, wad) */\n      mload(0x40)\n      dup1\n      dup3\n      dup2\n      mstore\n      0x20\n      add\n      swap2\n      pop\n      pop\n      mload(0x40)\n      dup1\n      swap2\n      sub\n      swap1\n      log3\n        /* \"contracts/pit1.sol\":10524:10528  true */\n      0x1\n        /* \"contracts/pit1.sol\":10517:10528  return true */\n      swap1\n      pop\n        /* \"contracts/pit1.sol\":10360:10535  function approve(address guy, uint wad) public returns (bool) {... */\n      swap3\n      swap2\n      pop\n      pop\n      jump\t// out\n        /* \"contracts/pit1.sol\":982:1084  function sub(uint x, uint y) internal pure returns (uint z) {... */\n    tag_124:\n        /* \"contracts/pit1.sol\":1034:1040  uint z */\n      0x0\n        /* \"contracts/pit1.sol\":1075:1076  x */\n      dup3\n        /* \"contracts/pit1.sol\":1069:1070  y */\n      dup3\n        /* \"contracts/pit1.sol\":1065:1066  x */\n      dup5\n        /* \"contracts/pit1.sol\":1065:1070  x - y */\n      sub\n        /* \"contracts/pit1.sol\":1061:1070  z = x - y */\n      swap2\n      pop\n      dup2\n        /* \"contracts/pit1.sol\":1060:1076  (z = x - y) <= x */\n      gt\n      iszero\n        /* \"contracts/pit1.sol\":1052:1077  require((z = x - y) <= x) */\n      iszero\n      iszero\n      tag_190\n      jumpi\n      0x0\n      dup1\n      revert\n    tag_190:\n        /* \"contracts/pit1.sol\":982:1084  function sub(uint x, uint y) internal pure returns (uint z) {... */\n      swap3\n      swap2\n      pop\n      pop\n      jump\t// out\n        /* \"contracts/pit1.sol\":875:977  function add(uint x, uint y) internal pure returns (uint z) {... */\n    tag_127:\n        /* \"contracts/pit1.sol\":927:933  uint z */\n      0x0\n        /* \"contracts/pit1.sol\":968:969  x */\n      dup3\n        /* \"contracts/pit1.sol\":962:963  y */\n      dup3\n        /* \"contracts/pit1.sol\":958:959  x */\n      dup5\n        /* \"contracts/pit1.sol\":958:963  x + y */\n      add\n        /* \"contracts/pit1.sol\":954:963  z = x + y */\n      swap2\n      pop\n      dup2\n        /* \"contracts/pit1.sol\":953:969  (z = x + y) >= x */\n      lt\n      iszero\n        /* \"contracts/pit1.sol\":945:970  require((z = x + y) >= x) */\n      iszero\n      iszero\n      tag_192\n      jumpi\n      0x0\n      dup1\n      revert\n    tag_192:\n        /* \"contracts/pit1.sol\":875:977  function add(uint x, uint y) internal pure returns (uint z) {... */\n      swap3\n      swap2\n      pop\n      pop\n      jump\t// out\n\n    auxdata: 0xa165627a7a723058209bed9c4fe9c1a4f54814c0ba18f25218b9062755d9cec4e46f5a917f8edaba840029\n}\n",
				"bytecode": {
					"linkReferences": {},
					"object": "60806040526012600655600060079060001916905534801561002057600080fd5b50604051602080611b7083398101806040528101908080519060200190929190505050600080600160003373ffffffffffffffffffffffffffffffffffffffff1673ffffffffffffffffffffffffffffffffffffffff16815260200190815260200160002081905550806000819055505033600460006101000a81548173ffffffffffffffffffffffffffffffffffffffff021916908373ffffffffffffffffffffffffffffffffffffffff1602179055503373ffffffffffffffffffffffffffffffffffffffff167fce241d7ca1f669fee44b6fc00b8eba2df3bb514eed0f6f668f8f89096e81ed9460405160405180910390a2806005816000191690555050611a40806101306000396000f300608060405260043610610149576000357c0100000000000000000000000000000000000000000000000000000000900463ffffffff16806306fdde031461014e57806307da68f514610181578063095ea7b31461019857806313af4035146101fd57806318160ddd1461024057806323b872dd1461026b578063313ce567146102f057806340c10f191461031b57806342966c68146103685780635ac801fe1461039557806370a08231146103c657806375f12b211461041d5780637a9e5e4b1461044c5780638da5cb5b1461048f57806395d89b41146104e65780639dc29fac14610519578063a0712d6814610566578063a9059cbb14610593578063b753a98c146105f8578063bb35783b14610645578063be9a6555146106b2578063bf7e214f146106c9578063daea85c514610720578063dd62ed3e1461077b578063f2d5d56b146107f2575b600080fd5b34801561015a57600080fd5b5061016361083f565b60405180826000191660001916815260200191505060405180910390f35b34801561018d57600080fd5b50610196610845565b005b3480156101a457600080fd5b506101e3600480360381019080803573ffffffffffffffffffffffffffffffffffffffff16906020019092919080359060200190929190505050610948565b604051808215151515815260200191505060405180910390f35b34801561020957600080fd5b5061023e600480360381019080803573ffffffffffffffffffffffffffffffffffffffff169060200190929190505050610978565b005b34801561024c57600080fd5b50610255610a5a565b6040518082815260200191505060405180910390f35b34801561027757600080fd5b506102d6600480360381019080803573ffffffffffffffffffffffffffffffffffffffff169060200190929190803573ffffffffffffffffffffffffffffffffffffffff16906020019092919080359060200190929190505050610a63565b604051808215151515815260200191505060405180910390f35b3480156102fc57600080fd5b50610305610ded565b6040518082815260200191505060405180910390f35b34801561032757600080fd5b50610366600480360381019080803573ffffffffffffffffffffffffffffffffffffffff16906020019092919080359060200190929190505050610df3565b005b34801561037457600080fd5b5061039360048036038101908080359060200190929190505050610f38565b005b3480156103a157600080fd5b506103c46004803603810190808035600019169060200190929190505050610f45565b005b3480156103d257600080fd5b50610407600480360381019080803573ffffffffffffffffffffffffffffffffffffffff169060200190929190505050610f8c565b6040518082815260200191505060405180910390f35b34801561042957600080fd5b50610432610fd5565b604051808215151515815260200191505060405180910390f35b34801561045857600080fd5b5061048d600480360381019080803573ffffffffffffffffffffffffffffffffffffffff169060200190929190505050610fe8565b005b34801561049b57600080fd5b506104a46110ca565b604051808273ffffffffffffffffffffffffffffffffffffffff1673ffffffffffffffffffffffffffffffffffffffff16815260200191505060405180910390f35b3480156104f257600080fd5b506104fb6110f0565b60405180826000191660001916815260200191505060405180910390f35b34801561052557600080fd5b50610564600480360381019080803573ffffffffffffffffffffffffffffffffffffffff169060200190929190803590602001909291905050506110f6565b005b34801561057257600080fd5b506105916004803603810190808035906020019092919050505061141f565b005b34801561059f57600080fd5b506105de600480360381019080803573ffffffffffffffffffffffffffffffffffffffff1690602001909291908035906020019092919050505061142c565b604051808215151515815260200191505060405180910390f35b34801561060457600080fd5b50610643600480360381019080803573ffffffffffffffffffffffffffffffffffffffff16906020019092919080359060200190929190505050611441565b005b34801561065157600080fd5b506106b0600480360381019080803573ffffffffffffffffffffffffffffffffffffffff169060200190929190803573ffffffffffffffffffffffffffffffffffffffff16906020019092919080359060200190929190505050611451565b005b3480156106be57600080fd5b506106c7611462565b005b3480156106d557600080fd5b506106de611565565b604051808273ffffffffffffffffffffffffffffffffffffffff1673ffffffffffffffffffffffffffffffffffffffff16815260200191505060405180910390f35b34801561072c57600080fd5b50610761600480360381019080803573ffffffffffffffffffffffffffffffffffffffff16906020019092919050505061158b565b604051808215151515815260200191505060405180910390f35b34801561078757600080fd5b506107dc600480360381019080803573ffffffffffffffffffffffffffffffffffffffff169060200190929190803573ffffffffffffffffffffffffffffffffffffffff1690602001909291905050506115da565b6040518082815260200191505060405180910390f35b3480156107fe57600080fd5b5061083d600480360381019080803573ffffffffffffffffffffffffffffffffffffffff16906020019092919080359060200190929190505050611661565b005b60075481565b610873336000357fffffffff0000000000000000000000000000000000000000000000000000000016611671565b151561087e57600080fd5b60008060043591506024359050806000191682600019163373ffffffffffffffffffffffffffffffffffffffff166000357fffffffff00000000000000000000000000000000000000000000000000000000167bffffffffffffffffffffffffffffffffffffffffffffffffffffffff19163460003660405180848152602001806020018281038252848482818152602001925080828437820191505094505050505060405180910390a46001600460146101000a81548160ff0219169083151502179055505050565b6000600460149054906101000a900460ff1615151561096657600080fd5b61097083836118ea565b905092915050565b6109a6336000357fffffffff0000000000000000000000000000000000000000000000000000000016611671565b15156109b157600080fd5b80600460006101000a81548173ffffffffffffffffffffffffffffffffffffffff021916908373ffffffffffffffffffffffffffffffffffffffff160217905550600460009054906101000a900473ffffffffffffffffffffffffffffffffffffffff1673ffffffffffffffffffffffffffffffffffffffff167fce241d7ca1f669fee44b6fc00b8eba2df3bb514eed0f6f668f8f89096e81ed9460405160405180910390a250565b60008054905090565b6000600460149054906101000a900460ff16151515610a8157600080fd5b3373ffffffffffffffffffffffffffffffffffffffff168473ffffffffffffffffffffffffffffffffffffffff1614158015610b5957507fffffffffffffffffffffffffffffffffffffffffffffffffffffffffffffffff600260008673ffffffffffffffffffffffffffffffffffffffff1673ffffffffffffffffffffffffffffffffffffffff16815260200190815260200160002060003373ffffffffffffffffffffffffffffffffffffffff1673ffffffffffffffffffffffffffffffffffffffff1681526020019081526020016000205414155b15610c6557610be4600260008673ffffffffffffffffffffffffffffffffffffffff1673ffffffffffffffffffffffffffffffffffffffff16815260200190815260200160002060003373ffffffffffffffffffffffffffffffffffffffff1673ffffffffffffffffffffffffffffffffffffffff16815260200190815260200160002054836119dc565b600260008673ffffffffffffffffffffffffffffffffffffffff1673ffffffffffffffffffffffffffffffffffffffff16815260200190815260200160002060003373ffffffffffffffffffffffffffffffffffffffff1673ffffffffffffffffffffffffffffffffffffffff168152602001908152602001600020819055505b610cae600160008673ffffffffffffffffffffffffffffffffffffffff1673ffffffffffffffffffffffffffffffffffffffff16815260200190815260200160002054836119dc565b600160008673ffffffffffffffffffffffffffffffffffffffff1673ffffffffffffffffffffffffffffffffffffffff16815260200190815260200160002081905550610d3a600160008573ffffffffffffffffffffffffffffffffffffffff1673ffffffffffffffffffffffffffffffffffffffff16815260200190815260200160002054836119f8565b600160008573ffffffffffffffffffffffffffffffffffffffff1673ffffffffffffffffffffffffffffffffffffffff168152602001908152602001600020819055508273ffffffffffffffffffffffffffffffffffffffff168473ffffffffffffffffffffffffffffffffffffffff167fddf252ad1be2c89b69c2b068fc378daa952ba7f163c4a11628f55a4df523b3ef846040518082815260200191505060405180910390a3600190509392505050565b60065481565b610e21336000357fffffffff0000000000000000000000000000000000000000000000000000000016611671565b1515610e2c57600080fd5b600460149054906101000a900460ff16151515610e4857600080fd5b610e91600160008473ffffffffffffffffffffffffffffffffffffffff1673ffffffffffffffffffffffffffffffffffffffff16815260200190815260200160002054826119f8565b600160008473ffffffffffffffffffffffffffffffffffffffff1673ffffffffffffffffffffffffffffffffffffffff16815260200190815260200160002081905550610ee0600054826119f8565b6000819055508173ffffffffffffffffffffffffffffffffffffffff167f0f6798a560793a54c3bcfe86a93cde1e73087d944c0ea20544137d4121396885826040518082815260200191505060405180910390a25050565b610f4233826110f6565b50565b610f73336000357fffffffff0000000000000000000000000000000000000000000000000000000016611671565b1515610f7e57600080fd5b806007816000191690555050565b6000600160008373ffffffffffffffffffffffffffffffffffffffff1673ffffffffffffffffffffffffffffffffffffffff168152602001908152602001600020549050919050565b600460149054906101000a900460ff1681565b611016336000357fffffffff0000000000000000000000000000000000000000000000000000000016611671565b151561102157600080fd5b80600360006101000a81548173ffffffffffffffffffffffffffffffffffffffff021916908373ffffffffffffffffffffffffffffffffffffffff160217905550600360009054906101000a900473ffffffffffffffffffffffffffffffffffffffff1673ffffffffffffffffffffffffffffffffffffffff167f1abebea81bfa2637f28358c371278fb15ede7ea8dd28d2e03b112ff6d936ada460405160405180910390a250565b600460009054906101000a900473ffffffffffffffffffffffffffffffffffffffff1681565b60055481565b611124336000357fffffffff0000000000000000000000000000000000000000000000000000000016611671565b151561112f57600080fd5b600460149054906101000a900460ff1615151561114b57600080fd5b3373ffffffffffffffffffffffffffffffffffffffff168273ffffffffffffffffffffffffffffffffffffffff161415801561122357507fffffffffffffffffffffffffffffffffffffffffffffffffffffffffffffffff600260008473ffffffffffffffffffffffffffffffffffffffff1673ffffffffffffffffffffffffffffffffffffffff16815260200190815260200160002060003373ffffffffffffffffffffffffffffffffffffffff1673ffffffffffffffffffffffffffffffffffffffff1681526020019081526020016000205414155b1561132f576112ae600260008473ffffffffffffffffffffffffffffffffffffffff1673ffffffffffffffffffffffffffffffffffffffff16815260200190815260200160002060003373ffffffffffffffffffffffffffffffffffffffff1673ffffffffffffffffffffffffffffffffffffffff16815260200190815260200160002054826119dc565b600260008473ffffffffffffffffffffffffffffffffffffffff1673ffffffffffffffffffffffffffffffffffffffff16815260200190815260200160002060003373ffffffffffffffffffffffffffffffffffffffff1673ffffffffffffffffffffffffffffffffffffffff168152602001908152602001600020819055505b611378600160008473ffffffffffffffffffffffffffffffffffffffff1673ffffffffffffffffffffffffffffffffffffffff16815260200190815260200160002054826119dc565b600160008473ffffffffffffffffffffffffffffffffffffffff1673ffffffffffffffffffffffffffffffffffffffff168152602001908152602001600020819055506113c7600054826119dc565b6000819055508173ffffffffffffffffffffffffffffffffffffffff167fcc16f5dbb4873280815c1ee09dbd06736cffcc184412cf7a71a0fdb75d397ca5826040518082815260200191505060405180910390a25050565b6114293382610df3565b50565b6000611439338484610a63565b905092915050565b61144c338383610a63565b505050565b61145c838383610a63565b50505050565b611490336000357fffffffff0000000000000000000000000000000000000000000000000000000016611671565b151561149b57600080fd5b60008060043591506024359050806000191682600019163373ffffffffffffffffffffffffffffffffffffffff166000357fffffffff00000000000000000000000000000000000000000000000000000000167bffffffffffffffffffffffffffffffffffffffffffffffffffffffff19163460003660405180848152602001806020018281038252848482818152602001925080828437820191505094505050505060405180910390a46000600460146101000a81548160ff0219169083151502179055505050565b600360009054906101000a900473ffffffffffffffffffffffffffffffffffffffff1681565b6000600460149054906101000a900460ff161515156115a957600080fd5b6115d3827fffffffffffffffffffffffffffffffffffffffffffffffffffffffffffffffff6118ea565b9050919050565b6000600260008473ffffffffffffffffffffffffffffffffffffffff1673ffffffffffffffffffffffffffffffffffffffff16815260200190815260200160002060008373ffffffffffffffffffffffffffffffffffffffff1673ffffffffffffffffffffffffffffffffffffffff16815260200190815260200160002054905092915050565b61166c823383610a63565b505050565b60003073ffffffffffffffffffffffffffffffffffffffff168373ffffffffffffffffffffffffffffffffffffffff1614156116b057600190506118e4565b600460009054906101000a900473ffffffffffffffffffffffffffffffffffffffff1673ffffffffffffffffffffffffffffffffffffffff168373ffffffffffffffffffffffffffffffffffffffff16141561170f57600190506118e4565b600073ffffffffffffffffffffffffffffffffffffffff16600360009054906101000a900473ffffffffffffffffffffffffffffffffffffffff1673ffffffffffffffffffffffffffffffffffffffff16141561176f57600090506118e4565b600360009054906101000a900473ffffffffffffffffffffffffffffffffffffffff1673ffffffffffffffffffffffffffffffffffffffff1663b70096138430856040518463ffffffff167c0100000000000000000000000000000000000000000000000000000000028152600401808473ffffffffffffffffffffffffffffffffffffffff1673ffffffffffffffffffffffffffffffffffffffff1681526020018373ffffffffffffffffffffffffffffffffffffffff1673ffffffffffffffffffffffffffffffffffffffff168152602001827bffffffffffffffffffffffffffffffffffffffffffffffffffffffff19167bffffffffffffffffffffffffffffffffffffffffffffffffffffffff191681526020019350505050602060405180830381600087803b1580156118a657600080fd5b505af11580156118ba573d6000803e3d6000fd5b505050506040513d60208110156118d057600080fd5b810190808051906020019092919050505090505b92915050565b600081600260003373ffffffffffffffffffffffffffffffffffffffff1673ffffffffffffffffffffffffffffffffffffffff16815260200190815260200160002060008573ffffffffffffffffffffffffffffffffffffffff1673ffffffffffffffffffffffffffffffffffffffff168152602001908152602001600020819055508273ffffffffffffffffffffffffffffffffffffffff163373ffffffffffffffffffffffffffffffffffffffff167f8c5be1e5ebec7d5bd14f71427d1e84f3dd0314c0f7b2291e5b200ac8c7c3b925846040518082815260200191505060405180910390a36001905092915050565b600082828403915081111515156119f257600080fd5b92915050565b60008282840191508110151515611a0e57600080fd5b929150505600a165627a7a723058209bed9c4fe9c1a4f54814c0ba18f25218b9062755d9cec4e46f5a917f8edaba840029",
					"opcodes": "PUSH1 0x80 PUSH1 0x40 MSTORE PUSH1 0x12 PUSH1 0x6 SSTORE PUSH1 0x0 PUSH1 0x7 SWAP1 PUSH1 0x0 NOT AND SWAP1 SSTORE CALLVALUE DUP1 ISZERO PUSH2 0x20 JUMPI PUSH1 0x0 DUP1 REVERT JUMPDEST POP PUSH1 0x40 MLOAD PUSH1 0x20 DUP1 PUSH2 0x1B70 DUP4 CODECOPY DUP2 ADD DUP1 PUSH1 0x40 MSTORE DUP2 ADD SWAP1 DUP1 DUP1 MLOAD SWAP1 PUSH1 0x20 ADD SWAP1 SWAP3 SWAP2 SWAP1 POP POP POP PUSH1 0x0 DUP1 PUSH1 0x1 PUSH1 0x0 CALLER PUSH20 0xFFFFFFFFFFFFFFFFFFFFFFFFFFFFFFFFFFFFFFFF AND PUSH20 0xFFFFFFFFFFFFFFFFFFFFFFFFFFFFFFFFFFFFFFFF AND DUP2 MSTORE PUSH1 0x20 ADD SWAP1 DUP2 MSTORE PUSH1 0x20 ADD PUSH1 0x0 KECCAK256 DUP2 SWAP1 SSTORE POP DUP1 PUSH1 0x0 DUP2 SWAP1 SSTORE POP POP CALLER PUSH1 0x4 PUSH1 0x0 PUSH2 0x100 EXP DUP2 SLOAD DUP2 PUSH20 0xFFFFFFFFFFFFFFFFFFFFFFFFFFFFFFFFFFFFFFFF MUL NOT AND SWAP1 DUP4 PUSH20 0xFFFFFFFFFFFFFFFFFFFFFFFFFFFFFFFFFFFFFFFF AND MUL OR SWAP1 SSTORE POP CALLER PUSH20 0xFFFFFFFFFFFFFFFFFFFFFFFFFFFFFFFFFFFFFFFF AND PUSH32 0xCE241D7CA1F669FEE44B6FC00B8EBA2DF3BB514EED0F6F668F8F89096E81ED94 PUSH1 0x40 MLOAD PUSH1 0x40 MLOAD DUP1 SWAP2 SUB SWAP1 LOG2 DUP1 PUSH1 0x5 DUP2 PUSH1 0x0 NOT AND SWAP1 SSTORE POP POP PUSH2 0x1A40 DUP1 PUSH2 0x130 PUSH1 0x0 CODECOPY PUSH1 0x0 RETURN STOP PUSH1 0x80 PUSH1 0x40 MSTORE PUSH1 0x4 CALLDATASIZE LT PUSH2 0x149 JUMPI PUSH1 0x0 CALLDATALOAD PUSH29 0x100000000000000000000000000000000000000000000000000000000 SWAP1 DIV PUSH4 0xFFFFFFFF AND DUP1 PUSH4 0x6FDDE03 EQ PUSH2 0x14E JUMPI DUP1 PUSH4 0x7DA68F5 EQ PUSH2 0x181 JUMPI DUP1 PUSH4 0x95EA7B3 EQ PUSH2 0x198 JUMPI DUP1 PUSH4 0x13AF4035 EQ PUSH2 0x1FD JUMPI DUP1 PUSH4 0x18160DDD EQ PUSH2 0x240 JUMPI DUP1 PUSH4 0x23B872DD EQ PUSH2 0x26B JUMPI DUP1 PUSH4 0x313CE567 EQ PUSH2 0x2F0 JUMPI DUP1 PUSH4 0x40C10F19 EQ PUSH2 0x31B JUMPI DUP1 PUSH4 0x42966C68 EQ PUSH2 0x368 JUMPI DUP1 PUSH4 0x5AC801FE EQ PUSH2 0x395 JUMPI DUP1 PUSH4 0x70A08231 EQ PUSH2 0x3C6 JUMPI DUP1 PUSH4 0x75F12B21 EQ PUSH2 0x41D JUMPI DUP1 PUSH4 0x7A9E5E4B EQ PUSH2 0x44C JUMPI DUP1 PUSH4 0x8DA5CB5B EQ PUSH2 0x48F JUMPI DUP1 PUSH4 0x95D89B41 EQ PUSH2 0x4E6 JUMPI DUP1 PUSH4 0x9DC29FAC EQ PUSH2 0x519 JUMPI DUP1 PUSH4 0xA0712D68 EQ PUSH2 0x566 JUMPI DUP1 PUSH4 0xA9059CBB EQ PUSH2 0x593 JUMPI DUP1 PUSH4 0xB753A98C EQ PUSH2 0x5F8 JUMPI DUP1 PUSH4 0xBB35783B EQ PUSH2 0x645 JUMPI DUP1 PUSH4 0xBE9A6555 EQ PUSH2 0x6B2 JUMPI DUP1 PUSH4 0xBF7E214F EQ PUSH2 0x6C9 JUMPI DUP1 PUSH4 0xDAEA85C5 EQ PUSH2 0x720 JUMPI DUP1 PUSH4 0xDD62ED3E EQ PUSH2 0x77B JUMPI DUP1 PUSH4 0xF2D5D56B EQ PUSH2 0x7F2 JUMPI JUMPDEST PUSH1 0x0 DUP1 REVERT JUMPDEST CALLVALUE DUP1 ISZERO PUSH2 0x15A JUMPI PUSH1 0x0 DUP1 REVERT JUMPDEST POP PUSH2 0x163 PUSH2 0x83F JUMP JUMPDEST PUSH1 0x40 MLOAD DUP1 DUP3 PUSH1 0x0 NOT AND PUSH1 0x0 NOT AND DUP2 MSTORE PUSH1 0x20 ADD SWAP2 POP POP PUSH1 0x40 MLOAD DUP1 SWAP2 SUB SWAP1 RETURN JUMPDEST CALLVALUE DUP1 ISZERO PUSH2 0x18D JUMPI PUSH1 0x0 DUP1 REVERT JUMPDEST POP PUSH2 0x196 PUSH2 0x845 JUMP JUMPDEST STOP JUMPDEST CALLVALUE DUP1 ISZERO PUSH2 0x1A4 JUMPI PUSH1 0x0 DUP1 REVERT JUMPDEST POP PUSH2 0x1E3 PUSH1 0x4 DUP1 CALLDATASIZE SUB DUP2 ADD SWAP1 DUP1 DUP1 CALLDATALOAD PUSH20 0xFFFFFFFFFFFFFFFFFFFFFFFFFFFFFFFFFFFFFFFF AND SWAP1 PUSH1 0x20 ADD SWAP1 SWAP3 SWAP2 SWAP1 DUP1 CALLDATALOAD SWAP1 PUSH1 0x20 ADD SWAP1 SWAP3 SWAP2 SWAP1 POP POP POP PUSH2 0x948 JUMP JUMPDEST PUSH1 0x40 MLOAD DUP1 DUP3 ISZERO ISZERO ISZERO ISZERO DUP2 MSTORE PUSH1 0x20 ADD SWAP2 POP POP PUSH1 0x40 MLOAD DUP1 SWAP2 SUB SWAP1 RETURN JUMPDEST CALLVALUE DUP1 ISZERO PUSH2 0x209 JUMPI PUSH1 0x0 DUP1 REVERT JUMPDEST POP PUSH2 0x23E PUSH1 0x4 DUP1 CALLDATASIZE SUB DUP2 ADD SWAP1 DUP1 DUP1 CALLDATALOAD PUSH20 0xFFFFFFFFFFFFFFFFFFFFFFFFFFFFFFFFFFFFFFFF AND SWAP1 PUSH1 0x20 ADD SWAP1 SWAP3 SWAP2 SWAP1 POP POP POP PUSH2 0x978 JUMP JUMPDEST STOP JUMPDEST CALLVALUE DUP1 ISZERO PUSH2 0x24C JUMPI PUSH1 0x0 DUP1 REVERT JUMPDEST POP PUSH2 0x255 PUSH2 0xA5A JUMP JUMPDEST PUSH1 0x40 MLOAD DUP1 DUP3 DUP2 MSTORE PUSH1 0x20 ADD SWAP2 POP POP PUSH1 0x40 MLOAD DUP1 SWAP2 SUB SWAP1 RETURN JUMPDEST CALLVALUE DUP1 ISZERO PUSH2 0x277 JUMPI PUSH1 0x0 DUP1 REVERT JUMPDEST POP PUSH2 0x2D6 PUSH1 0x4 DUP1 CALLDATASIZE SUB DUP2 ADD SWAP1 DUP1 DUP1 CALLDATALOAD PUSH20 0xFFFFFFFFFFFFFFFFFFFFFFFFFFFFFFFFFFFFFFFF AND SWAP1 PUSH1 0x20 ADD SWAP1 SWAP3 SWAP2 SWAP1 DUP1 CALLDATALOAD PUSH20 0xFFFFFFFFFFFFFFFFFFFFFFFFFFFFFFFFFFFFFFFF AND SWAP1 PUSH1 0x20 ADD SWAP1 SWAP3 SWAP2 SWAP1 DUP1 CALLDATALOAD SWAP1 PUSH1 0x20 ADD SWAP1 SWAP3 SWAP2 SWAP1 POP POP POP PUSH2 0xA63 JUMP JUMPDEST PUSH1 0x40 MLOAD DUP1 DUP3 ISZERO ISZERO ISZERO ISZERO DUP2 MSTORE PUSH1 0x20 ADD SWAP2 POP POP PUSH1 0x40 MLOAD DUP1 SWAP2 SUB SWAP1 RETURN JUMPDEST CALLVALUE DUP1 ISZERO PUSH2 0x2FC JUMPI PUSH1 0x0 DUP1 REVERT JUMPDEST POP PUSH2 0x305 PUSH2 0xDED JUMP JUMPDEST PUSH1 0x40 MLOAD DUP1 DUP3 DUP2 MSTORE PUSH1 0x20 ADD SWAP2 POP POP PUSH1 0x40 MLOAD DUP1 SWAP2 SUB SWAP1 RETURN JUMPDEST CALLVALUE DUP1 ISZERO PUSH2 0x327 JUMPI PUSH1 0x0 DUP1 REVERT JUMPDEST POP PUSH2 0x366 PUSH1 0x4 DUP1 CALLDATASIZE SUB DUP2 ADD SWAP1 DUP1 DUP1 CALLDATALOAD PUSH20 0xFFFFFFFFFFFFFFFFFFFFFFFFFFFFFFFFFFFFFFFF AND SWAP1 PUSH1 0x20 ADD SWAP1 SWAP3 SWAP2 SWAP1 DUP1 CALLDATALOAD SWAP1 PUSH1 0x20 ADD SWAP1 SWAP3 SWAP2 SWAP1 POP POP POP PUSH2 0xDF3 JUMP JUMPDEST STOP JUMPDEST CALLVALUE DUP1 ISZERO PUSH2 0x374 JUMPI PUSH1 0x0 DUP1 REVERT JUMPDEST POP PUSH2 0x393 PUSH1 0x4 DUP1 CALLDATASIZE SUB DUP2 ADD SWAP1 DUP1 DUP1 CALLDATALOAD SWAP1 PUSH1 0x20 ADD SWAP1 SWAP3 SWAP2 SWAP1 POP POP POP PUSH2 0xF38 JUMP JUMPDEST STOP JUMPDEST CALLVALUE DUP1 ISZERO PUSH2 0x3A1 JUMPI PUSH1 0x0 DUP1 REVERT JUMPDEST POP PUSH2 0x3C4 PUSH1 0x4 DUP1 CALLDATASIZE SUB DUP2 ADD SWAP1 DUP1 DUP1 CALLDATALOAD PUSH1 0x0 NOT AND SWAP1 PUSH1 0x20 ADD SWAP1 SWAP3 SWAP2 SWAP1 POP POP POP PUSH2 0xF45 JUMP JUMPDEST STOP JUMPDEST CALLVALUE DUP1 ISZERO PUSH2 0x3D2 JUMPI PUSH1 0x0 DUP1 REVERT JUMPDEST POP PUSH2 0x407 PUSH1 0x4 DUP1 CALLDATASIZE SUB DUP2 ADD SWAP1 DUP1 DUP1 CALLDATALOAD PUSH20 0xFFFFFFFFFFFFFFFFFFFFFFFFFFFFFFFFFFFFFFFF AND SWAP1 PUSH1 0x20 ADD SWAP1 SWAP3 SWAP2 SWAP1 POP POP POP PUSH2 0xF8C JUMP JUMPDEST PUSH1 0x40 MLOAD DUP1 DUP3 DUP2 MSTORE PUSH1 0x20 ADD SWAP2 POP POP PUSH1 0x40 MLOAD DUP1 SWAP2 SUB SWAP1 RETURN JUMPDEST CALLVALUE DUP1 ISZERO PUSH2 0x429 JUMPI PUSH1 0x0 DUP1 REVERT JUMPDEST POP PUSH2 0x432 PUSH2 0xFD5 JUMP JUMPDEST PUSH1 0x40 MLOAD DUP1 DUP3 ISZERO ISZERO ISZERO ISZERO DUP2 MSTORE PUSH1 0x20 ADD SWAP2 POP POP PUSH1 0x40 MLOAD DUP1 SWAP2 SUB SWAP1 RETURN JUMPDEST CALLVALUE DUP1 ISZERO PUSH2 0x458 JUMPI PUSH1 0x0 DUP1 REVERT JUMPDEST POP PUSH2 0x48D PUSH1 0x4 DUP1 CALLDATASIZE SUB DUP2 ADD SWAP1 DUP1 DUP1 CALLDATALOAD PUSH20 0xFFFFFFFFFFFFFFFFFFFFFFFFFFFFFFFFFFFFFFFF AND SWAP1 PUSH1 0x20 ADD SWAP1 SWAP3 SWAP2 SWAP1 POP POP POP PUSH2 0xFE8 JUMP JUMPDEST STOP JUMPDEST CALLVALUE DUP1 ISZERO PUSH2 0x49B JUMPI PUSH1 0x0 DUP1 REVERT JUMPDEST POP PUSH2 0x4A4 PUSH2 0x10CA JUMP JUMPDEST PUSH1 0x40 MLOAD DUP1 DUP3 PUSH20 0xFFFFFFFFFFFFFFFFFFFFFFFFFFFFFFFFFFFFFFFF AND PUSH20 0xFFFFFFFFFFFFFFFFFFFFFFFFFFFFFFFFFFFFFFFF AND DUP2 MSTORE PUSH1 0x20 ADD SWAP2 POP POP PUSH1 0x40 MLOAD DUP1 SWAP2 SUB SWAP1 RETURN JUMPDEST CALLVALUE DUP1 ISZERO PUSH2 0x4F2 JUMPI PUSH1 0x0 DUP1 REVERT JUMPDEST POP PUSH2 0x4FB PUSH2 0x10F0 JUMP JUMPDEST PUSH1 0x40 MLOAD DUP1 DUP3 PUSH1 0x0 NOT AND PUSH1 0x0 NOT AND DUP2 MSTORE PUSH1 0x20 ADD SWAP2 POP POP PUSH1 0x40 MLOAD DUP1 SWAP2 SUB SWAP1 RETURN JUMPDEST CALLVALUE DUP1 ISZERO PUSH2 0x525 JUMPI PUSH1 0x0 DUP1 REVERT JUMPDEST POP PUSH2 0x564 PUSH1 0x4 DUP1 CALLDATASIZE SUB DUP2 ADD SWAP1 DUP1 DUP1 CALLDATALOAD PUSH20 0xFFFFFFFFFFFFFFFFFFFFFFFFFFFFFFFFFFFFFFFF AND SWAP1 PUSH1 0x20 ADD SWAP1 SWAP3 SWAP2 SWAP1 DUP1 CALLDATALOAD SWAP1 PUSH1 0x20 ADD SWAP1 SWAP3 SWAP2 SWAP1 POP POP POP PUSH2 0x10F6 JUMP JUMPDEST STOP JUMPDEST CALLVALUE DUP1 ISZERO PUSH2 0x572 JUMPI PUSH1 0x0 DUP1 REVERT JUMPDEST POP PUSH2 0x591 PUSH1 0x4 DUP1 CALLDATASIZE SUB DUP2 ADD SWAP1 DUP1 DUP1 CALLDATALOAD SWAP1 PUSH1 0x20 ADD SWAP1 SWAP3 SWAP2 SWAP1 POP POP POP PUSH2 0x141F JUMP JUMPDEST STOP JUMPDEST CALLVALUE DUP1 ISZERO PUSH2 0x59F JUMPI PUSH1 0x0 DUP1 REVERT JUMPDEST POP PUSH2 0x5DE PUSH1 0x4 DUP1 CALLDATASIZE SUB DUP2 ADD SWAP1 DUP1 DUP1 CALLDATALOAD PUSH20 0xFFFFFFFFFFFFFFFFFFFFFFFFFFFFFFFFFFFFFFFF AND SWAP1 PUSH1 0x20 ADD SWAP1 SWAP3 SWAP2 SWAP1 DUP1 CALLDATALOAD SWAP1 PUSH1 0x20 ADD SWAP1 SWAP3 SWAP2 SWAP1 POP POP POP PUSH2 0x142C JUMP JUMPDEST PUSH1 0x40 MLOAD DUP1 DUP3 ISZERO ISZERO ISZERO ISZERO DUP2 MSTORE PUSH1 0x20 ADD SWAP2 POP POP PUSH1 0x40 MLOAD DUP1 SWAP2 SUB SWAP1 RETURN JUMPDEST CALLVALUE DUP1 ISZERO PUSH2 0x604 JUMPI PUSH1 0x0 DUP1 REVERT JUMPDEST POP PUSH2 0x643 PUSH1 0x4 DUP1 CALLDATASIZE SUB DUP2 ADD SWAP1 DUP1 DUP1 CALLDATALOAD PUSH20 0xFFFFFFFFFFFFFFFFFFFFFFFFFFFFFFFFFFFFFFFF AND SWAP1 PUSH1 0x20 ADD SWAP1 SWAP3 SWAP2 SWAP1 DUP1 CALLDATALOAD SWAP1 PUSH1 0x20 ADD SWAP1 SWAP3 SWAP2 SWAP1 POP POP POP PUSH2 0x1441 JUMP JUMPDEST STOP JUMPDEST CALLVALUE DUP1 ISZERO PUSH2 0x651 JUMPI PUSH1 0x0 DUP1 REVERT JUMPDEST POP PUSH2 0x6B0 PUSH1 0x4 DUP1 CALLDATASIZE SUB DUP2 ADD SWAP1 DUP1 DUP1 CALLDATALOAD PUSH20 0xFFFFFFFFFFFFFFFFFFFFFFFFFFFFFFFFFFFFFFFF AND SWAP1 PUSH1 0x20 ADD SWAP1 SWAP3 SWAP2 SWAP1 DUP1 CALLDATALOAD PUSH20 0xFFFFFFFFFFFFFFFFFFFFFFFFFFFFFFFFFFFFFFFF AND SWAP1 PUSH1 0x20 ADD SWAP1 SWAP3 SWAP2 SWAP1 DUP1 CALLDATALOAD SWAP1 PUSH1 0x20 ADD SWAP1 SWAP3 SWAP2 SWAP1 POP POP POP PUSH2 0x1451 JUMP JUMPDEST STOP JUMPDEST CALLVALUE DUP1 ISZERO PUSH2 0x6BE JUMPI PUSH1 0x0 DUP1 REVERT JUMPDEST POP PUSH2 0x6C7 PUSH2 0x1462 JUMP JUMPDEST STOP JUMPDEST CALLVALUE DUP1 ISZERO PUSH2 0x6D5 JUMPI PUSH1 0x0 DUP1 REVERT JUMPDEST POP PUSH2 0x6DE PUSH2 0x1565 JUMP JUMPDEST PUSH1 0x40 MLOAD DUP1 DUP3 PUSH20 0xFFFFFFFFFFFFFFFFFFFFFFFFFFFFFFFFFFFFFFFF AND PUSH20 0xFFFFFFFFFFFFFFFFFFFFFFFFFFFFFFFFFFFFFFFF AND DUP2 MSTORE PUSH1 0x20 ADD SWAP2 POP POP PUSH1 0x40 MLOAD DUP1 SWAP2 SUB SWAP1 RETURN JUMPDEST CALLVALUE DUP1 ISZERO PUSH2 0x72C JUMPI PUSH1 0x0 DUP1 REVERT JUMPDEST POP PUSH2 0x761 PUSH1 0x4 DUP1 CALLDATASIZE SUB DUP2 ADD SWAP1 DUP1 DUP1 CALLDATALOAD PUSH20 0xFFFFFFFFFFFFFFFFFFFFFFFFFFFFFFFFFFFFFFFF AND SWAP1 PUSH1 0x20 ADD SWAP1 SWAP3 SWAP2 SWAP1 POP POP POP PUSH2 0x158B JUMP JUMPDEST PUSH1 0x40 MLOAD DUP1 DUP3 ISZERO ISZERO ISZERO ISZERO DUP2 MSTORE PUSH1 0x20 ADD SWAP2 POP POP PUSH1 0x40 MLOAD DUP1 SWAP2 SUB SWAP1 RETURN JUMPDEST CALLVALUE DUP1 ISZERO PUSH2 0x787 JUMPI PUSH1 0x0 DUP1 REVERT JUMPDEST POP PUSH2 0x7DC PUSH1 0x4 DUP1 CALLDATASIZE SUB DUP2 ADD SWAP1 DUP1 DUP1 CALLDATALOAD PUSH20 0xFFFFFFFFFFFFFFFFFFFFFFFFFFFFFFFFFFFFFFFF AND SWAP1 PUSH1 0x20 ADD SWAP1 SWAP3 SWAP2 SWAP1 DUP1 CALLDATALOAD PUSH20 0xFFFFFFFFFFFFFFFFFFFFFFFFFFFFFFFFFFFFFFFF AND SWAP1 PUSH1 0x20 ADD SWAP1 SWAP3 SWAP2 SWAP1 POP POP POP PUSH2 0x15DA JUMP JUMPDEST PUSH1 0x40 MLOAD DUP1 DUP3 DUP2 MSTORE PUSH1 0x20 ADD SWAP2 POP POP PUSH1 0x40 MLOAD DUP1 SWAP2 SUB SWAP1 RETURN JUMPDEST CALLVALUE DUP1 ISZERO PUSH2 0x7FE JUMPI PUSH1 0x0 DUP1 REVERT JUMPDEST POP PUSH2 0x83D PUSH1 0x4 DUP1 CALLDATASIZE SUB DUP2 ADD SWAP1 DUP1 DUP1 CALLDATALOAD PUSH20 0xFFFFFFFFFFFFFFFFFFFFFFFFFFFFFFFFFFFFFFFF AND SWAP1 PUSH1 0x20 ADD SWAP1 SWAP3 SWAP2 SWAP1 DUP1 CALLDATALOAD SWAP1 PUSH1 0x20 ADD SWAP1 SWAP3 SWAP2 SWAP1 POP POP POP PUSH2 0x1661 JUMP JUMPDEST STOP JUMPDEST PUSH1 0x7 SLOAD DUP2 JUMP JUMPDEST PUSH2 0x873 CALLER PUSH1 0x0 CALLDATALOAD PUSH32 0xFFFFFFFF00000000000000000000000000000000000000000000000000000000 AND PUSH2 0x1671 JUMP JUMPDEST ISZERO ISZERO PUSH2 0x87E JUMPI PUSH1 0x0 DUP1 REVERT JUMPDEST PUSH1 0x0 DUP1 PUSH1 0x4 CALLDATALOAD SWAP2 POP PUSH1 0x24 CALLDATALOAD SWAP1 POP DUP1 PUSH1 0x0 NOT AND DUP3 PUSH1 0x0 NOT AND CALLER PUSH20 0xFFFFFFFFFFFFFFFFFFFFFFFFFFFFFFFFFFFFFFFF AND PUSH1 0x0 CALLDATALOAD PUSH32 0xFFFFFFFF00000000000000000000000000000000000000000000000000000000 AND PUSH28 0xFFFFFFFFFFFFFFFFFFFFFFFFFFFFFFFFFFFFFFFFFFFFFFFFFFFFFFFF NOT AND CALLVALUE PUSH1 0x0 CALLDATASIZE PUSH1 0x40 MLOAD DUP1 DUP5 DUP2 MSTORE PUSH1 0x20 ADD DUP1 PUSH1 0x20 ADD DUP3 DUP2 SUB DUP3 MSTORE DUP5 DUP5 DUP3 DUP2 DUP2 MSTORE PUSH1 0x20 ADD SWAP3 POP DUP1 DUP3 DUP5 CALLDATACOPY DUP3 ADD SWAP2 POP POP SWAP5 POP POP POP POP POP PUSH1 0x40 MLOAD DUP1 SWAP2 SUB SWAP1 LOG4 PUSH1 0x1 PUSH1 0x4 PUSH1 0x14 PUSH2 0x100 EXP DUP2 SLOAD DUP2 PUSH1 0xFF MUL NOT AND SWAP1 DUP4 ISZERO ISZERO MUL OR SWAP1 SSTORE POP POP POP JUMP JUMPDEST PUSH1 0x0 PUSH1 0x4 PUSH1 0x14 SWAP1 SLOAD SWAP1 PUSH2 0x100 EXP SWAP1 DIV PUSH1 0xFF AND ISZERO ISZERO ISZERO PUSH2 0x966 JUMPI PUSH1 0x0 DUP1 REVERT JUMPDEST PUSH2 0x970 DUP4 DUP4 PUSH2 0x18EA JUMP JUMPDEST SWAP1 POP SWAP3 SWAP2 POP POP JUMP JUMPDEST PUSH2 0x9A6 CALLER PUSH1 0x0 CALLDATALOAD PUSH32 0xFFFFFFFF00000000000000000000000000000000000000000000000000000000 AND PUSH2 0x1671 JUMP JUMPDEST ISZERO ISZERO PUSH2 0x9B1 JUMPI PUSH1 0x0 DUP1 REVERT JUMPDEST DUP1 PUSH1 0x4 PUSH1 0x0 PUSH2 0x100 EXP DUP2 SLOAD DUP2 PUSH20 0xFFFFFFFFFFFFFFFFFFFFFFFFFFFFFFFFFFFFFFFF MUL NOT AND SWAP1 DUP4 PUSH20 0xFFFFFFFFFFFFFFFFFFFFFFFFFFFFFFFFFFFFFFFF AND MUL OR SWAP1 SSTORE POP PUSH1 0x4 PUSH1 0x0 SWAP1 SLOAD SWAP1 PUSH2 0x100 EXP SWAP1 DIV PUSH20 0xFFFFFFFFFFFFFFFFFFFFFFFFFFFFFFFFFFFFFFFF AND PUSH20 0xFFFFFFFFFFFFFFFFFFFFFFFFFFFFFFFFFFFFFFFF AND PUSH32 0xCE241D7CA1F669FEE44B6FC00B8EBA2DF3BB514EED0F6F668F8F89096E81ED94 PUSH1 0x40 MLOAD PUSH1 0x40 MLOAD DUP1 SWAP2 SUB SWAP1 LOG2 POP JUMP JUMPDEST PUSH1 0x0 DUP1 SLOAD SWAP1 POP SWAP1 JUMP JUMPDEST PUSH1 0x0 PUSH1 0x4 PUSH1 0x14 SWAP1 SLOAD SWAP1 PUSH2 0x100 EXP SWAP1 DIV PUSH1 0xFF AND ISZERO ISZERO ISZERO PUSH2 0xA81 JUMPI PUSH1 0x0 DUP1 REVERT JUMPDEST CALLER PUSH20 0xFFFFFFFFFFFFFFFFFFFFFFFFFFFFFFFFFFFFFFFF AND DUP5 PUSH20 0xFFFFFFFFFFFFFFFFFFFFFFFFFFFFFFFFFFFFFFFF AND EQ ISZERO DUP1 ISZERO PUSH2 0xB59 JUMPI POP PUSH32 0xFFFFFFFFFFFFFFFFFFFFFFFFFFFFFFFFFFFFFFFFFFFFFFFFFFFFFFFFFFFFFFFF PUSH1 0x2 PUSH1 0x0 DUP7 PUSH20 0xFFFFFFFFFFFFFFFFFFFFFFFFFFFFFFFFFFFFFFFF AND PUSH20 0xFFFFFFFFFFFFFFFFFFFFFFFFFFFFFFFFFFFFFFFF AND DUP2 MSTORE PUSH1 0x20 ADD SWAP1 DUP2 MSTORE PUSH1 0x20 ADD PUSH1 0x0 KECCAK256 PUSH1 0x0 CALLER PUSH20 0xFFFFFFFFFFFFFFFFFFFFFFFFFFFFFFFFFFFFFFFF AND PUSH20 0xFFFFFFFFFFFFFFFFFFFFFFFFFFFFFFFFFFFFFFFF AND DUP2 MSTORE PUSH1 0x20 ADD SWAP1 DUP2 MSTORE PUSH1 0x20 ADD PUSH1 0x0 KECCAK256 SLOAD EQ ISZERO JUMPDEST ISZERO PUSH2 0xC65 JUMPI PUSH2 0xBE4 PUSH1 0x2 PUSH1 0x0 DUP7 PUSH20 0xFFFFFFFFFFFFFFFFFFFFFFFFFFFFFFFFFFFFFFFF AND PUSH20 0xFFFFFFFFFFFFFFFFFFFFFFFFFFFFFFFFFFFFFFFF AND DUP2 MSTORE PUSH1 0x20 ADD SWAP1 DUP2 MSTORE PUSH1 0x20 ADD PUSH1 0x0 KECCAK256 PUSH1 0x0 CALLER PUSH20 0xFFFFFFFFFFFFFFFFFFFFFFFFFFFFFFFFFFFFFFFF AND PUSH20 0xFFFFFFFFFFFFFFFFFFFFFFFFFFFFFFFFFFFFFFFF AND DUP2 MSTORE PUSH1 0x20 ADD SWAP1 DUP2 MSTORE PUSH1 0x20 ADD PUSH1 0x0 KECCAK256 SLOAD DUP4 PUSH2 0x19DC JUMP JUMPDEST PUSH1 0x2 PUSH1 0x0 DUP7 PUSH20 0xFFFFFFFFFFFFFFFFFFFFFFFFFFFFFFFFFFFFFFFF AND PUSH20 0xFFFFFFFFFFFFFFFFFFFFFFFFFFFFFFFFFFFFFFFF AND DUP2 MSTORE PUSH1 0x20 ADD SWAP1 DUP2 MSTORE PUSH1 0x20 ADD PUSH1 0x0 KECCAK256 PUSH1 0x0 CALLER PUSH20 0xFFFFFFFFFFFFFFFFFFFFFFFFFFFFFFFFFFFFFFFF AND PUSH20 0xFFFFFFFFFFFFFFFFFFFFFFFFFFFFFFFFFFFFFFFF AND DUP2 MSTORE PUSH1 0x20 ADD SWAP1 DUP2 MSTORE PUSH1 0x20 ADD PUSH1 0x0 KECCAK256 DUP2 SWAP1 SSTORE POP JUMPDEST PUSH2 0xCAE PUSH1 0x1 PUSH1 0x0 DUP7 PUSH20 0xFFFFFFFFFFFFFFFFFFFFFFFFFFFFFFFFFFFFFFFF AND PUSH20 0xFFFFFFFFFFFFFFFFFFFFFFFFFFFFFFFFFFFFFFFF AND DUP2 MSTORE PUSH1 0x20 ADD SWAP1 DUP2 MSTORE PUSH1 0x20 ADD PUSH1 0x0 KECCAK256 SLOAD DUP4 PUSH2 0x19DC JUMP JUMPDEST PUSH1 0x1 PUSH1 0x0 DUP7 PUSH20 0xFFFFFFFFFFFFFFFFFFFFFFFFFFFFFFFFFFFFFFFF AND PUSH20 0xFFFFFFFFFFFFFFFFFFFFFFFFFFFFFFFFFFFFFFFF AND DUP2 MSTORE PUSH1 0x20 ADD SWAP1 DUP2 MSTORE PUSH1 0x20 ADD PUSH1 0x0 KECCAK256 DUP2 SWAP1 SSTORE POP PUSH2 0xD3A PUSH1 0x1 PUSH1 0x0 DUP6 PUSH20 0xFFFFFFFFFFFFFFFFFFFFFFFFFFFFFFFFFFFFFFFF AND PUSH20 0xFFFFFFFFFFFFFFFFFFFFFFFFFFFFFFFFFFFFFFFF AND DUP2 MSTORE PUSH1 0x20 ADD SWAP1 DUP2 MSTORE PUSH1 0x20 ADD PUSH1 0x0 KECCAK256 SLOAD DUP4 PUSH2 0x19F8 JUMP JUMPDEST PUSH1 0x1 PUSH1 0x0 DUP6 PUSH20 0xFFFFFFFFFFFFFFFFFFFFFFFFFFFFFFFFFFFFFFFF AND PUSH20 0xFFFFFFFFFFFFFFFFFFFFFFFFFFFFFFFFFFFFFFFF AND DUP2 MSTORE PUSH1 0x20 ADD SWAP1 DUP2 MSTORE PUSH1 0x20 ADD PUSH1 0x0 KECCAK256 DUP2 SWAP1 SSTORE POP DUP3 PUSH20 0xFFFFFFFFFFFFFFFFFFFFFFFFFFFFFFFFFFFFFFFF AND DUP5 PUSH20 0xFFFFFFFFFFFFFFFFFFFFFFFFFFFFFFFFFFFFFFFF AND PUSH32 0xDDF252AD1BE2C89B69C2B068FC378DAA952BA7F163C4A11628F55A4DF523B3EF DUP5 PUSH1 0x40 MLOAD DUP1 DUP3 DUP2 MSTORE PUSH1 0x20 ADD SWAP2 POP POP PUSH1 0x40 MLOAD DUP1 SWAP2 SUB SWAP1 LOG3 PUSH1 0x1 SWAP1 POP SWAP4 SWAP3 POP POP POP JUMP JUMPDEST PUSH1 0x6 SLOAD DUP2 JUMP JUMPDEST PUSH2 0xE21 CALLER PUSH1 0x0 CALLDATALOAD PUSH32 0xFFFFFFFF00000000000000000000000000000000000000000000000000000000 AND PUSH2 0x1671 JUMP JUMPDEST ISZERO ISZERO PUSH2 0xE2C JUMPI PUSH1 0x0 DUP1 REVERT JUMPDEST PUSH1 0x4 PUSH1 0x14 SWAP1 SLOAD SWAP1 PUSH2 0x100 EXP SWAP1 DIV PUSH1 0xFF AND ISZERO ISZERO ISZERO PUSH2 0xE48 JUMPI PUSH1 0x0 DUP1 REVERT JUMPDEST PUSH2 0xE91 PUSH1 0x1 PUSH1 0x0 DUP5 PUSH20 0xFFFFFFFFFFFFFFFFFFFFFFFFFFFFFFFFFFFFFFFF AND PUSH20 0xFFFFFFFFFFFFFFFFFFFFFFFFFFFFFFFFFFFFFFFF AND DUP2 MSTORE PUSH1 0x20 ADD SWAP1 DUP2 MSTORE PUSH1 0x20 ADD PUSH1 0x0 KECCAK256 SLOAD DUP3 PUSH2 0x19F8 JUMP JUMPDEST PUSH1 0x1 PUSH1 0x0 DUP5 PUSH20 0xFFFFFFFFFFFFFFFFFFFFFFFFFFFFFFFFFFFFFFFF AND PUSH20 0xFFFFFFFFFFFFFFFFFFFFFFFFFFFFFFFFFFFFFFFF AND DUP2 MSTORE PUSH1 0x20 ADD SWAP1 DUP2 MSTORE PUSH1 0x20 ADD PUSH1 0x0 KECCAK256 DUP2 SWAP1 SSTORE POP PUSH2 0xEE0 PUSH1 0x0 SLOAD DUP3 PUSH2 0x19F8 JUMP JUMPDEST PUSH1 0x0 DUP2 SWAP1 SSTORE POP DUP2 PUSH20 0xFFFFFFFFFFFFFFFFFFFFFFFFFFFFFFFFFFFFFFFF AND PUSH32 0xF6798A560793A54C3BCFE86A93CDE1E73087D944C0EA20544137D4121396885 DUP3 PUSH1 0x40 MLOAD DUP1 DUP3 DUP2 MSTORE PUSH1 0x20 ADD SWAP2 POP POP PUSH1 0x40 MLOAD DUP1 SWAP2 SUB SWAP1 LOG2 POP POP JUMP JUMPDEST PUSH2 0xF42 CALLER DUP3 PUSH2 0x10F6 JUMP JUMPDEST POP JUMP JUMPDEST PUSH2 0xF73 CALLER PUSH1 0x0 CALLDATALOAD PUSH32 0xFFFFFFFF00000000000000000000000000000000000000000000000000000000 AND PUSH2 0x1671 JUMP JUMPDEST ISZERO ISZERO PUSH2 0xF7E JUMPI PUSH1 0x0 DUP1 REVERT JUMPDEST DUP1 PUSH1 0x7 DUP2 PUSH1 0x0 NOT AND SWAP1 SSTORE POP POP JUMP JUMPDEST PUSH1 0x0 PUSH1 0x1 PUSH1 0x0 DUP4 PUSH20 0xFFFFFFFFFFFFFFFFFFFFFFFFFFFFFFFFFFFFFFFF AND PUSH20 0xFFFFFFFFFFFFFFFFFFFFFFFFFFFFFFFFFFFFFFFF AND DUP2 MSTORE PUSH1 0x20 ADD SWAP1 DUP2 MSTORE PUSH1 0x20 ADD PUSH1 0x0 KECCAK256 SLOAD SWAP1 POP SWAP2 SWAP1 POP JUMP JUMPDEST PUSH1 0x4 PUSH1 0x14 SWAP1 SLOAD SWAP1 PUSH2 0x100 EXP SWAP1 DIV PUSH1 0xFF AND DUP2 JUMP JUMPDEST PUSH2 0x1016 CALLER PUSH1 0x0 CALLDATALOAD PUSH32 0xFFFFFFFF00000000000000000000000000000000000000000000000000000000 AND PUSH2 0x1671 JUMP JUMPDEST ISZERO ISZERO PUSH2 0x1021 JUMPI PUSH1 0x0 DUP1 REVERT JUMPDEST DUP1 PUSH1 0x3 PUSH1 0x0 PUSH2 0x100 EXP DUP2 SLOAD DUP2 PUSH20 0xFFFFFFFFFFFFFFFFFFFFFFFFFFFFFFFFFFFFFFFF MUL NOT AND SWAP1 DUP4 PUSH20 0xFFFFFFFFFFFFFFFFFFFFFFFFFFFFFFFFFFFFFFFF AND MUL OR SWAP1 SSTORE POP PUSH1 0x3 PUSH1 0x0 SWAP1 SLOAD SWAP1 PUSH2 0x100 EXP SWAP1 DIV PUSH20 0xFFFFFFFFFFFFFFFFFFFFFFFFFFFFFFFFFFFFFFFF AND PUSH20 0xFFFFFFFFFFFFFFFFFFFFFFFFFFFFFFFFFFFFFFFF AND PUSH32 0x1ABEBEA81BFA2637F28358C371278FB15EDE7EA8DD28D2E03B112FF6D936ADA4 PUSH1 0x40 MLOAD PUSH1 0x40 MLOAD DUP1 SWAP2 SUB SWAP1 LOG2 POP JUMP JUMPDEST PUSH1 0x4 PUSH1 0x0 SWAP1 SLOAD SWAP1 PUSH2 0x100 EXP SWAP1 DIV PUSH20 0xFFFFFFFFFFFFFFFFFFFFFFFFFFFFFFFFFFFFFFFF AND DUP2 JUMP JUMPDEST PUSH1 0x5 SLOAD DUP2 JUMP JUMPDEST PUSH2 0x1124 CALLER PUSH1 0x0 CALLDATALOAD PUSH32 0xFFFFFFFF00000000000000000000000000000000000000000000000000000000 AND PUSH2 0x1671 JUMP JUMPDEST ISZERO ISZERO PUSH2 0x112F JUMPI PUSH1 0x0 DUP1 REVERT JUMPDEST PUSH1 0x4 PUSH1 0x14 SWAP1 SLOAD SWAP1 PUSH2 0x100 EXP SWAP1 DIV PUSH1 0xFF AND ISZERO ISZERO ISZERO PUSH2 0x114B JUMPI PUSH1 0x0 DUP1 REVERT JUMPDEST CALLER PUSH20 0xFFFFFFFFFFFFFFFFFFFFFFFFFFFFFFFFFFFFFFFF AND DUP3 PUSH20 0xFFFFFFFFFFFFFFFFFFFFFFFFFFFFFFFFFFFFFFFF AND EQ ISZERO DUP1 ISZERO PUSH2 0x1223 JUMPI POP PUSH32 0xFFFFFFFFFFFFFFFFFFFFFFFFFFFFFFFFFFFFFFFFFFFFFFFFFFFFFFFFFFFFFFFF PUSH1 0x2 PUSH1 0x0 DUP5 PUSH20 0xFFFFFFFFFFFFFFFFFFFFFFFFFFFFFFFFFFFFFFFF AND PUSH20 0xFFFFFFFFFFFFFFFFFFFFFFFFFFFFFFFFFFFFFFFF AND DUP2 MSTORE PUSH1 0x20 ADD SWAP1 DUP2 MSTORE PUSH1 0x20 ADD PUSH1 0x0 KECCAK256 PUSH1 0x0 CALLER PUSH20 0xFFFFFFFFFFFFFFFFFFFFFFFFFFFFFFFFFFFFFFFF AND PUSH20 0xFFFFFFFFFFFFFFFFFFFFFFFFFFFFFFFFFFFFFFFF AND DUP2 MSTORE PUSH1 0x20 ADD SWAP1 DUP2 MSTORE PUSH1 0x20 ADD PUSH1 0x0 KECCAK256 SLOAD EQ ISZERO JUMPDEST ISZERO PUSH2 0x132F JUMPI PUSH2 0x12AE PUSH1 0x2 PUSH1 0x0 DUP5 PUSH20 0xFFFFFFFFFFFFFFFFFFFFFFFFFFFFFFFFFFFFFFFF AND PUSH20 0xFFFFFFFFFFFFFFFFFFFFFFFFFFFFFFFFFFFFFFFF AND DUP2 MSTORE PUSH1 0x20 ADD SWAP1 DUP2 MSTORE PUSH1 0x20 ADD PUSH1 0x0 KECCAK256 PUSH1 0x0 CALLER PUSH20 0xFFFFFFFFFFFFFFFFFFFFFFFFFFFFFFFFFFFFFFFF AND PUSH20 0xFFFFFFFFFFFFFFFFFFFFFFFFFFFFFFFFFFFFFFFF AND DUP2 MSTORE PUSH1 0x20 ADD SWAP1 DUP2 MSTORE PUSH1 0x20 ADD PUSH1 0x0 KECCAK256 SLOAD DUP3 PUSH2 0x19DC JUMP JUMPDEST PUSH1 0x2 PUSH1 0x0 DUP5 PUSH20 0xFFFFFFFFFFFFFFFFFFFFFFFFFFFFFFFFFFFFFFFF AND PUSH20 0xFFFFFFFFFFFFFFFFFFFFFFFFFFFFFFFFFFFFFFFF AND DUP2 MSTORE PUSH1 0x20 ADD SWAP1 DUP2 MSTORE PUSH1 0x20 ADD PUSH1 0x0 KECCAK256 PUSH1 0x0 CALLER PUSH20 0xFFFFFFFFFFFFFFFFFFFFFFFFFFFFFFFFFFFFFFFF AND PUSH20 0xFFFFFFFFFFFFFFFFFFFFFFFFFFFFFFFFFFFFFFFF AND DUP2 MSTORE PUSH1 0x20 ADD SWAP1 DUP2 MSTORE PUSH1 0x20 ADD PUSH1 0x0 KECCAK256 DUP2 SWAP1 SSTORE POP JUMPDEST PUSH2 0x1378 PUSH1 0x1 PUSH1 0x0 DUP5 PUSH20 0xFFFFFFFFFFFFFFFFFFFFFFFFFFFFFFFFFFFFFFFF AND PUSH20 0xFFFFFFFFFFFFFFFFFFFFFFFFFFFFFFFFFFFFFFFF AND DUP2 MSTORE PUSH1 0x20 ADD SWAP1 DUP2 MSTORE PUSH1 0x20 ADD PUSH1 0x0 KECCAK256 SLOAD DUP3 PUSH2 0x19DC JUMP JUMPDEST PUSH1 0x1 PUSH1 0x0 DUP5 PUSH20 0xFFFFFFFFFFFFFFFFFFFFFFFFFFFFFFFFFFFFFFFF AND PUSH20 0xFFFFFFFFFFFFFFFFFFFFFFFFFFFFFFFFFFFFFFFF AND DUP2 MSTORE PUSH1 0x20 ADD SWAP1 DUP2 MSTORE PUSH1 0x20 ADD PUSH1 0x0 KECCAK256 DUP2 SWAP1 SSTORE POP PUSH2 0x13C7 PUSH1 0x0 SLOAD DUP3 PUSH2 0x19DC JUMP JUMPDEST PUSH1 0x0 DUP2 SWAP1 SSTORE POP DUP2 PUSH20 0xFFFFFFFFFFFFFFFFFFFFFFFFFFFFFFFFFFFFFFFF AND PUSH32 0xCC16F5DBB4873280815C1EE09DBD06736CFFCC184412CF7A71A0FDB75D397CA5 DUP3 PUSH1 0x40 MLOAD DUP1 DUP3 DUP2 MSTORE PUSH1 0x20 ADD SWAP2 POP POP PUSH1 0x40 MLOAD DUP1 SWAP2 SUB SWAP1 LOG2 POP POP JUMP JUMPDEST PUSH2 0x1429 CALLER DUP3 PUSH2 0xDF3 JUMP JUMPDEST POP JUMP JUMPDEST PUSH1 0x0 PUSH2 0x1439 CALLER DUP5 DUP5 PUSH2 0xA63 JUMP JUMPDEST SWAP1 POP SWAP3 SWAP2 POP POP JUMP JUMPDEST PUSH2 0x144C CALLER DUP4 DUP4 PUSH2 0xA63 JUMP JUMPDEST POP POP POP JUMP JUMPDEST PUSH2 0x145C DUP4 DUP4 DUP4 PUSH2 0xA63 JUMP JUMPDEST POP POP POP POP JUMP JUMPDEST PUSH2 0x1490 CALLER PUSH1 0x0 CALLDATALOAD PUSH32 0xFFFFFFFF00000000000000000000000000000000000000000000000000000000 AND PUSH2 0x1671 JUMP JUMPDEST ISZERO ISZERO PUSH2 0x149B JUMPI PUSH1 0x0 DUP1 REVERT JUMPDEST PUSH1 0x0 DUP1 PUSH1 0x4 CALLDATALOAD SWAP2 POP PUSH1 0x24 CALLDATALOAD SWAP1 POP DUP1 PUSH1 0x0 NOT AND DUP3 PUSH1 0x0 NOT AND CALLER PUSH20 0xFFFFFFFFFFFFFFFFFFFFFFFFFFFFFFFFFFFFFFFF AND PUSH1 0x0 CALLDATALOAD PUSH32 0xFFFFFFFF00000000000000000000000000000000000000000000000000000000 AND PUSH28 0xFFFFFFFFFFFFFFFFFFFFFFFFFFFFFFFFFFFFFFFFFFFFFFFFFFFFFFFF NOT AND CALLVALUE PUSH1 0x0 CALLDATASIZE PUSH1 0x40 MLOAD DUP1 DUP5 DUP2 MSTORE PUSH1 0x20 ADD DUP1 PUSH1 0x20 ADD DUP3 DUP2 SUB DUP3 MSTORE DUP5 DUP5 DUP3 DUP2 DUP2 MSTORE PUSH1 0x20 ADD SWAP3 POP DUP1 DUP3 DUP5 CALLDATACOPY DUP3 ADD SWAP2 POP POP SWAP5 POP POP POP POP POP PUSH1 0x40 MLOAD DUP1 SWAP2 SUB SWAP1 LOG4 PUSH1 0x0 PUSH1 0x4 PUSH1 0x14 PUSH2 0x100 EXP DUP2 SLOAD DUP2 PUSH1 0xFF MUL NOT AND SWAP1 DUP4 ISZERO ISZERO MUL OR SWAP1 SSTORE POP POP POP JUMP JUMPDEST PUSH1 0x3 PUSH1 0x0 SWAP1 SLOAD SWAP1 PUSH2 0x100 EXP SWAP1 DIV PUSH20 0xFFFFFFFFFFFFFFFFFFFFFFFFFFFFFFFFFFFFFFFF AND DUP2 JUMP JUMPDEST PUSH1 0x0 PUSH1 0x4 PUSH1 0x14 SWAP1 SLOAD SWAP1 PUSH2 0x100 EXP SWAP1 DIV PUSH1 0xFF AND ISZERO ISZERO ISZERO PUSH2 0x15A9 JUMPI PUSH1 0x0 DUP1 REVERT JUMPDEST PUSH2 0x15D3 DUP3 PUSH32 0xFFFFFFFFFFFFFFFFFFFFFFFFFFFFFFFFFFFFFFFFFFFFFFFFFFFFFFFFFFFFFFFF PUSH2 0x18EA JUMP JUMPDEST SWAP1 POP SWAP2 SWAP1 POP JUMP JUMPDEST PUSH1 0x0 PUSH1 0x2 PUSH1 0x0 DUP5 PUSH20 0xFFFFFFFFFFFFFFFFFFFFFFFFFFFFFFFFFFFFFFFF AND PUSH20 0xFFFFFFFFFFFFFFFFFFFFFFFFFFFFFFFFFFFFFFFF AND DUP2 MSTORE PUSH1 0x20 ADD SWAP1 DUP2 MSTORE PUSH1 0x20 ADD PUSH1 0x0 KECCAK256 PUSH1 0x0 DUP4 PUSH20 0xFFFFFFFFFFFFFFFFFFFFFFFFFFFFFFFFFFFFFFFF AND PUSH20 0xFFFFFFFFFFFFFFFFFFFFFFFFFFFFFFFFFFFFFFFF AND DUP2 MSTORE PUSH1 0x20 ADD SWAP1 DUP2 MSTORE PUSH1 0x20 ADD PUSH1 0x0 KECCAK256 SLOAD SWAP1 POP SWAP3 SWAP2 POP POP JUMP JUMPDEST PUSH2 0x166C DUP3 CALLER DUP4 PUSH2 0xA63 JUMP JUMPDEST POP POP POP JUMP JUMPDEST PUSH1 0x0 ADDRESS PUSH20 0xFFFFFFFFFFFFFFFFFFFFFFFFFFFFFFFFFFFFFFFF AND DUP4 PUSH20 0xFFFFFFFFFFFFFFFFFFFFFFFFFFFFFFFFFFFFFFFF AND EQ ISZERO PUSH2 0x16B0 JUMPI PUSH1 0x1 SWAP1 POP PUSH2 0x18E4 JUMP JUMPDEST PUSH1 0x4 PUSH1 0x0 SWAP1 SLOAD SWAP1 PUSH2 0x100 EXP SWAP1 DIV PUSH20 0xFFFFFFFFFFFFFFFFFFFFFFFFFFFFFFFFFFFFFFFF AND PUSH20 0xFFFFFFFFFFFFFFFFFFFFFFFFFFFFFFFFFFFFFFFF AND DUP4 PUSH20 0xFFFFFFFFFFFFFFFFFFFFFFFFFFFFFFFFFFFFFFFF AND EQ ISZERO PUSH2 0x170F JUMPI PUSH1 0x1 SWAP1 POP PUSH2 0x18E4 JUMP JUMPDEST PUSH1 0x0 PUSH20 0xFFFFFFFFFFFFFFFFFFFFFFFFFFFFFFFFFFFFFFFF AND PUSH1 0x3 PUSH1 0x0 SWAP1 SLOAD SWAP1 PUSH2 0x100 EXP SWAP1 DIV PUSH20 0xFFFFFFFFFFFFFFFFFFFFFFFFFFFFFFFFFFFFFFFF AND PUSH20 0xFFFFFFFFFFFFFFFFFFFFFFFFFFFFFFFFFFFFFFFF AND EQ ISZERO PUSH2 0x176F JUMPI PUSH1 0x0 SWAP1 POP PUSH2 0x18E4 JUMP JUMPDEST PUSH1 0x3 PUSH1 0x0 SWAP1 SLOAD SWAP1 PUSH2 0x100 EXP SWAP1 DIV PUSH20 0xFFFFFFFFFFFFFFFFFFFFFFFFFFFFFFFFFFFFFFFF AND PUSH20 0xFFFFFFFFFFFFFFFFFFFFFFFFFFFFFFFFFFFFFFFF AND PUSH4 0xB7009613 DUP5 ADDRESS DUP6 PUSH1 0x40 MLOAD DUP5 PUSH4 0xFFFFFFFF AND PUSH29 0x100000000000000000000000000000000000000000000000000000000 MUL DUP2 MSTORE PUSH1 0x4 ADD DUP1 DUP5 PUSH20 0xFFFFFFFFFFFFFFFFFFFFFFFFFFFFFFFFFFFFFFFF AND PUSH20 0xFFFFFFFFFFFFFFFFFFFFFFFFFFFFFFFFFFFFFFFF AND DUP2 MSTORE PUSH1 0x20 ADD DUP4 PUSH20 0xFFFFFFFFFFFFFFFFFFFFFFFFFFFFFFFFFFFFFFFF AND PUSH20 0xFFFFFFFFFFFFFFFFFFFFFFFFFFFFFFFFFFFFFFFF AND DUP2 MSTORE PUSH1 0x20 ADD DUP3 PUSH28 0xFFFFFFFFFFFFFFFFFFFFFFFFFFFFFFFFFFFFFFFFFFFFFFFFFFFFFFFF NOT AND PUSH28 0xFFFFFFFFFFFFFFFFFFFFFFFFFFFFFFFFFFFFFFFFFFFFFFFFFFFFFFFF NOT AND DUP2 MSTORE PUSH1 0x20 ADD SWAP4 POP POP POP POP PUSH1 0x20 PUSH1 0x40 MLOAD DUP1 DUP4 SUB DUP2 PUSH1 0x0 DUP8 DUP1 EXTCODESIZE ISZERO DUP1 ISZERO PUSH2 0x18A6 JUMPI PUSH1 0x0 DUP1 REVERT JUMPDEST POP GAS CALL ISZERO DUP1 ISZERO PUSH2 0x18BA JUMPI RETURNDATASIZE PUSH1 0x0 DUP1 RETURNDATACOPY RETURNDATASIZE PUSH1 0x0 REVERT JUMPDEST POP POP POP POP PUSH1 0x40 MLOAD RETURNDATASIZE PUSH1 0x20 DUP2 LT ISZERO PUSH2 0x18D0 JUMPI PUSH1 0x0 DUP1 REVERT JUMPDEST DUP2 ADD SWAP1 DUP1 DUP1 MLOAD SWAP1 PUSH1 0x20 ADD SWAP1 SWAP3 SWAP2 SWAP1 POP POP POP SWAP1 POP JUMPDEST SWAP3 SWAP2 POP POP JUMP JUMPDEST PUSH1 0x0 DUP2 PUSH1 0x2 PUSH1 0x0 CALLER PUSH20 0xFFFFFFFFFFFFFFFFFFFFFFFFFFFFFFFFFFFFFFFF AND PUSH20 0xFFFFFFFFFFFFFFFFFFFFFFFFFFFFFFFFFFFFFFFF AND DUP2 MSTORE PUSH1 0x20 ADD SWAP1 DUP2 MSTORE PUSH1 0x20 ADD PUSH1 0x0 KECCAK256 PUSH1 0x0 DUP6 PUSH20 0xFFFFFFFFFFFFFFFFFFFFFFFFFFFFFFFFFFFFFFFF AND PUSH20 0xFFFFFFFFFFFFFFFFFFFFFFFFFFFFFFFFFFFFFFFF AND DUP2 MSTORE PUSH1 0x20 ADD SWAP1 DUP2 MSTORE PUSH1 0x20 ADD PUSH1 0x0 KECCAK256 DUP2 SWAP1 SSTORE POP DUP3 PUSH20 0xFFFFFFFFFFFFFFFFFFFFFFFFFFFFFFFFFFFFFFFF AND CALLER PUSH20 0xFFFFFFFFFFFFFFFFFFFFFFFFFFFFFFFFFFFFFFFF AND PUSH32 0x8C5BE1E5EBEC7D5BD14F71427D1E84F3DD0314C0F7B2291E5B200AC8C7C3B925 DUP5 PUSH1 0x40 MLOAD DUP1 DUP3 DUP2 MSTORE PUSH1 0x20 ADD SWAP2 POP POP PUSH1 0x40 MLOAD DUP1 SWAP2 SUB SWAP1 LOG3 PUSH1 0x1 SWAP1 POP SWAP3 SWAP2 POP POP JUMP JUMPDEST PUSH1 0x0 DUP3 DUP3 DUP5 SUB SWAP2 POP DUP2 GT ISZERO ISZERO ISZERO PUSH2 0x19F2 JUMPI PUSH1 0x0 DUP1 REVERT JUMPDEST SWAP3 SWAP2 POP POP JUMP JUMPDEST PUSH1 0x0 DUP3 DUP3 DUP5 ADD SWAP2 POP DUP2 LT ISZERO ISZERO ISZERO PUSH2 0x1A0E JUMPI PUSH1 0x0 DUP1 REVERT JUMPDEST SWAP3 SWAP2 POP POP JUMP STOP LOG1 PUSH6 0x627A7A723058 KECCAK256 SWAP12 0xed SWAP13 0x4f 0xe9 0xc1 LOG4 0xf5 0x48 EQ 0xc0 0xba XOR CALLCODE MSTORE XOR 0xb9 MOD 0x27 SSTORE 0xd9 0xce 0xc4 0xe4 PUSH16 0x5A917F8EDABA84002900000000000000 "
				},
				"gasEstimates": {
					"creation": {
						"codeDepositCost": "1344000",
						"executionCost": "78081",
						"totalCost": "1422081"
					},
					"external": {
						"allowance(address,address)": "1190",
						"approve(address)": "23146",
						"approve(address,uint256)": "22735",
						"authority()": "904",
						"balanceOf(address)": "779",
						"burn(address,uint256)": "infinite",
						"burn(uint256)": "infinite",
						"decimals()": "526",
						"mint(address,uint256)": "infinite",
						"mint(uint256)": "infinite",
						"move(address,address,uint256)": "infinite",
						"name()": "412",
						"owner()": "728",
						"pull(address,uint256)": "infinite",
						"push(address,uint256)": "43846",
						"setAuthority(address)": "infinite",
						"setName(bytes32)": "infinite",
						"setOwner(address)": "infinite",
						"start()": "infinite",
						"stop()": "infinite",
						"stopped()": "734",
						"symbol()": "720",
						"totalSupply()": "490",
						"transfer(address,uint256)": "43897",
						"transferFrom(address,address,uint256)": "infinite"
					}
				},
				"methodIdentifiers": {
					"allowance(address,address)": "dd62ed3e",
					"approve(address)": "daea85c5",
					"approve(address,uint256)": "095ea7b3",
					"authority()": "bf7e214f",
					"balanceOf(address)": "70a08231",
					"burn(address,uint256)": "9dc29fac",
					"burn(uint256)": "42966c68",
					"decimals()": "313ce567",
					"mint(address,uint256)": "40c10f19",
					"mint(uint256)": "a0712d68",
					"move(address,address,uint256)": "bb35783b",
					"name()": "06fdde03",
					"owner()": "8da5cb5b",
					"pull(address,uint256)": "f2d5d56b",
					"push(address,uint256)": "b753a98c",
					"setAuthority(address)": "7a9e5e4b",
					"setName(bytes32)": "5ac801fe",
					"setOwner(address)": "13af4035",
					"start()": "be9a6555",
					"stop()": "07da68f5",
					"stopped()": "75f12b21",
					"symbol()": "95d89b41",
					"totalSupply()": "18160ddd",
					"transfer(address,uint256)": "a9059cbb",
					"transferFrom(address,address,uint256)": "23b872dd"
				}
			},
			"userdoc": {
				"methods": {}
			}
		}
	}
}