{
	"contracts/vox.sol": {
		"SaiVox": {
			"abi": [
				{
					"constant": false,
					"inputs": [],
					"name": "prod",
					"outputs": [],
					"payable": false,
					"stateMutability": "nonpayable",
					"type": "function"
				},
				{
					"constant": false,
					"inputs": [
						{
							"name": "owner_",
							"type": "address"
						}
					],
					"name": "setOwner",
					"outputs": [],
					"payable": false,
					"stateMutability": "nonpayable",
					"type": "function"
				},
				{
					"constant": true,
					"inputs": [],
					"name": "era",
					"outputs": [
						{
							"name": "",
							"type": "uint256"
						}
					],
					"payable": false,
					"stateMutability": "view",
					"type": "function"
				},
				{
					"constant": true,
					"inputs": [],
					"name": "how",
					"outputs": [
						{
							"name": "",
							"type": "uint256"
						}
					],
					"payable": false,
					"stateMutability": "view",
					"type": "function"
				},
				{
					"constant": false,
					"inputs": [],
					"name": "par",
					"outputs": [
						{
							"name": "",
							"type": "uint256"
						}
					],
					"payable": false,
					"stateMutability": "nonpayable",
					"type": "function"
				},
				{
					"constant": false,
					"inputs": [
						{
							"name": "ray",
							"type": "uint256"
						}
					],
					"name": "tell",
					"outputs": [],
					"payable": false,
					"stateMutability": "nonpayable",
					"type": "function"
				},
				{
					"constant": false,
					"inputs": [],
					"name": "way",
					"outputs": [
						{
							"name": "",
							"type": "uint256"
						}
					],
					"payable": false,
					"stateMutability": "nonpayable",
					"type": "function"
				},
				{
					"constant": false,
					"inputs": [
						{
							"name": "authority_",
							"type": "address"
						}
					],
					"name": "setAuthority",
					"outputs": [],
					"payable": false,
					"stateMutability": "nonpayable",
					"type": "function"
				},
				{
					"constant": true,
					"inputs": [],
					"name": "owner",
					"outputs": [
						{
							"name": "",
							"type": "address"
						}
					],
					"payable": false,
					"stateMutability": "view",
					"type": "function"
				},
				{
					"constant": false,
					"inputs": [
						{
							"name": "param",
							"type": "bytes32"
						},
						{
							"name": "val",
							"type": "uint256"
						}
					],
					"name": "mold",
					"outputs": [],
					"payable": false,
					"stateMutability": "nonpayable",
					"type": "function"
				},
				{
					"constant": true,
					"inputs": [],
					"name": "fix",
					"outputs": [
						{
							"name": "",
							"type": "uint256"
						}
					],
					"payable": false,
					"stateMutability": "view",
					"type": "function"
				},
				{
					"constant": false,
					"inputs": [
						{
							"name": "ray",
							"type": "uint256"
						}
					],
					"name": "tune",
					"outputs": [],
					"payable": false,
					"stateMutability": "nonpayable",
					"type": "function"
				},
				{
					"constant": true,
					"inputs": [],
					"name": "authority",
					"outputs": [
						{
							"name": "",
							"type": "address"
						}
					],
					"payable": false,
					"stateMutability": "view",
					"type": "function"
				},
				{
					"constant": true,
					"inputs": [],
					"name": "tau",
					"outputs": [
						{
							"name": "",
							"type": "uint256"
						}
					],
					"payable": false,
					"stateMutability": "view",
					"type": "function"
				},
				{
					"inputs": [
						{
							"name": "par_",
							"type": "uint256"
						}
					],
					"payable": false,
					"stateMutability": "nonpayable",
					"type": "constructor"
				},
				{
					"anonymous": true,
					"inputs": [
						{
							"indexed": true,
							"name": "sig",
							"type": "bytes4"
						},
						{
							"indexed": true,
							"name": "guy",
							"type": "address"
						},
						{
							"indexed": true,
							"name": "foo",
							"type": "bytes32"
						},
						{
							"indexed": true,
							"name": "bar",
							"type": "bytes32"
						},
						{
							"indexed": false,
							"name": "wad",
							"type": "uint256"
						},
						{
							"indexed": false,
							"name": "fax",
							"type": "bytes"
						}
					],
					"name": "LogNote",
					"type": "event"
				},
				{
					"anonymous": false,
					"inputs": [
						{
							"indexed": true,
							"name": "authority",
							"type": "address"
						}
					],
					"name": "LogSetAuthority",
					"type": "event"
				},
				{
					"anonymous": false,
					"inputs": [
						{
							"indexed": true,
							"name": "owner",
							"type": "address"
						}
					],
					"name": "LogSetOwner",
					"type": "event"
				}
			],
			"devdoc": {
				"methods": {}
			},
			"evm": {
				"assembly": "    /* \"contracts/vox.sol\":934:2421  contract SaiVox is DSThing {... */\n  mstore(0x40, 0x80)\n    /* \"contracts/vox.sol\":1085:1195  function SaiVox(uint par_) public {... */\n  callvalue\n    /* \"--CODEGEN--\":8:17   */\n  dup1\n    /* \"--CODEGEN--\":5:7   */\n  iszero\n  tag_1\n  jumpi\n    /* \"--CODEGEN--\":30:31   */\n  0x0\n    /* \"--CODEGEN--\":27:28   */\n  dup1\n    /* \"--CODEGEN--\":20:32   */\n  revert\n    /* \"--CODEGEN--\":5:7   */\ntag_1:\n    /* \"contracts/vox.sol\":1085:1195  function SaiVox(uint par_) public {... */\n  pop\n  mload(0x40)\n  0x20\n  dup1\n  bytecodeSize\n  dup4\n  codecopy\n  dup2\n  add\n  dup1\n  0x40\n  mstore\n  dup2\n  add\n  swap1\n  dup1\n  dup1\n  mload\n  swap1\n  0x20\n  add\n  swap1\n  swap3\n  swap2\n  swap1\n  pop\n  pop\n  pop\n    /* \"contracts/ds-auth/auth.sol\":1106:1116  msg.sender */\n  caller\n    /* \"contracts/ds-auth/auth.sol\":1098:1103  owner */\n  0x1\n  0x0\n    /* \"contracts/ds-auth/auth.sol\":1098:1116  owner = msg.sender */\n  0x100\n  exp\n  dup2\n  sload\n  dup2\n  0xffffffffffffffffffffffffffffffffffffffff\n  mul\n  not\n  and\n  swap1\n  dup4\n  0xffffffffffffffffffffffffffffffffffffffff\n  and\n  mul\n  or\n  swap1\n  sstore\n  pop\n    /* \"contracts/ds-auth/auth.sol\":1143:1153  msg.sender */\n  caller\n    /* \"contracts/ds-auth/auth.sol\":1131:1154  LogSetOwner(msg.sender) */\n  0xffffffffffffffffffffffffffffffffffffffff\n  and\n  0xce241d7ca1f669fee44b6fc00b8eba2df3bb514eed0f6f668f8f89096e81ed94\n  mload(0x40)\n  mload(0x40)\n  dup1\n  swap2\n  sub\n  swap1\n  log2\n    /* \"contracts/vox.sol\":1142:1146  par_ */\n  dup1\n    /* \"contracts/vox.sol\":1136:1139  fix */\n  0x4\n    /* \"contracts/vox.sol\":1136:1146  fix = par_ */\n  dup2\n  swap1\n  sstore\n    /* \"contracts/vox.sol\":1129:1133  _par */\n  0x2\n    /* \"contracts/vox.sol\":1129:1146  _par = fix = par_ */\n  dup2\n  swap1\n  sstore\n  pop\n    /* \"contracts/ds-math/math.sol\":1543:1551  10 ** 27 */\n  0x33b2e3c9fd0803ce8000000\n    /* \"contracts/vox.sol\":1156:1160  _way */\n  0x3\n    /* \"contracts/vox.sol\":1156:1166  _way = RAY */\n  dup2\n  swap1\n  sstore\n  pop\n    /* \"contracts/vox.sol\":1183:1188  era() */\n  tag_6\n    /* \"contracts/vox.sol\":1183:1186  era */\n  mul(0x100000000, tag_7)\n    /* \"contracts/vox.sol\":1183:1188  era() */\n  0x100000000\n  swap1\n  div\n  jump\t// in\ntag_6:\n    /* \"contracts/vox.sol\":1176:1179  tau */\n  0x6\n    /* \"contracts/vox.sol\":1176:1188  tau  = era() */\n  dup2\n  swap1\n  sstore\n  pop\n    /* \"contracts/vox.sol\":1085:1195  function SaiVox(uint par_) public {... */\n  pop\n    /* \"contracts/vox.sol\":934:2421  contract SaiVox is DSThing {... */\n  jump(tag_8)\n    /* \"contracts/vox.sol\":1201:1282  function era() public view returns (uint) {... */\ntag_7:\n    /* \"contracts/vox.sol\":1237:1241  uint */\n  0x0\n    /* \"contracts/vox.sol\":1260:1275  block.timestamp */\n  timestamp\n    /* \"contracts/vox.sol\":1253:1275  return block.timestamp */\n  swap1\n  pop\n    /* \"contracts/vox.sol\":1201:1282  function era() public view returns (uint) {... */\n  swap1\n  jump\t// out\n    /* \"contracts/vox.sol\":934:2421  contract SaiVox is DSThing {... */\ntag_8:\n  dataSize(sub_0)\n  dup1\n  dataOffset(sub_0)\n  0x0\n  codecopy\n  0x0\n  return\nstop\n\nsub_0: assembly {\n        /* \"contracts/vox.sol\":934:2421  contract SaiVox is DSThing {... */\n      mstore(0x40, 0x80)\n      jumpi(tag_1, lt(calldatasize, 0x4))\n      calldataload(0x0)\n      0x100000000000000000000000000000000000000000000000000000000\n      swap1\n      div\n      0xffffffff\n      and\n      dup1\n      0x302c688\n      eq\n      tag_2\n      jumpi\n      dup1\n      0x13af4035\n      eq\n      tag_3\n      jumpi\n      dup1\n      0x143e55e0\n      eq\n      tag_4\n      jumpi\n      dup1\n      0x3a4a4233\n      eq\n      tag_5\n      jumpi\n      dup1\n      0x495d32cb\n      eq\n      tag_6\n      jumpi\n      dup1\n      0x55deb8fc\n      eq\n      tag_7\n      jumpi\n      dup1\n      0x5d6542af\n      eq\n      tag_8\n      jumpi\n      dup1\n      0x7a9e5e4b\n      eq\n      tag_9\n      jumpi\n      dup1\n      0x8da5cb5b\n      eq\n      tag_10\n      jumpi\n      dup1\n      0x92b0d721\n      eq\n      tag_11\n      jumpi\n      dup1\n      0xa551878e\n      eq\n      tag_12\n      jumpi\n      dup1\n      0xbecda0ea\n      eq\n      tag_13\n      jumpi\n      dup1\n      0xbf7e214f\n      eq\n      tag_14\n      jumpi\n      dup1\n      0xcfc4af55\n      eq\n      tag_15\n      jumpi\n    tag_1:\n      0x0\n      dup1\n      revert\n        /* \"contracts/vox.sol\":1759:2107  function prod() public note {... */\n    tag_2:\n      callvalue\n        /* \"--CODEGEN--\":8:17   */\n      dup1\n        /* \"--CODEGEN--\":5:7   */\n      iszero\n      tag_16\n      jumpi\n        /* \"--CODEGEN--\":30:31   */\n      0x0\n        /* \"--CODEGEN--\":27:28   */\n      dup1\n        /* \"--CODEGEN--\":20:32   */\n      revert\n        /* \"--CODEGEN--\":5:7   */\n    tag_16:\n        /* \"contracts/vox.sol\":1759:2107  function prod() public note {... */\n      pop\n      tag_17\n      jump(tag_18)\n    tag_17:\n      stop\n        /* \"contracts/ds-auth/auth.sol\":1167:1297  function setOwner(address owner_)... */\n    tag_3:\n      callvalue\n        /* \"--CODEGEN--\":8:17   */\n      dup1\n        /* \"--CODEGEN--\":5:7   */\n      iszero\n      tag_19\n      jumpi\n        /* \"--CODEGEN--\":30:31   */\n      0x0\n        /* \"--CODEGEN--\":27:28   */\n      dup1\n        /* \"--CODEGEN--\":20:32   */\n      revert\n        /* \"--CODEGEN--\":5:7   */\n    tag_19:\n        /* \"contracts/ds-auth/auth.sol\":1167:1297  function setOwner(address owner_)... */\n      pop\n      tag_20\n      0x4\n      dup1\n      calldatasize\n      sub\n      dup2\n      add\n      swap1\n      dup1\n      dup1\n      calldataload\n      0xffffffffffffffffffffffffffffffffffffffff\n      and\n      swap1\n      0x20\n      add\n      swap1\n      swap3\n      swap2\n      swap1\n      pop\n      pop\n      pop\n      jump(tag_21)\n    tag_20:\n      stop\n        /* \"contracts/vox.sol\":1201:1282  function era() public view returns (uint) {... */\n    tag_4:\n      callvalue\n        /* \"--CODEGEN--\":8:17   */\n      dup1\n        /* \"--CODEGEN--\":5:7   */\n      iszero\n      tag_22\n      jumpi\n        /* \"--CODEGEN--\":30:31   */\n      0x0\n        /* \"--CODEGEN--\":27:28   */\n      dup1\n        /* \"--CODEGEN--\":20:32   */\n      revert\n        /* \"--CODEGEN--\":5:7   */\n    tag_22:\n        /* \"contracts/vox.sol\":1201:1282  function era() public view returns (uint) {... */\n      pop\n      tag_23\n      jump(tag_24)\n    tag_23:\n      mload(0x40)\n      dup1\n      dup3\n      dup2\n      mstore\n      0x20\n      add\n      swap2\n      pop\n      pop\n      mload(0x40)\n      dup1\n      swap2\n      sub\n      swap1\n      return\n        /* \"contracts/vox.sol\":1032:1052  uint256  public  how */\n    tag_5:\n      callvalue\n        /* \"--CODEGEN--\":8:17   */\n      dup1\n        /* \"--CODEGEN--\":5:7   */\n      iszero\n      tag_25\n      jumpi\n        /* \"--CODEGEN--\":30:31   */\n      0x0\n        /* \"--CODEGEN--\":27:28   */\n      dup1\n        /* \"--CODEGEN--\":20:32   */\n      revert\n        /* \"--CODEGEN--\":5:7   */\n    tag_25:\n        /* \"contracts/vox.sol\":1032:1052  uint256  public  how */\n      pop\n      tag_26\n      jump(tag_27)\n    tag_26:\n      mload(0x40)\n      dup1\n      dup3\n      dup2\n      mstore\n      0x20\n      add\n      swap2\n      pop\n      pop\n      mload(0x40)\n      dup1\n      swap2\n      sub\n      swap1\n      return\n        /* \"contracts/vox.sol\":1435:1516  function par() public returns (uint) {... */\n    tag_6:\n      callvalue\n        /* \"--CODEGEN--\":8:17   */\n      dup1\n        /* \"--CODEGEN--\":5:7   */\n      iszero\n      tag_28\n      jumpi\n        /* \"--CODEGEN--\":30:31   */\n      0x0\n        /* \"--CODEGEN--\":27:28   */\n      dup1\n        /* \"--CODEGEN--\":20:32   */\n      revert\n        /* \"--CODEGEN--\":5:7   */\n    tag_28:\n        /* \"contracts/vox.sol\":1435:1516  function par() public returns (uint) {... */\n      pop\n      tag_29\n      jump(tag_30)\n    tag_29:\n      mload(0x40)\n      dup1\n      dup3\n      dup2\n      mstore\n      0x20\n      add\n      swap2\n      pop\n      pop\n      mload(0x40)\n      dup1\n      swap2\n      sub\n      swap1\n      return\n        /* \"contracts/vox.sol\":1608:1678  function tell(uint256 ray) public note auth {... */\n    tag_7:\n      callvalue\n        /* \"--CODEGEN--\":8:17   */\n      dup1\n        /* \"--CODEGEN--\":5:7   */\n      iszero\n      tag_31\n      jumpi\n        /* \"--CODEGEN--\":30:31   */\n      0x0\n        /* \"--CODEGEN--\":27:28   */\n      dup1\n        /* \"--CODEGEN--\":20:32   */\n      revert\n        /* \"--CODEGEN--\":5:7   */\n    tag_31:\n        /* \"contracts/vox.sol\":1608:1678  function tell(uint256 ray) public note auth {... */\n      pop\n      tag_32\n      0x4\n      dup1\n      calldatasize\n      sub\n      dup2\n      add\n      swap1\n      dup1\n      dup1\n      calldataload\n      swap1\n      0x20\n      add\n      swap1\n      swap3\n      swap2\n      swap1\n      pop\n      pop\n      pop\n      jump(tag_33)\n    tag_32:\n      stop\n        /* \"contracts/vox.sol\":1521:1602  function way() public returns (uint) {... */\n    tag_8:\n      callvalue\n        /* \"--CODEGEN--\":8:17   */\n      dup1\n        /* \"--CODEGEN--\":5:7   */\n      iszero\n      tag_34\n      jumpi\n        /* \"--CODEGEN--\":30:31   */\n      0x0\n        /* \"--CODEGEN--\":27:28   */\n      dup1\n        /* \"--CODEGEN--\":20:32   */\n      revert\n        /* \"--CODEGEN--\":5:7   */\n    tag_34:\n        /* \"contracts/vox.sol\":1521:1602  function way() public returns (uint) {... */\n      pop\n      tag_35\n      jump(tag_36)\n    tag_35:\n      mload(0x40)\n      dup1\n      dup3\n      dup2\n      mstore\n      0x20\n      add\n      swap2\n      pop\n      pop\n      mload(0x40)\n      dup1\n      swap2\n      sub\n      swap1\n      return\n        /* \"contracts/ds-auth/auth.sol\":1303:1470  function setAuthority(DSAuthority authority_)... */\n    tag_9:\n      callvalue\n        /* \"--CODEGEN--\":8:17   */\n      dup1\n        /* \"--CODEGEN--\":5:7   */\n      iszero\n      tag_37\n      jumpi\n        /* \"--CODEGEN--\":30:31   */\n      0x0\n        /* \"--CODEGEN--\":27:28   */\n      dup1\n        /* \"--CODEGEN--\":20:32   */\n      revert\n        /* \"--CODEGEN--\":5:7   */\n    tag_37:\n        /* \"contracts/ds-auth/auth.sol\":1303:1470  function setAuthority(DSAuthority authority_)... */\n      pop\n      tag_38\n      0x4\n      dup1\n      calldatasize\n      sub\n      dup2\n      add\n      swap1\n      dup1\n      dup1\n      calldataload\n      0xffffffffffffffffffffffffffffffffffffffff\n      and\n      swap1\n      0x20\n      add\n      swap1\n      swap3\n      swap2\n      swap1\n      pop\n      pop\n      pop\n      jump(tag_39)\n    tag_38:\n      stop\n        /* \"contracts/ds-auth/auth.sol\":1039:1060  address public  owner */\n    tag_10:\n      callvalue\n        /* \"--CODEGEN--\":8:17   */\n      dup1\n        /* \"--CODEGEN--\":5:7   */\n      iszero\n      tag_40\n      jumpi\n        /* \"--CODEGEN--\":30:31   */\n      0x0\n        /* \"--CODEGEN--\":27:28   */\n      dup1\n        /* \"--CODEGEN--\":20:32   */\n      revert\n        /* \"--CODEGEN--\":5:7   */\n    tag_40:\n        /* \"contracts/ds-auth/auth.sol\":1039:1060  address public  owner */\n      pop\n      tag_41\n      jump(tag_42)\n    tag_41:\n      mload(0x40)\n      dup1\n      dup3\n      0xffffffffffffffffffffffffffffffffffffffff\n      and\n      0xffffffffffffffffffffffffffffffffffffffff\n      and\n      dup2\n      mstore\n      0x20\n      add\n      swap2\n      pop\n      pop\n      mload(0x40)\n      dup1\n      swap2\n      sub\n      swap1\n      return\n        /* \"contracts/vox.sol\":1288:1391  function mold(bytes32 param, uint val) public note auth {... */\n    tag_11:\n      callvalue\n        /* \"--CODEGEN--\":8:17   */\n      dup1\n        /* \"--CODEGEN--\":5:7   */\n      iszero\n      tag_43\n      jumpi\n        /* \"--CODEGEN--\":30:31   */\n      0x0\n        /* \"--CODEGEN--\":27:28   */\n      dup1\n        /* \"--CODEGEN--\":20:32   */\n      revert\n        /* \"--CODEGEN--\":5:7   */\n    tag_43:\n        /* \"contracts/vox.sol\":1288:1391  function mold(bytes32 param, uint val) public note auth {... */\n      pop\n      tag_44\n      0x4\n      dup1\n      calldatasize\n      sub\n      dup2\n      add\n      swap1\n      dup1\n      dup1\n      calldataload\n      not(0x0)\n      and\n      swap1\n      0x20\n      add\n      swap1\n      swap3\n      swap2\n      swap1\n      dup1\n      calldataload\n      swap1\n      0x20\n      add\n      swap1\n      swap3\n      swap2\n      swap1\n      pop\n      pop\n      pop\n      jump(tag_45)\n    tag_44:\n      stop\n        /* \"contracts/vox.sol\":1006:1026  uint256  public  fix */\n    tag_12:\n      callvalue\n        /* \"--CODEGEN--\":8:17   */\n      dup1\n        /* \"--CODEGEN--\":5:7   */\n      iszero\n      tag_46\n      jumpi\n        /* \"--CODEGEN--\":30:31   */\n      0x0\n        /* \"--CODEGEN--\":27:28   */\n      dup1\n        /* \"--CODEGEN--\":20:32   */\n      revert\n        /* \"--CODEGEN--\":5:7   */\n    tag_46:\n        /* \"contracts/vox.sol\":1006:1026  uint256  public  fix */\n      pop\n      tag_47\n      jump(tag_48)\n    tag_47:\n      mload(0x40)\n      dup1\n      dup3\n      dup2\n      mstore\n      0x20\n      add\n      swap2\n      pop\n      pop\n      mload(0x40)\n      dup1\n      swap2\n      sub\n      swap1\n      return\n        /* \"contracts/vox.sol\":1683:1753  function tune(uint256 ray) public note auth {... */\n    tag_13:\n      callvalue\n        /* \"--CODEGEN--\":8:17   */\n      dup1\n        /* \"--CODEGEN--\":5:7   */\n      iszero\n      tag_49\n      jumpi\n        /* \"--CODEGEN--\":30:31   */\n      0x0\n        /* \"--CODEGEN--\":27:28   */\n      dup1\n        /* \"--CODEGEN--\":20:32   */\n      revert\n        /* \"--CODEGEN--\":5:7   */\n    tag_49:\n        /* \"contracts/vox.sol\":1683:1753  function tune(uint256 ray) public note auth {... */\n      pop\n      tag_50\n      0x4\n      dup1\n      calldatasize\n      sub\n      dup2\n      add\n      swap1\n      dup1\n      dup1\n      calldataload\n      swap1\n      0x20\n      add\n      swap1\n      swap3\n      swap2\n      swap1\n      pop\n      pop\n      pop\n      jump(tag_51)\n    tag_50:\n      stop\n        /* \"contracts/ds-auth/auth.sol\":1005:1033  DSAuthority public authority */\n    tag_14:\n      callvalue\n        /* \"--CODEGEN--\":8:17   */\n      dup1\n        /* \"--CODEGEN--\":5:7   */\n      iszero\n      tag_52\n      jumpi\n        /* \"--CODEGEN--\":30:31   */\n      0x0\n        /* \"--CODEGEN--\":27:28   */\n      dup1\n        /* \"--CODEGEN--\":20:32   */\n      revert\n        /* \"--CODEGEN--\":5:7   */\n    tag_52:\n        /* \"contracts/ds-auth/auth.sol\":1005:1033  DSAuthority public authority */\n      pop\n      tag_53\n      jump(tag_54)\n    tag_53:\n      mload(0x40)\n      dup1\n      dup3\n      0xffffffffffffffffffffffffffffffffffffffff\n      and\n      0xffffffffffffffffffffffffffffffffffffffff\n      and\n      dup2\n      mstore\n      0x20\n      add\n      swap2\n      pop\n      pop\n      mload(0x40)\n      dup1\n      swap2\n      sub\n      swap1\n      return\n        /* \"contracts/vox.sol\":1058:1078  uint256  public  tau */\n    tag_15:\n      callvalue\n        /* \"--CODEGEN--\":8:17   */\n      dup1\n        /* \"--CODEGEN--\":5:7   */\n      iszero\n      tag_55\n      jumpi\n        /* \"--CODEGEN--\":30:31   */\n      0x0\n        /* \"--CODEGEN--\":27:28   */\n      dup1\n        /* \"--CODEGEN--\":20:32   */\n      revert\n        /* \"--CODEGEN--\":5:7   */\n    tag_55:\n        /* \"contracts/vox.sol\":1058:1078  uint256  public  tau */\n      pop\n      tag_56\n      jump(tag_57)\n    tag_56:\n      mload(0x40)\n      dup1\n      dup3\n      dup2\n      mstore\n      0x20\n      add\n      swap2\n      pop\n      pop\n      mload(0x40)\n      dup1\n      swap2\n      sub\n      swap1\n      return\n        /* \"contracts/vox.sol\":1759:2107  function prod() public note {... */\n    tag_18:\n        /* \"contracts/vox.sol\":1797:1804  var age */\n      0x0\n        /* \"contracts/vox.sol\":2014:2021  var wag */\n      dup1\n        /* \"contracts/ds-note/note.sol\":1003:1014  bytes32 foo */\n      0x0\n        /* \"contracts/ds-note/note.sol\":1024:1035  bytes32 bar */\n      dup1\n        /* \"contracts/ds-note/note.sol\":1089:1090  4 */\n      0x4\n        /* \"contracts/ds-note/note.sol\":1076:1091  calldataload(4) */\n      calldataload\n        /* \"contracts/ds-note/note.sol\":1069:1091  foo := calldataload(4) */\n      swap2\n      pop\n        /* \"contracts/ds-note/note.sol\":1124:1126  36 */\n      0x24\n        /* \"contracts/ds-note/note.sol\":1111:1127  calldataload(36) */\n      calldataload\n        /* \"contracts/ds-note/note.sol\":1104:1127  bar := calldataload(36) */\n      swap1\n      pop\n        /* \"contracts/ds-note/note.sol\":1181:1184  bar */\n      dup1\n        /* \"contracts/ds-note/note.sol\":1147:1206  LogNote(msg.sig, msg.sender, foo, bar, msg.value, msg.data) */\n      not(0x0)\n      and\n        /* \"contracts/ds-note/note.sol\":1176:1179  foo */\n      dup3\n        /* \"contracts/ds-note/note.sol\":1147:1206  LogNote(msg.sig, msg.sender, foo, bar, msg.value, msg.data) */\n      not(0x0)\n      and\n        /* \"contracts/ds-note/note.sol\":1164:1174  msg.sender */\n      caller\n        /* \"contracts/ds-note/note.sol\":1147:1206  LogNote(msg.sig, msg.sender, foo, bar, msg.value, msg.data) */\n      0xffffffffffffffffffffffffffffffffffffffff\n      and\n        /* \"contracts/ds-note/note.sol\":1155:1162  msg.sig */\n      and(0xffffffff00000000000000000000000000000000000000000000000000000000, calldataload(0x0))\n        /* \"contracts/ds-note/note.sol\":1147:1206  LogNote(msg.sig, msg.sender, foo, bar, msg.value, msg.data) */\n      not(0xffffffffffffffffffffffffffffffffffffffffffffffffffffffff)\n      and\n        /* \"contracts/ds-note/note.sol\":1186:1195  msg.value */\n      callvalue\n        /* \"contracts/ds-note/note.sol\":1197:1205  msg.data */\n      0x0\n      calldatasize\n        /* \"contracts/ds-note/note.sol\":1147:1206  LogNote(msg.sig, msg.sender, foo, bar, msg.value, msg.data) */\n      mload(0x40)\n      dup1\n      dup5\n      dup2\n      mstore\n      0x20\n      add\n      dup1\n      0x20\n      add\n      dup3\n      dup2\n      sub\n      dup3\n      mstore\n      dup5\n      dup5\n      dup3\n      dup2\n      dup2\n      mstore\n      0x20\n      add\n      swap3\n      pop\n      dup1\n      dup3\n      dup5\n      calldatacopy\n      dup3\n      add\n      swap2\n      pop\n      pop\n      swap5\n      pop\n      pop\n      pop\n      pop\n      pop\n      mload(0x40)\n      dup1\n      swap2\n      sub\n      swap1\n      log4\n        /* \"contracts/vox.sol\":1815:1818  tau */\n      sload(0x6)\n        /* \"contracts/vox.sol\":1807:1812  era() */\n      tag_60\n        /* \"contracts/vox.sol\":1807:1810  era */\n      tag_24\n        /* \"contracts/vox.sol\":1807:1812  era() */\n      jump\t// in\n    tag_60:\n        /* \"contracts/vox.sol\":1807:1818  era() - tau */\n      sub\n        /* \"contracts/vox.sol\":1797:1818  var age = era() - tau */\n      swap4\n      pop\n        /* \"contracts/vox.sol\":1839:1840  0 */\n      0x0\n        /* \"contracts/vox.sol\":1832:1835  age */\n      dup5\n        /* \"contracts/vox.sol\":1832:1840  age == 0 */\n      eq\n        /* \"contracts/vox.sol\":1828:1849  if (age == 0) return; */\n      iszero\n      tag_61\n      jumpi\n        /* \"contracts/vox.sol\":1842:1849  return; */\n      jump(tag_59)\n        /* \"contracts/vox.sol\":1828:1849  if (age == 0) return; */\n    tag_61:\n        /* \"contracts/vox.sol\":1878:1883  era() */\n      tag_62\n        /* \"contracts/vox.sol\":1878:1881  era */\n      tag_24\n        /* \"contracts/vox.sol\":1878:1883  era() */\n      jump\t// in\n    tag_62:\n        /* \"contracts/vox.sol\":1872:1875  tau */\n      0x6\n        /* \"contracts/vox.sol\":1872:1883  tau = era() */\n      dup2\n      swap1\n      sstore\n      pop\n        /* \"contracts/ds-math/math.sol\":1543:1551  10 ** 27 */\n      0x33b2e3c9fd0803ce8000000\n        /* \"contracts/vox.sol\":1898:1902  _way */\n      sload(0x3)\n        /* \"contracts/vox.sol\":1898:1909  _way != RAY */\n      eq\n      iszero\n        /* \"contracts/vox.sol\":1894:1945  if (_way != RAY) _par = rmul(_par, rpow(_way, age)) */\n      iszero\n      tag_63\n      jumpi\n        /* \"contracts/vox.sol\":1918:1945  rmul(_par, rpow(_way, age)) */\n      tag_64\n        /* \"contracts/vox.sol\":1923:1927  _par */\n      sload(0x2)\n        /* \"contracts/vox.sol\":1929:1944  rpow(_way, age) */\n      tag_65\n        /* \"contracts/vox.sol\":1934:1938  _way */\n      sload(0x3)\n        /* \"contracts/vox.sol\":1940:1943  age */\n      dup8\n        /* \"contracts/vox.sol\":1929:1933  rpow */\n      tag_66\n        /* \"contracts/vox.sol\":1929:1944  rpow(_way, age) */\n      jump\t// in\n    tag_65:\n        /* \"contracts/vox.sol\":1918:1922  rmul */\n      tag_67\n        /* \"contracts/vox.sol\":1918:1945  rmul(_par, rpow(_way, age)) */\n      jump\t// in\n    tag_64:\n        /* \"contracts/vox.sol\":1911:1915  _par */\n      0x2\n        /* \"contracts/vox.sol\":1911:1945  _par = rmul(_par, rpow(_way, age)) */\n      dup2\n      swap1\n      sstore\n      pop\n        /* \"contracts/vox.sol\":1894:1945  if (_way != RAY) _par = rmul(_par, rpow(_way, age)) */\n    tag_63:\n        /* \"contracts/vox.sol\":1981:1982  0 */\n      0x0\n        /* \"contracts/vox.sol\":1974:1977  how */\n      sload(0x5)\n        /* \"contracts/vox.sol\":1974:1982  how == 0 */\n      eq\n        /* \"contracts/vox.sol\":1970:1991  if (how == 0) return; */\n      iszero\n      tag_68\n      jumpi\n        /* \"contracts/vox.sol\":1984:1991  return; */\n      jump(tag_59)\n        /* \"contracts/vox.sol\":1970:1991  if (how == 0) return; */\n    tag_68:\n        /* \"contracts/vox.sol\":2037:2040  age */\n      dup4\n        /* \"contracts/vox.sol\":2031:2034  how */\n      sload(0x5)\n        /* \"contracts/vox.sol\":2031:2040  how * age */\n      mul\n        /* \"contracts/vox.sol\":2014:2041  var wag = int128(how * age) */\n      swap3\n      pop\n        /* \"contracts/vox.sol\":2058:2100  inj(prj(_way) + (fix < _par ? wag : -wag)) */\n      tag_69\n        /* \"contracts/vox.sol\":2081:2085  _par */\n      sload(0x2)\n        /* \"contracts/vox.sol\":2075:2078  fix */\n      sload(0x4)\n        /* \"contracts/vox.sol\":2075:2085  fix < _par */\n      lt\n        /* \"contracts/vox.sol\":2075:2098  fix < _par ? wag : -wag */\n      tag_70\n      jumpi\n        /* \"contracts/vox.sol\":2095:2098  wag */\n      dup4\n        /* \"contracts/vox.sol\":2094:2098  -wag */\n      0x0\n      sub\n        /* \"contracts/vox.sol\":2075:2098  fix < _par ? wag : -wag */\n      jump(tag_71)\n    tag_70:\n        /* \"contracts/vox.sol\":2088:2091  wag */\n      dup4\n        /* \"contracts/vox.sol\":2075:2098  fix < _par ? wag : -wag */\n    tag_71:\n        /* \"contracts/vox.sol\":2062:2071  prj(_way) */\n      tag_72\n        /* \"contracts/vox.sol\":2066:2070  _way */\n      sload(0x3)\n        /* \"contracts/vox.sol\":2062:2065  prj */\n      tag_73\n        /* \"contracts/vox.sol\":2062:2071  prj(_way) */\n      jump\t// in\n    tag_72:\n        /* \"contracts/vox.sol\":2062:2099  prj(_way) + (fix < _par ? wag : -wag) */\n      add\n        /* \"contracts/vox.sol\":2058:2061  inj */\n      tag_74\n        /* \"contracts/vox.sol\":2058:2100  inj(prj(_way) + (fix < _par ? wag : -wag)) */\n      jump\t// in\n    tag_69:\n        /* \"contracts/vox.sol\":2051:2055  _way */\n      0x3\n        /* \"contracts/vox.sol\":2051:2100  _way = inj(prj(_way) + (fix < _par ? wag : -wag)) */\n      dup2\n      swap1\n      sstore\n      pop\n        /* \"contracts/ds-note/note.sol\":1217:1218  _ */\n    tag_59:\n        /* \"contracts/vox.sol\":1759:2107  function prod() public note {... */\n      pop\n      pop\n      pop\n      pop\n      jump\t// out\n        /* \"contracts/ds-auth/auth.sol\":1167:1297  function setOwner(address owner_)... */\n    tag_21:\n        /* \"contracts/ds-auth/auth.sol\":1508:1541  isAuthorized(msg.sender, msg.sig) */\n      tag_76\n        /* \"contracts/ds-auth/auth.sol\":1521:1531  msg.sender */\n      caller\n        /* \"contracts/ds-auth/auth.sol\":1533:1540  msg.sig */\n      and(0xffffffff00000000000000000000000000000000000000000000000000000000, calldataload(0x0))\n        /* \"contracts/ds-auth/auth.sol\":1508:1520  isAuthorized */\n      tag_77\n        /* \"contracts/ds-auth/auth.sol\":1508:1541  isAuthorized(msg.sender, msg.sig) */\n      jump\t// in\n    tag_76:\n        /* \"contracts/ds-auth/auth.sol\":1500:1566  require(isAuthorized(msg.sender, msg.sig), \"ds-auth-unauthorized\") */\n      iszero\n      iszero\n      tag_78\n      jumpi\n      mload(0x40)\n      0x8c379a000000000000000000000000000000000000000000000000000000000\n      dup2\n      mstore\n      0x4\n      add\n      dup1\n      dup1\n      0x20\n      add\n      dup3\n      dup2\n      sub\n      dup3\n      mstore\n      0x14\n      dup2\n      mstore\n      0x20\n      add\n      dup1\n      0x64732d617574682d756e617574686f72697a6564000000000000000000000000\n      dup2\n      mstore\n      pop\n      0x20\n      add\n      swap2\n      pop\n      pop\n      mload(0x40)\n      dup1\n      swap2\n      sub\n      swap1\n      revert\n    tag_78:\n        /* \"contracts/ds-auth/auth.sol\":1251:1257  owner_ */\n      dup1\n        /* \"contracts/ds-auth/auth.sol\":1243:1248  owner */\n      0x1\n      0x0\n        /* \"contracts/ds-auth/auth.sol\":1243:1257  owner = owner_ */\n      0x100\n      exp\n      dup2\n      sload\n      dup2\n      0xffffffffffffffffffffffffffffffffffffffff\n      mul\n      not\n      and\n      swap1\n      dup4\n      0xffffffffffffffffffffffffffffffffffffffff\n      and\n      mul\n      or\n      swap1\n      sstore\n      pop\n        /* \"contracts/ds-auth/auth.sol\":1284:1289  owner */\n      0x1\n      0x0\n      swap1\n      sload\n      swap1\n      0x100\n      exp\n      swap1\n      div\n      0xffffffffffffffffffffffffffffffffffffffff\n      and\n        /* \"contracts/ds-auth/auth.sol\":1272:1290  LogSetOwner(owner) */\n      0xffffffffffffffffffffffffffffffffffffffff\n      and\n      0xce241d7ca1f669fee44b6fc00b8eba2df3bb514eed0f6f668f8f89096e81ed94\n      mload(0x40)\n      mload(0x40)\n      dup1\n      swap2\n      sub\n      swap1\n      log2\n        /* \"contracts/ds-auth/auth.sol\":1167:1297  function setOwner(address owner_)... */\n      pop\n      jump\t// out\n        /* \"contracts/vox.sol\":1201:1282  function era() public view returns (uint) {... */\n    tag_24:\n        /* \"contracts/vox.sol\":1237:1241  uint */\n      0x0\n        /* \"contracts/vox.sol\":1260:1275  block.timestamp */\n      timestamp\n        /* \"contracts/vox.sol\":1253:1275  return block.timestamp */\n      swap1\n      pop\n        /* \"contracts/vox.sol\":1201:1282  function era() public view returns (uint) {... */\n      swap1\n      jump\t// out\n        /* \"contracts/vox.sol\":1032:1052  uint256  public  how */\n    tag_27:\n      sload(0x5)\n      dup2\n      jump\t// out\n        /* \"contracts/vox.sol\":1435:1516  function par() public returns (uint) {... */\n    tag_30:\n        /* \"contracts/vox.sol\":1466:1470  uint */\n      0x0\n        /* \"contracts/vox.sol\":1482:1488  prod() */\n      tag_82\n        /* \"contracts/vox.sol\":1482:1486  prod */\n      tag_18\n        /* \"contracts/vox.sol\":1482:1488  prod() */\n      jump\t// in\n    tag_82:\n        /* \"contracts/vox.sol\":1505:1509  _par */\n      sload(0x2)\n        /* \"contracts/vox.sol\":1498:1509  return _par */\n      swap1\n      pop\n        /* \"contracts/vox.sol\":1435:1516  function par() public returns (uint) {... */\n      swap1\n      jump\t// out\n        /* \"contracts/vox.sol\":1608:1678  function tell(uint256 ray) public note auth {... */\n    tag_33:\n        /* \"contracts/ds-note/note.sol\":1003:1014  bytes32 foo */\n      0x0\n        /* \"contracts/ds-note/note.sol\":1024:1035  bytes32 bar */\n      dup1\n        /* \"contracts/ds-note/note.sol\":1089:1090  4 */\n      0x4\n        /* \"contracts/ds-note/note.sol\":1076:1091  calldataload(4) */\n      calldataload\n        /* \"contracts/ds-note/note.sol\":1069:1091  foo := calldataload(4) */\n      swap2\n      pop\n        /* \"contracts/ds-note/note.sol\":1124:1126  36 */\n      0x24\n        /* \"contracts/ds-note/note.sol\":1111:1127  calldataload(36) */\n      calldataload\n        /* \"contracts/ds-note/note.sol\":1104:1127  bar := calldataload(36) */\n      swap1\n      pop\n        /* \"contracts/ds-note/note.sol\":1181:1184  bar */\n      dup1\n        /* \"contracts/ds-note/note.sol\":1147:1206  LogNote(msg.sig, msg.sender, foo, bar, msg.value, msg.data) */\n      not(0x0)\n      and\n        /* \"contracts/ds-note/note.sol\":1176:1179  foo */\n      dup3\n        /* \"contracts/ds-note/note.sol\":1147:1206  LogNote(msg.sig, msg.sender, foo, bar, msg.value, msg.data) */\n      not(0x0)\n      and\n        /* \"contracts/ds-note/note.sol\":1164:1174  msg.sender */\n      caller\n        /* \"contracts/ds-note/note.sol\":1147:1206  LogNote(msg.sig, msg.sender, foo, bar, msg.value, msg.data) */\n      0xffffffffffffffffffffffffffffffffffffffff\n      and\n        /* \"contracts/ds-note/note.sol\":1155:1162  msg.sig */\n      and(0xffffffff00000000000000000000000000000000000000000000000000000000, calldataload(0x0))\n        /* \"contracts/ds-note/note.sol\":1147:1206  LogNote(msg.sig, msg.sender, foo, bar, msg.value, msg.data) */\n      not(0xffffffffffffffffffffffffffffffffffffffffffffffffffffffff)\n      and\n        /* \"contracts/ds-note/note.sol\":1186:1195  msg.value */\n      callvalue\n        /* \"contracts/ds-note/note.sol\":1197:1205  msg.data */\n      0x0\n      calldatasize\n        /* \"contracts/ds-note/note.sol\":1147:1206  LogNote(msg.sig, msg.sender, foo, bar, msg.value, msg.data) */\n      mload(0x40)\n      dup1\n      dup5\n      dup2\n      mstore\n      0x20\n      add\n      dup1\n      0x20\n      add\n      dup3\n      dup2\n      sub\n      dup3\n      mstore\n      dup5\n      dup5\n      dup3\n      dup2\n      dup2\n      mstore\n      0x20\n      add\n      swap3\n      pop\n      dup1\n      dup3\n      dup5\n      calldatacopy\n      dup3\n      add\n      swap2\n      pop\n      pop\n      swap5\n      pop\n      pop\n      pop\n      pop\n      pop\n      mload(0x40)\n      dup1\n      swap2\n      sub\n      swap1\n      log4\n        /* \"contracts/ds-auth/auth.sol\":1508:1541  isAuthorized(msg.sender, msg.sig) */\n      tag_85\n        /* \"contracts/ds-auth/auth.sol\":1521:1531  msg.sender */\n      caller\n        /* \"contracts/ds-auth/auth.sol\":1533:1540  msg.sig */\n      and(0xffffffff00000000000000000000000000000000000000000000000000000000, calldataload(0x0))\n        /* \"contracts/ds-auth/auth.sol\":1508:1520  isAuthorized */\n      tag_77\n        /* \"contracts/ds-auth/auth.sol\":1508:1541  isAuthorized(msg.sender, msg.sig) */\n      jump\t// in\n    tag_85:\n        /* \"contracts/ds-auth/auth.sol\":1500:1566  require(isAuthorized(msg.sender, msg.sig), \"ds-auth-unauthorized\") */\n      iszero\n      iszero\n      tag_86\n      jumpi\n      mload(0x40)\n      0x8c379a000000000000000000000000000000000000000000000000000000000\n      dup2\n      mstore\n      0x4\n      add\n      dup1\n      dup1\n      0x20\n      add\n      dup3\n      dup2\n      sub\n      dup3\n      mstore\n      0x14\n      dup2\n      mstore\n      0x20\n      add\n      dup1\n      0x64732d617574682d756e617574686f72697a6564000000000000000000000000\n      dup2\n      mstore\n      pop\n      0x20\n      add\n      swap2\n      pop\n      pop\n      mload(0x40)\n      dup1\n      swap2\n      sub\n      swap1\n      revert\n    tag_86:\n        /* \"contracts/vox.sol\":1668:1671  ray */\n      dup3\n        /* \"contracts/vox.sol\":1662:1665  fix */\n      0x4\n        /* \"contracts/vox.sol\":1662:1671  fix = ray */\n      dup2\n      swap1\n      sstore\n      pop\n        /* \"contracts/vox.sol\":1608:1678  function tell(uint256 ray) public note auth {... */\n      pop\n      pop\n      pop\n      jump\t// out\n        /* \"contracts/vox.sol\":1521:1602  function way() public returns (uint) {... */\n    tag_36:\n        /* \"contracts/vox.sol\":1552:1556  uint */\n      0x0\n        /* \"contracts/vox.sol\":1568:1574  prod() */\n      tag_89\n        /* \"contracts/vox.sol\":1568:1572  prod */\n      tag_18\n        /* \"contracts/vox.sol\":1568:1574  prod() */\n      jump\t// in\n    tag_89:\n        /* \"contracts/vox.sol\":1591:1595  _way */\n      sload(0x3)\n        /* \"contracts/vox.sol\":1584:1595  return _way */\n      swap1\n      pop\n        /* \"contracts/vox.sol\":1521:1602  function way() public returns (uint) {... */\n      swap1\n      jump\t// out\n        /* \"contracts/ds-auth/auth.sol\":1303:1470  function setAuthority(DSAuthority authority_)... */\n    tag_39:\n        /* \"contracts/ds-auth/auth.sol\":1508:1541  isAuthorized(msg.sender, msg.sig) */\n      tag_91\n        /* \"contracts/ds-auth/auth.sol\":1521:1531  msg.sender */\n      caller\n        /* \"contracts/ds-auth/auth.sol\":1533:1540  msg.sig */\n      and(0xffffffff00000000000000000000000000000000000000000000000000000000, calldataload(0x0))\n        /* \"contracts/ds-auth/auth.sol\":1508:1520  isAuthorized */\n      tag_77\n        /* \"contracts/ds-auth/auth.sol\":1508:1541  isAuthorized(msg.sender, msg.sig) */\n      jump\t// in\n    tag_91:\n        /* \"contracts/ds-auth/auth.sol\":1500:1566  require(isAuthorized(msg.sender, msg.sig), \"ds-auth-unauthorized\") */\n      iszero\n      iszero\n      tag_92\n      jumpi\n      mload(0x40)\n      0x8c379a000000000000000000000000000000000000000000000000000000000\n      dup2\n      mstore\n      0x4\n      add\n      dup1\n      dup1\n      0x20\n      add\n      dup3\n      dup2\n      sub\n      dup3\n      mstore\n      0x14\n      dup2\n      mstore\n      0x20\n      add\n      dup1\n      0x64732d617574682d756e617574686f72697a6564000000000000000000000000\n      dup2\n      mstore\n      pop\n      0x20\n      add\n      swap2\n      pop\n      pop\n      mload(0x40)\n      dup1\n      swap2\n      sub\n      swap1\n      revert\n    tag_92:\n        /* \"contracts/ds-auth/auth.sol\":1403:1413  authority_ */\n      dup1\n        /* \"contracts/ds-auth/auth.sol\":1391:1400  authority */\n      0x0\n      dup1\n        /* \"contracts/ds-auth/auth.sol\":1391:1413  authority = authority_ */\n      0x100\n      exp\n      dup2\n      sload\n      dup2\n      0xffffffffffffffffffffffffffffffffffffffff\n      mul\n      not\n      and\n      swap1\n      dup4\n      0xffffffffffffffffffffffffffffffffffffffff\n      and\n      mul\n      or\n      swap1\n      sstore\n      pop\n        /* \"contracts/ds-auth/auth.sol\":1452:1461  authority */\n      0x0\n      dup1\n      swap1\n      sload\n      swap1\n      0x100\n      exp\n      swap1\n      div\n      0xffffffffffffffffffffffffffffffffffffffff\n      and\n        /* \"contracts/ds-auth/auth.sol\":1428:1463  LogSetAuthority(address(authority)) */\n      0xffffffffffffffffffffffffffffffffffffffff\n      and\n      0x1abebea81bfa2637f28358c371278fb15ede7ea8dd28d2e03b112ff6d936ada4\n      mload(0x40)\n      mload(0x40)\n      dup1\n      swap2\n      sub\n      swap1\n      log2\n        /* \"contracts/ds-auth/auth.sol\":1303:1470  function setAuthority(DSAuthority authority_)... */\n      pop\n      jump\t// out\n        /* \"contracts/ds-auth/auth.sol\":1039:1060  address public  owner */\n    tag_42:\n      0x1\n      0x0\n      swap1\n      sload\n      swap1\n      0x100\n      exp\n      swap1\n      div\n      0xffffffffffffffffffffffffffffffffffffffff\n      and\n      dup2\n      jump\t// out\n        /* \"contracts/vox.sol\":1288:1391  function mold(bytes32 param, uint val) public note auth {... */\n    tag_45:\n        /* \"contracts/ds-note/note.sol\":1003:1014  bytes32 foo */\n      0x0\n        /* \"contracts/ds-note/note.sol\":1024:1035  bytes32 bar */\n      dup1\n        /* \"contracts/ds-note/note.sol\":1089:1090  4 */\n      0x4\n        /* \"contracts/ds-note/note.sol\":1076:1091  calldataload(4) */\n      calldataload\n        /* \"contracts/ds-note/note.sol\":1069:1091  foo := calldataload(4) */\n      swap2\n      pop\n        /* \"contracts/ds-note/note.sol\":1124:1126  36 */\n      0x24\n        /* \"contracts/ds-note/note.sol\":1111:1127  calldataload(36) */\n      calldataload\n        /* \"contracts/ds-note/note.sol\":1104:1127  bar := calldataload(36) */\n      swap1\n      pop\n        /* \"contracts/ds-note/note.sol\":1181:1184  bar */\n      dup1\n        /* \"contracts/ds-note/note.sol\":1147:1206  LogNote(msg.sig, msg.sender, foo, bar, msg.value, msg.data) */\n      not(0x0)\n      and\n        /* \"contracts/ds-note/note.sol\":1176:1179  foo */\n      dup3\n        /* \"contracts/ds-note/note.sol\":1147:1206  LogNote(msg.sig, msg.sender, foo, bar, msg.value, msg.data) */\n      not(0x0)\n      and\n        /* \"contracts/ds-note/note.sol\":1164:1174  msg.sender */\n      caller\n        /* \"contracts/ds-note/note.sol\":1147:1206  LogNote(msg.sig, msg.sender, foo, bar, msg.value, msg.data) */\n      0xffffffffffffffffffffffffffffffffffffffff\n      and\n        /* \"contracts/ds-note/note.sol\":1155:1162  msg.sig */\n      and(0xffffffff00000000000000000000000000000000000000000000000000000000, calldataload(0x0))\n        /* \"contracts/ds-note/note.sol\":1147:1206  LogNote(msg.sig, msg.sender, foo, bar, msg.value, msg.data) */\n      not(0xffffffffffffffffffffffffffffffffffffffffffffffffffffffff)\n      and\n        /* \"contracts/ds-note/note.sol\":1186:1195  msg.value */\n      callvalue\n        /* \"contracts/ds-note/note.sol\":1197:1205  msg.data */\n      0x0\n      calldatasize\n        /* \"contracts/ds-note/note.sol\":1147:1206  LogNote(msg.sig, msg.sender, foo, bar, msg.value, msg.data) */\n      mload(0x40)\n      dup1\n      dup5\n      dup2\n      mstore\n      0x20\n      add\n      dup1\n      0x20\n      add\n      dup3\n      dup2\n      sub\n      dup3\n      mstore\n      dup5\n      dup5\n      dup3\n      dup2\n      dup2\n      mstore\n      0x20\n      add\n      swap3\n      pop\n      dup1\n      dup3\n      dup5\n      calldatacopy\n      dup3\n      add\n      swap2\n      pop\n      pop\n      swap5\n      pop\n      pop\n      pop\n      pop\n      pop\n      mload(0x40)\n      dup1\n      swap2\n      sub\n      swap1\n      log4\n        /* \"contracts/ds-auth/auth.sol\":1508:1541  isAuthorized(msg.sender, msg.sig) */\n      tag_96\n        /* \"contracts/ds-auth/auth.sol\":1521:1531  msg.sender */\n      caller\n        /* \"contracts/ds-auth/auth.sol\":1533:1540  msg.sig */\n      and(0xffffffff00000000000000000000000000000000000000000000000000000000, calldataload(0x0))\n        /* \"contracts/ds-auth/auth.sol\":1508:1520  isAuthorized */\n      tag_77\n        /* \"contracts/ds-auth/auth.sol\":1508:1541  isAuthorized(msg.sender, msg.sig) */\n      jump\t// in\n    tag_96:\n        /* \"contracts/ds-auth/auth.sol\":1500:1566  require(isAuthorized(msg.sender, msg.sig), \"ds-auth-unauthorized\") */\n      iszero\n      iszero\n      tag_97\n      jumpi\n      mload(0x40)\n      0x8c379a000000000000000000000000000000000000000000000000000000000\n      dup2\n      mstore\n      0x4\n      add\n      dup1\n      dup1\n      0x20\n      add\n      dup3\n      dup2\n      sub\n      dup3\n      mstore\n      0x14\n      dup2\n      mstore\n      0x20\n      add\n      dup1\n      0x64732d617574682d756e617574686f72697a6564000000000000000000000000\n      dup2\n      mstore\n      pop\n      0x20\n      add\n      swap2\n      pop\n      pop\n      mload(0x40)\n      dup1\n      swap2\n      sub\n      swap1\n      revert\n    tag_97:\n        /* \"contracts/vox.sol\":1358:1372  param == 'way' */\n      0x7761790000000000000000000000000000000000000000000000000000000000\n        /* \"contracts/vox.sol\":1358:1363  param */\n      dup5\n        /* \"contracts/vox.sol\":1358:1372  param == 'way' */\n      not(0x0)\n      and\n      eq\n        /* \"contracts/vox.sol\":1354:1384  if (param == 'way') _way = val */\n      iszero\n      tag_99\n      jumpi\n        /* \"contracts/vox.sol\":1381:1384  val */\n      dup3\n        /* \"contracts/vox.sol\":1374:1378  _way */\n      0x3\n        /* \"contracts/vox.sol\":1374:1384  _way = val */\n      dup2\n      swap1\n      sstore\n      pop\n        /* \"contracts/vox.sol\":1354:1384  if (param == 'way') _way = val */\n    tag_99:\n        /* \"contracts/vox.sol\":1288:1391  function mold(bytes32 param, uint val) public note auth {... */\n      pop\n      pop\n      pop\n      pop\n      jump\t// out\n        /* \"contracts/vox.sol\":1006:1026  uint256  public  fix */\n    tag_48:\n      sload(0x4)\n      dup2\n      jump\t// out\n        /* \"contracts/vox.sol\":1683:1753  function tune(uint256 ray) public note auth {... */\n    tag_51:\n        /* \"contracts/ds-note/note.sol\":1003:1014  bytes32 foo */\n      0x0\n        /* \"contracts/ds-note/note.sol\":1024:1035  bytes32 bar */\n      dup1\n        /* \"contracts/ds-note/note.sol\":1089:1090  4 */\n      0x4\n        /* \"contracts/ds-note/note.sol\":1076:1091  calldataload(4) */\n      calldataload\n        /* \"contracts/ds-note/note.sol\":1069:1091  foo := calldataload(4) */\n      swap2\n      pop\n        /* \"contracts/ds-note/note.sol\":1124:1126  36 */\n      0x24\n        /* \"contracts/ds-note/note.sol\":1111:1127  calldataload(36) */\n      calldataload\n        /* \"contracts/ds-note/note.sol\":1104:1127  bar := calldataload(36) */\n      swap1\n      pop\n        /* \"contracts/ds-note/note.sol\":1181:1184  bar */\n      dup1\n        /* \"contracts/ds-note/note.sol\":1147:1206  LogNote(msg.sig, msg.sender, foo, bar, msg.value, msg.data) */\n      not(0x0)\n      and\n        /* \"contracts/ds-note/note.sol\":1176:1179  foo */\n      dup3\n        /* \"contracts/ds-note/note.sol\":1147:1206  LogNote(msg.sig, msg.sender, foo, bar, msg.value, msg.data) */\n      not(0x0)\n      and\n        /* \"contracts/ds-note/note.sol\":1164:1174  msg.sender */\n      caller\n        /* \"contracts/ds-note/note.sol\":1147:1206  LogNote(msg.sig, msg.sender, foo, bar, msg.value, msg.data) */\n      0xffffffffffffffffffffffffffffffffffffffff\n      and\n        /* \"contracts/ds-note/note.sol\":1155:1162  msg.sig */\n      and(0xffffffff00000000000000000000000000000000000000000000000000000000, calldataload(0x0))\n        /* \"contracts/ds-note/note.sol\":1147:1206  LogNote(msg.sig, msg.sender, foo, bar, msg.value, msg.data) */\n      not(0xffffffffffffffffffffffffffffffffffffffffffffffffffffffff)\n      and\n        /* \"contracts/ds-note/note.sol\":1186:1195  msg.value */\n      callvalue\n        /* \"contracts/ds-note/note.sol\":1197:1205  msg.data */\n      0x0\n      calldatasize\n        /* \"contracts/ds-note/note.sol\":1147:1206  LogNote(msg.sig, msg.sender, foo, bar, msg.value, msg.data) */\n      mload(0x40)\n      dup1\n      dup5\n      dup2\n      mstore\n      0x20\n      add\n      dup1\n      0x20\n      add\n      dup3\n      dup2\n      sub\n      dup3\n      mstore\n      dup5\n      dup5\n      dup3\n      dup2\n      dup2\n      mstore\n      0x20\n      add\n      swap3\n      pop\n      dup1\n      dup3\n      dup5\n      calldatacopy\n      dup3\n      add\n      swap2\n      pop\n      pop\n      swap5\n      pop\n      pop\n      pop\n      pop\n      pop\n      mload(0x40)\n      dup1\n      swap2\n      sub\n      swap1\n      log4\n        /* \"contracts/ds-auth/auth.sol\":1508:1541  isAuthorized(msg.sender, msg.sig) */\n      tag_102\n        /* \"contracts/ds-auth/auth.sol\":1521:1531  msg.sender */\n      caller\n        /* \"contracts/ds-auth/auth.sol\":1533:1540  msg.sig */\n      and(0xffffffff00000000000000000000000000000000000000000000000000000000, calldataload(0x0))\n        /* \"contracts/ds-auth/auth.sol\":1508:1520  isAuthorized */\n      tag_77\n        /* \"contracts/ds-auth/auth.sol\":1508:1541  isAuthorized(msg.sender, msg.sig) */\n      jump\t// in\n    tag_102:\n        /* \"contracts/ds-auth/auth.sol\":1500:1566  require(isAuthorized(msg.sender, msg.sig), \"ds-auth-unauthorized\") */\n      iszero\n      iszero\n      tag_103\n      jumpi\n      mload(0x40)\n      0x8c379a000000000000000000000000000000000000000000000000000000000\n      dup2\n      mstore\n      0x4\n      add\n      dup1\n      dup1\n      0x20\n      add\n      dup3\n      dup2\n      sub\n      dup3\n      mstore\n      0x14\n      dup2\n      mstore\n      0x20\n      add\n      dup1\n      0x64732d617574682d756e617574686f72697a6564000000000000000000000000\n      dup2\n      mstore\n      pop\n      0x20\n      add\n      swap2\n      pop\n      pop\n      mload(0x40)\n      dup1\n      swap2\n      sub\n      swap1\n      revert\n    tag_103:\n        /* \"contracts/vox.sol\":1743:1746  ray */\n      dup3\n        /* \"contracts/vox.sol\":1737:1740  how */\n      0x5\n        /* \"contracts/vox.sol\":1737:1746  how = ray */\n      dup2\n      swap1\n      sstore\n      pop\n        /* \"contracts/vox.sol\":1683:1753  function tune(uint256 ray) public note auth {... */\n      pop\n      pop\n      pop\n      jump\t// out\n        /* \"contracts/ds-auth/auth.sol\":1005:1033  DSAuthority public authority */\n    tag_54:\n      0x0\n      dup1\n      swap1\n      sload\n      swap1\n      0x100\n      exp\n      swap1\n      div\n      0xffffffffffffffffffffffffffffffffffffffff\n      and\n      dup2\n      jump\t// out\n        /* \"contracts/vox.sol\":1058:1078  uint256  public  tau */\n    tag_57:\n      sload(0x6)\n      dup2\n      jump\t// out\n        /* \"contracts/ds-math/math.sol\":2576:2833  function rpow(uint x, uint n) internal pure returns (uint z) {... */\n    tag_66:\n        /* \"contracts/ds-math/math.sol\":2629:2635  uint z */\n      0x0\n        /* \"contracts/ds-math/math.sol\":2660:2661  0 */\n      dup1\n        /* \"contracts/ds-math/math.sol\":2655:2656  2 */\n      0x2\n        /* \"contracts/ds-math/math.sol\":2651:2652  n */\n      dup4\n        /* \"contracts/ds-math/math.sol\":2651:2656  n % 2 */\n      dup2\n      iszero\n      iszero\n      tag_106\n      jumpi\n      invalid\n    tag_106:\n      mod\n        /* \"contracts/ds-math/math.sol\":2651:2661  n % 2 != 0 */\n      eq\n      iszero\n        /* \"contracts/ds-math/math.sol\":2651:2671  n % 2 != 0 ? x : RAY */\n      tag_107\n      jumpi\n        /* \"contracts/ds-math/math.sol\":1543:1551  10 ** 27 */\n      0x33b2e3c9fd0803ce8000000\n        /* \"contracts/ds-math/math.sol\":2651:2671  n % 2 != 0 ? x : RAY */\n      jump(tag_108)\n    tag_107:\n        /* \"contracts/ds-math/math.sol\":2664:2665  x */\n      dup3\n        /* \"contracts/ds-math/math.sol\":2651:2671  n % 2 != 0 ? x : RAY */\n    tag_108:\n        /* \"contracts/ds-math/math.sol\":2647:2671  z = n % 2 != 0 ? x : RAY */\n      swap1\n      pop\n        /* \"contracts/ds-math/math.sol\":2692:2693  2 */\n      0x2\n        /* \"contracts/ds-math/math.sol\":2687:2693  n /= 2 */\n      dup3\n      dup2\n      iszero\n      iszero\n      tag_112\n      jumpi\n      invalid\n    tag_112:\n      div\n      swap2\n      pop\n        /* \"contracts/ds-math/math.sol\":2682:2827  for (n /= 2; n != 0; n /= 2) {... */\n    tag_109:\n        /* \"contracts/ds-math/math.sol\":2700:2701  0 */\n      0x0\n        /* \"contracts/ds-math/math.sol\":2695:2696  n */\n      dup3\n        /* \"contracts/ds-math/math.sol\":2695:2701  n != 0 */\n      eq\n      iszero\n        /* \"contracts/ds-math/math.sol\":2682:2827  for (n /= 2; n != 0; n /= 2) {... */\n      iszero\n      tag_110\n      jumpi\n        /* \"contracts/ds-math/math.sol\":2729:2739  rmul(x, x) */\n      tag_113\n        /* \"contracts/ds-math/math.sol\":2734:2735  x */\n      dup4\n        /* \"contracts/ds-math/math.sol\":2737:2738  x */\n      dup5\n        /* \"contracts/ds-math/math.sol\":2729:2733  rmul */\n      tag_67\n        /* \"contracts/ds-math/math.sol\":2729:2739  rmul(x, x) */\n      jump\t// in\n    tag_113:\n        /* \"contracts/ds-math/math.sol\":2725:2739  x = rmul(x, x) */\n      swap3\n      pop\n        /* \"contracts/ds-math/math.sol\":2767:2768  0 */\n      0x0\n        /* \"contracts/ds-math/math.sol\":2762:2763  2 */\n      0x2\n        /* \"contracts/ds-math/math.sol\":2758:2759  n */\n      dup4\n        /* \"contracts/ds-math/math.sol\":2758:2763  n % 2 */\n      dup2\n      iszero\n      iszero\n      tag_114\n      jumpi\n      invalid\n    tag_114:\n      mod\n        /* \"contracts/ds-math/math.sol\":2758:2768  n % 2 != 0 */\n      eq\n      iszero\n        /* \"contracts/ds-math/math.sol\":2754:2817  if (n % 2 != 0) {... */\n      iszero\n      tag_115\n      jumpi\n        /* \"contracts/ds-math/math.sol\":2792:2802  rmul(z, x) */\n      tag_116\n        /* \"contracts/ds-math/math.sol\":2797:2798  z */\n      dup2\n        /* \"contracts/ds-math/math.sol\":2800:2801  x */\n      dup5\n        /* \"contracts/ds-math/math.sol\":2792:2796  rmul */\n      tag_67\n        /* \"contracts/ds-math/math.sol\":2792:2802  rmul(z, x) */\n      jump\t// in\n    tag_116:\n        /* \"contracts/ds-math/math.sol\":2788:2802  z = rmul(z, x) */\n      swap1\n      pop\n        /* \"contracts/ds-math/math.sol\":2754:2817  if (n % 2 != 0) {... */\n    tag_115:\n        /* \"contracts/ds-math/math.sol\":2708:2709  2 */\n      0x2\n        /* \"contracts/ds-math/math.sol\":2703:2709  n /= 2 */\n      dup3\n      dup2\n      iszero\n      iszero\n      tag_117\n      jumpi\n      invalid\n    tag_117:\n      div\n      swap2\n      pop\n        /* \"contracts/ds-math/math.sol\":2682:2827  for (n /= 2; n != 0; n /= 2) {... */\n      jump(tag_109)\n    tag_110:\n        /* \"contracts/ds-math/math.sol\":2576:2833  function rpow(uint x, uint n) internal pure returns (uint z) {... */\n      swap3\n      swap2\n      pop\n      pop\n      jump\t// out\n        /* \"contracts/ds-math/math.sol\":1674:1785  function rmul(uint x, uint y) internal pure returns (uint z) {... */\n    tag_67:\n        /* \"contracts/ds-math/math.sol\":1727:1733  uint z */\n      0x0\n        /* \"contracts/ds-math/math.sol\":1543:1551  10 ** 27 */\n      0x33b2e3c9fd0803ce8000000\n        /* \"contracts/ds-math/math.sol\":1749:1772  add(mul(x, y), RAY / 2) */\n      tag_119\n        /* \"contracts/ds-math/math.sol\":1753:1762  mul(x, y) */\n      tag_120\n        /* \"contracts/ds-math/math.sol\":1757:1758  x */\n      dup6\n        /* \"contracts/ds-math/math.sol\":1760:1761  y */\n      dup6\n        /* \"contracts/ds-math/math.sol\":1753:1756  mul */\n      tag_121\n        /* \"contracts/ds-math/math.sol\":1753:1762  mul(x, y) */\n      jump\t// in\n    tag_120:\n        /* \"contracts/ds-math/math.sol\":1770:1771  2 */\n      0x2\n        /* \"contracts/ds-math/math.sol\":1543:1551  10 ** 27 */\n      0x33b2e3c9fd0803ce8000000\n        /* \"contracts/ds-math/math.sol\":1764:1771  RAY / 2 */\n      dup2\n      iszero\n      iszero\n      tag_122\n      jumpi\n      invalid\n    tag_122:\n      div\n        /* \"contracts/ds-math/math.sol\":1749:1752  add */\n      tag_123\n        /* \"contracts/ds-math/math.sol\":1749:1772  add(mul(x, y), RAY / 2) */\n      jump\t// in\n    tag_119:\n        /* \"contracts/ds-math/math.sol\":1749:1778  add(mul(x, y), RAY / 2) / RAY */\n      dup2\n      iszero\n      iszero\n      tag_124\n      jumpi\n      invalid\n    tag_124:\n      div\n        /* \"contracts/ds-math/math.sol\":1745:1778  z = add(mul(x, y), RAY / 2) / RAY */\n      swap1\n      pop\n        /* \"contracts/ds-math/math.sol\":1674:1785  function rmul(uint x, uint y) internal pure returns (uint z) {... */\n      swap3\n      swap2\n      pop\n      pop\n      jump\t// out\n        /* \"contracts/vox.sol\":2265:2419  function prj(uint256 x) internal pure returns (int128) {... */\n    tag_73:\n        /* \"contracts/vox.sol\":2312:2318  int128 */\n      0x0\n        /* \"contracts/ds-math/math.sol\":1543:1551  10 ** 27 */\n      0x33b2e3c9fd0803ce8000000\n        /* \"contracts/vox.sol\":2337:2338  x */\n      dup3\n        /* \"contracts/vox.sol\":2337:2345  x >= RAY */\n      lt\n      iszero\n        /* \"contracts/vox.sol\":2337:2412  x >= RAY ? int128(x - RAY)... */\n      tag_126\n      jumpi\n        /* \"contracts/vox.sol\":2399:2411  rdiv(RAY, x) */\n      tag_127\n        /* \"contracts/ds-math/math.sol\":1543:1551  10 ** 27 */\n      0x33b2e3c9fd0803ce8000000\n        /* \"contracts/vox.sol\":2409:2410  x */\n      dup4\n        /* \"contracts/vox.sol\":2399:2403  rdiv */\n      tag_128\n        /* \"contracts/vox.sol\":2399:2411  rdiv(RAY, x) */\n      jump\t// in\n    tag_127:\n        /* \"contracts/ds-math/math.sol\":1543:1551  10 ** 27 */\n      0x33b2e3c9fd0803ce8000000\n        /* \"contracts/vox.sol\":2378:2412  int128(RAY) - int128(rdiv(RAY, x)) */\n      sub\n        /* \"contracts/vox.sol\":2337:2412  x >= RAY ? int128(x - RAY)... */\n      jump(tag_129)\n    tag_126:\n        /* \"contracts/ds-math/math.sol\":1543:1551  10 ** 27 */\n      0x33b2e3c9fd0803ce8000000\n        /* \"contracts/vox.sol\":2355:2356  x */\n      dup3\n        /* \"contracts/vox.sol\":2355:2362  x - RAY */\n      sub\n        /* \"contracts/vox.sol\":2337:2412  x >= RAY ? int128(x - RAY)... */\n    tag_129:\n        /* \"contracts/vox.sol\":2330:2412  return x >= RAY ? int128(x - RAY)... */\n      swap1\n      pop\n        /* \"contracts/vox.sol\":2265:2419  function prj(uint256 x) internal pure returns (int128) {... */\n      swap2\n      swap1\n      pop\n      jump\t// out\n        /* \"contracts/vox.sol\":2113:2260  function inj(int128 x) internal pure returns (uint256) {... */\n    tag_74:\n        /* \"contracts/vox.sol\":2159:2166  uint256 */\n      0x0\n        /* \"contracts/vox.sol\":2190:2191  0 */\n      dup1\n        /* \"contracts/vox.sol\":2185:2186  x */\n      dup3\n        /* \"contracts/vox.sol\":2185:2191  x >= 0 */\n      0xf\n      signextend\n      slt\n      iszero\n        /* \"contracts/vox.sol\":2185:2253  x >= 0 ? uint256(x) + RAY... */\n      tag_131\n      jumpi\n        /* \"contracts/vox.sol\":2225:2253  rdiv(RAY, RAY + uint256(-x)) */\n      tag_132\n        /* \"contracts/ds-math/math.sol\":1543:1551  10 ** 27 */\n      0x33b2e3c9fd0803ce8000000\n        /* \"contracts/vox.sol\":2250:2251  x */\n      dup4\n        /* \"contracts/vox.sol\":2249:2251  -x */\n      0x0\n      sub\n        /* \"contracts/vox.sol\":2241:2252  uint256(-x) */\n      0xf\n      signextend\n        /* \"contracts/ds-math/math.sol\":1543:1551  10 ** 27 */\n      0x33b2e3c9fd0803ce8000000\n        /* \"contracts/vox.sol\":2235:2252  RAY + uint256(-x) */\n      add\n        /* \"contracts/vox.sol\":2225:2229  rdiv */\n      tag_128\n        /* \"contracts/vox.sol\":2225:2253  rdiv(RAY, RAY + uint256(-x)) */\n      jump\t// in\n    tag_132:\n        /* \"contracts/vox.sol\":2185:2253  x >= 0 ? uint256(x) + RAY... */\n      jump(tag_133)\n    tag_131:\n        /* \"contracts/ds-math/math.sol\":1543:1551  10 ** 27 */\n      0x33b2e3c9fd0803ce8000000\n        /* \"contracts/vox.sol\":2202:2203  x */\n      dup3\n        /* \"contracts/vox.sol\":2194:2204  uint256(x) */\n      0xf\n      signextend\n        /* \"contracts/vox.sol\":2194:2210  uint256(x) + RAY */\n      add\n        /* \"contracts/vox.sol\":2185:2253  x >= 0 ? uint256(x) + RAY... */\n    tag_133:\n        /* \"contracts/vox.sol\":2178:2253  return x >= 0 ? uint256(x) + RAY... */\n      swap1\n      pop\n        /* \"contracts/vox.sol\":2113:2260  function inj(int128 x) internal pure returns (uint256) {... */\n      swap2\n      swap1\n      pop\n      jump\t// out\n        /* \"contracts/ds-auth/auth.sol\":1590:1969  function isAuthorized(address src, bytes4 sig) internal view returns (bool) {... */\n    tag_77:\n        /* \"contracts/ds-auth/auth.sol\":1660:1664  bool */\n      0x0\n        /* \"contracts/ds-auth/auth.sol\":1695:1699  this */\n      address\n        /* \"contracts/ds-auth/auth.sol\":1680:1700  src == address(this) */\n      0xffffffffffffffffffffffffffffffffffffffff\n      and\n        /* \"contracts/ds-auth/auth.sol\":1680:1683  src */\n      dup4\n        /* \"contracts/ds-auth/auth.sol\":1680:1700  src == address(this) */\n      0xffffffffffffffffffffffffffffffffffffffff\n      and\n      eq\n        /* \"contracts/ds-auth/auth.sol\":1676:1963  if (src == address(this)) {... */\n      iszero\n      tag_135\n      jumpi\n        /* \"contracts/ds-auth/auth.sol\":1723:1727  true */\n      0x1\n        /* \"contracts/ds-auth/auth.sol\":1716:1727  return true */\n      swap1\n      pop\n      jump(tag_134)\n        /* \"contracts/ds-auth/auth.sol\":1676:1963  if (src == address(this)) {... */\n    tag_135:\n        /* \"contracts/ds-auth/auth.sol\":1755:1760  owner */\n      0x1\n      0x0\n      swap1\n      sload\n      swap1\n      0x100\n      exp\n      swap1\n      div\n      0xffffffffffffffffffffffffffffffffffffffff\n      and\n        /* \"contracts/ds-auth/auth.sol\":1748:1760  src == owner */\n      0xffffffffffffffffffffffffffffffffffffffff\n      and\n        /* \"contracts/ds-auth/auth.sol\":1748:1751  src */\n      dup4\n        /* \"contracts/ds-auth/auth.sol\":1748:1760  src == owner */\n      0xffffffffffffffffffffffffffffffffffffffff\n      and\n      eq\n        /* \"contracts/ds-auth/auth.sol\":1744:1963  if (src == owner) {... */\n      iszero\n      tag_137\n      jumpi\n        /* \"contracts/ds-auth/auth.sol\":1783:1787  true */\n      0x1\n        /* \"contracts/ds-auth/auth.sol\":1776:1787  return true */\n      swap1\n      pop\n      jump(tag_134)\n        /* \"contracts/ds-auth/auth.sol\":1744:1963  if (src == owner) {... */\n    tag_137:\n        /* \"contracts/ds-auth/auth.sol\":1841:1842  0 */\n      0x0\n        /* \"contracts/ds-auth/auth.sol\":1808:1844  authority == DSAuthority(address(0)) */\n      0xffffffffffffffffffffffffffffffffffffffff\n      and\n        /* \"contracts/ds-auth/auth.sol\":1808:1817  authority */\n      0x0\n      dup1\n      swap1\n      sload\n      swap1\n      0x100\n      exp\n      swap1\n      div\n      0xffffffffffffffffffffffffffffffffffffffff\n      and\n        /* \"contracts/ds-auth/auth.sol\":1808:1844  authority == DSAuthority(address(0)) */\n      0xffffffffffffffffffffffffffffffffffffffff\n      and\n      eq\n        /* \"contracts/ds-auth/auth.sol\":1804:1963  if (authority == DSAuthority(address(0))) {... */\n      iszero\n      tag_139\n      jumpi\n        /* \"contracts/ds-auth/auth.sol\":1867:1872  false */\n      0x0\n        /* \"contracts/ds-auth/auth.sol\":1860:1872  return false */\n      swap1\n      pop\n      jump(tag_134)\n        /* \"contracts/ds-auth/auth.sol\":1804:1963  if (authority == DSAuthority(address(0))) {... */\n    tag_139:\n        /* \"contracts/ds-auth/auth.sol\":1910:1919  authority */\n      0x0\n      dup1\n      swap1\n      sload\n      swap1\n      0x100\n      exp\n      swap1\n      div\n      0xffffffffffffffffffffffffffffffffffffffff\n      and\n        /* \"contracts/ds-auth/auth.sol\":1910:1927  authority.canCall */\n      0xffffffffffffffffffffffffffffffffffffffff\n      and\n      0xb7009613\n        /* \"contracts/ds-auth/auth.sol\":1928:1931  src */\n      dup5\n        /* \"contracts/ds-auth/auth.sol\":1941:1945  this */\n      address\n        /* \"contracts/ds-auth/auth.sol\":1948:1951  sig */\n      dup6\n        /* \"contracts/ds-auth/auth.sol\":1910:1952  authority.canCall(src, address(this), sig) */\n      mload(0x40)\n      dup5\n      0xffffffff\n      and\n      0x100000000000000000000000000000000000000000000000000000000\n      mul\n      dup2\n      mstore\n      0x4\n      add\n      dup1\n      dup5\n      0xffffffffffffffffffffffffffffffffffffffff\n      and\n      0xffffffffffffffffffffffffffffffffffffffff\n      and\n      dup2\n      mstore\n      0x20\n      add\n      dup4\n      0xffffffffffffffffffffffffffffffffffffffff\n      and\n      0xffffffffffffffffffffffffffffffffffffffff\n      and\n      dup2\n      mstore\n      0x20\n      add\n      dup3\n      not(0xffffffffffffffffffffffffffffffffffffffffffffffffffffffff)\n      and\n      not(0xffffffffffffffffffffffffffffffffffffffffffffffffffffffff)\n      and\n      dup2\n      mstore\n      0x20\n      add\n      swap4\n      pop\n      pop\n      pop\n      pop\n      0x20\n      mload(0x40)\n      dup1\n      dup4\n      sub\n      dup2\n      0x0\n      dup8\n      dup1\n      extcodesize\n      iszero\n        /* \"--CODEGEN--\":8:17   */\n      dup1\n        /* \"--CODEGEN--\":5:7   */\n      iszero\n      tag_141\n      jumpi\n        /* \"--CODEGEN--\":30:31   */\n      0x0\n        /* \"--CODEGEN--\":27:28   */\n      dup1\n        /* \"--CODEGEN--\":20:32   */\n      revert\n        /* \"--CODEGEN--\":5:7   */\n    tag_141:\n        /* \"contracts/ds-auth/auth.sol\":1910:1952  authority.canCall(src, address(this), sig) */\n      pop\n      gas\n      call\n      iszero\n        /* \"--CODEGEN--\":8:17   */\n      dup1\n        /* \"--CODEGEN--\":5:7   */\n      iszero\n      tag_142\n      jumpi\n        /* \"--CODEGEN--\":45:61   */\n      returndatasize\n        /* \"--CODEGEN--\":42:43   */\n      0x0\n        /* \"--CODEGEN--\":39:40   */\n      dup1\n        /* \"--CODEGEN--\":24:62   */\n      returndatacopy\n        /* \"--CODEGEN--\":77:93   */\n      returndatasize\n        /* \"--CODEGEN--\":74:75   */\n      0x0\n        /* \"--CODEGEN--\":67:94   */\n      revert\n        /* \"--CODEGEN--\":5:7   */\n    tag_142:\n        /* \"contracts/ds-auth/auth.sol\":1910:1952  authority.canCall(src, address(this), sig) */\n      pop\n      pop\n      pop\n      pop\n      mload(0x40)\n      returndatasize\n        /* \"--CODEGEN--\":13:15   */\n      0x20\n        /* \"--CODEGEN--\":8:11   */\n      dup2\n        /* \"--CODEGEN--\":5:16   */\n      lt\n        /* \"--CODEGEN--\":2:4   */\n      iszero\n      tag_143\n      jumpi\n        /* \"--CODEGEN--\":29:30   */\n      0x0\n        /* \"--CODEGEN--\":26:27   */\n      dup1\n        /* \"--CODEGEN--\":19:31   */\n      revert\n        /* \"--CODEGEN--\":2:4   */\n    tag_143:\n        /* \"contracts/ds-auth/auth.sol\":1910:1952  authority.canCall(src, address(this), sig) */\n      dup2\n      add\n      swap1\n      dup1\n      dup1\n      mload\n      swap1\n      0x20\n      add\n      swap1\n      swap3\n      swap2\n      swap1\n      pop\n      pop\n      pop\n        /* \"contracts/ds-auth/auth.sol\":1903:1952  return authority.canCall(src, address(this), sig) */\n      swap1\n      pop\n        /* \"contracts/ds-auth/auth.sol\":1590:1969  function isAuthorized(address src, bytes4 sig) internal view returns (bool) {... */\n    tag_134:\n      swap3\n      swap2\n      pop\n      pop\n      jump\t// out\n        /* \"contracts/ds-math/math.sol\":958:1074  function mul(uint x, uint y) internal pure returns (uint z) {... */\n    tag_121:\n        /* \"contracts/ds-math/math.sol\":1010:1016  uint z */\n      0x0\n        /* \"contracts/ds-math/math.sol\":1041:1042  0 */\n      dup1\n        /* \"contracts/ds-math/math.sol\":1036:1037  y */\n      dup3\n        /* \"contracts/ds-math/math.sol\":1036:1042  y == 0 */\n      eq\n        /* \"contracts/ds-math/math.sol\":1036:1066  y == 0 || (z = x * y) / y == x */\n      dup1\n      tag_145\n      jumpi\n      pop\n        /* \"contracts/ds-math/math.sol\":1065:1066  x */\n      dup3\n        /* \"contracts/ds-math/math.sol\":1060:1061  y */\n      dup3\n        /* \"contracts/ds-math/math.sol\":1055:1056  y */\n      dup4\n        /* \"contracts/ds-math/math.sol\":1051:1052  x */\n      dup6\n        /* \"contracts/ds-math/math.sol\":1051:1056  x * y */\n      mul\n        /* \"contracts/ds-math/math.sol\":1047:1056  z = x * y */\n      swap3\n      pop\n      dup3\n        /* \"contracts/ds-math/math.sol\":1046:1061  (z = x * y) / y */\n      dup2\n      iszero\n      iszero\n      tag_146\n      jumpi\n      invalid\n    tag_146:\n      div\n        /* \"contracts/ds-math/math.sol\":1046:1066  (z = x * y) / y == x */\n      eq\n        /* \"contracts/ds-math/math.sol\":1036:1066  y == 0 || (z = x * y) / y == x */\n    tag_145:\n        /* \"contracts/ds-math/math.sol\":1028:1067  require(y == 0 || (z = x * y) / y == x) */\n      iszero\n      iszero\n      tag_147\n      jumpi\n      0x0\n      dup1\n      revert\n    tag_147:\n        /* \"contracts/ds-math/math.sol\":958:1074  function mul(uint x, uint y) internal pure returns (uint z) {... */\n      swap3\n      swap2\n      pop\n      pop\n      jump\t// out\n        /* \"contracts/ds-math/math.sol\":744:846  function add(uint x, uint y) internal pure returns (uint z) {... */\n    tag_123:\n        /* \"contracts/ds-math/math.sol\":796:802  uint z */\n      0x0\n        /* \"contracts/ds-math/math.sol\":837:838  x */\n      dup3\n        /* \"contracts/ds-math/math.sol\":831:832  y */\n      dup3\n        /* \"contracts/ds-math/math.sol\":827:828  x */\n      dup5\n        /* \"contracts/ds-math/math.sol\":827:832  x + y */\n      add\n        /* \"contracts/ds-math/math.sol\":823:832  z = x + y */\n      swap2\n      pop\n      dup2\n        /* \"contracts/ds-math/math.sol\":822:838  (z = x + y) >= x */\n      lt\n      iszero\n        /* \"contracts/ds-math/math.sol\":814:839  require((z = x + y) >= x) */\n      iszero\n      iszero\n      tag_149\n      jumpi\n      0x0\n      dup1\n      revert\n    tag_149:\n        /* \"contracts/ds-math/math.sol\":744:846  function add(uint x, uint y) internal pure returns (uint z) {... */\n      swap3\n      swap2\n      pop\n      pop\n      jump\t// out\n        /* \"contracts/ds-math/math.sol\":1904:2013  function rdiv(uint x, uint y) internal pure returns (uint z) {... */\n    tag_128:\n        /* \"contracts/ds-math/math.sol\":1957:1963  uint z */\n      0x0\n        /* \"contracts/ds-math/math.sol\":2005:2006  y */\n      dup2\n        /* \"contracts/ds-math/math.sol\":1979:2002  add(mul(x, RAY), y / 2) */\n      tag_151\n        /* \"contracts/ds-math/math.sol\":1983:1994  mul(x, RAY) */\n      tag_152\n        /* \"contracts/ds-math/math.sol\":1987:1988  x */\n      dup6\n        /* \"contracts/ds-math/math.sol\":1543:1551  10 ** 27 */\n      0x33b2e3c9fd0803ce8000000\n        /* \"contracts/ds-math/math.sol\":1983:1986  mul */\n      tag_121\n        /* \"contracts/ds-math/math.sol\":1983:1994  mul(x, RAY) */\n      jump\t// in\n    tag_152:\n        /* \"contracts/ds-math/math.sol\":2000:2001  2 */\n      0x2\n        /* \"contracts/ds-math/math.sol\":1996:1997  y */\n      dup6\n        /* \"contracts/ds-math/math.sol\":1996:2001  y / 2 */\n      dup2\n      iszero\n      iszero\n      tag_153\n      jumpi\n      invalid\n    tag_153:\n      div\n        /* \"contracts/ds-math/math.sol\":1979:1982  add */\n      tag_123\n        /* \"contracts/ds-math/math.sol\":1979:2002  add(mul(x, RAY), y / 2) */\n      jump\t// in\n    tag_151:\n        /* \"contracts/ds-math/math.sol\":1979:2006  add(mul(x, RAY), y / 2) / y */\n      dup2\n      iszero\n      iszero\n      tag_154\n      jumpi\n      invalid\n    tag_154:\n      div\n        /* \"contracts/ds-math/math.sol\":1975:2006  z = add(mul(x, RAY), y / 2) / y */\n      swap1\n      pop\n        /* \"contracts/ds-math/math.sol\":1904:2013  function rdiv(uint x, uint y) internal pure returns (uint z) {... */\n      swap3\n      swap2\n      pop\n      pop\n      jump\t// out\n\n    auxdata: 0xa165627a7a7230582030ba9da57bed6cfcd886c2e33db8add231a451cddfea4c6d9804d9fd2f7c0ae50029\n}\n",
				"bytecode": {
					"linkReferences": {},
					"object": "608060405234801561001057600080fd5b5060405160208061122e8339810180604052810190808051906020019092919050505033600160006101000a81548173ffffffffffffffffffffffffffffffffffffffff021916908373ffffffffffffffffffffffffffffffffffffffff1602179055503373ffffffffffffffffffffffffffffffffffffffff167fce241d7ca1f669fee44b6fc00b8eba2df3bb514eed0f6f668f8f89096e81ed9460405160405180910390a28060048190556002819055506b033b2e3c9fd0803ce80000006003819055506100ed6100f9640100000000026401000000009004565b60068190555050610101565b600042905090565b61111e806101106000396000f3006080604052600436106100d0576000357c0100000000000000000000000000000000000000000000000000000000900463ffffffff1680630302c688146100d557806313af4035146100ec578063143e55e01461012f5780633a4a42331461015a578063495d32cb1461018557806355deb8fc146101b05780635d6542af146101dd5780637a9e5e4b146102085780638da5cb5b1461024b57806392b0d721146102a2578063a551878e146102dd578063becda0ea14610308578063bf7e214f14610335578063cfc4af551461038c575b600080fd5b3480156100e157600080fd5b506100ea6103b7565b005b3480156100f857600080fd5b5061012d600480360381019080803573ffffffffffffffffffffffffffffffffffffffff169060200190929190505050610512565b005b34801561013b57600080fd5b5061014461065d565b6040518082815260200191505060405180910390f35b34801561016657600080fd5b5061016f610665565b6040518082815260200191505060405180910390f35b34801561019157600080fd5b5061019a61066b565b6040518082815260200191505060405180910390f35b3480156101bc57600080fd5b506101db6004803603810190808035906020019092919050505061067d565b005b3480156101e957600080fd5b506101f26107d6565b6040518082815260200191505060405180910390f35b34801561021457600080fd5b50610249600480360381019080803573ffffffffffffffffffffffffffffffffffffffff1690602001909291905050506107e8565b005b34801561025757600080fd5b50610260610931565b604051808273ffffffffffffffffffffffffffffffffffffffff1673ffffffffffffffffffffffffffffffffffffffff16815260200191505060405180910390f35b3480156102ae57600080fd5b506102db600480360381019080803560001916906020019092919080359060200190929190505050610957565b005b3480156102e957600080fd5b506102f2610ade565b6040518082815260200191505060405180910390f35b34801561031457600080fd5b5061033360048036038101908080359060200190929190505050610ae4565b005b34801561034157600080fd5b5061034a610c3d565b604051808273ffffffffffffffffffffffffffffffffffffffff1673ffffffffffffffffffffffffffffffffffffffff16815260200191505060405180910390f35b34801561039857600080fd5b506103a1610c62565b6040518082815260200191505060405180910390f35b60008060008060043591506024359050806000191682600019163373ffffffffffffffffffffffffffffffffffffffff166000357fffffffff00000000000000000000000000000000000000000000000000000000167bffffffffffffffffffffffffffffffffffffffffffffffffffffffff19163460003660405180848152602001806020018281038252848482818152602001925080828437820191505094505050505060405180910390a460065461047061065d565b03935060008414156104815761050c565b61048961065d565b6006819055506b033b2e3c9fd0803ce80000006003541415156104c4576104bd6002546104b860035487610c68565b610cf7565b6002819055505b600060055414156104d45761050c565b83600554029250610505600254600454106104f257836000036104f4565b835b6104ff600354610d43565b01610d99565b6003819055505b50505050565b610540336000357fffffffff0000000000000000000000000000000000000000000000000000000016610def565b15156105b4576040517f08c379a00000000000000000000000000000000000000000000000000000000081526004018080602001828103825260148152602001807f64732d617574682d756e617574686f72697a656400000000000000000000000081525060200191505060405180910390fd5b80600160006101000a81548173ffffffffffffffffffffffffffffffffffffffff021916908373ffffffffffffffffffffffffffffffffffffffff160217905550600160009054906101000a900473ffffffffffffffffffffffffffffffffffffffff1673ffffffffffffffffffffffffffffffffffffffff167fce241d7ca1f669fee44b6fc00b8eba2df3bb514eed0f6f668f8f89096e81ed9460405160405180910390a250565b600042905090565b60055481565b60006106756103b7565b600254905090565b60008060043591506024359050806000191682600019163373ffffffffffffffffffffffffffffffffffffffff166000357fffffffff00000000000000000000000000000000000000000000000000000000167bffffffffffffffffffffffffffffffffffffffffffffffffffffffff19163460003660405180848152602001806020018281038252848482818152602001925080828437820191505094505050505060405180910390a4610756336000357fffffffff0000000000000000000000000000000000000000000000000000000016610def565b15156107ca576040517f08c379a00000000000000000000000000000000000000000000000000000000081526004018080602001828103825260148152602001807f64732d617574682d756e617574686f72697a656400000000000000000000000081525060200191505060405180910390fd5b82600481905550505050565b60006107e06103b7565b600354905090565b610816336000357fffffffff0000000000000000000000000000000000000000000000000000000016610def565b151561088a576040517f08c379a00000000000000000000000000000000000000000000000000000000081526004018080602001828103825260148152602001807f64732d617574682d756e617574686f72697a656400000000000000000000000081525060200191505060405180910390fd5b806000806101000a81548173ffffffffffffffffffffffffffffffffffffffff021916908373ffffffffffffffffffffffffffffffffffffffff1602179055506000809054906101000a900473ffffffffffffffffffffffffffffffffffffffff1673ffffffffffffffffffffffffffffffffffffffff167f1abebea81bfa2637f28358c371278fb15ede7ea8dd28d2e03b112ff6d936ada460405160405180910390a250565b600160009054906101000a900473ffffffffffffffffffffffffffffffffffffffff1681565b60008060043591506024359050806000191682600019163373ffffffffffffffffffffffffffffffffffffffff166000357fffffffff00000000000000000000000000000000000000000000000000000000167bffffffffffffffffffffffffffffffffffffffffffffffffffffffff19163460003660405180848152602001806020018281038252848482818152602001925080828437820191505094505050505060405180910390a4610a30336000357fffffffff0000000000000000000000000000000000000000000000000000000016610def565b1515610aa4576040517f08c379a00000000000000000000000000000000000000000000000000000000081526004018080602001828103825260148152602001807f64732d617574682d756e617574686f72697a656400000000000000000000000081525060200191505060405180910390fd5b7f776179000000000000000000000000000000000000000000000000000000000084600019161415610ad857826003819055505b50505050565b60045481565b60008060043591506024359050806000191682600019163373ffffffffffffffffffffffffffffffffffffffff166000357fffffffff00000000000000000000000000000000000000000000000000000000167bffffffffffffffffffffffffffffffffffffffffffffffffffffffff19163460003660405180848152602001806020018281038252848482818152602001925080828437820191505094505050505060405180910390a4610bbd336000357fffffffff0000000000000000000000000000000000000000000000000000000016610def565b1515610c31576040517f08c379a00000000000000000000000000000000000000000000000000000000081526004018080602001828103825260148152602001807f64732d617574682d756e617574686f72697a656400000000000000000000000081525060200191505060405180910390fd5b82600581905550505050565b6000809054906101000a900473ffffffffffffffffffffffffffffffffffffffff1681565b60065481565b600080600283811515610c7757fe5b061415610c90576b033b2e3c9fd0803ce8000000610c92565b825b9050600282811515610ca057fe5b0491505b600082141515610cf157610cb88384610cf7565b92506000600283811515610cc857fe5b06141515610cdd57610cda8184610cf7565b90505b600282811515610ce957fe5b049150610ca4565b92915050565b60006b033b2e3c9fd0803ce8000000610d31610d138585611066565b60026b033b2e3c9fd0803ce8000000811515610d2b57fe5b04611096565b811515610d3a57fe5b04905092915050565b60006b033b2e3c9fd0803ce8000000821015610d8257610d6f6b033b2e3c9fd0803ce8000000836110b2565b6b033b2e3c9fd0803ce800000003610d92565b6b033b2e3c9fd0803ce800000082035b9050919050565b60008082600f0b1215610dd557610dd06b033b2e3c9fd0803ce800000083600003600f0b6b033b2e3c9fd0803ce8000000016110b2565b610de8565b6b033b2e3c9fd0803ce800000082600f0b015b9050919050565b60003073ffffffffffffffffffffffffffffffffffffffff168373ffffffffffffffffffffffffffffffffffffffff161415610e2e5760019050611060565b600160009054906101000a900473ffffffffffffffffffffffffffffffffffffffff1673ffffffffffffffffffffffffffffffffffffffff168373ffffffffffffffffffffffffffffffffffffffff161415610e8d5760019050611060565b600073ffffffffffffffffffffffffffffffffffffffff166000809054906101000a900473ffffffffffffffffffffffffffffffffffffffff1673ffffffffffffffffffffffffffffffffffffffff161415610eec5760009050611060565b6000809054906101000a900473ffffffffffffffffffffffffffffffffffffffff1673ffffffffffffffffffffffffffffffffffffffff1663b70096138430856040518463ffffffff167c0100000000000000000000000000000000000000000000000000000000028152600401808473ffffffffffffffffffffffffffffffffffffffff1673ffffffffffffffffffffffffffffffffffffffff1681526020018373ffffffffffffffffffffffffffffffffffffffff1673ffffffffffffffffffffffffffffffffffffffff168152602001827bffffffffffffffffffffffffffffffffffffffffffffffffffffffff19167bffffffffffffffffffffffffffffffffffffffffffffffffffffffff191681526020019350505050602060405180830381600087803b15801561102257600080fd5b505af1158015611036573d6000803e3d6000fd5b505050506040513d602081101561104c57600080fd5b810190808051906020019092919050505090505b92915050565b6000808214806110855750828283850292508281151561108257fe5b04145b151561109057600080fd5b92915050565b600082828401915081101515156110ac57600080fd5b92915050565b6000816110e06110ce856b033b2e3c9fd0803ce8000000611066565b6002858115156110da57fe5b04611096565b8115156110e957fe5b049050929150505600a165627a7a7230582030ba9da57bed6cfcd886c2e33db8add231a451cddfea4c6d9804d9fd2f7c0ae50029",
					"opcodes": "PUSH1 0x80 PUSH1 0x40 MSTORE CALLVALUE DUP1 ISZERO PUSH2 0x10 JUMPI PUSH1 0x0 DUP1 REVERT JUMPDEST POP PUSH1 0x40 MLOAD PUSH1 0x20 DUP1 PUSH2 0x122E DUP4 CODECOPY DUP2 ADD DUP1 PUSH1 0x40 MSTORE DUP2 ADD SWAP1 DUP1 DUP1 MLOAD SWAP1 PUSH1 0x20 ADD SWAP1 SWAP3 SWAP2 SWAP1 POP POP POP CALLER PUSH1 0x1 PUSH1 0x0 PUSH2 0x100 EXP DUP2 SLOAD DUP2 PUSH20 0xFFFFFFFFFFFFFFFFFFFFFFFFFFFFFFFFFFFFFFFF MUL NOT AND SWAP1 DUP4 PUSH20 0xFFFFFFFFFFFFFFFFFFFFFFFFFFFFFFFFFFFFFFFF AND MUL OR SWAP1 SSTORE POP CALLER PUSH20 0xFFFFFFFFFFFFFFFFFFFFFFFFFFFFFFFFFFFFFFFF AND PUSH32 0xCE241D7CA1F669FEE44B6FC00B8EBA2DF3BB514EED0F6F668F8F89096E81ED94 PUSH1 0x40 MLOAD PUSH1 0x40 MLOAD DUP1 SWAP2 SUB SWAP1 LOG2 DUP1 PUSH1 0x4 DUP2 SWAP1 SSTORE PUSH1 0x2 DUP2 SWAP1 SSTORE POP PUSH12 0x33B2E3C9FD0803CE8000000 PUSH1 0x3 DUP2 SWAP1 SSTORE POP PUSH2 0xED PUSH2 0xF9 PUSH5 0x100000000 MUL PUSH5 0x100000000 SWAP1 DIV JUMP JUMPDEST PUSH1 0x6 DUP2 SWAP1 SSTORE POP POP PUSH2 0x101 JUMP JUMPDEST PUSH1 0x0 TIMESTAMP SWAP1 POP SWAP1 JUMP JUMPDEST PUSH2 0x111E DUP1 PUSH2 0x110 PUSH1 0x0 CODECOPY PUSH1 0x0 RETURN STOP PUSH1 0x80 PUSH1 0x40 MSTORE PUSH1 0x4 CALLDATASIZE LT PUSH2 0xD0 JUMPI PUSH1 0x0 CALLDATALOAD PUSH29 0x100000000000000000000000000000000000000000000000000000000 SWAP1 DIV PUSH4 0xFFFFFFFF AND DUP1 PUSH4 0x302C688 EQ PUSH2 0xD5 JUMPI DUP1 PUSH4 0x13AF4035 EQ PUSH2 0xEC JUMPI DUP1 PUSH4 0x143E55E0 EQ PUSH2 0x12F JUMPI DUP1 PUSH4 0x3A4A4233 EQ PUSH2 0x15A JUMPI DUP1 PUSH4 0x495D32CB EQ PUSH2 0x185 JUMPI DUP1 PUSH4 0x55DEB8FC EQ PUSH2 0x1B0 JUMPI DUP1 PUSH4 0x5D6542AF EQ PUSH2 0x1DD JUMPI DUP1 PUSH4 0x7A9E5E4B EQ PUSH2 0x208 JUMPI DUP1 PUSH4 0x8DA5CB5B EQ PUSH2 0x24B JUMPI DUP1 PUSH4 0x92B0D721 EQ PUSH2 0x2A2 JUMPI DUP1 PUSH4 0xA551878E EQ PUSH2 0x2DD JUMPI DUP1 PUSH4 0xBECDA0EA EQ PUSH2 0x308 JUMPI DUP1 PUSH4 0xBF7E214F EQ PUSH2 0x335 JUMPI DUP1 PUSH4 0xCFC4AF55 EQ PUSH2 0x38C JUMPI JUMPDEST PUSH1 0x0 DUP1 REVERT JUMPDEST CALLVALUE DUP1 ISZERO PUSH2 0xE1 JUMPI PUSH1 0x0 DUP1 REVERT JUMPDEST POP PUSH2 0xEA PUSH2 0x3B7 JUMP JUMPDEST STOP JUMPDEST CALLVALUE DUP1 ISZERO PUSH2 0xF8 JUMPI PUSH1 0x0 DUP1 REVERT JUMPDEST POP PUSH2 0x12D PUSH1 0x4 DUP1 CALLDATASIZE SUB DUP2 ADD SWAP1 DUP1 DUP1 CALLDATALOAD PUSH20 0xFFFFFFFFFFFFFFFFFFFFFFFFFFFFFFFFFFFFFFFF AND SWAP1 PUSH1 0x20 ADD SWAP1 SWAP3 SWAP2 SWAP1 POP POP POP PUSH2 0x512 JUMP JUMPDEST STOP JUMPDEST CALLVALUE DUP1 ISZERO PUSH2 0x13B JUMPI PUSH1 0x0 DUP1 REVERT JUMPDEST POP PUSH2 0x144 PUSH2 0x65D JUMP JUMPDEST PUSH1 0x40 MLOAD DUP1 DUP3 DUP2 MSTORE PUSH1 0x20 ADD SWAP2 POP POP PUSH1 0x40 MLOAD DUP1 SWAP2 SUB SWAP1 RETURN JUMPDEST CALLVALUE DUP1 ISZERO PUSH2 0x166 JUMPI PUSH1 0x0 DUP1 REVERT JUMPDEST POP PUSH2 0x16F PUSH2 0x665 JUMP JUMPDEST PUSH1 0x40 MLOAD DUP1 DUP3 DUP2 MSTORE PUSH1 0x20 ADD SWAP2 POP POP PUSH1 0x40 MLOAD DUP1 SWAP2 SUB SWAP1 RETURN JUMPDEST CALLVALUE DUP1 ISZERO PUSH2 0x191 JUMPI PUSH1 0x0 DUP1 REVERT JUMPDEST POP PUSH2 0x19A PUSH2 0x66B JUMP JUMPDEST PUSH1 0x40 MLOAD DUP1 DUP3 DUP2 MSTORE PUSH1 0x20 ADD SWAP2 POP POP PUSH1 0x40 MLOAD DUP1 SWAP2 SUB SWAP1 RETURN JUMPDEST CALLVALUE DUP1 ISZERO PUSH2 0x1BC JUMPI PUSH1 0x0 DUP1 REVERT JUMPDEST POP PUSH2 0x1DB PUSH1 0x4 DUP1 CALLDATASIZE SUB DUP2 ADD SWAP1 DUP1 DUP1 CALLDATALOAD SWAP1 PUSH1 0x20 ADD SWAP1 SWAP3 SWAP2 SWAP1 POP POP POP PUSH2 0x67D JUMP JUMPDEST STOP JUMPDEST CALLVALUE DUP1 ISZERO PUSH2 0x1E9 JUMPI PUSH1 0x0 DUP1 REVERT JUMPDEST POP PUSH2 0x1F2 PUSH2 0x7D6 JUMP JUMPDEST PUSH1 0x40 MLOAD DUP1 DUP3 DUP2 MSTORE PUSH1 0x20 ADD SWAP2 POP POP PUSH1 0x40 MLOAD DUP1 SWAP2 SUB SWAP1 RETURN JUMPDEST CALLVALUE DUP1 ISZERO PUSH2 0x214 JUMPI PUSH1 0x0 DUP1 REVERT JUMPDEST POP PUSH2 0x249 PUSH1 0x4 DUP1 CALLDATASIZE SUB DUP2 ADD SWAP1 DUP1 DUP1 CALLDATALOAD PUSH20 0xFFFFFFFFFFFFFFFFFFFFFFFFFFFFFFFFFFFFFFFF AND SWAP1 PUSH1 0x20 ADD SWAP1 SWAP3 SWAP2 SWAP1 POP POP POP PUSH2 0x7E8 JUMP JUMPDEST STOP JUMPDEST CALLVALUE DUP1 ISZERO PUSH2 0x257 JUMPI PUSH1 0x0 DUP1 REVERT JUMPDEST POP PUSH2 0x260 PUSH2 0x931 JUMP JUMPDEST PUSH1 0x40 MLOAD DUP1 DUP3 PUSH20 0xFFFFFFFFFFFFFFFFFFFFFFFFFFFFFFFFFFFFFFFF AND PUSH20 0xFFFFFFFFFFFFFFFFFFFFFFFFFFFFFFFFFFFFFFFF AND DUP2 MSTORE PUSH1 0x20 ADD SWAP2 POP POP PUSH1 0x40 MLOAD DUP1 SWAP2 SUB SWAP1 RETURN JUMPDEST CALLVALUE DUP1 ISZERO PUSH2 0x2AE JUMPI PUSH1 0x0 DUP1 REVERT JUMPDEST POP PUSH2 0x2DB PUSH1 0x4 DUP1 CALLDATASIZE SUB DUP2 ADD SWAP1 DUP1 DUP1 CALLDATALOAD PUSH1 0x0 NOT AND SWAP1 PUSH1 0x20 ADD SWAP1 SWAP3 SWAP2 SWAP1 DUP1 CALLDATALOAD SWAP1 PUSH1 0x20 ADD SWAP1 SWAP3 SWAP2 SWAP1 POP POP POP PUSH2 0x957 JUMP JUMPDEST STOP JUMPDEST CALLVALUE DUP1 ISZERO PUSH2 0x2E9 JUMPI PUSH1 0x0 DUP1 REVERT JUMPDEST POP PUSH2 0x2F2 PUSH2 0xADE JUMP JUMPDEST PUSH1 0x40 MLOAD DUP1 DUP3 DUP2 MSTORE PUSH1 0x20 ADD SWAP2 POP POP PUSH1 0x40 MLOAD DUP1 SWAP2 SUB SWAP1 RETURN JUMPDEST CALLVALUE DUP1 ISZERO PUSH2 0x314 JUMPI PUSH1 0x0 DUP1 REVERT JUMPDEST POP PUSH2 0x333 PUSH1 0x4 DUP1 CALLDATASIZE SUB DUP2 ADD SWAP1 DUP1 DUP1 CALLDATALOAD SWAP1 PUSH1 0x20 ADD SWAP1 SWAP3 SWAP2 SWAP1 POP POP POP PUSH2 0xAE4 JUMP JUMPDEST STOP JUMPDEST CALLVALUE DUP1 ISZERO PUSH2 0x341 JUMPI PUSH1 0x0 DUP1 REVERT JUMPDEST POP PUSH2 0x34A PUSH2 0xC3D JUMP JUMPDEST PUSH1 0x40 MLOAD DUP1 DUP3 PUSH20 0xFFFFFFFFFFFFFFFFFFFFFFFFFFFFFFFFFFFFFFFF AND PUSH20 0xFFFFFFFFFFFFFFFFFFFFFFFFFFFFFFFFFFFFFFFF AND DUP2 MSTORE PUSH1 0x20 ADD SWAP2 POP POP PUSH1 0x40 MLOAD DUP1 SWAP2 SUB SWAP1 RETURN JUMPDEST CALLVALUE DUP1 ISZERO PUSH2 0x398 JUMPI PUSH1 0x0 DUP1 REVERT JUMPDEST POP PUSH2 0x3A1 PUSH2 0xC62 JUMP JUMPDEST PUSH1 0x40 MLOAD DUP1 DUP3 DUP2 MSTORE PUSH1 0x20 ADD SWAP2 POP POP PUSH1 0x40 MLOAD DUP1 SWAP2 SUB SWAP1 RETURN JUMPDEST PUSH1 0x0 DUP1 PUSH1 0x0 DUP1 PUSH1 0x4 CALLDATALOAD SWAP2 POP PUSH1 0x24 CALLDATALOAD SWAP1 POP DUP1 PUSH1 0x0 NOT AND DUP3 PUSH1 0x0 NOT AND CALLER PUSH20 0xFFFFFFFFFFFFFFFFFFFFFFFFFFFFFFFFFFFFFFFF AND PUSH1 0x0 CALLDATALOAD PUSH32 0xFFFFFFFF00000000000000000000000000000000000000000000000000000000 AND PUSH28 0xFFFFFFFFFFFFFFFFFFFFFFFFFFFFFFFFFFFFFFFFFFFFFFFFFFFFFFFF NOT AND CALLVALUE PUSH1 0x0 CALLDATASIZE PUSH1 0x40 MLOAD DUP1 DUP5 DUP2 MSTORE PUSH1 0x20 ADD DUP1 PUSH1 0x20 ADD DUP3 DUP2 SUB DUP3 MSTORE DUP5 DUP5 DUP3 DUP2 DUP2 MSTORE PUSH1 0x20 ADD SWAP3 POP DUP1 DUP3 DUP5 CALLDATACOPY DUP3 ADD SWAP2 POP POP SWAP5 POP POP POP POP POP PUSH1 0x40 MLOAD DUP1 SWAP2 SUB SWAP1 LOG4 PUSH1 0x6 SLOAD PUSH2 0x470 PUSH2 0x65D JUMP JUMPDEST SUB SWAP4 POP PUSH1 0x0 DUP5 EQ ISZERO PUSH2 0x481 JUMPI PUSH2 0x50C JUMP JUMPDEST PUSH2 0x489 PUSH2 0x65D JUMP JUMPDEST PUSH1 0x6 DUP2 SWAP1 SSTORE POP PUSH12 0x33B2E3C9FD0803CE8000000 PUSH1 0x3 SLOAD EQ ISZERO ISZERO PUSH2 0x4C4 JUMPI PUSH2 0x4BD PUSH1 0x2 SLOAD PUSH2 0x4B8 PUSH1 0x3 SLOAD DUP8 PUSH2 0xC68 JUMP JUMPDEST PUSH2 0xCF7 JUMP JUMPDEST PUSH1 0x2 DUP2 SWAP1 SSTORE POP JUMPDEST PUSH1 0x0 PUSH1 0x5 SLOAD EQ ISZERO PUSH2 0x4D4 JUMPI PUSH2 0x50C JUMP JUMPDEST DUP4 PUSH1 0x5 SLOAD MUL SWAP3 POP PUSH2 0x505 PUSH1 0x2 SLOAD PUSH1 0x4 SLOAD LT PUSH2 0x4F2 JUMPI DUP4 PUSH1 0x0 SUB PUSH2 0x4F4 JUMP JUMPDEST DUP4 JUMPDEST PUSH2 0x4FF PUSH1 0x3 SLOAD PUSH2 0xD43 JUMP JUMPDEST ADD PUSH2 0xD99 JUMP JUMPDEST PUSH1 0x3 DUP2 SWAP1 SSTORE POP JUMPDEST POP POP POP POP JUMP JUMPDEST PUSH2 0x540 CALLER PUSH1 0x0 CALLDATALOAD PUSH32 0xFFFFFFFF00000000000000000000000000000000000000000000000000000000 AND PUSH2 0xDEF JUMP JUMPDEST ISZERO ISZERO PUSH2 0x5B4 JUMPI PUSH1 0x40 MLOAD PUSH32 0x8C379A000000000000000000000000000000000000000000000000000000000 DUP2 MSTORE PUSH1 0x4 ADD DUP1 DUP1 PUSH1 0x20 ADD DUP3 DUP2 SUB DUP3 MSTORE PUSH1 0x14 DUP2 MSTORE PUSH1 0x20 ADD DUP1 PUSH32 0x64732D617574682D756E617574686F72697A6564000000000000000000000000 DUP2 MSTORE POP PUSH1 0x20 ADD SWAP2 POP POP PUSH1 0x40 MLOAD DUP1 SWAP2 SUB SWAP1 REVERT JUMPDEST DUP1 PUSH1 0x1 PUSH1 0x0 PUSH2 0x100 EXP DUP2 SLOAD DUP2 PUSH20 0xFFFFFFFFFFFFFFFFFFFFFFFFFFFFFFFFFFFFFFFF MUL NOT AND SWAP1 DUP4 PUSH20 0xFFFFFFFFFFFFFFFFFFFFFFFFFFFFFFFFFFFFFFFF AND MUL OR SWAP1 SSTORE POP PUSH1 0x1 PUSH1 0x0 SWAP1 SLOAD SWAP1 PUSH2 0x100 EXP SWAP1 DIV PUSH20 0xFFFFFFFFFFFFFFFFFFFFFFFFFFFFFFFFFFFFFFFF AND PUSH20 0xFFFFFFFFFFFFFFFFFFFFFFFFFFFFFFFFFFFFFFFF AND PUSH32 0xCE241D7CA1F669FEE44B6FC00B8EBA2DF3BB514EED0F6F668F8F89096E81ED94 PUSH1 0x40 MLOAD PUSH1 0x40 MLOAD DUP1 SWAP2 SUB SWAP1 LOG2 POP JUMP JUMPDEST PUSH1 0x0 TIMESTAMP SWAP1 POP SWAP1 JUMP JUMPDEST PUSH1 0x5 SLOAD DUP2 JUMP JUMPDEST PUSH1 0x0 PUSH2 0x675 PUSH2 0x3B7 JUMP JUMPDEST PUSH1 0x2 SLOAD SWAP1 POP SWAP1 JUMP JUMPDEST PUSH1 0x0 DUP1 PUSH1 0x4 CALLDATALOAD SWAP2 POP PUSH1 0x24 CALLDATALOAD SWAP1 POP DUP1 PUSH1 0x0 NOT AND DUP3 PUSH1 0x0 NOT AND CALLER PUSH20 0xFFFFFFFFFFFFFFFFFFFFFFFFFFFFFFFFFFFFFFFF AND PUSH1 0x0 CALLDATALOAD PUSH32 0xFFFFFFFF00000000000000000000000000000000000000000000000000000000 AND PUSH28 0xFFFFFFFFFFFFFFFFFFFFFFFFFFFFFFFFFFFFFFFFFFFFFFFFFFFFFFFF NOT AND CALLVALUE PUSH1 0x0 CALLDATASIZE PUSH1 0x40 MLOAD DUP1 DUP5 DUP2 MSTORE PUSH1 0x20 ADD DUP1 PUSH1 0x20 ADD DUP3 DUP2 SUB DUP3 MSTORE DUP5 DUP5 DUP3 DUP2 DUP2 MSTORE PUSH1 0x20 ADD SWAP3 POP DUP1 DUP3 DUP5 CALLDATACOPY DUP3 ADD SWAP2 POP POP SWAP5 POP POP POP POP POP PUSH1 0x40 MLOAD DUP1 SWAP2 SUB SWAP1 LOG4 PUSH2 0x756 CALLER PUSH1 0x0 CALLDATALOAD PUSH32 0xFFFFFFFF00000000000000000000000000000000000000000000000000000000 AND PUSH2 0xDEF JUMP JUMPDEST ISZERO ISZERO PUSH2 0x7CA JUMPI PUSH1 0x40 MLOAD PUSH32 0x8C379A000000000000000000000000000000000000000000000000000000000 DUP2 MSTORE PUSH1 0x4 ADD DUP1 DUP1 PUSH1 0x20 ADD DUP3 DUP2 SUB DUP3 MSTORE PUSH1 0x14 DUP2 MSTORE PUSH1 0x20 ADD DUP1 PUSH32 0x64732D617574682D756E617574686F72697A6564000000000000000000000000 DUP2 MSTORE POP PUSH1 0x20 ADD SWAP2 POP POP PUSH1 0x40 MLOAD DUP1 SWAP2 SUB SWAP1 REVERT JUMPDEST DUP3 PUSH1 0x4 DUP2 SWAP1 SSTORE POP POP POP POP JUMP JUMPDEST PUSH1 0x0 PUSH2 0x7E0 PUSH2 0x3B7 JUMP JUMPDEST PUSH1 0x3 SLOAD SWAP1 POP SWAP1 JUMP JUMPDEST PUSH2 0x816 CALLER PUSH1 0x0 CALLDATALOAD PUSH32 0xFFFFFFFF00000000000000000000000000000000000000000000000000000000 AND PUSH2 0xDEF JUMP JUMPDEST ISZERO ISZERO PUSH2 0x88A JUMPI PUSH1 0x40 MLOAD PUSH32 0x8C379A000000000000000000000000000000000000000000000000000000000 DUP2 MSTORE PUSH1 0x4 ADD DUP1 DUP1 PUSH1 0x20 ADD DUP3 DUP2 SUB DUP3 MSTORE PUSH1 0x14 DUP2 MSTORE PUSH1 0x20 ADD DUP1 PUSH32 0x64732D617574682D756E617574686F72697A6564000000000000000000000000 DUP2 MSTORE POP PUSH1 0x20 ADD SWAP2 POP POP PUSH1 0x40 MLOAD DUP1 SWAP2 SUB SWAP1 REVERT JUMPDEST DUP1 PUSH1 0x0 DUP1 PUSH2 0x100 EXP DUP2 SLOAD DUP2 PUSH20 0xFFFFFFFFFFFFFFFFFFFFFFFFFFFFFFFFFFFFFFFF MUL NOT AND SWAP1 DUP4 PUSH20 0xFFFFFFFFFFFFFFFFFFFFFFFFFFFFFFFFFFFFFFFF AND MUL OR SWAP1 SSTORE POP PUSH1 0x0 DUP1 SWAP1 SLOAD SWAP1 PUSH2 0x100 EXP SWAP1 DIV PUSH20 0xFFFFFFFFFFFFFFFFFFFFFFFFFFFFFFFFFFFFFFFF AND PUSH20 0xFFFFFFFFFFFFFFFFFFFFFFFFFFFFFFFFFFFFFFFF AND PUSH32 0x1ABEBEA81BFA2637F28358C371278FB15EDE7EA8DD28D2E03B112FF6D936ADA4 PUSH1 0x40 MLOAD PUSH1 0x40 MLOAD DUP1 SWAP2 SUB SWAP1 LOG2 POP JUMP JUMPDEST PUSH1 0x1 PUSH1 0x0 SWAP1 SLOAD SWAP1 PUSH2 0x100 EXP SWAP1 DIV PUSH20 0xFFFFFFFFFFFFFFFFFFFFFFFFFFFFFFFFFFFFFFFF AND DUP2 JUMP JUMPDEST PUSH1 0x0 DUP1 PUSH1 0x4 CALLDATALOAD SWAP2 POP PUSH1 0x24 CALLDATALOAD SWAP1 POP DUP1 PUSH1 0x0 NOT AND DUP3 PUSH1 0x0 NOT AND CALLER PUSH20 0xFFFFFFFFFFFFFFFFFFFFFFFFFFFFFFFFFFFFFFFF AND PUSH1 0x0 CALLDATALOAD PUSH32 0xFFFFFFFF00000000000000000000000000000000000000000000000000000000 AND PUSH28 0xFFFFFFFFFFFFFFFFFFFFFFFFFFFFFFFFFFFFFFFFFFFFFFFFFFFFFFFF NOT AND CALLVALUE PUSH1 0x0 CALLDATASIZE PUSH1 0x40 MLOAD DUP1 DUP5 DUP2 MSTORE PUSH1 0x20 ADD DUP1 PUSH1 0x20 ADD DUP3 DUP2 SUB DUP3 MSTORE DUP5 DUP5 DUP3 DUP2 DUP2 MSTORE PUSH1 0x20 ADD SWAP3 POP DUP1 DUP3 DUP5 CALLDATACOPY DUP3 ADD SWAP2 POP POP SWAP5 POP POP POP POP POP PUSH1 0x40 MLOAD DUP1 SWAP2 SUB SWAP1 LOG4 PUSH2 0xA30 CALLER PUSH1 0x0 CALLDATALOAD PUSH32 0xFFFFFFFF00000000000000000000000000000000000000000000000000000000 AND PUSH2 0xDEF JUMP JUMPDEST ISZERO ISZERO PUSH2 0xAA4 JUMPI PUSH1 0x40 MLOAD PUSH32 0x8C379A000000000000000000000000000000000000000000000000000000000 DUP2 MSTORE PUSH1 0x4 ADD DUP1 DUP1 PUSH1 0x20 ADD DUP3 DUP2 SUB DUP3 MSTORE PUSH1 0x14 DUP2 MSTORE PUSH1 0x20 ADD DUP1 PUSH32 0x64732D617574682D756E617574686F72697A6564000000000000000000000000 DUP2 MSTORE POP PUSH1 0x20 ADD SWAP2 POP POP PUSH1 0x40 MLOAD DUP1 SWAP2 SUB SWAP1 REVERT JUMPDEST PUSH32 0x7761790000000000000000000000000000000000000000000000000000000000 DUP5 PUSH1 0x0 NOT AND EQ ISZERO PUSH2 0xAD8 JUMPI DUP3 PUSH1 0x3 DUP2 SWAP1 SSTORE POP JUMPDEST POP POP POP POP JUMP JUMPDEST PUSH1 0x4 SLOAD DUP2 JUMP JUMPDEST PUSH1 0x0 DUP1 PUSH1 0x4 CALLDATALOAD SWAP2 POP PUSH1 0x24 CALLDATALOAD SWAP1 POP DUP1 PUSH1 0x0 NOT AND DUP3 PUSH1 0x0 NOT AND CALLER PUSH20 0xFFFFFFFFFFFFFFFFFFFFFFFFFFFFFFFFFFFFFFFF AND PUSH1 0x0 CALLDATALOAD PUSH32 0xFFFFFFFF00000000000000000000000000000000000000000000000000000000 AND PUSH28 0xFFFFFFFFFFFFFFFFFFFFFFFFFFFFFFFFFFFFFFFFFFFFFFFFFFFFFFFF NOT AND CALLVALUE PUSH1 0x0 CALLDATASIZE PUSH1 0x40 MLOAD DUP1 DUP5 DUP2 MSTORE PUSH1 0x20 ADD DUP1 PUSH1 0x20 ADD DUP3 DUP2 SUB DUP3 MSTORE DUP5 DUP5 DUP3 DUP2 DUP2 MSTORE PUSH1 0x20 ADD SWAP3 POP DUP1 DUP3 DUP5 CALLDATACOPY DUP3 ADD SWAP2 POP POP SWAP5 POP POP POP POP POP PUSH1 0x40 MLOAD DUP1 SWAP2 SUB SWAP1 LOG4 PUSH2 0xBBD CALLER PUSH1 0x0 CALLDATALOAD PUSH32 0xFFFFFFFF00000000000000000000000000000000000000000000000000000000 AND PUSH2 0xDEF JUMP JUMPDEST ISZERO ISZERO PUSH2 0xC31 JUMPI PUSH1 0x40 MLOAD PUSH32 0x8C379A000000000000000000000000000000000000000000000000000000000 DUP2 MSTORE PUSH1 0x4 ADD DUP1 DUP1 PUSH1 0x20 ADD DUP3 DUP2 SUB DUP3 MSTORE PUSH1 0x14 DUP2 MSTORE PUSH1 0x20 ADD DUP1 PUSH32 0x64732D617574682D756E617574686F72697A6564000000000000000000000000 DUP2 MSTORE POP PUSH1 0x20 ADD SWAP2 POP POP PUSH1 0x40 MLOAD DUP1 SWAP2 SUB SWAP1 REVERT JUMPDEST DUP3 PUSH1 0x5 DUP2 SWAP1 SSTORE POP POP POP POP JUMP JUMPDEST PUSH1 0x0 DUP1 SWAP1 SLOAD SWAP1 PUSH2 0x100 EXP SWAP1 DIV PUSH20 0xFFFFFFFFFFFFFFFFFFFFFFFFFFFFFFFFFFFFFFFF AND DUP2 JUMP JUMPDEST PUSH1 0x6 SLOAD DUP2 JUMP JUMPDEST PUSH1 0x0 DUP1 PUSH1 0x2 DUP4 DUP2 ISZERO ISZERO PUSH2 0xC77 JUMPI INVALID JUMPDEST MOD EQ ISZERO PUSH2 0xC90 JUMPI PUSH12 0x33B2E3C9FD0803CE8000000 PUSH2 0xC92 JUMP JUMPDEST DUP3 JUMPDEST SWAP1 POP PUSH1 0x2 DUP3 DUP2 ISZERO ISZERO PUSH2 0xCA0 JUMPI INVALID JUMPDEST DIV SWAP2 POP JUMPDEST PUSH1 0x0 DUP3 EQ ISZERO ISZERO PUSH2 0xCF1 JUMPI PUSH2 0xCB8 DUP4 DUP5 PUSH2 0xCF7 JUMP JUMPDEST SWAP3 POP PUSH1 0x0 PUSH1 0x2 DUP4 DUP2 ISZERO ISZERO PUSH2 0xCC8 JUMPI INVALID JUMPDEST MOD EQ ISZERO ISZERO PUSH2 0xCDD JUMPI PUSH2 0xCDA DUP2 DUP5 PUSH2 0xCF7 JUMP JUMPDEST SWAP1 POP JUMPDEST PUSH1 0x2 DUP3 DUP2 ISZERO ISZERO PUSH2 0xCE9 JUMPI INVALID JUMPDEST DIV SWAP2 POP PUSH2 0xCA4 JUMP JUMPDEST SWAP3 SWAP2 POP POP JUMP JUMPDEST PUSH1 0x0 PUSH12 0x33B2E3C9FD0803CE8000000 PUSH2 0xD31 PUSH2 0xD13 DUP6 DUP6 PUSH2 0x1066 JUMP JUMPDEST PUSH1 0x2 PUSH12 0x33B2E3C9FD0803CE8000000 DUP2 ISZERO ISZERO PUSH2 0xD2B JUMPI INVALID JUMPDEST DIV PUSH2 0x1096 JUMP JUMPDEST DUP2 ISZERO ISZERO PUSH2 0xD3A JUMPI INVALID JUMPDEST DIV SWAP1 POP SWAP3 SWAP2 POP POP JUMP JUMPDEST PUSH1 0x0 PUSH12 0x33B2E3C9FD0803CE8000000 DUP3 LT ISZERO PUSH2 0xD82 JUMPI PUSH2 0xD6F PUSH12 0x33B2E3C9FD0803CE8000000 DUP4 PUSH2 0x10B2 JUMP JUMPDEST PUSH12 0x33B2E3C9FD0803CE8000000 SUB PUSH2 0xD92 JUMP JUMPDEST PUSH12 0x33B2E3C9FD0803CE8000000 DUP3 SUB JUMPDEST SWAP1 POP SWAP2 SWAP1 POP JUMP JUMPDEST PUSH1 0x0 DUP1 DUP3 PUSH1 0xF SIGNEXTEND SLT ISZERO PUSH2 0xDD5 JUMPI PUSH2 0xDD0 PUSH12 0x33B2E3C9FD0803CE8000000 DUP4 PUSH1 0x0 SUB PUSH1 0xF SIGNEXTEND PUSH12 0x33B2E3C9FD0803CE8000000 ADD PUSH2 0x10B2 JUMP JUMPDEST PUSH2 0xDE8 JUMP JUMPDEST PUSH12 0x33B2E3C9FD0803CE8000000 DUP3 PUSH1 0xF SIGNEXTEND ADD JUMPDEST SWAP1 POP SWAP2 SWAP1 POP JUMP JUMPDEST PUSH1 0x0 ADDRESS PUSH20 0xFFFFFFFFFFFFFFFFFFFFFFFFFFFFFFFFFFFFFFFF AND DUP4 PUSH20 0xFFFFFFFFFFFFFFFFFFFFFFFFFFFFFFFFFFFFFFFF AND EQ ISZERO PUSH2 0xE2E JUMPI PUSH1 0x1 SWAP1 POP PUSH2 0x1060 JUMP JUMPDEST PUSH1 0x1 PUSH1 0x0 SWAP1 SLOAD SWAP1 PUSH2 0x100 EXP SWAP1 DIV PUSH20 0xFFFFFFFFFFFFFFFFFFFFFFFFFFFFFFFFFFFFFFFF AND PUSH20 0xFFFFFFFFFFFFFFFFFFFFFFFFFFFFFFFFFFFFFFFF AND DUP4 PUSH20 0xFFFFFFFFFFFFFFFFFFFFFFFFFFFFFFFFFFFFFFFF AND EQ ISZERO PUSH2 0xE8D JUMPI PUSH1 0x1 SWAP1 POP PUSH2 0x1060 JUMP JUMPDEST PUSH1 0x0 PUSH20 0xFFFFFFFFFFFFFFFFFFFFFFFFFFFFFFFFFFFFFFFF AND PUSH1 0x0 DUP1 SWAP1 SLOAD SWAP1 PUSH2 0x100 EXP SWAP1 DIV PUSH20 0xFFFFFFFFFFFFFFFFFFFFFFFFFFFFFFFFFFFFFFFF AND PUSH20 0xFFFFFFFFFFFFFFFFFFFFFFFFFFFFFFFFFFFFFFFF AND EQ ISZERO PUSH2 0xEEC JUMPI PUSH1 0x0 SWAP1 POP PUSH2 0x1060 JUMP JUMPDEST PUSH1 0x0 DUP1 SWAP1 SLOAD SWAP1 PUSH2 0x100 EXP SWAP1 DIV PUSH20 0xFFFFFFFFFFFFFFFFFFFFFFFFFFFFFFFFFFFFFFFF AND PUSH20 0xFFFFFFFFFFFFFFFFFFFFFFFFFFFFFFFFFFFFFFFF AND PUSH4 0xB7009613 DUP5 ADDRESS DUP6 PUSH1 0x40 MLOAD DUP5 PUSH4 0xFFFFFFFF AND PUSH29 0x100000000000000000000000000000000000000000000000000000000 MUL DUP2 MSTORE PUSH1 0x4 ADD DUP1 DUP5 PUSH20 0xFFFFFFFFFFFFFFFFFFFFFFFFFFFFFFFFFFFFFFFF AND PUSH20 0xFFFFFFFFFFFFFFFFFFFFFFFFFFFFFFFFFFFFFFFF AND DUP2 MSTORE PUSH1 0x20 ADD DUP4 PUSH20 0xFFFFFFFFFFFFFFFFFFFFFFFFFFFFFFFFFFFFFFFF AND PUSH20 0xFFFFFFFFFFFFFFFFFFFFFFFFFFFFFFFFFFFFFFFF AND DUP2 MSTORE PUSH1 0x20 ADD DUP3 PUSH28 0xFFFFFFFFFFFFFFFFFFFFFFFFFFFFFFFFFFFFFFFFFFFFFFFFFFFFFFFF NOT AND PUSH28 0xFFFFFFFFFFFFFFFFFFFFFFFFFFFFFFFFFFFFFFFFFFFFFFFFFFFFFFFF NOT AND DUP2 MSTORE PUSH1 0x20 ADD SWAP4 POP POP POP POP PUSH1 0x20 PUSH1 0x40 MLOAD DUP1 DUP4 SUB DUP2 PUSH1 0x0 DUP8 DUP1 EXTCODESIZE ISZERO DUP1 ISZERO PUSH2 0x1022 JUMPI PUSH1 0x0 DUP1 REVERT JUMPDEST POP GAS CALL ISZERO DUP1 ISZERO PUSH2 0x1036 JUMPI RETURNDATASIZE PUSH1 0x0 DUP1 RETURNDATACOPY RETURNDATASIZE PUSH1 0x0 REVERT JUMPDEST POP POP POP POP PUSH1 0x40 MLOAD RETURNDATASIZE PUSH1 0x20 DUP2 LT ISZERO PUSH2 0x104C JUMPI PUSH1 0x0 DUP1 REVERT JUMPDEST DUP2 ADD SWAP1 DUP1 DUP1 MLOAD SWAP1 PUSH1 0x20 ADD SWAP1 SWAP3 SWAP2 SWAP1 POP POP POP SWAP1 POP JUMPDEST SWAP3 SWAP2 POP POP JUMP JUMPDEST PUSH1 0x0 DUP1 DUP3 EQ DUP1 PUSH2 0x1085 JUMPI POP DUP3 DUP3 DUP4 DUP6 MUL SWAP3 POP DUP3 DUP2 ISZERO ISZERO PUSH2 0x1082 JUMPI INVALID JUMPDEST DIV EQ JUMPDEST ISZERO ISZERO PUSH2 0x1090 JUMPI PUSH1 0x0 DUP1 REVERT JUMPDEST SWAP3 SWAP2 POP POP JUMP JUMPDEST PUSH1 0x0 DUP3 DUP3 DUP5 ADD SWAP2 POP DUP2 LT ISZERO ISZERO ISZERO PUSH2 0x10AC JUMPI PUSH1 0x0 DUP1 REVERT JUMPDEST SWAP3 SWAP2 POP POP JUMP JUMPDEST PUSH1 0x0 DUP2 PUSH2 0x10E0 PUSH2 0x10CE DUP6 PUSH12 0x33B2E3C9FD0803CE8000000 PUSH2 0x1066 JUMP JUMPDEST PUSH1 0x2 DUP6 DUP2 ISZERO ISZERO PUSH2 0x10DA JUMPI INVALID JUMPDEST DIV PUSH2 0x1096 JUMP JUMPDEST DUP2 ISZERO ISZERO PUSH2 0x10E9 JUMPI INVALID JUMPDEST DIV SWAP1 POP SWAP3 SWAP2 POP POP JUMP STOP LOG1 PUSH6 0x627A7A723058 KECCAK256 ADDRESS 0xba SWAP14 0xa5 PUSH28 0xED6CFCD886C2E33DB8ADD231A451CDDFEA4C6D9804D9FD2F7C0AE500 0x29 "
				},
				"gasEstimates": {
					"creation": {
						"codeDepositCost": "876400",
						"executionCost": "infinite",
						"totalCost": "infinite"
					},
					"external": {
						"authority()": "706",
						"era()": "245",
						"fix()": "614",
						"how()": "460",
						"mold(bytes32,uint256)": "infinite",
						"owner()": "618",
						"par()": "infinite",
						"prod()": "infinite",
						"setAuthority(address)": "infinite",
						"setOwner(address)": "infinite",
						"tau()": "680",
						"tell(uint256)": "infinite",
						"tune(uint256)": "infinite",
						"way()": "infinite"
					},
					"internal": {
						"inj(int128)": "433",
						"prj(uint256)": "411"
					}
				},
				"methodIdentifiers": {
					"authority()": "bf7e214f",
					"era()": "143e55e0",
					"fix()": "a551878e",
					"how()": "3a4a4233",
					"mold(bytes32,uint256)": "92b0d721",
					"owner()": "8da5cb5b",
					"par()": "495d32cb",
					"prod()": "0302c688",
					"setAuthority(address)": "7a9e5e4b",
					"setOwner(address)": "13af4035",
					"tau()": "cfc4af55",
					"tell(uint256)": "55deb8fc",
					"tune(uint256)": "becda0ea",
					"way()": "5d6542af"
				}
			},
			"userdoc": {
				"methods": {}
			}
		}
	}
}